{
	"data": {
		"bytecode": {
			"linkReferences": {},
			"object": "608060405234801561001057600080fd5b506135a8806100206000396000f3fe608060405234801561001057600080fd5b50600436106102f05760003560e01c80638980f11f1161019d578063cc1a378f116100e9578063df136d65116100a2578063ebe2b12b1161007c578063ebe2b12b1461059e578063f2fde38b146105a6578063f7013ef6146105b9578063fee2eae6146105cc576102f0565b8063df136d6514610586578063e0c18f701461058e578063e1ba95d214610596576102f0565b8063cc1a378f14610540578063cd3daf9d14610553578063ce08bf131461055b578063d1af0c7d14610563578063db08e09d1461056b578063dc6663c71461057e576102f0565b8063948de6ad11610156578063af00f4e211610130578063af00f4e21461050a578063b51f79021461051d578063c11f534414610530578063c8f33c9114610538576102f0565b8063948de6ad146104dc5780639e447fc6146104e4578063a694fc3a146104f7576102f0565b80638980f11f1461048b5780638b8763471461049e5780638da5cb5b146104b157806393b52be8146104b9578063941d9f65146104c15780639477eb1c146104d4576102f0565b8063399f54671161025c5780636f50f5071161021557806372f702f3116101ef57806372f702f3146104535780637b0a47ee1461046857806380faa57d1461047057806384955c8814610478576102f0565b80636f50f5071461042557806370a0823114610438578063715018a61461044b576102f0565b8063399f5467146103d45780633d18b912146103dc5780634f232d50146103e457806351e3fc17146103f7578063593557361461040a5780635c975abb1461041d576102f0565b80631beabcd2116102ae5780631beabcd21461035e5780631c1f78eb146103715780631e090f01146103795780632e1a7d4d1461039957806331ca208c146103ac578063386a9525146103cc576102f0565b80628cc262146102f55780630700037d1461031e5780630dda729914610331578063169d27ef1461033957806317b18c891461034357806318160ddd14610356575b600080fd5b610308610303366004612c0a565b6105d4565b6040516103159190613516565b60405180910390f35b61030861032c366004612c0a565b610654565b610308610666565b61034161066d565b005b610341610351366004612d02565b610704565b610308610ae6565b61030861036c366004612c0a565b610aec565b610308610b07565b61038c610387366004612c0a565b610b35565b6040516103159190612ddb565b6103416103a7366004612cd2565b610bdc565b6103bf6103ba366004612c0a565b610d68565b6040516103159190612e49565b610308610d7d565b6103bf610d83565b610341610d8c565b6103086103f2366004612cd2565b610ea8565b610341610405366004612cd2565b610ef6565b610308610418366004612c0a565b611205565b6103bf611220565b610341610433366004612d02565b611229565b610308610446366004612c0a565b611337565b610341611364565b61045b6113ed565b6040516103159190612d8a565b6103086113fc565b610308611402565b610308610486366004612c0a565b611410565b610341610499366004612c88565b61142b565b6103086104ac366004612c0a565b6114e0565b61045b6114f2565b610308611501565b6103416104cf366004612c0a565b6115b7565b61030861162d565b610308611633565b6103416104f2366004612cd2565b611639565b610341610505366004612cd2565b611700565b610341610518366004612d02565b6118cc565b61030861052b366004612c0a565b6119eb565b610308611a06565b610308611a8b565b61034161054e366004612cd2565b611a91565b610308611b4a565b610308611bab565b61045b611bb1565b610341610579366004612c0a565b611bc0565b61045b611c2f565b610308611c3e565b610308611c44565b610341611c4a565b610308611cab565b6103416105b4366004612c0a565b611cb1565b6103416105c7366004612c25565b611d72565b610341611ece565b6001600160a01b038116600090815260d8602090815260408083205460d790925282205461064c919061064690670de0b6b3a764000090610640906106219061061b611b4a565b90611ee2565b6001600160a01b038816600090815260dd602052604090205490611f0f565b90611f50565b90611f82565b90505b919050565b60d86020526000908152604090205481565b60da545b90565b6106756114f2565b6001600160a01b0316336001600160a01b0316148061069e575060d1546001600160a01b031633145b6106c35760405162461bcd60e51b81526004016106ba906130ff565b60405180910390fd5b4260cf81905560ce546106d69190611f82565b60cc556040517fb5cfe3ccd03847076864f081609024cbc2eb98c38da4d8b2cebe9479a9a1ef3790600090a1565b600260015414156107275760405162461bcd60e51b81526004016106ba90613448565b6002600155610734611220565b156107515760405162461bcd60e51b81526004016106ba9061314f565b3360cc5442111561076957610764611fa7565b610780565b610771611b4a565b60d05561077c611402565b60cf555b6001600160a01b038116156107c457610798816105d4565b6001600160a01b038216600090815260d8602090815260408083209390935560d05460d7909152919020555b600083116107e45760405162461bcd60e51b81526004016106ba90612ffb565b600082116108045760405162461bcd60e51b81526004016106ba9061347f565b33600090815260df602052604090205460ff16156108345760405162461bcd60e51b81526004016106ba90612e87565b60d454604080518082018252601c81527f4d696e696d756d207374616b652074696d65206e6f74206d657420280000000060208083019190915260d580548451601f60026000196101006001861615020190931692909204918201849004840281018401909552808552948710159461091d94928301828280156108f95780601f106108ce576101008083540402835291602001916108f9565b820191906000526020600020905b8154815290600101906020018083116108dc57829003601f168201915b5050505050604051806040016040528060018152602001602960f81b815250612121565b9061093b5760405162461bcd60e51b81526004016106ba9190612e54565b50600061094783610ea8565b9050600061095c620f42406106408785611f0f565b33600081815260de602052604090819020815160a0810190925292935090819061098b90428a60c08501612d44565b6040516020818303038152906040528051906020012081526020014281526020018781526020016109c58742611f8290919063ffffffff16565b815260209081018590528254600181810185556000948552938290208351600590920201908155908201519281019290925560408101516002830155606081015160038301556080015160049091015560cb54610a2d906001600160a01b0316333088612156565b60d954610a3a9086611f82565b60d95560da54610a4a9082611f82565b60da5533600090815260dc6020526040902054610a679086611f82565b33600090815260dc602090815260408083209390935560dd90522054610a8d9082611f82565b33600081815260dd6020526040908190209290925590517fa5ae833d0bb1dcd632d98a8b70973e8516812898e19bf27b70071ebc8dc52c0190610ad3908890889061351f565b60405180910390a2505060018055505050565b60d95490565b6001600160a01b0316600090815260dd602052604090205490565b6000610b30620f4240610640610b1b611501565b60ce5460cd54610b2a91611f0f565b90611f0f565b905090565b6001600160a01b038116600090815260de60209081526040808320805482518185028101850190935280835260609492939192909184015b82821015610bd157838290600052602060002090600502016040518060a00160405290816000820154815260200160018201548152602001600282015481526020016003820154815260200160048201548152505081526020019060010190610b6d565b505050509050919050565b60026001541415610bff5760405162461bcd60e51b81526004016106ba90613448565b600260015560cc543390421115610c1d57610c18611fa7565b610c34565b610c25611b4a565b60d055610c30611402565b60cf555b6001600160a01b03811615610c7857610c4c816105d4565b6001600160a01b038216600090815260d8602090815260408083209390935560d05460d7909152919020555b60008211610c985760405162461bcd60e51b81526004016106ba906131c7565b33600090815260db6020526040902054610cb29083611ee2565b33600090815260db602090815260408083209390935560dd90522054610cd89083611ee2565b33600090815260dd602052604090205560d954610cf59083611ee2565b60d95560da54610d059083611ee2565b60da5560cb54610d1f906001600160a01b0316338461223f565b336001600160a01b03167f7084f5476618d8e60b11ef0d7d3f06914655adb8793e28ff7f018d4c76d505d583604051610d589190613516565b60405180910390a2505060018055565b60df6020526000908152604090205460ff1681565b60ce5481565b60e05460ff1681565b60026001541415610daf5760405162461bcd60e51b81526004016106ba90613448565b600260015560cc543390421115610dcd57610dc8611fa7565b610de4565b610dd5611b4a565b60d055610de0611402565b60cf555b6001600160a01b03811615610e2857610dfc816105d4565b6001600160a01b038216600090815260d8602090815260408083209390935560d05460d7909152919020555b33600090815260d860205260409020548015610ea05733600081815260d8602052604081205560ca54610e67916001600160a01b03909116908361223f565b336001600160a01b03167fe2403640ba68fed3a2f88b7557551d1993f84b99bb10ff833f0cf8db0c5e048682604051610d589190613516565b505060018055565b600080610ee0610ed660d354610640610ecf620f424060d254611ee290919063ffffffff16565b8790611f0f565b620f424090611f82565b905060d25481111561064c575060d25492915050565b60026001541415610f195760405162461bcd60e51b81526004016106ba90613448565b600260015560cc543390421115610f3757610f32611fa7565b610f4e565b610f3f611b4a565b60d055610f4a611402565b60cf555b6001600160a01b03811615610f9257610f66816105d4565b6001600160a01b038216600090815260d8602090815260408083209390935560d05460d7909152919020555b610f9a612b2e565b600060408201819052805b33600090815260de60205260409020548110156110685733600090815260de60205260409020805482908110610fd757fe5b9060005260206000209060050201600001548514156110605733600090815260de6020526040902080548290811061100b57fe5b90600052602060002090600502016040518060a0016040529081600082015481526020016001820154815260200160028201548152602001600382015481526020016004820154815250509250809150611068565b600101610fa5565b50815184146110895760405162461bcd60e51b81526004016106ba906132b5565b8160600151421015806110a3575060e05460ff1615156001145b6110bf5760405162461bcd60e51b81526004016106ba90612f85565b604082015160808301516000906110e090620f424090610640908590611f0f565b905081156111f95733600090815260dc60205260409020546111029083611ee2565b33600090815260dc602090815260408083209390935560dd905220546111289082611ee2565b33600090815260dd602052604090205560d9546111459083611ee2565b60d95560da546111559082611ee2565b60da5533600090815260de6020526040902080548490811061117357fe5b6000918252602082206005909102018181556001810182905560028101829055600381018290556004015560cb546111b5906001600160a01b0316338461223f565b336001600160a01b03167f1f70bda8ea2447de035db87c33fe8f03f7514d49c394293e5cffdb4c34352cf683886040516111f092919061351f565b60405180910390a25b50506001805550505050565b6001600160a01b0316600090815260dc602052604090205490565b60655460ff1690565b6112316114f2565b6001600160a01b0316336001600160a01b0316148061125a575060d1546001600160a01b031633145b6112765760405162461bcd60e51b81526004016106ba906130ff565b60018210156112975760405162461bcd60e51b81526004016106ba90613268565b60018110156112b85760405162461bcd60e51b81526004016106ba9061336b565b60d282905560d68190556040517f687125c69e38f71137de9edade0dac562abc4f76d751bb1330f16c0ffd51fd58906112f2908390613516565b60405180910390a17fa1676084a9eea08c6f205b60799323b364a1bd8e10aba89f0fbd94cfbf68b5dd60d25460405161132b9190613516565b60405180910390a15050565b6001600160a01b038116600090815260dc602090815260408083205460db90925282205461064c91611f82565b61136c61229a565b6001600160a01b031661137d6114f2565b6001600160a01b0316146113a35760405162461bcd60e51b81526004016106ba90613233565b6097546040516000916001600160a01b0316907f8be0079c531659141344cd1fd0a4f28419497f9722a3daafe3b4186f6b6457e0908390a3609780546001600160a01b0319169055565b60cb546001600160a01b031681565b60cd5481565b6000610b304260cc5461229e565b6001600160a01b0316600090815260db602052604090205490565b6114336114f2565b6001600160a01b0316336001600160a01b0316148061145c575060d1546001600160a01b031633145b6114785760405162461bcd60e51b81526004016106ba906130ff565b60cb546001600160a01b038381169116141561149357600080fd5b6114af61149e6114f2565b6001600160a01b038416908361223f565b7f8c1256b8896378cd5044f80c202f9772b9d77dc85c8a6eb51967210b09bfaa28828260405161132b929190612dc2565b60d76020526000908152604090205481565b6097546001600160a01b031690565b6000806115b1610ed6620f4240610640611529620f424060d654611ee290919063ffffffff16565b60c95460408051632eb9771b60e01b81529051610b2a926001600160a01b031691632eb9771b916004808301926020929190829003018186803b15801561156f57600080fd5b505afa158015611583573d6000803e3d6000fd5b505050506040513d601f19601f820116820180604052508101906115a79190612cea565b620f424090611ee2565b91505090565b6115bf6114f2565b6001600160a01b0316336001600160a01b031614806115e8575060d1546001600160a01b031633145b6116045760405162461bcd60e51b81526004016106ba906130ff565b6001600160a01b0316600090815260df60205260409020805460ff19811660ff90911615179055565b60d45481565b60d25481565b6116416114f2565b6001600160a01b0316336001600160a01b0316148061166a575060d1546001600160a01b031633145b6116865760405162461bcd60e51b81526004016106ba906130ff565b600060cc5442111561169f5761169a611fa7565b6116b6565b6116a7611b4a565b60d0556116b2611402565b60cf555b6001600160a01b038116156116fa576116ce816105d4565b6001600160a01b038216600090815260d8602090815260408083209390935560d05460d7909152919020555b5060cd55565b600260015414156117235760405162461bcd60e51b81526004016106ba90613448565b6002600155611730611220565b1561174d5760405162461bcd60e51b81526004016106ba9061314f565b3360cc5442111561176557611760611fa7565b61177c565b61176d611b4a565b60d055611778611402565b60cf555b6001600160a01b038116156117c057611794816105d4565b6001600160a01b038216600090815260d8602090815260408083209390935560d05460d7909152919020555b600082116117e05760405162461bcd60e51b81526004016106ba90612ffb565b33600090815260df602052604090205460ff16156118105760405162461bcd60e51b81526004016106ba90612e87565b60cb54611828906001600160a01b0316333085612156565b60d9546118359083611f82565b60d95560da546118459083611f82565b60da5533600090815260db60205260409020546118629083611f82565b33600090815260db602090815260408083209390935560dd905220546118889083611f82565b33600081815260dd6020526040908190209290925590517f9e71bc8eea02a63969f509818f2dafb9254532904319f9dbda79b67bd34a5f3d90610d58908590613516565b6118d46114f2565b6001600160a01b0316336001600160a01b031614806118fd575060d1546001600160a01b031633145b6119195760405162461bcd60e51b81526004016106ba906130ff565b600182101561193a5760405162461bcd60e51b81526004016106ba90613315565b600181101561195b5760405162461bcd60e51b81526004016106ba906134c0565b60d382905560d481905561196e816122b4565b80516119829160d591602090910190612b60565b507f0e3e3fae480c6f92291358a02bc83f04ee1971d5488596bffda7929d57ab470f60d3546040516119b49190613516565b60405180910390a17f0534d208d75dfdbfacc1204745dd9b3c4c37e8cfc05eb5e8e3ae538aedb0a9fa8160405161132b9190613516565b6001600160a01b0316600090815260d8602052604090205490565b60cb546040805163313ce56760e01b815290516000926001600160a01b03169163313ce567916004808301926020929190829003018186803b158015611a4b57600080fd5b505afa158015611a5f573d6000803e3d6000fd5b505050506040513d601f19601f82011682018060405250810190611a839190612d23565b60ff16905090565b60cf5481565b611a996114f2565b6001600160a01b0316336001600160a01b03161480611ac2575060d1546001600160a01b031633145b611ade5760405162461bcd60e51b81526004016106ba906130ff565b60cc541580611aee575060cc5442115b611b0a5760405162461bcd60e51b81526004016106ba90612ebe565b60ce8190556040517ffb46ca5a5e06d4540d6387b930a7c978bce0db5f449ec6b3f5d07c6e1d44f2d390611b3f908390613516565b60405180910390a150565b600060d95460001415611b60575060d05461066a565b611ba4611b9b60da54610640620f4240610640670de0b6b3a7640000610b2a611b87611501565b610b2a60cd54610b2a60cf5461061b611402565b60d05490611f82565b905061066a565b60d65481565b60ca546001600160a01b031681565b611bc86114f2565b6001600160a01b0316336001600160a01b03161480611bf1575060d1546001600160a01b031633145b611c0d5760405162461bcd60e51b81526004016106ba906130ff565b60d180546001600160a01b0319166001600160a01b0392909216919091179055565b60d1546001600160a01b031681565b60d05481565b60d35481565b611c526114f2565b6001600160a01b0316336001600160a01b03161480611c7b575060d1546001600160a01b031633145b611c975760405162461bcd60e51b81526004016106ba906130ff565b60e0805460ff19811660ff90911615179055565b60cc5481565b611cb961229a565b6001600160a01b0316611cca6114f2565b6001600160a01b031614611cf05760405162461bcd60e51b81526004016106ba90613233565b6001600160a01b038116611d165760405162461bcd60e51b81526004016106ba90612fb5565b6097546040516001600160a01b038084169216907f8be0079c531659141344cd1fd0a4f28419497f9722a3daafe3b4186f6b6457e090600090a3609780546001600160a01b0319166001600160a01b0392909216919091179055565b600054610100900460ff1680611d8b5750611d8b61238c565b80611d99575060005460ff16155b611db55760405162461bcd60e51b81526004016106ba90613179565b600054610100900460ff16158015611de0576000805460ff1961ff0019909116610100171660011790555b611de861239d565b611df0612430565b611df86124ae565b60ca80546001600160a01b038089166001600160a01b03199283161790925560cb805488841690831617905560c980548784169083161790554260cf5560d180549286169290911691909117905560cd82905560e0805460ff1916905562093a8060ce819055600060d055622dc6c060d2556301e1338060d35560d4556040805180820190915260068082526503630343830360d41b6020909201918252611ea29160d591612b60565b50621e848060d655600060d981905560da558015611ec6576000805461ff00191690555b505050505050565b60cc54421115611ee057611ee0611fa7565b565b600082821115611f045760405162461bcd60e51b81526004016106ba90613091565b508082035b92915050565b600082611f1e57506000611f09565b82820282848281611f2b57fe5b0414611f495760405162461bcd60e51b81526004016106ba906131f2565b9392505050565b6000808211611f715760405162461bcd60e51b81526004016106ba906130c8565b818381611f7a57fe5b049392505050565b600082820183811015611f495760405162461bcd60e51b81526004016106ba90613023565b60cc544211611fc85760405162461bcd60e51b81526004016106ba9061305a565b600060ce54611fe260cc5442611ee290919063ffffffff16565b81611fe957fe5b60ca546040516370a0823160e01b81529290910492506000916001600160a01b03909116906370a0823190612022903090600401612d8a565b60206040518083038186803b15801561203a57600080fd5b505afa15801561204e573d6000803e3d6000fd5b505050506040513d601f19601f820116820180604052508101906120729190612cea565b90508061208e620f424061064085600101610b2a610b1b611501565b11156120ac5760405162461bcd60e51b81526004016106ba90612f41565b60ce546120cb906120c290610b2a856001611f82565b60cc5490611f82565b60cc556120d6611b4a565b60d0556120e1611402565b60cf5560cb546040517f6f2b3b3aaf1881d69a5d40565500f93ea73df36e7b6a29bf48b21479a9237fe99161132b916001600160a01b0390911690612d8a565b606061214e8484846040518060200160405280600081525060405180602001604052806000815250612524565b949350505050565b60006060856001600160a01b03166323b872dd86868660405160240161217e93929190612d9e565b6040516020818303038152906040529060e01b6020820180516001600160e01b0383818316178352505050506040516121b79190612d6e565b6000604051808303816000865af19150503d80600081146121f4576040519150601f19603f3d011682016040523d82523d6000602084013e6121f9565b606091505b50915091508180156122235750805115806122235750808060200190518101906122239190612cb2565b611ec65760405162461bcd60e51b81526004016106ba90613404565b6122958363a9059cbb60e01b848460405160240161225e929190612dc2565b60408051601f198184030181529190526020810180516001600160e01b03166001600160e01b031990931692909217909152612749565b505050565b3390565b60008183106122ad5781611f49565b5090919050565b6060816122d957506040805180820190915260018152600360fc1b602082015261064f565b8160005b81156122f157600101600a820491506122dd565b60608167ffffffffffffffff8111801561230a57600080fd5b506040519080825280601f01601f191660200182016040528015612335576020820181803683370190505b50905060001982015b851561238357600a860660300160f81b8282806001900393508151811061236157fe5b60200101906001600160f81b031916908160001a905350600a8604955061233e565b50949350505050565b6000612397306127d8565b15905090565b600054610100900460ff16806123b657506123b661238c565b806123c4575060005460ff16155b6123e05760405162461bcd60e51b81526004016106ba90613179565b600054610100900460ff1615801561240b576000805460ff1961ff0019909116610100171660011790555b6124136127de565b61241b61285f565b801561242d576000805461ff00191690555b50565b600054610100900460ff1680612449575061244961238c565b80612457575060005460ff16155b6124735760405162461bcd60e51b81526004016106ba90613179565b600054610100900460ff1615801561249e576000805460ff1961ff0019909116610100171660011790555b6124a66127de565b61241b612939565b600054610100900460ff16806124c757506124c761238c565b806124d5575060005460ff16155b6124f15760405162461bcd60e51b81526004016106ba90613179565b600054610100900460ff1615801561251c576000805460ff1961ff0019909116610100171660011790555b61241b6129c5565b805182518451865188516060948a948a948a948a948a948a94919092019092019091010167ffffffffffffffff8111801561255e57600080fd5b506040519080825280601f01601f191660200182016040528015612589576020820181803683370190505b509050806000805b88518110156125e2578881815181106125a657fe5b602001015160f81c60f81b8383806001019450815181106125c357fe5b60200101906001600160f81b031916908160001a905350600101612591565b5060005b8751811015612637578781815181106125fb57fe5b602001015160f81c60f81b83838060010194508151811061261857fe5b60200101906001600160f81b031916908160001a9053506001016125e6565b5060005b865181101561268c5786818151811061265057fe5b602001015160f81c60f81b83838060010194508151811061266d57fe5b60200101906001600160f81b031916908160001a90535060010161263b565b5060005b85518110156126e1578581815181106126a557fe5b602001015160f81c60f81b8383806001019450815181106126c257fe5b60200101906001600160f81b031916908160001a905350600101612690565b5060005b8451811015612736578481815181106126fa57fe5b602001015160f81c60f81b83838060010194508151811061271757fe5b60200101906001600160f81b031916908160001a9053506001016126e5565b50909d9c50505050505050505050505050565b606061279e826040518060400160405280602081526020017f5361666545524332303a206c6f772d6c6576656c2063616c6c206661696c6564815250856001600160a01b0316612a4b9092919063ffffffff16565b80519091501561229557808060200190518101906127bc9190612cb2565b6122955760405162461bcd60e51b81526004016106ba906133ba565b3b151590565b600054610100900460ff16806127f757506127f761238c565b80612805575060005460ff16155b6128215760405162461bcd60e51b81526004016106ba90613179565b600054610100900460ff1615801561241b576000805460ff1961ff001990911661010017166001179055801561242d576000805461ff001916905550565b600054610100900460ff1680612878575061287861238c565b80612886575060005460ff16155b6128a25760405162461bcd60e51b81526004016106ba90613179565b600054610100900460ff161580156128cd576000805460ff1961ff0019909116610100171660011790555b60006128d761229a565b609780546001600160a01b0319166001600160a01b038316908117909155604051919250906000907f8be0079c531659141344cd1fd0a4f28419497f9722a3daafe3b4186f6b6457e0908290a350801561242d576000805461ff001916905550565b600054610100900460ff1680612952575061295261238c565b80612960575060005460ff16155b61297c5760405162461bcd60e51b81526004016106ba90613179565b600054610100900460ff161580156129a7576000805460ff1961ff0019909116610100171660011790555b6065805460ff19169055801561242d576000805461ff001916905550565b600054610100900460ff16806129de57506129de61238c565b806129ec575060005460ff16155b612a085760405162461bcd60e51b81526004016106ba90613179565b600054610100900460ff16158015612a33576000805460ff1961ff0019909116610100171660011790555b60018055801561242d576000805461ff001916905550565b606061214e848460008585612a5f856127d8565b612a7b5760405162461bcd60e51b81526004016106ba906132de565b60006060866001600160a01b03168587604051612a989190612d6e565b60006040518083038185875af1925050503d8060008114612ad5576040519150601f19603f3d011682016040523d82523d6000602084013e612ada565b606091505b5091509150612aea828286612af5565b979650505050505050565b60608315612b04575081611f49565b825115612b145782518084602001fd5b8160405162461bcd60e51b81526004016106ba9190612e54565b6040518060a0016040528060008019168152602001600081526020016000815260200160008152602001600081525090565b828054600181600116156101000203166002900490600052602060002090601f016020900481019282601f10612ba157805160ff1916838001178555612bce565b82800160010185558215612bce579182015b82811115612bce578251825591602001919060010190612bb3565b50612bda929150612bde565b5090565b5b80821115612bda5760008155600101612bdf565b80356001600160a01b0381168114611f0957600080fd5b600060208284031215612c1b578081fd5b611f498383612bf3565b600080600080600060a08688031215612c3c578081fd5b8535612c478161355d565b94506020860135612c578161355d565b93506040860135612c678161355d565b92506060860135612c778161355d565b949793965091946080013592915050565b60008060408385031215612c9a578182fd5b612ca48484612bf3565b946020939093013593505050565b600060208284031215612cc3578081fd5b81518015158114611f49578182fd5b600060208284031215612ce3578081fd5b5035919050565b600060208284031215612cfb578081fd5b5051919050565b60008060408385031215612d14578182fd5b50508035926020909101359150565b600060208284031215612d34578081fd5b815160ff81168114611f49578182fd5b60609390931b6bffffffffffffffffffffffff191683526014830191909152603482015260540190565b60008251612d8081846020870161352d565b9190910192915050565b6001600160a01b0391909116815260200190565b6001600160a01b039384168152919092166020820152604081019190915260600190565b6001600160a01b03929092168252602082015260400190565b602080825282518282018190526000919060409081850190868401855b82811015612e3c5781518051855286810151878601528581015186860152606080820151908601526080908101519085015260a09093019290850190600101612df8565b5091979650505050505050565b901515815260200190565b6000602082528251806020840152612e7381604085016020870161352d565b601f01601f19169190910160400192915050565b6020808252601b908201527f6164647265737320686173206265656e20677265796c69737465640000000000604082015260600190565b60208082526058908201527f50726576696f7573207265776172647320706572696f64206d7573742062652060408201527f636f6d706c657465206265666f7265206368616e67696e67207468652064757260608201527f6174696f6e20666f7220746865206e657720706572696f640000000000000000608082015260a00190565b60208082526024908201527f4e6f7420656e6f75676820475220617661696c61626c6520666f7220726577616040820152637264732160e01b606082015260800190565b6020808252601690820152755374616b65206973207374696c6c206c6f636b65642160501b604082015260600190565b60208082526026908201527f4f776e61626c653a206e6577206f776e657220697320746865207a65726f206160408201526564647265737360d01b606082015260800190565b6020808252600e908201526d043616e6e6f74207374616b6520360941b604082015260600190565b6020808252601b908201527f536166654d6174683a206164646974696f6e206f766572666c6f770000000000604082015260600190565b6020808252601b908201527f506572696f6420686173206e6f74206578706972656420796574210000000000604082015260600190565b6020808252601e908201527f536166654d6174683a207375627472616374696f6e206f766572666c6f770000604082015260600190565b6020808252601a908201527f536166654d6174683a206469766973696f6e206279207a65726f000000000000604082015260600190565b60208082526030908201527f596f7520617265206e6f7420746865206f776e6572206f722074686520676f7660408201526f65726e616e63652074696d656c6f636b60801b606082015260800190565b60208082526010908201526f14185d5cd8589b194e881c185d5cd95960821b604082015260600190565b6020808252602e908201527f496e697469616c697a61626c653a20636f6e747261637420697320616c72656160408201526d191e481a5b9a5d1a585b1a5e995960921b606082015260800190565b602080825260119082015270043616e6e6f74207769746864726177203607c1b604082015260600190565b60208082526021908201527f536166654d6174683a206d756c7469706c69636174696f6e206f766572666c6f6040820152607760f81b606082015260800190565b6020808252818101527f4f776e61626c653a2063616c6c6572206973206e6f7420746865206f776e6572604082015260600190565b6020808252602d908201527f4d756c7469706c696572206d7573742062652067726561746572207468616e2060408201526c6f7220657175616c20746f203160981b606082015260800190565b6020808252600f908201526e14dd185ad9481b9bdd08199bdd5b99608a1b604082015260600190565b6020808252601d908201527f416464726573733a2063616c6c20746f206e6f6e2d636f6e7472616374000000604082015260600190565b60208082526036908201527f4d756c7469706c696572204d61782054696d65206d7573742062652067726561604082015275746572207468616e206f7220657175616c20746f203160501b606082015260800190565b6020808252602f908201527f4d617820435220426f6f7374206d75737420626520677265617465722074686160408201526e6e206f7220657175616c20746f203160881b606082015260800190565b6020808252602a908201527f5361666545524332303a204552433230206f7065726174696f6e20646964206e6040820152691bdd081cdd58d8d9595960b21b606082015260800190565b60208082526024908201527f5472616e7366657248656c7065723a205452414e534645525f46524f4d5f46416040820152631253115160e21b606082015260800190565b6020808252601f908201527f5265656e7472616e637947756172643a207265656e7472616e742063616c6c00604082015260600190565b60208082526021908201527f43616e6e6f74207761697420666f722061206e65676174697665206e756d62656040820152603960f91b606082015260800190565b60208082526036908201527f4d756c7469706c696572204d696e2054696d65206d7573742062652067726561604082015275746572207468616e206f7220657175616c20746f203160501b606082015260800190565b90815260200190565b918252602082015260400190565b60005b83811015613548578181015183820152602001613530565b83811115613557576000848401525b50505050565b6001600160a01b038116811461242d57600080fdfea26469706673582212200eb76206b61d4babc9c435b68a78d58dc39b902b1e0172f4d8ece59e5d2a2af864736f6c634300060c0033",
			"opcodes": "PUSH1 0x80 PUSH1 0x40 MSTORE CALLVALUE DUP1 ISZERO PUSH2 0x10 JUMPI PUSH1 0x0 DUP1 REVERT JUMPDEST POP PUSH2 0x35A8 DUP1 PUSH2 0x20 PUSH1 0x0 CODECOPY PUSH1 0x0 RETURN INVALID PUSH1 0x80 PUSH1 0x40 MSTORE CALLVALUE DUP1 ISZERO PUSH2 0x10 JUMPI PUSH1 0x0 DUP1 REVERT JUMPDEST POP PUSH1 0x4 CALLDATASIZE LT PUSH2 0x2F0 JUMPI PUSH1 0x0 CALLDATALOAD PUSH1 0xE0 SHR DUP1 PUSH4 0x8980F11F GT PUSH2 0x19D JUMPI DUP1 PUSH4 0xCC1A378F GT PUSH2 0xE9 JUMPI DUP1 PUSH4 0xDF136D65 GT PUSH2 0xA2 JUMPI DUP1 PUSH4 0xEBE2B12B GT PUSH2 0x7C JUMPI DUP1 PUSH4 0xEBE2B12B EQ PUSH2 0x59E JUMPI DUP1 PUSH4 0xF2FDE38B EQ PUSH2 0x5A6 JUMPI DUP1 PUSH4 0xF7013EF6 EQ PUSH2 0x5B9 JUMPI DUP1 PUSH4 0xFEE2EAE6 EQ PUSH2 0x5CC JUMPI PUSH2 0x2F0 JUMP JUMPDEST DUP1 PUSH4 0xDF136D65 EQ PUSH2 0x586 JUMPI DUP1 PUSH4 0xE0C18F70 EQ PUSH2 0x58E JUMPI DUP1 PUSH4 0xE1BA95D2 EQ PUSH2 0x596 JUMPI PUSH2 0x2F0 JUMP JUMPDEST DUP1 PUSH4 0xCC1A378F EQ PUSH2 0x540 JUMPI DUP1 PUSH4 0xCD3DAF9D EQ PUSH2 0x553 JUMPI DUP1 PUSH4 0xCE08BF13 EQ PUSH2 0x55B JUMPI DUP1 PUSH4 0xD1AF0C7D EQ PUSH2 0x563 JUMPI DUP1 PUSH4 0xDB08E09D EQ PUSH2 0x56B JUMPI DUP1 PUSH4 0xDC6663C7 EQ PUSH2 0x57E JUMPI PUSH2 0x2F0 JUMP JUMPDEST DUP1 PUSH4 0x948DE6AD GT PUSH2 0x156 JUMPI DUP1 PUSH4 0xAF00F4E2 GT PUSH2 0x130 JUMPI DUP1 PUSH4 0xAF00F4E2 EQ PUSH2 0x50A JUMPI DUP1 PUSH4 0xB51F7902 EQ PUSH2 0x51D JUMPI DUP1 PUSH4 0xC11F5344 EQ PUSH2 0x530 JUMPI DUP1 PUSH4 0xC8F33C91 EQ PUSH2 0x538 JUMPI PUSH2 0x2F0 JUMP JUMPDEST DUP1 PUSH4 0x948DE6AD EQ PUSH2 0x4DC JUMPI DUP1 PUSH4 0x9E447FC6 EQ PUSH2 0x4E4 JUMPI DUP1 PUSH4 0xA694FC3A EQ PUSH2 0x4F7 JUMPI PUSH2 0x2F0 JUMP JUMPDEST DUP1 PUSH4 0x8980F11F EQ PUSH2 0x48B JUMPI DUP1 PUSH4 0x8B876347 EQ PUSH2 0x49E JUMPI DUP1 PUSH4 0x8DA5CB5B EQ PUSH2 0x4B1 JUMPI DUP1 PUSH4 0x93B52BE8 EQ PUSH2 0x4B9 JUMPI DUP1 PUSH4 0x941D9F65 EQ PUSH2 0x4C1 JUMPI DUP1 PUSH4 0x9477EB1C EQ PUSH2 0x4D4 JUMPI PUSH2 0x2F0 JUMP JUMPDEST DUP1 PUSH4 0x399F5467 GT PUSH2 0x25C JUMPI DUP1 PUSH4 0x6F50F507 GT PUSH2 0x215 JUMPI DUP1 PUSH4 0x72F702F3 GT PUSH2 0x1EF JUMPI DUP1 PUSH4 0x72F702F3 EQ PUSH2 0x453 JUMPI DUP1 PUSH4 0x7B0A47EE EQ PUSH2 0x468 JUMPI DUP1 PUSH4 0x80FAA57D EQ PUSH2 0x470 JUMPI DUP1 PUSH4 0x84955C88 EQ PUSH2 0x478 JUMPI PUSH2 0x2F0 JUMP JUMPDEST DUP1 PUSH4 0x6F50F507 EQ PUSH2 0x425 JUMPI DUP1 PUSH4 0x70A08231 EQ PUSH2 0x438 JUMPI DUP1 PUSH4 0x715018A6 EQ PUSH2 0x44B JUMPI PUSH2 0x2F0 JUMP JUMPDEST DUP1 PUSH4 0x399F5467 EQ PUSH2 0x3D4 JUMPI DUP1 PUSH4 0x3D18B912 EQ PUSH2 0x3DC JUMPI DUP1 PUSH4 0x4F232D50 EQ PUSH2 0x3E4 JUMPI DUP1 PUSH4 0x51E3FC17 EQ PUSH2 0x3F7 JUMPI DUP1 PUSH4 0x59355736 EQ PUSH2 0x40A JUMPI DUP1 PUSH4 0x5C975ABB EQ PUSH2 0x41D JUMPI PUSH2 0x2F0 JUMP JUMPDEST DUP1 PUSH4 0x1BEABCD2 GT PUSH2 0x2AE JUMPI DUP1 PUSH4 0x1BEABCD2 EQ PUSH2 0x35E JUMPI DUP1 PUSH4 0x1C1F78EB EQ PUSH2 0x371 JUMPI DUP1 PUSH4 0x1E090F01 EQ PUSH2 0x379 JUMPI DUP1 PUSH4 0x2E1A7D4D EQ PUSH2 0x399 JUMPI DUP1 PUSH4 0x31CA208C EQ PUSH2 0x3AC JUMPI DUP1 PUSH4 0x386A9525 EQ PUSH2 0x3CC JUMPI PUSH2 0x2F0 JUMP JUMPDEST DUP1 PUSH3 0x8CC262 EQ PUSH2 0x2F5 JUMPI DUP1 PUSH4 0x700037D EQ PUSH2 0x31E JUMPI DUP1 PUSH4 0xDDA7299 EQ PUSH2 0x331 JUMPI DUP1 PUSH4 0x169D27EF EQ PUSH2 0x339 JUMPI DUP1 PUSH4 0x17B18C89 EQ PUSH2 0x343 JUMPI DUP1 PUSH4 0x18160DDD EQ PUSH2 0x356 JUMPI JUMPDEST PUSH1 0x0 DUP1 REVERT JUMPDEST PUSH2 0x308 PUSH2 0x303 CALLDATASIZE PUSH1 0x4 PUSH2 0x2C0A JUMP JUMPDEST PUSH2 0x5D4 JUMP JUMPDEST PUSH1 0x40 MLOAD PUSH2 0x315 SWAP2 SWAP1 PUSH2 0x3516 JUMP JUMPDEST PUSH1 0x40 MLOAD DUP1 SWAP2 SUB SWAP1 RETURN JUMPDEST PUSH2 0x308 PUSH2 0x32C CALLDATASIZE PUSH1 0x4 PUSH2 0x2C0A JUMP JUMPDEST PUSH2 0x654 JUMP JUMPDEST PUSH2 0x308 PUSH2 0x666 JUMP JUMPDEST PUSH2 0x341 PUSH2 0x66D JUMP JUMPDEST STOP JUMPDEST PUSH2 0x341 PUSH2 0x351 CALLDATASIZE PUSH1 0x4 PUSH2 0x2D02 JUMP JUMPDEST PUSH2 0x704 JUMP JUMPDEST PUSH2 0x308 PUSH2 0xAE6 JUMP JUMPDEST PUSH2 0x308 PUSH2 0x36C CALLDATASIZE PUSH1 0x4 PUSH2 0x2C0A JUMP JUMPDEST PUSH2 0xAEC JUMP JUMPDEST PUSH2 0x308 PUSH2 0xB07 JUMP JUMPDEST PUSH2 0x38C PUSH2 0x387 CALLDATASIZE PUSH1 0x4 PUSH2 0x2C0A JUMP JUMPDEST PUSH2 0xB35 JUMP JUMPDEST PUSH1 0x40 MLOAD PUSH2 0x315 SWAP2 SWAP1 PUSH2 0x2DDB JUMP JUMPDEST PUSH2 0x341 PUSH2 0x3A7 CALLDATASIZE PUSH1 0x4 PUSH2 0x2CD2 JUMP JUMPDEST PUSH2 0xBDC JUMP JUMPDEST PUSH2 0x3BF PUSH2 0x3BA CALLDATASIZE PUSH1 0x4 PUSH2 0x2C0A JUMP JUMPDEST PUSH2 0xD68 JUMP JUMPDEST PUSH1 0x40 MLOAD PUSH2 0x315 SWAP2 SWAP1 PUSH2 0x2E49 JUMP JUMPDEST PUSH2 0x308 PUSH2 0xD7D JUMP JUMPDEST PUSH2 0x3BF PUSH2 0xD83 JUMP JUMPDEST PUSH2 0x341 PUSH2 0xD8C JUMP JUMPDEST PUSH2 0x308 PUSH2 0x3F2 CALLDATASIZE PUSH1 0x4 PUSH2 0x2CD2 JUMP JUMPDEST PUSH2 0xEA8 JUMP JUMPDEST PUSH2 0x341 PUSH2 0x405 CALLDATASIZE PUSH1 0x4 PUSH2 0x2CD2 JUMP JUMPDEST PUSH2 0xEF6 JUMP JUMPDEST PUSH2 0x308 PUSH2 0x418 CALLDATASIZE PUSH1 0x4 PUSH2 0x2C0A JUMP JUMPDEST PUSH2 0x1205 JUMP JUMPDEST PUSH2 0x3BF PUSH2 0x1220 JUMP JUMPDEST PUSH2 0x341 PUSH2 0x433 CALLDATASIZE PUSH1 0x4 PUSH2 0x2D02 JUMP JUMPDEST PUSH2 0x1229 JUMP JUMPDEST PUSH2 0x308 PUSH2 0x446 CALLDATASIZE PUSH1 0x4 PUSH2 0x2C0A JUMP JUMPDEST PUSH2 0x1337 JUMP JUMPDEST PUSH2 0x341 PUSH2 0x1364 JUMP JUMPDEST PUSH2 0x45B PUSH2 0x13ED JUMP JUMPDEST PUSH1 0x40 MLOAD PUSH2 0x315 SWAP2 SWAP1 PUSH2 0x2D8A JUMP JUMPDEST PUSH2 0x308 PUSH2 0x13FC JUMP JUMPDEST PUSH2 0x308 PUSH2 0x1402 JUMP JUMPDEST PUSH2 0x308 PUSH2 0x486 CALLDATASIZE PUSH1 0x4 PUSH2 0x2C0A JUMP JUMPDEST PUSH2 0x1410 JUMP JUMPDEST PUSH2 0x341 PUSH2 0x499 CALLDATASIZE PUSH1 0x4 PUSH2 0x2C88 JUMP JUMPDEST PUSH2 0x142B JUMP JUMPDEST PUSH2 0x308 PUSH2 0x4AC CALLDATASIZE PUSH1 0x4 PUSH2 0x2C0A JUMP JUMPDEST PUSH2 0x14E0 JUMP JUMPDEST PUSH2 0x45B PUSH2 0x14F2 JUMP JUMPDEST PUSH2 0x308 PUSH2 0x1501 JUMP JUMPDEST PUSH2 0x341 PUSH2 0x4CF CALLDATASIZE PUSH1 0x4 PUSH2 0x2C0A JUMP JUMPDEST PUSH2 0x15B7 JUMP JUMPDEST PUSH2 0x308 PUSH2 0x162D JUMP JUMPDEST PUSH2 0x308 PUSH2 0x1633 JUMP JUMPDEST PUSH2 0x341 PUSH2 0x4F2 CALLDATASIZE PUSH1 0x4 PUSH2 0x2CD2 JUMP JUMPDEST PUSH2 0x1639 JUMP JUMPDEST PUSH2 0x341 PUSH2 0x505 CALLDATASIZE PUSH1 0x4 PUSH2 0x2CD2 JUMP JUMPDEST PUSH2 0x1700 JUMP JUMPDEST PUSH2 0x341 PUSH2 0x518 CALLDATASIZE PUSH1 0x4 PUSH2 0x2D02 JUMP JUMPDEST PUSH2 0x18CC JUMP JUMPDEST PUSH2 0x308 PUSH2 0x52B CALLDATASIZE PUSH1 0x4 PUSH2 0x2C0A JUMP JUMPDEST PUSH2 0x19EB JUMP JUMPDEST PUSH2 0x308 PUSH2 0x1A06 JUMP JUMPDEST PUSH2 0x308 PUSH2 0x1A8B JUMP JUMPDEST PUSH2 0x341 PUSH2 0x54E CALLDATASIZE PUSH1 0x4 PUSH2 0x2CD2 JUMP JUMPDEST PUSH2 0x1A91 JUMP JUMPDEST PUSH2 0x308 PUSH2 0x1B4A JUMP JUMPDEST PUSH2 0x308 PUSH2 0x1BAB JUMP JUMPDEST PUSH2 0x45B PUSH2 0x1BB1 JUMP JUMPDEST PUSH2 0x341 PUSH2 0x579 CALLDATASIZE PUSH1 0x4 PUSH2 0x2C0A JUMP JUMPDEST PUSH2 0x1BC0 JUMP JUMPDEST PUSH2 0x45B PUSH2 0x1C2F JUMP JUMPDEST PUSH2 0x308 PUSH2 0x1C3E JUMP JUMPDEST PUSH2 0x308 PUSH2 0x1C44 JUMP JUMPDEST PUSH2 0x341 PUSH2 0x1C4A JUMP JUMPDEST PUSH2 0x308 PUSH2 0x1CAB JUMP JUMPDEST PUSH2 0x341 PUSH2 0x5B4 CALLDATASIZE PUSH1 0x4 PUSH2 0x2C0A JUMP JUMPDEST PUSH2 0x1CB1 JUMP JUMPDEST PUSH2 0x341 PUSH2 0x5C7 CALLDATASIZE PUSH1 0x4 PUSH2 0x2C25 JUMP JUMPDEST PUSH2 0x1D72 JUMP JUMPDEST PUSH2 0x341 PUSH2 0x1ECE JUMP JUMPDEST PUSH1 0x1 PUSH1 0x1 PUSH1 0xA0 SHL SUB DUP2 AND PUSH1 0x0 SWAP1 DUP2 MSTORE PUSH1 0xD8 PUSH1 0x20 SWAP1 DUP2 MSTORE PUSH1 0x40 DUP1 DUP4 KECCAK256 SLOAD PUSH1 0xD7 SWAP1 SWAP3 MSTORE DUP3 KECCAK256 SLOAD PUSH2 0x64C SWAP2 SWAP1 PUSH2 0x646 SWAP1 PUSH8 0xDE0B6B3A7640000 SWAP1 PUSH2 0x640 SWAP1 PUSH2 0x621 SWAP1 PUSH2 0x61B PUSH2 0x1B4A JUMP JUMPDEST SWAP1 PUSH2 0x1EE2 JUMP JUMPDEST PUSH1 0x1 PUSH1 0x1 PUSH1 0xA0 SHL SUB DUP9 AND PUSH1 0x0 SWAP1 DUP2 MSTORE PUSH1 0xDD PUSH1 0x20 MSTORE PUSH1 0x40 SWAP1 KECCAK256 SLOAD SWAP1 PUSH2 0x1F0F JUMP JUMPDEST SWAP1 PUSH2 0x1F50 JUMP JUMPDEST SWAP1 PUSH2 0x1F82 JUMP JUMPDEST SWAP1 POP JUMPDEST SWAP2 SWAP1 POP JUMP JUMPDEST PUSH1 0xD8 PUSH1 0x20 MSTORE PUSH1 0x0 SWAP1 DUP2 MSTORE PUSH1 0x40 SWAP1 KECCAK256 SLOAD DUP2 JUMP JUMPDEST PUSH1 0xDA SLOAD JUMPDEST SWAP1 JUMP JUMPDEST PUSH2 0x675 PUSH2 0x14F2 JUMP JUMPDEST PUSH1 0x1 PUSH1 0x1 PUSH1 0xA0 SHL SUB AND CALLER PUSH1 0x1 PUSH1 0x1 PUSH1 0xA0 SHL SUB AND EQ DUP1 PUSH2 0x69E JUMPI POP PUSH1 0xD1 SLOAD PUSH1 0x1 PUSH1 0x1 PUSH1 0xA0 SHL SUB AND CALLER EQ JUMPDEST PUSH2 0x6C3 JUMPI PUSH1 0x40 MLOAD PUSH3 0x461BCD PUSH1 0xE5 SHL DUP2 MSTORE PUSH1 0x4 ADD PUSH2 0x6BA SWAP1 PUSH2 0x30FF JUMP JUMPDEST PUSH1 0x40 MLOAD DUP1 SWAP2 SUB SWAP1 REVERT JUMPDEST TIMESTAMP PUSH1 0xCF DUP2 SWAP1 SSTORE PUSH1 0xCE SLOAD PUSH2 0x6D6 SWAP2 SWAP1 PUSH2 0x1F82 JUMP JUMPDEST PUSH1 0xCC SSTORE PUSH1 0x40 MLOAD PUSH32 0xB5CFE3CCD03847076864F081609024CBC2EB98C38DA4D8B2CEBE9479A9A1EF37 SWAP1 PUSH1 0x0 SWAP1 LOG1 JUMP JUMPDEST PUSH1 0x2 PUSH1 0x1 SLOAD EQ ISZERO PUSH2 0x727 JUMPI PUSH1 0x40 MLOAD PUSH3 0x461BCD PUSH1 0xE5 SHL DUP2 MSTORE PUSH1 0x4 ADD PUSH2 0x6BA SWAP1 PUSH2 0x3448 JUMP JUMPDEST PUSH1 0x2 PUSH1 0x1 SSTORE PUSH2 0x734 PUSH2 0x1220 JUMP JUMPDEST ISZERO PUSH2 0x751 JUMPI PUSH1 0x40 MLOAD PUSH3 0x461BCD PUSH1 0xE5 SHL DUP2 MSTORE PUSH1 0x4 ADD PUSH2 0x6BA SWAP1 PUSH2 0x314F JUMP JUMPDEST CALLER PUSH1 0xCC SLOAD TIMESTAMP GT ISZERO PUSH2 0x769 JUMPI PUSH2 0x764 PUSH2 0x1FA7 JUMP JUMPDEST PUSH2 0x780 JUMP JUMPDEST PUSH2 0x771 PUSH2 0x1B4A JUMP JUMPDEST PUSH1 0xD0 SSTORE PUSH2 0x77C PUSH2 0x1402 JUMP JUMPDEST PUSH1 0xCF SSTORE JUMPDEST PUSH1 0x1 PUSH1 0x1 PUSH1 0xA0 SHL SUB DUP2 AND ISZERO PUSH2 0x7C4 JUMPI PUSH2 0x798 DUP2 PUSH2 0x5D4 JUMP JUMPDEST PUSH1 0x1 PUSH1 0x1 PUSH1 0xA0 SHL SUB DUP3 AND PUSH1 0x0 SWAP1 DUP2 MSTORE PUSH1 0xD8 PUSH1 0x20 SWAP1 DUP2 MSTORE PUSH1 0x40 DUP1 DUP4 KECCAK256 SWAP4 SWAP1 SWAP4 SSTORE PUSH1 0xD0 SLOAD PUSH1 0xD7 SWAP1 SWAP2 MSTORE SWAP2 SWAP1 KECCAK256 SSTORE JUMPDEST PUSH1 0x0 DUP4 GT PUSH2 0x7E4 JUMPI PUSH1 0x40 MLOAD PUSH3 0x461BCD PUSH1 0xE5 SHL DUP2 MSTORE PUSH1 0x4 ADD PUSH2 0x6BA SWAP1 PUSH2 0x2FFB JUMP JUMPDEST PUSH1 0x0 DUP3 GT PUSH2 0x804 JUMPI PUSH1 0x40 MLOAD PUSH3 0x461BCD PUSH1 0xE5 SHL DUP2 MSTORE PUSH1 0x4 ADD PUSH2 0x6BA SWAP1 PUSH2 0x347F JUMP JUMPDEST CALLER PUSH1 0x0 SWAP1 DUP2 MSTORE PUSH1 0xDF PUSH1 0x20 MSTORE PUSH1 0x40 SWAP1 KECCAK256 SLOAD PUSH1 0xFF AND ISZERO PUSH2 0x834 JUMPI PUSH1 0x40 MLOAD PUSH3 0x461BCD PUSH1 0xE5 SHL DUP2 MSTORE PUSH1 0x4 ADD PUSH2 0x6BA SWAP1 PUSH2 0x2E87 JUMP JUMPDEST PUSH1 0xD4 SLOAD PUSH1 0x40 DUP1 MLOAD DUP1 DUP3 ADD DUP3 MSTORE PUSH1 0x1C DUP2 MSTORE PUSH32 0x4D696E696D756D207374616B652074696D65206E6F74206D6574202800000000 PUSH1 0x20 DUP1 DUP4 ADD SWAP2 SWAP1 SWAP2 MSTORE PUSH1 0xD5 DUP1 SLOAD DUP5 MLOAD PUSH1 0x1F PUSH1 0x2 PUSH1 0x0 NOT PUSH2 0x100 PUSH1 0x1 DUP7 AND ISZERO MUL ADD SWAP1 SWAP4 AND SWAP3 SWAP1 SWAP3 DIV SWAP2 DUP3 ADD DUP5 SWAP1 DIV DUP5 MUL DUP2 ADD DUP5 ADD SWAP1 SWAP6 MSTORE DUP1 DUP6 MSTORE SWAP5 DUP8 LT ISZERO SWAP5 PUSH2 0x91D SWAP5 SWAP3 DUP4 ADD DUP3 DUP3 DUP1 ISZERO PUSH2 0x8F9 JUMPI DUP1 PUSH1 0x1F LT PUSH2 0x8CE JUMPI PUSH2 0x100 DUP1 DUP4 SLOAD DIV MUL DUP4 MSTORE SWAP2 PUSH1 0x20 ADD SWAP2 PUSH2 0x8F9 JUMP JUMPDEST DUP3 ADD SWAP2 SWAP1 PUSH1 0x0 MSTORE PUSH1 0x20 PUSH1 0x0 KECCAK256 SWAP1 JUMPDEST DUP2 SLOAD DUP2 MSTORE SWAP1 PUSH1 0x1 ADD SWAP1 PUSH1 0x20 ADD DUP1 DUP4 GT PUSH2 0x8DC JUMPI DUP3 SWAP1 SUB PUSH1 0x1F AND DUP3 ADD SWAP2 JUMPDEST POP POP POP POP POP PUSH1 0x40 MLOAD DUP1 PUSH1 0x40 ADD PUSH1 0x40 MSTORE DUP1 PUSH1 0x1 DUP2 MSTORE PUSH1 0x20 ADD PUSH1 0x29 PUSH1 0xF8 SHL DUP2 MSTORE POP PUSH2 0x2121 JUMP JUMPDEST SWAP1 PUSH2 0x93B JUMPI PUSH1 0x40 MLOAD PUSH3 0x461BCD PUSH1 0xE5 SHL DUP2 MSTORE PUSH1 0x4 ADD PUSH2 0x6BA SWAP2 SWAP1 PUSH2 0x2E54 JUMP JUMPDEST POP PUSH1 0x0 PUSH2 0x947 DUP4 PUSH2 0xEA8 JUMP JUMPDEST SWAP1 POP PUSH1 0x0 PUSH2 0x95C PUSH3 0xF4240 PUSH2 0x640 DUP8 DUP6 PUSH2 0x1F0F JUMP JUMPDEST CALLER PUSH1 0x0 DUP2 DUP2 MSTORE PUSH1 0xDE PUSH1 0x20 MSTORE PUSH1 0x40 SWAP1 DUP2 SWAP1 KECCAK256 DUP2 MLOAD PUSH1 0xA0 DUP2 ADD SWAP1 SWAP3 MSTORE SWAP3 SWAP4 POP SWAP1 DUP2 SWAP1 PUSH2 0x98B SWAP1 TIMESTAMP DUP11 PUSH1 0xC0 DUP6 ADD PUSH2 0x2D44 JUMP JUMPDEST PUSH1 0x40 MLOAD PUSH1 0x20 DUP2 DUP4 SUB SUB DUP2 MSTORE SWAP1 PUSH1 0x40 MSTORE DUP1 MLOAD SWAP1 PUSH1 0x20 ADD KECCAK256 DUP2 MSTORE PUSH1 0x20 ADD TIMESTAMP DUP2 MSTORE PUSH1 0x20 ADD DUP8 DUP2 MSTORE PUSH1 0x20 ADD PUSH2 0x9C5 DUP8 TIMESTAMP PUSH2 0x1F82 SWAP1 SWAP2 SWAP1 PUSH4 0xFFFFFFFF AND JUMP JUMPDEST DUP2 MSTORE PUSH1 0x20 SWAP1 DUP2 ADD DUP6 SWAP1 MSTORE DUP3 SLOAD PUSH1 0x1 DUP2 DUP2 ADD DUP6 SSTORE PUSH1 0x0 SWAP5 DUP6 MSTORE SWAP4 DUP3 SWAP1 KECCAK256 DUP4 MLOAD PUSH1 0x5 SWAP1 SWAP3 MUL ADD SWAP1 DUP2 SSTORE SWAP1 DUP3 ADD MLOAD SWAP3 DUP2 ADD SWAP3 SWAP1 SWAP3 SSTORE PUSH1 0x40 DUP2 ADD MLOAD PUSH1 0x2 DUP4 ADD SSTORE PUSH1 0x60 DUP2 ADD MLOAD PUSH1 0x3 DUP4 ADD SSTORE PUSH1 0x80 ADD MLOAD PUSH1 0x4 SWAP1 SWAP2 ADD SSTORE PUSH1 0xCB SLOAD PUSH2 0xA2D SWAP1 PUSH1 0x1 PUSH1 0x1 PUSH1 0xA0 SHL SUB AND CALLER ADDRESS DUP9 PUSH2 0x2156 JUMP JUMPDEST PUSH1 0xD9 SLOAD PUSH2 0xA3A SWAP1 DUP7 PUSH2 0x1F82 JUMP JUMPDEST PUSH1 0xD9 SSTORE PUSH1 0xDA SLOAD PUSH2 0xA4A SWAP1 DUP3 PUSH2 0x1F82 JUMP JUMPDEST PUSH1 0xDA SSTORE CALLER PUSH1 0x0 SWAP1 DUP2 MSTORE PUSH1 0xDC PUSH1 0x20 MSTORE PUSH1 0x40 SWAP1 KECCAK256 SLOAD PUSH2 0xA67 SWAP1 DUP7 PUSH2 0x1F82 JUMP JUMPDEST CALLER PUSH1 0x0 SWAP1 DUP2 MSTORE PUSH1 0xDC PUSH1 0x20 SWAP1 DUP2 MSTORE PUSH1 0x40 DUP1 DUP4 KECCAK256 SWAP4 SWAP1 SWAP4 SSTORE PUSH1 0xDD SWAP1 MSTORE KECCAK256 SLOAD PUSH2 0xA8D SWAP1 DUP3 PUSH2 0x1F82 JUMP JUMPDEST CALLER PUSH1 0x0 DUP2 DUP2 MSTORE PUSH1 0xDD PUSH1 0x20 MSTORE PUSH1 0x40 SWAP1 DUP2 SWAP1 KECCAK256 SWAP3 SWAP1 SWAP3 SSTORE SWAP1 MLOAD PUSH32 0xA5AE833D0BB1DCD632D98A8B70973E8516812898E19BF27B70071EBC8DC52C01 SWAP1 PUSH2 0xAD3 SWAP1 DUP9 SWAP1 DUP9 SWAP1 PUSH2 0x351F JUMP JUMPDEST PUSH1 0x40 MLOAD DUP1 SWAP2 SUB SWAP1 LOG2 POP POP PUSH1 0x1 DUP1 SSTORE POP POP POP JUMP JUMPDEST PUSH1 0xD9 SLOAD SWAP1 JUMP JUMPDEST PUSH1 0x1 PUSH1 0x1 PUSH1 0xA0 SHL SUB AND PUSH1 0x0 SWAP1 DUP2 MSTORE PUSH1 0xDD PUSH1 0x20 MSTORE PUSH1 0x40 SWAP1 KECCAK256 SLOAD SWAP1 JUMP JUMPDEST PUSH1 0x0 PUSH2 0xB30 PUSH3 0xF4240 PUSH2 0x640 PUSH2 0xB1B PUSH2 0x1501 JUMP JUMPDEST PUSH1 0xCE SLOAD PUSH1 0xCD SLOAD PUSH2 0xB2A SWAP2 PUSH2 0x1F0F JUMP JUMPDEST SWAP1 PUSH2 0x1F0F JUMP JUMPDEST SWAP1 POP SWAP1 JUMP JUMPDEST PUSH1 0x1 PUSH1 0x1 PUSH1 0xA0 SHL SUB DUP2 AND PUSH1 0x0 SWAP1 DUP2 MSTORE PUSH1 0xDE PUSH1 0x20 SWAP1 DUP2 MSTORE PUSH1 0x40 DUP1 DUP4 KECCAK256 DUP1 SLOAD DUP3 MLOAD DUP2 DUP6 MUL DUP2 ADD DUP6 ADD SWAP1 SWAP4 MSTORE DUP1 DUP4 MSTORE PUSH1 0x60 SWAP5 SWAP3 SWAP4 SWAP2 SWAP3 SWAP1 SWAP2 DUP5 ADD JUMPDEST DUP3 DUP3 LT ISZERO PUSH2 0xBD1 JUMPI DUP4 DUP3 SWAP1 PUSH1 0x0 MSTORE PUSH1 0x20 PUSH1 0x0 KECCAK256 SWAP1 PUSH1 0x5 MUL ADD PUSH1 0x40 MLOAD DUP1 PUSH1 0xA0 ADD PUSH1 0x40 MSTORE SWAP1 DUP2 PUSH1 0x0 DUP3 ADD SLOAD DUP2 MSTORE PUSH1 0x20 ADD PUSH1 0x1 DUP3 ADD SLOAD DUP2 MSTORE PUSH1 0x20 ADD PUSH1 0x2 DUP3 ADD SLOAD DUP2 MSTORE PUSH1 0x20 ADD PUSH1 0x3 DUP3 ADD SLOAD DUP2 MSTORE PUSH1 0x20 ADD PUSH1 0x4 DUP3 ADD SLOAD DUP2 MSTORE POP POP DUP2 MSTORE PUSH1 0x20 ADD SWAP1 PUSH1 0x1 ADD SWAP1 PUSH2 0xB6D JUMP JUMPDEST POP POP POP POP SWAP1 POP SWAP2 SWAP1 POP JUMP JUMPDEST PUSH1 0x2 PUSH1 0x1 SLOAD EQ ISZERO PUSH2 0xBFF JUMPI PUSH1 0x40 MLOAD PUSH3 0x461BCD PUSH1 0xE5 SHL DUP2 MSTORE PUSH1 0x4 ADD PUSH2 0x6BA SWAP1 PUSH2 0x3448 JUMP JUMPDEST PUSH1 0x2 PUSH1 0x1 SSTORE PUSH1 0xCC SLOAD CALLER SWAP1 TIMESTAMP GT ISZERO PUSH2 0xC1D JUMPI PUSH2 0xC18 PUSH2 0x1FA7 JUMP JUMPDEST PUSH2 0xC34 JUMP JUMPDEST PUSH2 0xC25 PUSH2 0x1B4A JUMP JUMPDEST PUSH1 0xD0 SSTORE PUSH2 0xC30 PUSH2 0x1402 JUMP JUMPDEST PUSH1 0xCF SSTORE JUMPDEST PUSH1 0x1 PUSH1 0x1 PUSH1 0xA0 SHL SUB DUP2 AND ISZERO PUSH2 0xC78 JUMPI PUSH2 0xC4C DUP2 PUSH2 0x5D4 JUMP JUMPDEST PUSH1 0x1 PUSH1 0x1 PUSH1 0xA0 SHL SUB DUP3 AND PUSH1 0x0 SWAP1 DUP2 MSTORE PUSH1 0xD8 PUSH1 0x20 SWAP1 DUP2 MSTORE PUSH1 0x40 DUP1 DUP4 KECCAK256 SWAP4 SWAP1 SWAP4 SSTORE PUSH1 0xD0 SLOAD PUSH1 0xD7 SWAP1 SWAP2 MSTORE SWAP2 SWAP1 KECCAK256 SSTORE JUMPDEST PUSH1 0x0 DUP3 GT PUSH2 0xC98 JUMPI PUSH1 0x40 MLOAD PUSH3 0x461BCD PUSH1 0xE5 SHL DUP2 MSTORE PUSH1 0x4 ADD PUSH2 0x6BA SWAP1 PUSH2 0x31C7 JUMP JUMPDEST CALLER PUSH1 0x0 SWAP1 DUP2 MSTORE PUSH1 0xDB PUSH1 0x20 MSTORE PUSH1 0x40 SWAP1 KECCAK256 SLOAD PUSH2 0xCB2 SWAP1 DUP4 PUSH2 0x1EE2 JUMP JUMPDEST CALLER PUSH1 0x0 SWAP1 DUP2 MSTORE PUSH1 0xDB PUSH1 0x20 SWAP1 DUP2 MSTORE PUSH1 0x40 DUP1 DUP4 KECCAK256 SWAP4 SWAP1 SWAP4 SSTORE PUSH1 0xDD SWAP1 MSTORE KECCAK256 SLOAD PUSH2 0xCD8 SWAP1 DUP4 PUSH2 0x1EE2 JUMP JUMPDEST CALLER PUSH1 0x0 SWAP1 DUP2 MSTORE PUSH1 0xDD PUSH1 0x20 MSTORE PUSH1 0x40 SWAP1 KECCAK256 SSTORE PUSH1 0xD9 SLOAD PUSH2 0xCF5 SWAP1 DUP4 PUSH2 0x1EE2 JUMP JUMPDEST PUSH1 0xD9 SSTORE PUSH1 0xDA SLOAD PUSH2 0xD05 SWAP1 DUP4 PUSH2 0x1EE2 JUMP JUMPDEST PUSH1 0xDA SSTORE PUSH1 0xCB SLOAD PUSH2 0xD1F SWAP1 PUSH1 0x1 PUSH1 0x1 PUSH1 0xA0 SHL SUB AND CALLER DUP5 PUSH2 0x223F JUMP JUMPDEST CALLER PUSH1 0x1 PUSH1 0x1 PUSH1 0xA0 SHL SUB AND PUSH32 0x7084F5476618D8E60B11EF0D7D3F06914655ADB8793E28FF7F018D4C76D505D5 DUP4 PUSH1 0x40 MLOAD PUSH2 0xD58 SWAP2 SWAP1 PUSH2 0x3516 JUMP JUMPDEST PUSH1 0x40 MLOAD DUP1 SWAP2 SUB SWAP1 LOG2 POP POP PUSH1 0x1 DUP1 SSTORE JUMP JUMPDEST PUSH1 0xDF PUSH1 0x20 MSTORE PUSH1 0x0 SWAP1 DUP2 MSTORE PUSH1 0x40 SWAP1 KECCAK256 SLOAD PUSH1 0xFF AND DUP2 JUMP JUMPDEST PUSH1 0xCE SLOAD DUP2 JUMP JUMPDEST PUSH1 0xE0 SLOAD PUSH1 0xFF AND DUP2 JUMP JUMPDEST PUSH1 0x2 PUSH1 0x1 SLOAD EQ ISZERO PUSH2 0xDAF JUMPI PUSH1 0x40 MLOAD PUSH3 0x461BCD PUSH1 0xE5 SHL DUP2 MSTORE PUSH1 0x4 ADD PUSH2 0x6BA SWAP1 PUSH2 0x3448 JUMP JUMPDEST PUSH1 0x2 PUSH1 0x1 SSTORE PUSH1 0xCC SLOAD CALLER SWAP1 TIMESTAMP GT ISZERO PUSH2 0xDCD JUMPI PUSH2 0xDC8 PUSH2 0x1FA7 JUMP JUMPDEST PUSH2 0xDE4 JUMP JUMPDEST PUSH2 0xDD5 PUSH2 0x1B4A JUMP JUMPDEST PUSH1 0xD0 SSTORE PUSH2 0xDE0 PUSH2 0x1402 JUMP JUMPDEST PUSH1 0xCF SSTORE JUMPDEST PUSH1 0x1 PUSH1 0x1 PUSH1 0xA0 SHL SUB DUP2 AND ISZERO PUSH2 0xE28 JUMPI PUSH2 0xDFC DUP2 PUSH2 0x5D4 JUMP JUMPDEST PUSH1 0x1 PUSH1 0x1 PUSH1 0xA0 SHL SUB DUP3 AND PUSH1 0x0 SWAP1 DUP2 MSTORE PUSH1 0xD8 PUSH1 0x20 SWAP1 DUP2 MSTORE PUSH1 0x40 DUP1 DUP4 KECCAK256 SWAP4 SWAP1 SWAP4 SSTORE PUSH1 0xD0 SLOAD PUSH1 0xD7 SWAP1 SWAP2 MSTORE SWAP2 SWAP1 KECCAK256 SSTORE JUMPDEST CALLER PUSH1 0x0 SWAP1 DUP2 MSTORE PUSH1 0xD8 PUSH1 0x20 MSTORE PUSH1 0x40 SWAP1 KECCAK256 SLOAD DUP1 ISZERO PUSH2 0xEA0 JUMPI CALLER PUSH1 0x0 DUP2 DUP2 MSTORE PUSH1 0xD8 PUSH1 0x20 MSTORE PUSH1 0x40 DUP2 KECCAK256 SSTORE PUSH1 0xCA SLOAD PUSH2 0xE67 SWAP2 PUSH1 0x1 PUSH1 0x1 PUSH1 0xA0 SHL SUB SWAP1 SWAP2 AND SWAP1 DUP4 PUSH2 0x223F JUMP JUMPDEST CALLER PUSH1 0x1 PUSH1 0x1 PUSH1 0xA0 SHL SUB AND PUSH32 0xE2403640BA68FED3A2F88B7557551D1993F84B99BB10FF833F0CF8DB0C5E0486 DUP3 PUSH1 0x40 MLOAD PUSH2 0xD58 SWAP2 SWAP1 PUSH2 0x3516 JUMP JUMPDEST POP POP PUSH1 0x1 DUP1 SSTORE JUMP JUMPDEST PUSH1 0x0 DUP1 PUSH2 0xEE0 PUSH2 0xED6 PUSH1 0xD3 SLOAD PUSH2 0x640 PUSH2 0xECF PUSH3 0xF4240 PUSH1 0xD2 SLOAD PUSH2 0x1EE2 SWAP1 SWAP2 SWAP1 PUSH4 0xFFFFFFFF AND JUMP JUMPDEST DUP8 SWAP1 PUSH2 0x1F0F JUMP JUMPDEST PUSH3 0xF4240 SWAP1 PUSH2 0x1F82 JUMP JUMPDEST SWAP1 POP PUSH1 0xD2 SLOAD DUP2 GT ISZERO PUSH2 0x64C JUMPI POP PUSH1 0xD2 SLOAD SWAP3 SWAP2 POP POP JUMP JUMPDEST PUSH1 0x2 PUSH1 0x1 SLOAD EQ ISZERO PUSH2 0xF19 JUMPI PUSH1 0x40 MLOAD PUSH3 0x461BCD PUSH1 0xE5 SHL DUP2 MSTORE PUSH1 0x4 ADD PUSH2 0x6BA SWAP1 PUSH2 0x3448 JUMP JUMPDEST PUSH1 0x2 PUSH1 0x1 SSTORE PUSH1 0xCC SLOAD CALLER SWAP1 TIMESTAMP GT ISZERO PUSH2 0xF37 JUMPI PUSH2 0xF32 PUSH2 0x1FA7 JUMP JUMPDEST PUSH2 0xF4E JUMP JUMPDEST PUSH2 0xF3F PUSH2 0x1B4A JUMP JUMPDEST PUSH1 0xD0 SSTORE PUSH2 0xF4A PUSH2 0x1402 JUMP JUMPDEST PUSH1 0xCF SSTORE JUMPDEST PUSH1 0x1 PUSH1 0x1 PUSH1 0xA0 SHL SUB DUP2 AND ISZERO PUSH2 0xF92 JUMPI PUSH2 0xF66 DUP2 PUSH2 0x5D4 JUMP JUMPDEST PUSH1 0x1 PUSH1 0x1 PUSH1 0xA0 SHL SUB DUP3 AND PUSH1 0x0 SWAP1 DUP2 MSTORE PUSH1 0xD8 PUSH1 0x20 SWAP1 DUP2 MSTORE PUSH1 0x40 DUP1 DUP4 KECCAK256 SWAP4 SWAP1 SWAP4 SSTORE PUSH1 0xD0 SLOAD PUSH1 0xD7 SWAP1 SWAP2 MSTORE SWAP2 SWAP1 KECCAK256 SSTORE JUMPDEST PUSH2 0xF9A PUSH2 0x2B2E JUMP JUMPDEST PUSH1 0x0 PUSH1 0x40 DUP3 ADD DUP2 SWAP1 MSTORE DUP1 JUMPDEST CALLER PUSH1 0x0 SWAP1 DUP2 MSTORE PUSH1 0xDE PUSH1 0x20 MSTORE PUSH1 0x40 SWAP1 KECCAK256 SLOAD DUP2 LT ISZERO PUSH2 0x1068 JUMPI CALLER PUSH1 0x0 SWAP1 DUP2 MSTORE PUSH1 0xDE PUSH1 0x20 MSTORE PUSH1 0x40 SWAP1 KECCAK256 DUP1 SLOAD DUP3 SWAP1 DUP2 LT PUSH2 0xFD7 JUMPI INVALID JUMPDEST SWAP1 PUSH1 0x0 MSTORE PUSH1 0x20 PUSH1 0x0 KECCAK256 SWAP1 PUSH1 0x5 MUL ADD PUSH1 0x0 ADD SLOAD DUP6 EQ ISZERO PUSH2 0x1060 JUMPI CALLER PUSH1 0x0 SWAP1 DUP2 MSTORE PUSH1 0xDE PUSH1 0x20 MSTORE PUSH1 0x40 SWAP1 KECCAK256 DUP1 SLOAD DUP3 SWAP1 DUP2 LT PUSH2 0x100B JUMPI INVALID JUMPDEST SWAP1 PUSH1 0x0 MSTORE PUSH1 0x20 PUSH1 0x0 KECCAK256 SWAP1 PUSH1 0x5 MUL ADD PUSH1 0x40 MLOAD DUP1 PUSH1 0xA0 ADD PUSH1 0x40 MSTORE SWAP1 DUP2 PUSH1 0x0 DUP3 ADD SLOAD DUP2 MSTORE PUSH1 0x20 ADD PUSH1 0x1 DUP3 ADD SLOAD DUP2 MSTORE PUSH1 0x20 ADD PUSH1 0x2 DUP3 ADD SLOAD DUP2 MSTORE PUSH1 0x20 ADD PUSH1 0x3 DUP3 ADD SLOAD DUP2 MSTORE PUSH1 0x20 ADD PUSH1 0x4 DUP3 ADD SLOAD DUP2 MSTORE POP POP SWAP3 POP DUP1 SWAP2 POP PUSH2 0x1068 JUMP JUMPDEST PUSH1 0x1 ADD PUSH2 0xFA5 JUMP JUMPDEST POP DUP2 MLOAD DUP5 EQ PUSH2 0x1089 JUMPI PUSH1 0x40 MLOAD PUSH3 0x461BCD PUSH1 0xE5 SHL DUP2 MSTORE PUSH1 0x4 ADD PUSH2 0x6BA SWAP1 PUSH2 0x32B5 JUMP JUMPDEST DUP2 PUSH1 0x60 ADD MLOAD TIMESTAMP LT ISZERO DUP1 PUSH2 0x10A3 JUMPI POP PUSH1 0xE0 SLOAD PUSH1 0xFF AND ISZERO ISZERO PUSH1 0x1 EQ JUMPDEST PUSH2 0x10BF JUMPI PUSH1 0x40 MLOAD PUSH3 0x461BCD PUSH1 0xE5 SHL DUP2 MSTORE PUSH1 0x4 ADD PUSH2 0x6BA SWAP1 PUSH2 0x2F85 JUMP JUMPDEST PUSH1 0x40 DUP3 ADD MLOAD PUSH1 0x80 DUP4 ADD MLOAD PUSH1 0x0 SWAP1 PUSH2 0x10E0 SWAP1 PUSH3 0xF4240 SWAP1 PUSH2 0x640 SWAP1 DUP6 SWAP1 PUSH2 0x1F0F JUMP JUMPDEST SWAP1 POP DUP2 ISZERO PUSH2 0x11F9 JUMPI CALLER PUSH1 0x0 SWAP1 DUP2 MSTORE PUSH1 0xDC PUSH1 0x20 MSTORE PUSH1 0x40 SWAP1 KECCAK256 SLOAD PUSH2 0x1102 SWAP1 DUP4 PUSH2 0x1EE2 JUMP JUMPDEST CALLER PUSH1 0x0 SWAP1 DUP2 MSTORE PUSH1 0xDC PUSH1 0x20 SWAP1 DUP2 MSTORE PUSH1 0x40 DUP1 DUP4 KECCAK256 SWAP4 SWAP1 SWAP4 SSTORE PUSH1 0xDD SWAP1 MSTORE KECCAK256 SLOAD PUSH2 0x1128 SWAP1 DUP3 PUSH2 0x1EE2 JUMP JUMPDEST CALLER PUSH1 0x0 SWAP1 DUP2 MSTORE PUSH1 0xDD PUSH1 0x20 MSTORE PUSH1 0x40 SWAP1 KECCAK256 SSTORE PUSH1 0xD9 SLOAD PUSH2 0x1145 SWAP1 DUP4 PUSH2 0x1EE2 JUMP JUMPDEST PUSH1 0xD9 SSTORE PUSH1 0xDA SLOAD PUSH2 0x1155 SWAP1 DUP3 PUSH2 0x1EE2 JUMP JUMPDEST PUSH1 0xDA SSTORE CALLER PUSH1 0x0 SWAP1 DUP2 MSTORE PUSH1 0xDE PUSH1 0x20 MSTORE PUSH1 0x40 SWAP1 KECCAK256 DUP1 SLOAD DUP5 SWAP1 DUP2 LT PUSH2 0x1173 JUMPI INVALID JUMPDEST PUSH1 0x0 SWAP2 DUP3 MSTORE PUSH1 0x20 DUP3 KECCAK256 PUSH1 0x5 SWAP1 SWAP2 MUL ADD DUP2 DUP2 SSTORE PUSH1 0x1 DUP2 ADD DUP3 SWAP1 SSTORE PUSH1 0x2 DUP2 ADD DUP3 SWAP1 SSTORE PUSH1 0x3 DUP2 ADD DUP3 SWAP1 SSTORE PUSH1 0x4 ADD SSTORE PUSH1 0xCB SLOAD PUSH2 0x11B5 SWAP1 PUSH1 0x1 PUSH1 0x1 PUSH1 0xA0 SHL SUB AND CALLER DUP5 PUSH2 0x223F JUMP JUMPDEST CALLER PUSH1 0x1 PUSH1 0x1 PUSH1 0xA0 SHL SUB AND PUSH32 0x1F70BDA8EA2447DE035DB87C33FE8F03F7514D49C394293E5CFFDB4C34352CF6 DUP4 DUP9 PUSH1 0x40 MLOAD PUSH2 0x11F0 SWAP3 SWAP2 SWAP1 PUSH2 0x351F JUMP JUMPDEST PUSH1 0x40 MLOAD DUP1 SWAP2 SUB SWAP1 LOG2 JUMPDEST POP POP PUSH1 0x1 DUP1 SSTORE POP POP POP POP JUMP JUMPDEST PUSH1 0x1 PUSH1 0x1 PUSH1 0xA0 SHL SUB AND PUSH1 0x0 SWAP1 DUP2 MSTORE PUSH1 0xDC PUSH1 0x20 MSTORE PUSH1 0x40 SWAP1 KECCAK256 SLOAD SWAP1 JUMP JUMPDEST PUSH1 0x65 SLOAD PUSH1 0xFF AND SWAP1 JUMP JUMPDEST PUSH2 0x1231 PUSH2 0x14F2 JUMP JUMPDEST PUSH1 0x1 PUSH1 0x1 PUSH1 0xA0 SHL SUB AND CALLER PUSH1 0x1 PUSH1 0x1 PUSH1 0xA0 SHL SUB AND EQ DUP1 PUSH2 0x125A JUMPI POP PUSH1 0xD1 SLOAD PUSH1 0x1 PUSH1 0x1 PUSH1 0xA0 SHL SUB AND CALLER EQ JUMPDEST PUSH2 0x1276 JUMPI PUSH1 0x40 MLOAD PUSH3 0x461BCD PUSH1 0xE5 SHL DUP2 MSTORE PUSH1 0x4 ADD PUSH2 0x6BA SWAP1 PUSH2 0x30FF JUMP JUMPDEST PUSH1 0x1 DUP3 LT ISZERO PUSH2 0x1297 JUMPI PUSH1 0x40 MLOAD PUSH3 0x461BCD PUSH1 0xE5 SHL DUP2 MSTORE PUSH1 0x4 ADD PUSH2 0x6BA SWAP1 PUSH2 0x3268 JUMP JUMPDEST PUSH1 0x1 DUP2 LT ISZERO PUSH2 0x12B8 JUMPI PUSH1 0x40 MLOAD PUSH3 0x461BCD PUSH1 0xE5 SHL DUP2 MSTORE PUSH1 0x4 ADD PUSH2 0x6BA SWAP1 PUSH2 0x336B JUMP JUMPDEST PUSH1 0xD2 DUP3 SWAP1 SSTORE PUSH1 0xD6 DUP2 SWAP1 SSTORE PUSH1 0x40 MLOAD PUSH32 0x687125C69E38F71137DE9EDADE0DAC562ABC4F76D751BB1330F16C0FFD51FD58 SWAP1 PUSH2 0x12F2 SWAP1 DUP4 SWAP1 PUSH2 0x3516 JUMP JUMPDEST PUSH1 0x40 MLOAD DUP1 SWAP2 SUB SWAP1 LOG1 PUSH32 0xA1676084A9EEA08C6F205B60799323B364A1BD8E10ABA89F0FBD94CFBF68B5DD PUSH1 0xD2 SLOAD PUSH1 0x40 MLOAD PUSH2 0x132B SWAP2 SWAP1 PUSH2 0x3516 JUMP JUMPDEST PUSH1 0x40 MLOAD DUP1 SWAP2 SUB SWAP1 LOG1 POP POP JUMP JUMPDEST PUSH1 0x1 PUSH1 0x1 PUSH1 0xA0 SHL SUB DUP2 AND PUSH1 0x0 SWAP1 DUP2 MSTORE PUSH1 0xDC PUSH1 0x20 SWAP1 DUP2 MSTORE PUSH1 0x40 DUP1 DUP4 KECCAK256 SLOAD PUSH1 0xDB SWAP1 SWAP3 MSTORE DUP3 KECCAK256 SLOAD PUSH2 0x64C SWAP2 PUSH2 0x1F82 JUMP JUMPDEST PUSH2 0x136C PUSH2 0x229A JUMP JUMPDEST PUSH1 0x1 PUSH1 0x1 PUSH1 0xA0 SHL SUB AND PUSH2 0x137D PUSH2 0x14F2 JUMP JUMPDEST PUSH1 0x1 PUSH1 0x1 PUSH1 0xA0 SHL SUB AND EQ PUSH2 0x13A3 JUMPI PUSH1 0x40 MLOAD PUSH3 0x461BCD PUSH1 0xE5 SHL DUP2 MSTORE PUSH1 0x4 ADD PUSH2 0x6BA SWAP1 PUSH2 0x3233 JUMP JUMPDEST PUSH1 0x97 SLOAD PUSH1 0x40 MLOAD PUSH1 0x0 SWAP2 PUSH1 0x1 PUSH1 0x1 PUSH1 0xA0 SHL SUB AND SWAP1 PUSH32 0x8BE0079C531659141344CD1FD0A4F28419497F9722A3DAAFE3B4186F6B6457E0 SWAP1 DUP4 SWAP1 LOG3 PUSH1 0x97 DUP1 SLOAD PUSH1 0x1 PUSH1 0x1 PUSH1 0xA0 SHL SUB NOT AND SWAP1 SSTORE JUMP JUMPDEST PUSH1 0xCB SLOAD PUSH1 0x1 PUSH1 0x1 PUSH1 0xA0 SHL SUB AND DUP2 JUMP JUMPDEST PUSH1 0xCD SLOAD DUP2 JUMP JUMPDEST PUSH1 0x0 PUSH2 0xB30 TIMESTAMP PUSH1 0xCC SLOAD PUSH2 0x229E JUMP JUMPDEST PUSH1 0x1 PUSH1 0x1 PUSH1 0xA0 SHL SUB AND PUSH1 0x0 SWAP1 DUP2 MSTORE PUSH1 0xDB PUSH1 0x20 MSTORE PUSH1 0x40 SWAP1 KECCAK256 SLOAD SWAP1 JUMP JUMPDEST PUSH2 0x1433 PUSH2 0x14F2 JUMP JUMPDEST PUSH1 0x1 PUSH1 0x1 PUSH1 0xA0 SHL SUB AND CALLER PUSH1 0x1 PUSH1 0x1 PUSH1 0xA0 SHL SUB AND EQ DUP1 PUSH2 0x145C JUMPI POP PUSH1 0xD1 SLOAD PUSH1 0x1 PUSH1 0x1 PUSH1 0xA0 SHL SUB AND CALLER EQ JUMPDEST PUSH2 0x1478 JUMPI PUSH1 0x40 MLOAD PUSH3 0x461BCD PUSH1 0xE5 SHL DUP2 MSTORE PUSH1 0x4 ADD PUSH2 0x6BA SWAP1 PUSH2 0x30FF JUMP JUMPDEST PUSH1 0xCB SLOAD PUSH1 0x1 PUSH1 0x1 PUSH1 0xA0 SHL SUB DUP4 DUP2 AND SWAP2 AND EQ ISZERO PUSH2 0x1493 JUMPI PUSH1 0x0 DUP1 REVERT JUMPDEST PUSH2 0x14AF PUSH2 0x149E PUSH2 0x14F2 JUMP JUMPDEST PUSH1 0x1 PUSH1 0x1 PUSH1 0xA0 SHL SUB DUP5 AND SWAP1 DUP4 PUSH2 0x223F JUMP JUMPDEST PUSH32 0x8C1256B8896378CD5044F80C202F9772B9D77DC85C8A6EB51967210B09BFAA28 DUP3 DUP3 PUSH1 0x40 MLOAD PUSH2 0x132B SWAP3 SWAP2 SWAP1 PUSH2 0x2DC2 JUMP JUMPDEST PUSH1 0xD7 PUSH1 0x20 MSTORE PUSH1 0x0 SWAP1 DUP2 MSTORE PUSH1 0x40 SWAP1 KECCAK256 SLOAD DUP2 JUMP JUMPDEST PUSH1 0x97 SLOAD PUSH1 0x1 PUSH1 0x1 PUSH1 0xA0 SHL SUB AND SWAP1 JUMP JUMPDEST PUSH1 0x0 DUP1 PUSH2 0x15B1 PUSH2 0xED6 PUSH3 0xF4240 PUSH2 0x640 PUSH2 0x1529 PUSH3 0xF4240 PUSH1 0xD6 SLOAD PUSH2 0x1EE2 SWAP1 SWAP2 SWAP1 PUSH4 0xFFFFFFFF AND JUMP JUMPDEST PUSH1 0xC9 SLOAD PUSH1 0x40 DUP1 MLOAD PUSH4 0x2EB9771B PUSH1 0xE0 SHL DUP2 MSTORE SWAP1 MLOAD PUSH2 0xB2A SWAP3 PUSH1 0x1 PUSH1 0x1 PUSH1 0xA0 SHL SUB AND SWAP2 PUSH4 0x2EB9771B SWAP2 PUSH1 0x4 DUP1 DUP4 ADD SWAP3 PUSH1 0x20 SWAP3 SWAP2 SWAP1 DUP3 SWAP1 SUB ADD DUP2 DUP7 DUP1 EXTCODESIZE ISZERO DUP1 ISZERO PUSH2 0x156F JUMPI PUSH1 0x0 DUP1 REVERT JUMPDEST POP GAS STATICCALL ISZERO DUP1 ISZERO PUSH2 0x1583 JUMPI RETURNDATASIZE PUSH1 0x0 DUP1 RETURNDATACOPY RETURNDATASIZE PUSH1 0x0 REVERT JUMPDEST POP POP POP POP PUSH1 0x40 MLOAD RETURNDATASIZE PUSH1 0x1F NOT PUSH1 0x1F DUP3 ADD AND DUP3 ADD DUP1 PUSH1 0x40 MSTORE POP DUP2 ADD SWAP1 PUSH2 0x15A7 SWAP2 SWAP1 PUSH2 0x2CEA JUMP JUMPDEST PUSH3 0xF4240 SWAP1 PUSH2 0x1EE2 JUMP JUMPDEST SWAP2 POP POP SWAP1 JUMP JUMPDEST PUSH2 0x15BF PUSH2 0x14F2 JUMP JUMPDEST PUSH1 0x1 PUSH1 0x1 PUSH1 0xA0 SHL SUB AND CALLER PUSH1 0x1 PUSH1 0x1 PUSH1 0xA0 SHL SUB AND EQ DUP1 PUSH2 0x15E8 JUMPI POP PUSH1 0xD1 SLOAD PUSH1 0x1 PUSH1 0x1 PUSH1 0xA0 SHL SUB AND CALLER EQ JUMPDEST PUSH2 0x1604 JUMPI PUSH1 0x40 MLOAD PUSH3 0x461BCD PUSH1 0xE5 SHL DUP2 MSTORE PUSH1 0x4 ADD PUSH2 0x6BA SWAP1 PUSH2 0x30FF JUMP JUMPDEST PUSH1 0x1 PUSH1 0x1 PUSH1 0xA0 SHL SUB AND PUSH1 0x0 SWAP1 DUP2 MSTORE PUSH1 0xDF PUSH1 0x20 MSTORE PUSH1 0x40 SWAP1 KECCAK256 DUP1 SLOAD PUSH1 0xFF NOT DUP2 AND PUSH1 0xFF SWAP1 SWAP2 AND ISZERO OR SWAP1 SSTORE JUMP JUMPDEST PUSH1 0xD4 SLOAD DUP2 JUMP JUMPDEST PUSH1 0xD2 SLOAD DUP2 JUMP JUMPDEST PUSH2 0x1641 PUSH2 0x14F2 JUMP JUMPDEST PUSH1 0x1 PUSH1 0x1 PUSH1 0xA0 SHL SUB AND CALLER PUSH1 0x1 PUSH1 0x1 PUSH1 0xA0 SHL SUB AND EQ DUP1 PUSH2 0x166A JUMPI POP PUSH1 0xD1 SLOAD PUSH1 0x1 PUSH1 0x1 PUSH1 0xA0 SHL SUB AND CALLER EQ JUMPDEST PUSH2 0x1686 JUMPI PUSH1 0x40 MLOAD PUSH3 0x461BCD PUSH1 0xE5 SHL DUP2 MSTORE PUSH1 0x4 ADD PUSH2 0x6BA SWAP1 PUSH2 0x30FF JUMP JUMPDEST PUSH1 0x0 PUSH1 0xCC SLOAD TIMESTAMP GT ISZERO PUSH2 0x169F JUMPI PUSH2 0x169A PUSH2 0x1FA7 JUMP JUMPDEST PUSH2 0x16B6 JUMP JUMPDEST PUSH2 0x16A7 PUSH2 0x1B4A JUMP JUMPDEST PUSH1 0xD0 SSTORE PUSH2 0x16B2 PUSH2 0x1402 JUMP JUMPDEST PUSH1 0xCF SSTORE JUMPDEST PUSH1 0x1 PUSH1 0x1 PUSH1 0xA0 SHL SUB DUP2 AND ISZERO PUSH2 0x16FA JUMPI PUSH2 0x16CE DUP2 PUSH2 0x5D4 JUMP JUMPDEST PUSH1 0x1 PUSH1 0x1 PUSH1 0xA0 SHL SUB DUP3 AND PUSH1 0x0 SWAP1 DUP2 MSTORE PUSH1 0xD8 PUSH1 0x20 SWAP1 DUP2 MSTORE PUSH1 0x40 DUP1 DUP4 KECCAK256 SWAP4 SWAP1 SWAP4 SSTORE PUSH1 0xD0 SLOAD PUSH1 0xD7 SWAP1 SWAP2 MSTORE SWAP2 SWAP1 KECCAK256 SSTORE JUMPDEST POP PUSH1 0xCD SSTORE JUMP JUMPDEST PUSH1 0x2 PUSH1 0x1 SLOAD EQ ISZERO PUSH2 0x1723 JUMPI PUSH1 0x40 MLOAD PUSH3 0x461BCD PUSH1 0xE5 SHL DUP2 MSTORE PUSH1 0x4 ADD PUSH2 0x6BA SWAP1 PUSH2 0x3448 JUMP JUMPDEST PUSH1 0x2 PUSH1 0x1 SSTORE PUSH2 0x1730 PUSH2 0x1220 JUMP JUMPDEST ISZERO PUSH2 0x174D JUMPI PUSH1 0x40 MLOAD PUSH3 0x461BCD PUSH1 0xE5 SHL DUP2 MSTORE PUSH1 0x4 ADD PUSH2 0x6BA SWAP1 PUSH2 0x314F JUMP JUMPDEST CALLER PUSH1 0xCC SLOAD TIMESTAMP GT ISZERO PUSH2 0x1765 JUMPI PUSH2 0x1760 PUSH2 0x1FA7 JUMP JUMPDEST PUSH2 0x177C JUMP JUMPDEST PUSH2 0x176D PUSH2 0x1B4A JUMP JUMPDEST PUSH1 0xD0 SSTORE PUSH2 0x1778 PUSH2 0x1402 JUMP JUMPDEST PUSH1 0xCF SSTORE JUMPDEST PUSH1 0x1 PUSH1 0x1 PUSH1 0xA0 SHL SUB DUP2 AND ISZERO PUSH2 0x17C0 JUMPI PUSH2 0x1794 DUP2 PUSH2 0x5D4 JUMP JUMPDEST PUSH1 0x1 PUSH1 0x1 PUSH1 0xA0 SHL SUB DUP3 AND PUSH1 0x0 SWAP1 DUP2 MSTORE PUSH1 0xD8 PUSH1 0x20 SWAP1 DUP2 MSTORE PUSH1 0x40 DUP1 DUP4 KECCAK256 SWAP4 SWAP1 SWAP4 SSTORE PUSH1 0xD0 SLOAD PUSH1 0xD7 SWAP1 SWAP2 MSTORE SWAP2 SWAP1 KECCAK256 SSTORE JUMPDEST PUSH1 0x0 DUP3 GT PUSH2 0x17E0 JUMPI PUSH1 0x40 MLOAD PUSH3 0x461BCD PUSH1 0xE5 SHL DUP2 MSTORE PUSH1 0x4 ADD PUSH2 0x6BA SWAP1 PUSH2 0x2FFB JUMP JUMPDEST CALLER PUSH1 0x0 SWAP1 DUP2 MSTORE PUSH1 0xDF PUSH1 0x20 MSTORE PUSH1 0x40 SWAP1 KECCAK256 SLOAD PUSH1 0xFF AND ISZERO PUSH2 0x1810 JUMPI PUSH1 0x40 MLOAD PUSH3 0x461BCD PUSH1 0xE5 SHL DUP2 MSTORE PUSH1 0x4 ADD PUSH2 0x6BA SWAP1 PUSH2 0x2E87 JUMP JUMPDEST PUSH1 0xCB SLOAD PUSH2 0x1828 SWAP1 PUSH1 0x1 PUSH1 0x1 PUSH1 0xA0 SHL SUB AND CALLER ADDRESS DUP6 PUSH2 0x2156 JUMP JUMPDEST PUSH1 0xD9 SLOAD PUSH2 0x1835 SWAP1 DUP4 PUSH2 0x1F82 JUMP JUMPDEST PUSH1 0xD9 SSTORE PUSH1 0xDA SLOAD PUSH2 0x1845 SWAP1 DUP4 PUSH2 0x1F82 JUMP JUMPDEST PUSH1 0xDA SSTORE CALLER PUSH1 0x0 SWAP1 DUP2 MSTORE PUSH1 0xDB PUSH1 0x20 MSTORE PUSH1 0x40 SWAP1 KECCAK256 SLOAD PUSH2 0x1862 SWAP1 DUP4 PUSH2 0x1F82 JUMP JUMPDEST CALLER PUSH1 0x0 SWAP1 DUP2 MSTORE PUSH1 0xDB PUSH1 0x20 SWAP1 DUP2 MSTORE PUSH1 0x40 DUP1 DUP4 KECCAK256 SWAP4 SWAP1 SWAP4 SSTORE PUSH1 0xDD SWAP1 MSTORE KECCAK256 SLOAD PUSH2 0x1888 SWAP1 DUP4 PUSH2 0x1F82 JUMP JUMPDEST CALLER PUSH1 0x0 DUP2 DUP2 MSTORE PUSH1 0xDD PUSH1 0x20 MSTORE PUSH1 0x40 SWAP1 DUP2 SWAP1 KECCAK256 SWAP3 SWAP1 SWAP3 SSTORE SWAP1 MLOAD PUSH32 0x9E71BC8EEA02A63969F509818F2DAFB9254532904319F9DBDA79B67BD34A5F3D SWAP1 PUSH2 0xD58 SWAP1 DUP6 SWAP1 PUSH2 0x3516 JUMP JUMPDEST PUSH2 0x18D4 PUSH2 0x14F2 JUMP JUMPDEST PUSH1 0x1 PUSH1 0x1 PUSH1 0xA0 SHL SUB AND CALLER PUSH1 0x1 PUSH1 0x1 PUSH1 0xA0 SHL SUB AND EQ DUP1 PUSH2 0x18FD JUMPI POP PUSH1 0xD1 SLOAD PUSH1 0x1 PUSH1 0x1 PUSH1 0xA0 SHL SUB AND CALLER EQ JUMPDEST PUSH2 0x1919 JUMPI PUSH1 0x40 MLOAD PUSH3 0x461BCD PUSH1 0xE5 SHL DUP2 MSTORE PUSH1 0x4 ADD PUSH2 0x6BA SWAP1 PUSH2 0x30FF JUMP JUMPDEST PUSH1 0x1 DUP3 LT ISZERO PUSH2 0x193A JUMPI PUSH1 0x40 MLOAD PUSH3 0x461BCD PUSH1 0xE5 SHL DUP2 MSTORE PUSH1 0x4 ADD PUSH2 0x6BA SWAP1 PUSH2 0x3315 JUMP JUMPDEST PUSH1 0x1 DUP2 LT ISZERO PUSH2 0x195B JUMPI PUSH1 0x40 MLOAD PUSH3 0x461BCD PUSH1 0xE5 SHL DUP2 MSTORE PUSH1 0x4 ADD PUSH2 0x6BA SWAP1 PUSH2 0x34C0 JUMP JUMPDEST PUSH1 0xD3 DUP3 SWAP1 SSTORE PUSH1 0xD4 DUP2 SWAP1 SSTORE PUSH2 0x196E DUP2 PUSH2 0x22B4 JUMP JUMPDEST DUP1 MLOAD PUSH2 0x1982 SWAP2 PUSH1 0xD5 SWAP2 PUSH1 0x20 SWAP1 SWAP2 ADD SWAP1 PUSH2 0x2B60 JUMP JUMPDEST POP PUSH32 0xE3E3FAE480C6F92291358A02BC83F04EE1971D5488596BFFDA7929D57AB470F PUSH1 0xD3 SLOAD PUSH1 0x40 MLOAD PUSH2 0x19B4 SWAP2 SWAP1 PUSH2 0x3516 JUMP JUMPDEST PUSH1 0x40 MLOAD DUP1 SWAP2 SUB SWAP1 LOG1 PUSH32 0x534D208D75DFDBFACC1204745DD9B3C4C37E8CFC05EB5E8E3AE538AEDB0A9FA DUP2 PUSH1 0x40 MLOAD PUSH2 0x132B SWAP2 SWAP1 PUSH2 0x3516 JUMP JUMPDEST PUSH1 0x1 PUSH1 0x1 PUSH1 0xA0 SHL SUB AND PUSH1 0x0 SWAP1 DUP2 MSTORE PUSH1 0xD8 PUSH1 0x20 MSTORE PUSH1 0x40 SWAP1 KECCAK256 SLOAD SWAP1 JUMP JUMPDEST PUSH1 0xCB SLOAD PUSH1 0x40 DUP1 MLOAD PUSH4 0x313CE567 PUSH1 0xE0 SHL DUP2 MSTORE SWAP1 MLOAD PUSH1 0x0 SWAP3 PUSH1 0x1 PUSH1 0x1 PUSH1 0xA0 SHL SUB AND SWAP2 PUSH4 0x313CE567 SWAP2 PUSH1 0x4 DUP1 DUP4 ADD SWAP3 PUSH1 0x20 SWAP3 SWAP2 SWAP1 DUP3 SWAP1 SUB ADD DUP2 DUP7 DUP1 EXTCODESIZE ISZERO DUP1 ISZERO PUSH2 0x1A4B JUMPI PUSH1 0x0 DUP1 REVERT JUMPDEST POP GAS STATICCALL ISZERO DUP1 ISZERO PUSH2 0x1A5F JUMPI RETURNDATASIZE PUSH1 0x0 DUP1 RETURNDATACOPY RETURNDATASIZE PUSH1 0x0 REVERT JUMPDEST POP POP POP POP PUSH1 0x40 MLOAD RETURNDATASIZE PUSH1 0x1F NOT PUSH1 0x1F DUP3 ADD AND DUP3 ADD DUP1 PUSH1 0x40 MSTORE POP DUP2 ADD SWAP1 PUSH2 0x1A83 SWAP2 SWAP1 PUSH2 0x2D23 JUMP JUMPDEST PUSH1 0xFF AND SWAP1 POP SWAP1 JUMP JUMPDEST PUSH1 0xCF SLOAD DUP2 JUMP JUMPDEST PUSH2 0x1A99 PUSH2 0x14F2 JUMP JUMPDEST PUSH1 0x1 PUSH1 0x1 PUSH1 0xA0 SHL SUB AND CALLER PUSH1 0x1 PUSH1 0x1 PUSH1 0xA0 SHL SUB AND EQ DUP1 PUSH2 0x1AC2 JUMPI POP PUSH1 0xD1 SLOAD PUSH1 0x1 PUSH1 0x1 PUSH1 0xA0 SHL SUB AND CALLER EQ JUMPDEST PUSH2 0x1ADE JUMPI PUSH1 0x40 MLOAD PUSH3 0x461BCD PUSH1 0xE5 SHL DUP2 MSTORE PUSH1 0x4 ADD PUSH2 0x6BA SWAP1 PUSH2 0x30FF JUMP JUMPDEST PUSH1 0xCC SLOAD ISZERO DUP1 PUSH2 0x1AEE JUMPI POP PUSH1 0xCC SLOAD TIMESTAMP GT JUMPDEST PUSH2 0x1B0A JUMPI PUSH1 0x40 MLOAD PUSH3 0x461BCD PUSH1 0xE5 SHL DUP2 MSTORE PUSH1 0x4 ADD PUSH2 0x6BA SWAP1 PUSH2 0x2EBE JUMP JUMPDEST PUSH1 0xCE DUP2 SWAP1 SSTORE PUSH1 0x40 MLOAD PUSH32 0xFB46CA5A5E06D4540D6387B930A7C978BCE0DB5F449EC6B3F5D07C6E1D44F2D3 SWAP1 PUSH2 0x1B3F SWAP1 DUP4 SWAP1 PUSH2 0x3516 JUMP JUMPDEST PUSH1 0x40 MLOAD DUP1 SWAP2 SUB SWAP1 LOG1 POP JUMP JUMPDEST PUSH1 0x0 PUSH1 0xD9 SLOAD PUSH1 0x0 EQ ISZERO PUSH2 0x1B60 JUMPI POP PUSH1 0xD0 SLOAD PUSH2 0x66A JUMP JUMPDEST PUSH2 0x1BA4 PUSH2 0x1B9B PUSH1 0xDA SLOAD PUSH2 0x640 PUSH3 0xF4240 PUSH2 0x640 PUSH8 0xDE0B6B3A7640000 PUSH2 0xB2A PUSH2 0x1B87 PUSH2 0x1501 JUMP JUMPDEST PUSH2 0xB2A PUSH1 0xCD SLOAD PUSH2 0xB2A PUSH1 0xCF SLOAD PUSH2 0x61B PUSH2 0x1402 JUMP JUMPDEST PUSH1 0xD0 SLOAD SWAP1 PUSH2 0x1F82 JUMP JUMPDEST SWAP1 POP PUSH2 0x66A JUMP JUMPDEST PUSH1 0xD6 SLOAD DUP2 JUMP JUMPDEST PUSH1 0xCA SLOAD PUSH1 0x1 PUSH1 0x1 PUSH1 0xA0 SHL SUB AND DUP2 JUMP JUMPDEST PUSH2 0x1BC8 PUSH2 0x14F2 JUMP JUMPDEST PUSH1 0x1 PUSH1 0x1 PUSH1 0xA0 SHL SUB AND CALLER PUSH1 0x1 PUSH1 0x1 PUSH1 0xA0 SHL SUB AND EQ DUP1 PUSH2 0x1BF1 JUMPI POP PUSH1 0xD1 SLOAD PUSH1 0x1 PUSH1 0x1 PUSH1 0xA0 SHL SUB AND CALLER EQ JUMPDEST PUSH2 0x1C0D JUMPI PUSH1 0x40 MLOAD PUSH3 0x461BCD PUSH1 0xE5 SHL DUP2 MSTORE PUSH1 0x4 ADD PUSH2 0x6BA SWAP1 PUSH2 0x30FF JUMP JUMPDEST PUSH1 0xD1 DUP1 SLOAD PUSH1 0x1 PUSH1 0x1 PUSH1 0xA0 SHL SUB NOT AND PUSH1 0x1 PUSH1 0x1 PUSH1 0xA0 SHL SUB SWAP3 SWAP1 SWAP3 AND SWAP2 SWAP1 SWAP2 OR SWAP1 SSTORE JUMP JUMPDEST PUSH1 0xD1 SLOAD PUSH1 0x1 PUSH1 0x1 PUSH1 0xA0 SHL SUB AND DUP2 JUMP JUMPDEST PUSH1 0xD0 SLOAD DUP2 JUMP JUMPDEST PUSH1 0xD3 SLOAD DUP2 JUMP JUMPDEST PUSH2 0x1C52 PUSH2 0x14F2 JUMP JUMPDEST PUSH1 0x1 PUSH1 0x1 PUSH1 0xA0 SHL SUB AND CALLER PUSH1 0x1 PUSH1 0x1 PUSH1 0xA0 SHL SUB AND EQ DUP1 PUSH2 0x1C7B JUMPI POP PUSH1 0xD1 SLOAD PUSH1 0x1 PUSH1 0x1 PUSH1 0xA0 SHL SUB AND CALLER EQ JUMPDEST PUSH2 0x1C97 JUMPI PUSH1 0x40 MLOAD PUSH3 0x461BCD PUSH1 0xE5 SHL DUP2 MSTORE PUSH1 0x4 ADD PUSH2 0x6BA SWAP1 PUSH2 0x30FF JUMP JUMPDEST PUSH1 0xE0 DUP1 SLOAD PUSH1 0xFF NOT DUP2 AND PUSH1 0xFF SWAP1 SWAP2 AND ISZERO OR SWAP1 SSTORE JUMP JUMPDEST PUSH1 0xCC SLOAD DUP2 JUMP JUMPDEST PUSH2 0x1CB9 PUSH2 0x229A JUMP JUMPDEST PUSH1 0x1 PUSH1 0x1 PUSH1 0xA0 SHL SUB AND PUSH2 0x1CCA PUSH2 0x14F2 JUMP JUMPDEST PUSH1 0x1 PUSH1 0x1 PUSH1 0xA0 SHL SUB AND EQ PUSH2 0x1CF0 JUMPI PUSH1 0x40 MLOAD PUSH3 0x461BCD PUSH1 0xE5 SHL DUP2 MSTORE PUSH1 0x4 ADD PUSH2 0x6BA SWAP1 PUSH2 0x3233 JUMP JUMPDEST PUSH1 0x1 PUSH1 0x1 PUSH1 0xA0 SHL SUB DUP2 AND PUSH2 0x1D16 JUMPI PUSH1 0x40 MLOAD PUSH3 0x461BCD PUSH1 0xE5 SHL DUP2 MSTORE PUSH1 0x4 ADD PUSH2 0x6BA SWAP1 PUSH2 0x2FB5 JUMP JUMPDEST PUSH1 0x97 SLOAD PUSH1 0x40 MLOAD PUSH1 0x1 PUSH1 0x1 PUSH1 0xA0 SHL SUB DUP1 DUP5 AND SWAP3 AND SWAP1 PUSH32 0x8BE0079C531659141344CD1FD0A4F28419497F9722A3DAAFE3B4186F6B6457E0 SWAP1 PUSH1 0x0 SWAP1 LOG3 PUSH1 0x97 DUP1 SLOAD PUSH1 0x1 PUSH1 0x1 PUSH1 0xA0 SHL SUB NOT AND PUSH1 0x1 PUSH1 0x1 PUSH1 0xA0 SHL SUB SWAP3 SWAP1 SWAP3 AND SWAP2 SWAP1 SWAP2 OR SWAP1 SSTORE JUMP JUMPDEST PUSH1 0x0 SLOAD PUSH2 0x100 SWAP1 DIV PUSH1 0xFF AND DUP1 PUSH2 0x1D8B JUMPI POP PUSH2 0x1D8B PUSH2 0x238C JUMP JUMPDEST DUP1 PUSH2 0x1D99 JUMPI POP PUSH1 0x0 SLOAD PUSH1 0xFF AND ISZERO JUMPDEST PUSH2 0x1DB5 JUMPI PUSH1 0x40 MLOAD PUSH3 0x461BCD PUSH1 0xE5 SHL DUP2 MSTORE PUSH1 0x4 ADD PUSH2 0x6BA SWAP1 PUSH2 0x3179 JUMP JUMPDEST PUSH1 0x0 SLOAD PUSH2 0x100 SWAP1 DIV PUSH1 0xFF AND ISZERO DUP1 ISZERO PUSH2 0x1DE0 JUMPI PUSH1 0x0 DUP1 SLOAD PUSH1 0xFF NOT PUSH2 0xFF00 NOT SWAP1 SWAP2 AND PUSH2 0x100 OR AND PUSH1 0x1 OR SWAP1 SSTORE JUMPDEST PUSH2 0x1DE8 PUSH2 0x239D JUMP JUMPDEST PUSH2 0x1DF0 PUSH2 0x2430 JUMP JUMPDEST PUSH2 0x1DF8 PUSH2 0x24AE JUMP JUMPDEST PUSH1 0xCA DUP1 SLOAD PUSH1 0x1 PUSH1 0x1 PUSH1 0xA0 SHL SUB DUP1 DUP10 AND PUSH1 0x1 PUSH1 0x1 PUSH1 0xA0 SHL SUB NOT SWAP3 DUP4 AND OR SWAP1 SWAP3 SSTORE PUSH1 0xCB DUP1 SLOAD DUP9 DUP5 AND SWAP1 DUP4 AND OR SWAP1 SSTORE PUSH1 0xC9 DUP1 SLOAD DUP8 DUP5 AND SWAP1 DUP4 AND OR SWAP1 SSTORE TIMESTAMP PUSH1 0xCF SSTORE PUSH1 0xD1 DUP1 SLOAD SWAP3 DUP7 AND SWAP3 SWAP1 SWAP2 AND SWAP2 SWAP1 SWAP2 OR SWAP1 SSTORE PUSH1 0xCD DUP3 SWAP1 SSTORE PUSH1 0xE0 DUP1 SLOAD PUSH1 0xFF NOT AND SWAP1 SSTORE PUSH3 0x93A80 PUSH1 0xCE DUP2 SWAP1 SSTORE PUSH1 0x0 PUSH1 0xD0 SSTORE PUSH3 0x2DC6C0 PUSH1 0xD2 SSTORE PUSH4 0x1E13380 PUSH1 0xD3 SSTORE PUSH1 0xD4 SSTORE PUSH1 0x40 DUP1 MLOAD DUP1 DUP3 ADD SWAP1 SWAP2 MSTORE PUSH1 0x6 DUP1 DUP3 MSTORE PUSH6 0x36303438303 PUSH1 0xD4 SHL PUSH1 0x20 SWAP1 SWAP3 ADD SWAP2 DUP3 MSTORE PUSH2 0x1EA2 SWAP2 PUSH1 0xD5 SWAP2 PUSH2 0x2B60 JUMP JUMPDEST POP PUSH3 0x1E8480 PUSH1 0xD6 SSTORE PUSH1 0x0 PUSH1 0xD9 DUP2 SWAP1 SSTORE PUSH1 0xDA SSTORE DUP1 ISZERO PUSH2 0x1EC6 JUMPI PUSH1 0x0 DUP1 SLOAD PUSH2 0xFF00 NOT AND SWAP1 SSTORE JUMPDEST POP POP POP POP POP POP JUMP JUMPDEST PUSH1 0xCC SLOAD TIMESTAMP GT ISZERO PUSH2 0x1EE0 JUMPI PUSH2 0x1EE0 PUSH2 0x1FA7 JUMP JUMPDEST JUMP JUMPDEST PUSH1 0x0 DUP3 DUP3 GT ISZERO PUSH2 0x1F04 JUMPI PUSH1 0x40 MLOAD PUSH3 0x461BCD PUSH1 0xE5 SHL DUP2 MSTORE PUSH1 0x4 ADD PUSH2 0x6BA SWAP1 PUSH2 0x3091 JUMP JUMPDEST POP DUP1 DUP3 SUB JUMPDEST SWAP3 SWAP2 POP POP JUMP JUMPDEST PUSH1 0x0 DUP3 PUSH2 0x1F1E JUMPI POP PUSH1 0x0 PUSH2 0x1F09 JUMP JUMPDEST DUP3 DUP3 MUL DUP3 DUP5 DUP3 DUP2 PUSH2 0x1F2B JUMPI INVALID JUMPDEST DIV EQ PUSH2 0x1F49 JUMPI PUSH1 0x40 MLOAD PUSH3 0x461BCD PUSH1 0xE5 SHL DUP2 MSTORE PUSH1 0x4 ADD PUSH2 0x6BA SWAP1 PUSH2 0x31F2 JUMP JUMPDEST SWAP4 SWAP3 POP POP POP JUMP JUMPDEST PUSH1 0x0 DUP1 DUP3 GT PUSH2 0x1F71 JUMPI PUSH1 0x40 MLOAD PUSH3 0x461BCD PUSH1 0xE5 SHL DUP2 MSTORE PUSH1 0x4 ADD PUSH2 0x6BA SWAP1 PUSH2 0x30C8 JUMP JUMPDEST DUP2 DUP4 DUP2 PUSH2 0x1F7A JUMPI INVALID JUMPDEST DIV SWAP4 SWAP3 POP POP POP JUMP JUMPDEST PUSH1 0x0 DUP3 DUP3 ADD DUP4 DUP2 LT ISZERO PUSH2 0x1F49 JUMPI PUSH1 0x40 MLOAD PUSH3 0x461BCD PUSH1 0xE5 SHL DUP2 MSTORE PUSH1 0x4 ADD PUSH2 0x6BA SWAP1 PUSH2 0x3023 JUMP JUMPDEST PUSH1 0xCC SLOAD TIMESTAMP GT PUSH2 0x1FC8 JUMPI PUSH1 0x40 MLOAD PUSH3 0x461BCD PUSH1 0xE5 SHL DUP2 MSTORE PUSH1 0x4 ADD PUSH2 0x6BA SWAP1 PUSH2 0x305A JUMP JUMPDEST PUSH1 0x0 PUSH1 0xCE SLOAD PUSH2 0x1FE2 PUSH1 0xCC SLOAD TIMESTAMP PUSH2 0x1EE2 SWAP1 SWAP2 SWAP1 PUSH4 0xFFFFFFFF AND JUMP JUMPDEST DUP2 PUSH2 0x1FE9 JUMPI INVALID JUMPDEST PUSH1 0xCA SLOAD PUSH1 0x40 MLOAD PUSH4 0x70A08231 PUSH1 0xE0 SHL DUP2 MSTORE SWAP3 SWAP1 SWAP2 DIV SWAP3 POP PUSH1 0x0 SWAP2 PUSH1 0x1 PUSH1 0x1 PUSH1 0xA0 SHL SUB SWAP1 SWAP2 AND SWAP1 PUSH4 0x70A08231 SWAP1 PUSH2 0x2022 SWAP1 ADDRESS SWAP1 PUSH1 0x4 ADD PUSH2 0x2D8A JUMP JUMPDEST PUSH1 0x20 PUSH1 0x40 MLOAD DUP1 DUP4 SUB DUP2 DUP7 DUP1 EXTCODESIZE ISZERO DUP1 ISZERO PUSH2 0x203A JUMPI PUSH1 0x0 DUP1 REVERT JUMPDEST POP GAS STATICCALL ISZERO DUP1 ISZERO PUSH2 0x204E JUMPI RETURNDATASIZE PUSH1 0x0 DUP1 RETURNDATACOPY RETURNDATASIZE PUSH1 0x0 REVERT JUMPDEST POP POP POP POP PUSH1 0x40 MLOAD RETURNDATASIZE PUSH1 0x1F NOT PUSH1 0x1F DUP3 ADD AND DUP3 ADD DUP1 PUSH1 0x40 MSTORE POP DUP2 ADD SWAP1 PUSH2 0x2072 SWAP2 SWAP1 PUSH2 0x2CEA JUMP JUMPDEST SWAP1 POP DUP1 PUSH2 0x208E PUSH3 0xF4240 PUSH2 0x640 DUP6 PUSH1 0x1 ADD PUSH2 0xB2A PUSH2 0xB1B PUSH2 0x1501 JUMP JUMPDEST GT ISZERO PUSH2 0x20AC JUMPI PUSH1 0x40 MLOAD PUSH3 0x461BCD PUSH1 0xE5 SHL DUP2 MSTORE PUSH1 0x4 ADD PUSH2 0x6BA SWAP1 PUSH2 0x2F41 JUMP JUMPDEST PUSH1 0xCE SLOAD PUSH2 0x20CB SWAP1 PUSH2 0x20C2 SWAP1 PUSH2 0xB2A DUP6 PUSH1 0x1 PUSH2 0x1F82 JUMP JUMPDEST PUSH1 0xCC SLOAD SWAP1 PUSH2 0x1F82 JUMP JUMPDEST PUSH1 0xCC SSTORE PUSH2 0x20D6 PUSH2 0x1B4A JUMP JUMPDEST PUSH1 0xD0 SSTORE PUSH2 0x20E1 PUSH2 0x1402 JUMP JUMPDEST PUSH1 0xCF SSTORE PUSH1 0xCB SLOAD PUSH1 0x40 MLOAD PUSH32 0x6F2B3B3AAF1881D69A5D40565500F93EA73DF36E7B6A29BF48B21479A9237FE9 SWAP2 PUSH2 0x132B SWAP2 PUSH1 0x1 PUSH1 0x1 PUSH1 0xA0 SHL SUB SWAP1 SWAP2 AND SWAP1 PUSH2 0x2D8A JUMP JUMPDEST PUSH1 0x60 PUSH2 0x214E DUP5 DUP5 DUP5 PUSH1 0x40 MLOAD DUP1 PUSH1 0x20 ADD PUSH1 0x40 MSTORE DUP1 PUSH1 0x0 DUP2 MSTORE POP PUSH1 0x40 MLOAD DUP1 PUSH1 0x20 ADD PUSH1 0x40 MSTORE DUP1 PUSH1 0x0 DUP2 MSTORE POP PUSH2 0x2524 JUMP JUMPDEST SWAP5 SWAP4 POP POP POP POP JUMP JUMPDEST PUSH1 0x0 PUSH1 0x60 DUP6 PUSH1 0x1 PUSH1 0x1 PUSH1 0xA0 SHL SUB AND PUSH4 0x23B872DD DUP7 DUP7 DUP7 PUSH1 0x40 MLOAD PUSH1 0x24 ADD PUSH2 0x217E SWAP4 SWAP3 SWAP2 SWAP1 PUSH2 0x2D9E JUMP JUMPDEST PUSH1 0x40 MLOAD PUSH1 0x20 DUP2 DUP4 SUB SUB DUP2 MSTORE SWAP1 PUSH1 0x40 MSTORE SWAP1 PUSH1 0xE0 SHL PUSH1 0x20 DUP3 ADD DUP1 MLOAD PUSH1 0x1 PUSH1 0x1 PUSH1 0xE0 SHL SUB DUP4 DUP2 DUP4 AND OR DUP4 MSTORE POP POP POP POP PUSH1 0x40 MLOAD PUSH2 0x21B7 SWAP2 SWAP1 PUSH2 0x2D6E JUMP JUMPDEST PUSH1 0x0 PUSH1 0x40 MLOAD DUP1 DUP4 SUB DUP2 PUSH1 0x0 DUP7 GAS CALL SWAP2 POP POP RETURNDATASIZE DUP1 PUSH1 0x0 DUP2 EQ PUSH2 0x21F4 JUMPI PUSH1 0x40 MLOAD SWAP2 POP PUSH1 0x1F NOT PUSH1 0x3F RETURNDATASIZE ADD AND DUP3 ADD PUSH1 0x40 MSTORE RETURNDATASIZE DUP3 MSTORE RETURNDATASIZE PUSH1 0x0 PUSH1 0x20 DUP5 ADD RETURNDATACOPY PUSH2 0x21F9 JUMP JUMPDEST PUSH1 0x60 SWAP2 POP JUMPDEST POP SWAP2 POP SWAP2 POP DUP2 DUP1 ISZERO PUSH2 0x2223 JUMPI POP DUP1 MLOAD ISZERO DUP1 PUSH2 0x2223 JUMPI POP DUP1 DUP1 PUSH1 0x20 ADD SWAP1 MLOAD DUP2 ADD SWAP1 PUSH2 0x2223 SWAP2 SWAP1 PUSH2 0x2CB2 JUMP JUMPDEST PUSH2 0x1EC6 JUMPI PUSH1 0x40 MLOAD PUSH3 0x461BCD PUSH1 0xE5 SHL DUP2 MSTORE PUSH1 0x4 ADD PUSH2 0x6BA SWAP1 PUSH2 0x3404 JUMP JUMPDEST PUSH2 0x2295 DUP4 PUSH4 0xA9059CBB PUSH1 0xE0 SHL DUP5 DUP5 PUSH1 0x40 MLOAD PUSH1 0x24 ADD PUSH2 0x225E SWAP3 SWAP2 SWAP1 PUSH2 0x2DC2 JUMP JUMPDEST PUSH1 0x40 DUP1 MLOAD PUSH1 0x1F NOT DUP2 DUP5 SUB ADD DUP2 MSTORE SWAP2 SWAP1 MSTORE PUSH1 0x20 DUP2 ADD DUP1 MLOAD PUSH1 0x1 PUSH1 0x1 PUSH1 0xE0 SHL SUB AND PUSH1 0x1 PUSH1 0x1 PUSH1 0xE0 SHL SUB NOT SWAP1 SWAP4 AND SWAP3 SWAP1 SWAP3 OR SWAP1 SWAP2 MSTORE PUSH2 0x2749 JUMP JUMPDEST POP POP POP JUMP JUMPDEST CALLER SWAP1 JUMP JUMPDEST PUSH1 0x0 DUP2 DUP4 LT PUSH2 0x22AD JUMPI DUP2 PUSH2 0x1F49 JUMP JUMPDEST POP SWAP1 SWAP2 SWAP1 POP JUMP JUMPDEST PUSH1 0x60 DUP2 PUSH2 0x22D9 JUMPI POP PUSH1 0x40 DUP1 MLOAD DUP1 DUP3 ADD SWAP1 SWAP2 MSTORE PUSH1 0x1 DUP2 MSTORE PUSH1 0x3 PUSH1 0xFC SHL PUSH1 0x20 DUP3 ADD MSTORE PUSH2 0x64F JUMP JUMPDEST DUP2 PUSH1 0x0 JUMPDEST DUP2 ISZERO PUSH2 0x22F1 JUMPI PUSH1 0x1 ADD PUSH1 0xA DUP3 DIV SWAP2 POP PUSH2 0x22DD JUMP JUMPDEST PUSH1 0x60 DUP2 PUSH8 0xFFFFFFFFFFFFFFFF DUP2 GT DUP1 ISZERO PUSH2 0x230A JUMPI PUSH1 0x0 DUP1 REVERT JUMPDEST POP PUSH1 0x40 MLOAD SWAP1 DUP1 DUP3 MSTORE DUP1 PUSH1 0x1F ADD PUSH1 0x1F NOT AND PUSH1 0x20 ADD DUP3 ADD PUSH1 0x40 MSTORE DUP1 ISZERO PUSH2 0x2335 JUMPI PUSH1 0x20 DUP3 ADD DUP2 DUP1 CALLDATASIZE DUP4 CALLDATACOPY ADD SWAP1 POP JUMPDEST POP SWAP1 POP PUSH1 0x0 NOT DUP3 ADD JUMPDEST DUP6 ISZERO PUSH2 0x2383 JUMPI PUSH1 0xA DUP7 MOD PUSH1 0x30 ADD PUSH1 0xF8 SHL DUP3 DUP3 DUP1 PUSH1 0x1 SWAP1 SUB SWAP4 POP DUP2 MLOAD DUP2 LT PUSH2 0x2361 JUMPI INVALID JUMPDEST PUSH1 0x20 ADD ADD SWAP1 PUSH1 0x1 PUSH1 0x1 PUSH1 0xF8 SHL SUB NOT AND SWAP1 DUP2 PUSH1 0x0 BYTE SWAP1 MSTORE8 POP PUSH1 0xA DUP7 DIV SWAP6 POP PUSH2 0x233E JUMP JUMPDEST POP SWAP5 SWAP4 POP POP POP POP JUMP JUMPDEST PUSH1 0x0 PUSH2 0x2397 ADDRESS PUSH2 0x27D8 JUMP JUMPDEST ISZERO SWAP1 POP SWAP1 JUMP JUMPDEST PUSH1 0x0 SLOAD PUSH2 0x100 SWAP1 DIV PUSH1 0xFF AND DUP1 PUSH2 0x23B6 JUMPI POP PUSH2 0x23B6 PUSH2 0x238C JUMP JUMPDEST DUP1 PUSH2 0x23C4 JUMPI POP PUSH1 0x0 SLOAD PUSH1 0xFF AND ISZERO JUMPDEST PUSH2 0x23E0 JUMPI PUSH1 0x40 MLOAD PUSH3 0x461BCD PUSH1 0xE5 SHL DUP2 MSTORE PUSH1 0x4 ADD PUSH2 0x6BA SWAP1 PUSH2 0x3179 JUMP JUMPDEST PUSH1 0x0 SLOAD PUSH2 0x100 SWAP1 DIV PUSH1 0xFF AND ISZERO DUP1 ISZERO PUSH2 0x240B JUMPI PUSH1 0x0 DUP1 SLOAD PUSH1 0xFF NOT PUSH2 0xFF00 NOT SWAP1 SWAP2 AND PUSH2 0x100 OR AND PUSH1 0x1 OR SWAP1 SSTORE JUMPDEST PUSH2 0x2413 PUSH2 0x27DE JUMP JUMPDEST PUSH2 0x241B PUSH2 0x285F JUMP JUMPDEST DUP1 ISZERO PUSH2 0x242D JUMPI PUSH1 0x0 DUP1 SLOAD PUSH2 0xFF00 NOT AND SWAP1 SSTORE JUMPDEST POP JUMP JUMPDEST PUSH1 0x0 SLOAD PUSH2 0x100 SWAP1 DIV PUSH1 0xFF AND DUP1 PUSH2 0x2449 JUMPI POP PUSH2 0x2449 PUSH2 0x238C JUMP JUMPDEST DUP1 PUSH2 0x2457 JUMPI POP PUSH1 0x0 SLOAD PUSH1 0xFF AND ISZERO JUMPDEST PUSH2 0x2473 JUMPI PUSH1 0x40 MLOAD PUSH3 0x461BCD PUSH1 0xE5 SHL DUP2 MSTORE PUSH1 0x4 ADD PUSH2 0x6BA SWAP1 PUSH2 0x3179 JUMP JUMPDEST PUSH1 0x0 SLOAD PUSH2 0x100 SWAP1 DIV PUSH1 0xFF AND ISZERO DUP1 ISZERO PUSH2 0x249E JUMPI PUSH1 0x0 DUP1 SLOAD PUSH1 0xFF NOT PUSH2 0xFF00 NOT SWAP1 SWAP2 AND PUSH2 0x100 OR AND PUSH1 0x1 OR SWAP1 SSTORE JUMPDEST PUSH2 0x24A6 PUSH2 0x27DE JUMP JUMPDEST PUSH2 0x241B PUSH2 0x2939 JUMP JUMPDEST PUSH1 0x0 SLOAD PUSH2 0x100 SWAP1 DIV PUSH1 0xFF AND DUP1 PUSH2 0x24C7 JUMPI POP PUSH2 0x24C7 PUSH2 0x238C JUMP JUMPDEST DUP1 PUSH2 0x24D5 JUMPI POP PUSH1 0x0 SLOAD PUSH1 0xFF AND ISZERO JUMPDEST PUSH2 0x24F1 JUMPI PUSH1 0x40 MLOAD PUSH3 0x461BCD PUSH1 0xE5 SHL DUP2 MSTORE PUSH1 0x4 ADD PUSH2 0x6BA SWAP1 PUSH2 0x3179 JUMP JUMPDEST PUSH1 0x0 SLOAD PUSH2 0x100 SWAP1 DIV PUSH1 0xFF AND ISZERO DUP1 ISZERO PUSH2 0x251C JUMPI PUSH1 0x0 DUP1 SLOAD PUSH1 0xFF NOT PUSH2 0xFF00 NOT SWAP1 SWAP2 AND PUSH2 0x100 OR AND PUSH1 0x1 OR SWAP1 SSTORE JUMPDEST PUSH2 0x241B PUSH2 0x29C5 JUMP JUMPDEST DUP1 MLOAD DUP3 MLOAD DUP5 MLOAD DUP7 MLOAD DUP9 MLOAD PUSH1 0x60 SWAP5 DUP11 SWAP5 DUP11 SWAP5 DUP11 SWAP5 DUP11 SWAP5 DUP11 SWAP5 DUP11 SWAP5 SWAP2 SWAP1 SWAP3 ADD SWAP1 SWAP3 ADD SWAP1 SWAP2 ADD ADD PUSH8 0xFFFFFFFFFFFFFFFF DUP2 GT DUP1 ISZERO PUSH2 0x255E JUMPI PUSH1 0x0 DUP1 REVERT JUMPDEST POP PUSH1 0x40 MLOAD SWAP1 DUP1 DUP3 MSTORE DUP1 PUSH1 0x1F ADD PUSH1 0x1F NOT AND PUSH1 0x20 ADD DUP3 ADD PUSH1 0x40 MSTORE DUP1 ISZERO PUSH2 0x2589 JUMPI PUSH1 0x20 DUP3 ADD DUP2 DUP1 CALLDATASIZE DUP4 CALLDATACOPY ADD SWAP1 POP JUMPDEST POP SWAP1 POP DUP1 PUSH1 0x0 DUP1 JUMPDEST DUP9 MLOAD DUP2 LT ISZERO PUSH2 0x25E2 JUMPI DUP9 DUP2 DUP2 MLOAD DUP2 LT PUSH2 0x25A6 JUMPI INVALID JUMPDEST PUSH1 0x20 ADD ADD MLOAD PUSH1 0xF8 SHR PUSH1 0xF8 SHL DUP4 DUP4 DUP1 PUSH1 0x1 ADD SWAP5 POP DUP2 MLOAD DUP2 LT PUSH2 0x25C3 JUMPI INVALID JUMPDEST PUSH1 0x20 ADD ADD SWAP1 PUSH1 0x1 PUSH1 0x1 PUSH1 0xF8 SHL SUB NOT AND SWAP1 DUP2 PUSH1 0x0 BYTE SWAP1 MSTORE8 POP PUSH1 0x1 ADD PUSH2 0x2591 JUMP JUMPDEST POP PUSH1 0x0 JUMPDEST DUP8 MLOAD DUP2 LT ISZERO PUSH2 0x2637 JUMPI DUP8 DUP2 DUP2 MLOAD DUP2 LT PUSH2 0x25FB JUMPI INVALID JUMPDEST PUSH1 0x20 ADD ADD MLOAD PUSH1 0xF8 SHR PUSH1 0xF8 SHL DUP4 DUP4 DUP1 PUSH1 0x1 ADD SWAP5 POP DUP2 MLOAD DUP2 LT PUSH2 0x2618 JUMPI INVALID JUMPDEST PUSH1 0x20 ADD ADD SWAP1 PUSH1 0x1 PUSH1 0x1 PUSH1 0xF8 SHL SUB NOT AND SWAP1 DUP2 PUSH1 0x0 BYTE SWAP1 MSTORE8 POP PUSH1 0x1 ADD PUSH2 0x25E6 JUMP JUMPDEST POP PUSH1 0x0 JUMPDEST DUP7 MLOAD DUP2 LT ISZERO PUSH2 0x268C JUMPI DUP7 DUP2 DUP2 MLOAD DUP2 LT PUSH2 0x2650 JUMPI INVALID JUMPDEST PUSH1 0x20 ADD ADD MLOAD PUSH1 0xF8 SHR PUSH1 0xF8 SHL DUP4 DUP4 DUP1 PUSH1 0x1 ADD SWAP5 POP DUP2 MLOAD DUP2 LT PUSH2 0x266D JUMPI INVALID JUMPDEST PUSH1 0x20 ADD ADD SWAP1 PUSH1 0x1 PUSH1 0x1 PUSH1 0xF8 SHL SUB NOT AND SWAP1 DUP2 PUSH1 0x0 BYTE SWAP1 MSTORE8 POP PUSH1 0x1 ADD PUSH2 0x263B JUMP JUMPDEST POP PUSH1 0x0 JUMPDEST DUP6 MLOAD DUP2 LT ISZERO PUSH2 0x26E1 JUMPI DUP6 DUP2 DUP2 MLOAD DUP2 LT PUSH2 0x26A5 JUMPI INVALID JUMPDEST PUSH1 0x20 ADD ADD MLOAD PUSH1 0xF8 SHR PUSH1 0xF8 SHL DUP4 DUP4 DUP1 PUSH1 0x1 ADD SWAP5 POP DUP2 MLOAD DUP2 LT PUSH2 0x26C2 JUMPI INVALID JUMPDEST PUSH1 0x20 ADD ADD SWAP1 PUSH1 0x1 PUSH1 0x1 PUSH1 0xF8 SHL SUB NOT AND SWAP1 DUP2 PUSH1 0x0 BYTE SWAP1 MSTORE8 POP PUSH1 0x1 ADD PUSH2 0x2690 JUMP JUMPDEST POP PUSH1 0x0 JUMPDEST DUP5 MLOAD DUP2 LT ISZERO PUSH2 0x2736 JUMPI DUP5 DUP2 DUP2 MLOAD DUP2 LT PUSH2 0x26FA JUMPI INVALID JUMPDEST PUSH1 0x20 ADD ADD MLOAD PUSH1 0xF8 SHR PUSH1 0xF8 SHL DUP4 DUP4 DUP1 PUSH1 0x1 ADD SWAP5 POP DUP2 MLOAD DUP2 LT PUSH2 0x2717 JUMPI INVALID JUMPDEST PUSH1 0x20 ADD ADD SWAP1 PUSH1 0x1 PUSH1 0x1 PUSH1 0xF8 SHL SUB NOT AND SWAP1 DUP2 PUSH1 0x0 BYTE SWAP1 MSTORE8 POP PUSH1 0x1 ADD PUSH2 0x26E5 JUMP JUMPDEST POP SWAP1 SWAP14 SWAP13 POP POP POP POP POP POP POP POP POP POP POP POP POP JUMP JUMPDEST PUSH1 0x60 PUSH2 0x279E DUP3 PUSH1 0x40 MLOAD DUP1 PUSH1 0x40 ADD PUSH1 0x40 MSTORE DUP1 PUSH1 0x20 DUP2 MSTORE PUSH1 0x20 ADD PUSH32 0x5361666545524332303A206C6F772D6C6576656C2063616C6C206661696C6564 DUP2 MSTORE POP DUP6 PUSH1 0x1 PUSH1 0x1 PUSH1 0xA0 SHL SUB AND PUSH2 0x2A4B SWAP1 SWAP3 SWAP2 SWAP1 PUSH4 0xFFFFFFFF AND JUMP JUMPDEST DUP1 MLOAD SWAP1 SWAP2 POP ISZERO PUSH2 0x2295 JUMPI DUP1 DUP1 PUSH1 0x20 ADD SWAP1 MLOAD DUP2 ADD SWAP1 PUSH2 0x27BC SWAP2 SWAP1 PUSH2 0x2CB2 JUMP JUMPDEST PUSH2 0x2295 JUMPI PUSH1 0x40 MLOAD PUSH3 0x461BCD PUSH1 0xE5 SHL DUP2 MSTORE PUSH1 0x4 ADD PUSH2 0x6BA SWAP1 PUSH2 0x33BA JUMP JUMPDEST EXTCODESIZE ISZERO ISZERO SWAP1 JUMP JUMPDEST PUSH1 0x0 SLOAD PUSH2 0x100 SWAP1 DIV PUSH1 0xFF AND DUP1 PUSH2 0x27F7 JUMPI POP PUSH2 0x27F7 PUSH2 0x238C JUMP JUMPDEST DUP1 PUSH2 0x2805 JUMPI POP PUSH1 0x0 SLOAD PUSH1 0xFF AND ISZERO JUMPDEST PUSH2 0x2821 JUMPI PUSH1 0x40 MLOAD PUSH3 0x461BCD PUSH1 0xE5 SHL DUP2 MSTORE PUSH1 0x4 ADD PUSH2 0x6BA SWAP1 PUSH2 0x3179 JUMP JUMPDEST PUSH1 0x0 SLOAD PUSH2 0x100 SWAP1 DIV PUSH1 0xFF AND ISZERO DUP1 ISZERO PUSH2 0x241B JUMPI PUSH1 0x0 DUP1 SLOAD PUSH1 0xFF NOT PUSH2 0xFF00 NOT SWAP1 SWAP2 AND PUSH2 0x100 OR AND PUSH1 0x1 OR SWAP1 SSTORE DUP1 ISZERO PUSH2 0x242D JUMPI PUSH1 0x0 DUP1 SLOAD PUSH2 0xFF00 NOT AND SWAP1 SSTORE POP JUMP JUMPDEST PUSH1 0x0 SLOAD PUSH2 0x100 SWAP1 DIV PUSH1 0xFF AND DUP1 PUSH2 0x2878 JUMPI POP PUSH2 0x2878 PUSH2 0x238C JUMP JUMPDEST DUP1 PUSH2 0x2886 JUMPI POP PUSH1 0x0 SLOAD PUSH1 0xFF AND ISZERO JUMPDEST PUSH2 0x28A2 JUMPI PUSH1 0x40 MLOAD PUSH3 0x461BCD PUSH1 0xE5 SHL DUP2 MSTORE PUSH1 0x4 ADD PUSH2 0x6BA SWAP1 PUSH2 0x3179 JUMP JUMPDEST PUSH1 0x0 SLOAD PUSH2 0x100 SWAP1 DIV PUSH1 0xFF AND ISZERO DUP1 ISZERO PUSH2 0x28CD JUMPI PUSH1 0x0 DUP1 SLOAD PUSH1 0xFF NOT PUSH2 0xFF00 NOT SWAP1 SWAP2 AND PUSH2 0x100 OR AND PUSH1 0x1 OR SWAP1 SSTORE JUMPDEST PUSH1 0x0 PUSH2 0x28D7 PUSH2 0x229A JUMP JUMPDEST PUSH1 0x97 DUP1 SLOAD PUSH1 0x1 PUSH1 0x1 PUSH1 0xA0 SHL SUB NOT AND PUSH1 0x1 PUSH1 0x1 PUSH1 0xA0 SHL SUB DUP4 AND SWAP1 DUP2 OR SWAP1 SWAP2 SSTORE PUSH1 0x40 MLOAD SWAP2 SWAP3 POP SWAP1 PUSH1 0x0 SWAP1 PUSH32 0x8BE0079C531659141344CD1FD0A4F28419497F9722A3DAAFE3B4186F6B6457E0 SWAP1 DUP3 SWAP1 LOG3 POP DUP1 ISZERO PUSH2 0x242D JUMPI PUSH1 0x0 DUP1 SLOAD PUSH2 0xFF00 NOT AND SWAP1 SSTORE POP JUMP JUMPDEST PUSH1 0x0 SLOAD PUSH2 0x100 SWAP1 DIV PUSH1 0xFF AND DUP1 PUSH2 0x2952 JUMPI POP PUSH2 0x2952 PUSH2 0x238C JUMP JUMPDEST DUP1 PUSH2 0x2960 JUMPI POP PUSH1 0x0 SLOAD PUSH1 0xFF AND ISZERO JUMPDEST PUSH2 0x297C JUMPI PUSH1 0x40 MLOAD PUSH3 0x461BCD PUSH1 0xE5 SHL DUP2 MSTORE PUSH1 0x4 ADD PUSH2 0x6BA SWAP1 PUSH2 0x3179 JUMP JUMPDEST PUSH1 0x0 SLOAD PUSH2 0x100 SWAP1 DIV PUSH1 0xFF AND ISZERO DUP1 ISZERO PUSH2 0x29A7 JUMPI PUSH1 0x0 DUP1 SLOAD PUSH1 0xFF NOT PUSH2 0xFF00 NOT SWAP1 SWAP2 AND PUSH2 0x100 OR AND PUSH1 0x1 OR SWAP1 SSTORE JUMPDEST PUSH1 0x65 DUP1 SLOAD PUSH1 0xFF NOT AND SWAP1 SSTORE DUP1 ISZERO PUSH2 0x242D JUMPI PUSH1 0x0 DUP1 SLOAD PUSH2 0xFF00 NOT AND SWAP1 SSTORE POP JUMP JUMPDEST PUSH1 0x0 SLOAD PUSH2 0x100 SWAP1 DIV PUSH1 0xFF AND DUP1 PUSH2 0x29DE JUMPI POP PUSH2 0x29DE PUSH2 0x238C JUMP JUMPDEST DUP1 PUSH2 0x29EC JUMPI POP PUSH1 0x0 SLOAD PUSH1 0xFF AND ISZERO JUMPDEST PUSH2 0x2A08 JUMPI PUSH1 0x40 MLOAD PUSH3 0x461BCD PUSH1 0xE5 SHL DUP2 MSTORE PUSH1 0x4 ADD PUSH2 0x6BA SWAP1 PUSH2 0x3179 JUMP JUMPDEST PUSH1 0x0 SLOAD PUSH2 0x100 SWAP1 DIV PUSH1 0xFF AND ISZERO DUP1 ISZERO PUSH2 0x2A33 JUMPI PUSH1 0x0 DUP1 SLOAD PUSH1 0xFF NOT PUSH2 0xFF00 NOT SWAP1 SWAP2 AND PUSH2 0x100 OR AND PUSH1 0x1 OR SWAP1 SSTORE JUMPDEST PUSH1 0x1 DUP1 SSTORE DUP1 ISZERO PUSH2 0x242D JUMPI PUSH1 0x0 DUP1 SLOAD PUSH2 0xFF00 NOT AND SWAP1 SSTORE POP JUMP JUMPDEST PUSH1 0x60 PUSH2 0x214E DUP5 DUP5 PUSH1 0x0 DUP6 DUP6 PUSH2 0x2A5F DUP6 PUSH2 0x27D8 JUMP JUMPDEST PUSH2 0x2A7B JUMPI PUSH1 0x40 MLOAD PUSH3 0x461BCD PUSH1 0xE5 SHL DUP2 MSTORE PUSH1 0x4 ADD PUSH2 0x6BA SWAP1 PUSH2 0x32DE JUMP JUMPDEST PUSH1 0x0 PUSH1 0x60 DUP7 PUSH1 0x1 PUSH1 0x1 PUSH1 0xA0 SHL SUB AND DUP6 DUP8 PUSH1 0x40 MLOAD PUSH2 0x2A98 SWAP2 SWAP1 PUSH2 0x2D6E JUMP JUMPDEST PUSH1 0x0 PUSH1 0x40 MLOAD DUP1 DUP4 SUB DUP2 DUP6 DUP8 GAS CALL SWAP3 POP POP POP RETURNDATASIZE DUP1 PUSH1 0x0 DUP2 EQ PUSH2 0x2AD5 JUMPI PUSH1 0x40 MLOAD SWAP2 POP PUSH1 0x1F NOT PUSH1 0x3F RETURNDATASIZE ADD AND DUP3 ADD PUSH1 0x40 MSTORE RETURNDATASIZE DUP3 MSTORE RETURNDATASIZE PUSH1 0x0 PUSH1 0x20 DUP5 ADD RETURNDATACOPY PUSH2 0x2ADA JUMP JUMPDEST PUSH1 0x60 SWAP2 POP JUMPDEST POP SWAP2 POP SWAP2 POP PUSH2 0x2AEA DUP3 DUP3 DUP7 PUSH2 0x2AF5 JUMP JUMPDEST SWAP8 SWAP7 POP POP POP POP POP POP POP JUMP JUMPDEST PUSH1 0x60 DUP4 ISZERO PUSH2 0x2B04 JUMPI POP DUP2 PUSH2 0x1F49 JUMP JUMPDEST DUP3 MLOAD ISZERO PUSH2 0x2B14 JUMPI DUP3 MLOAD DUP1 DUP5 PUSH1 0x20 ADD REVERT JUMPDEST DUP2 PUSH1 0x40 MLOAD PUSH3 0x461BCD PUSH1 0xE5 SHL DUP2 MSTORE PUSH1 0x4 ADD PUSH2 0x6BA SWAP2 SWAP1 PUSH2 0x2E54 JUMP JUMPDEST PUSH1 0x40 MLOAD DUP1 PUSH1 0xA0 ADD PUSH1 0x40 MSTORE DUP1 PUSH1 0x0 DUP1 NOT AND DUP2 MSTORE PUSH1 0x20 ADD PUSH1 0x0 DUP2 MSTORE PUSH1 0x20 ADD PUSH1 0x0 DUP2 MSTORE PUSH1 0x20 ADD PUSH1 0x0 DUP2 MSTORE PUSH1 0x20 ADD PUSH1 0x0 DUP2 MSTORE POP SWAP1 JUMP JUMPDEST DUP3 DUP1 SLOAD PUSH1 0x1 DUP2 PUSH1 0x1 AND ISZERO PUSH2 0x100 MUL SUB AND PUSH1 0x2 SWAP1 DIV SWAP1 PUSH1 0x0 MSTORE PUSH1 0x20 PUSH1 0x0 KECCAK256 SWAP1 PUSH1 0x1F ADD PUSH1 0x20 SWAP1 DIV DUP2 ADD SWAP3 DUP3 PUSH1 0x1F LT PUSH2 0x2BA1 JUMPI DUP1 MLOAD PUSH1 0xFF NOT AND DUP4 DUP1 ADD OR DUP6 SSTORE PUSH2 0x2BCE JUMP JUMPDEST DUP3 DUP1 ADD PUSH1 0x1 ADD DUP6 SSTORE DUP3 ISZERO PUSH2 0x2BCE JUMPI SWAP2 DUP3 ADD JUMPDEST DUP3 DUP2 GT ISZERO PUSH2 0x2BCE JUMPI DUP3 MLOAD DUP3 SSTORE SWAP2 PUSH1 0x20 ADD SWAP2 SWAP1 PUSH1 0x1 ADD SWAP1 PUSH2 0x2BB3 JUMP JUMPDEST POP PUSH2 0x2BDA SWAP3 SWAP2 POP PUSH2 0x2BDE JUMP JUMPDEST POP SWAP1 JUMP JUMPDEST JUMPDEST DUP1 DUP3 GT ISZERO PUSH2 0x2BDA JUMPI PUSH1 0x0 DUP2 SSTORE PUSH1 0x1 ADD PUSH2 0x2BDF JUMP JUMPDEST DUP1 CALLDATALOAD PUSH1 0x1 PUSH1 0x1 PUSH1 0xA0 SHL SUB DUP2 AND DUP2 EQ PUSH2 0x1F09 JUMPI PUSH1 0x0 DUP1 REVERT JUMPDEST PUSH1 0x0 PUSH1 0x20 DUP3 DUP5 SUB SLT ISZERO PUSH2 0x2C1B JUMPI DUP1 DUP2 REVERT JUMPDEST PUSH2 0x1F49 DUP4 DUP4 PUSH2 0x2BF3 JUMP JUMPDEST PUSH1 0x0 DUP1 PUSH1 0x0 DUP1 PUSH1 0x0 PUSH1 0xA0 DUP7 DUP9 SUB SLT ISZERO PUSH2 0x2C3C JUMPI DUP1 DUP2 REVERT JUMPDEST DUP6 CALLDATALOAD PUSH2 0x2C47 DUP2 PUSH2 0x355D JUMP JUMPDEST SWAP5 POP PUSH1 0x20 DUP7 ADD CALLDATALOAD PUSH2 0x2C57 DUP2 PUSH2 0x355D JUMP JUMPDEST SWAP4 POP PUSH1 0x40 DUP7 ADD CALLDATALOAD PUSH2 0x2C67 DUP2 PUSH2 0x355D JUMP JUMPDEST SWAP3 POP PUSH1 0x60 DUP7 ADD CALLDATALOAD PUSH2 0x2C77 DUP2 PUSH2 0x355D JUMP JUMPDEST SWAP5 SWAP8 SWAP4 SWAP7 POP SWAP2 SWAP5 PUSH1 0x80 ADD CALLDATALOAD SWAP3 SWAP2 POP POP JUMP JUMPDEST PUSH1 0x0 DUP1 PUSH1 0x40 DUP4 DUP6 SUB SLT ISZERO PUSH2 0x2C9A JUMPI DUP2 DUP3 REVERT JUMPDEST PUSH2 0x2CA4 DUP5 DUP5 PUSH2 0x2BF3 JUMP JUMPDEST SWAP5 PUSH1 0x20 SWAP4 SWAP1 SWAP4 ADD CALLDATALOAD SWAP4 POP POP POP JUMP JUMPDEST PUSH1 0x0 PUSH1 0x20 DUP3 DUP5 SUB SLT ISZERO PUSH2 0x2CC3 JUMPI DUP1 DUP2 REVERT JUMPDEST DUP2 MLOAD DUP1 ISZERO ISZERO DUP2 EQ PUSH2 0x1F49 JUMPI DUP2 DUP3 REVERT JUMPDEST PUSH1 0x0 PUSH1 0x20 DUP3 DUP5 SUB SLT ISZERO PUSH2 0x2CE3 JUMPI DUP1 DUP2 REVERT JUMPDEST POP CALLDATALOAD SWAP2 SWAP1 POP JUMP JUMPDEST PUSH1 0x0 PUSH1 0x20 DUP3 DUP5 SUB SLT ISZERO PUSH2 0x2CFB JUMPI DUP1 DUP2 REVERT JUMPDEST POP MLOAD SWAP2 SWAP1 POP JUMP JUMPDEST PUSH1 0x0 DUP1 PUSH1 0x40 DUP4 DUP6 SUB SLT ISZERO PUSH2 0x2D14 JUMPI DUP2 DUP3 REVERT JUMPDEST POP POP DUP1 CALLDATALOAD SWAP3 PUSH1 0x20 SWAP1 SWAP2 ADD CALLDATALOAD SWAP2 POP JUMP JUMPDEST PUSH1 0x0 PUSH1 0x20 DUP3 DUP5 SUB SLT ISZERO PUSH2 0x2D34 JUMPI DUP1 DUP2 REVERT JUMPDEST DUP2 MLOAD PUSH1 0xFF DUP2 AND DUP2 EQ PUSH2 0x1F49 JUMPI DUP2 DUP3 REVERT JUMPDEST PUSH1 0x60 SWAP4 SWAP1 SWAP4 SHL PUSH12 0xFFFFFFFFFFFFFFFFFFFFFFFF NOT AND DUP4 MSTORE PUSH1 0x14 DUP4 ADD SWAP2 SWAP1 SWAP2 MSTORE PUSH1 0x34 DUP3 ADD MSTORE PUSH1 0x54 ADD SWAP1 JUMP JUMPDEST PUSH1 0x0 DUP3 MLOAD PUSH2 0x2D80 DUP2 DUP5 PUSH1 0x20 DUP8 ADD PUSH2 0x352D JUMP JUMPDEST SWAP2 SWAP1 SWAP2 ADD SWAP3 SWAP2 POP POP JUMP JUMPDEST PUSH1 0x1 PUSH1 0x1 PUSH1 0xA0 SHL SUB SWAP2 SWAP1 SWAP2 AND DUP2 MSTORE PUSH1 0x20 ADD SWAP1 JUMP JUMPDEST PUSH1 0x1 PUSH1 0x1 PUSH1 0xA0 SHL SUB SWAP4 DUP5 AND DUP2 MSTORE SWAP2 SWAP1 SWAP3 AND PUSH1 0x20 DUP3 ADD MSTORE PUSH1 0x40 DUP2 ADD SWAP2 SWAP1 SWAP2 MSTORE PUSH1 0x60 ADD SWAP1 JUMP JUMPDEST PUSH1 0x1 PUSH1 0x1 PUSH1 0xA0 SHL SUB SWAP3 SWAP1 SWAP3 AND DUP3 MSTORE PUSH1 0x20 DUP3 ADD MSTORE PUSH1 0x40 ADD SWAP1 JUMP JUMPDEST PUSH1 0x20 DUP1 DUP3 MSTORE DUP3 MLOAD DUP3 DUP3 ADD DUP2 SWAP1 MSTORE PUSH1 0x0 SWAP2 SWAP1 PUSH1 0x40 SWAP1 DUP2 DUP6 ADD SWAP1 DUP7 DUP5 ADD DUP6 JUMPDEST DUP3 DUP2 LT ISZERO PUSH2 0x2E3C JUMPI DUP2 MLOAD DUP1 MLOAD DUP6 MSTORE DUP7 DUP2 ADD MLOAD DUP8 DUP7 ADD MSTORE DUP6 DUP2 ADD MLOAD DUP7 DUP7 ADD MSTORE PUSH1 0x60 DUP1 DUP3 ADD MLOAD SWAP1 DUP7 ADD MSTORE PUSH1 0x80 SWAP1 DUP2 ADD MLOAD SWAP1 DUP6 ADD MSTORE PUSH1 0xA0 SWAP1 SWAP4 ADD SWAP3 SWAP1 DUP6 ADD SWAP1 PUSH1 0x1 ADD PUSH2 0x2DF8 JUMP JUMPDEST POP SWAP2 SWAP8 SWAP7 POP POP POP POP POP POP POP JUMP JUMPDEST SWAP1 ISZERO ISZERO DUP2 MSTORE PUSH1 0x20 ADD SWAP1 JUMP JUMPDEST PUSH1 0x0 PUSH1 0x20 DUP3 MSTORE DUP3 MLOAD DUP1 PUSH1 0x20 DUP5 ADD MSTORE PUSH2 0x2E73 DUP2 PUSH1 0x40 DUP6 ADD PUSH1 0x20 DUP8 ADD PUSH2 0x352D JUMP JUMPDEST PUSH1 0x1F ADD PUSH1 0x1F NOT AND SWAP2 SWAP1 SWAP2 ADD PUSH1 0x40 ADD SWAP3 SWAP2 POP POP JUMP JUMPDEST PUSH1 0x20 DUP1 DUP3 MSTORE PUSH1 0x1B SWAP1 DUP3 ADD MSTORE PUSH32 0x6164647265737320686173206265656E20677265796C69737465640000000000 PUSH1 0x40 DUP3 ADD MSTORE PUSH1 0x60 ADD SWAP1 JUMP JUMPDEST PUSH1 0x20 DUP1 DUP3 MSTORE PUSH1 0x58 SWAP1 DUP3 ADD MSTORE PUSH32 0x50726576696F7573207265776172647320706572696F64206D75737420626520 PUSH1 0x40 DUP3 ADD MSTORE PUSH32 0x636F6D706C657465206265666F7265206368616E67696E672074686520647572 PUSH1 0x60 DUP3 ADD MSTORE PUSH32 0x6174696F6E20666F7220746865206E657720706572696F640000000000000000 PUSH1 0x80 DUP3 ADD MSTORE PUSH1 0xA0 ADD SWAP1 JUMP JUMPDEST PUSH1 0x20 DUP1 DUP3 MSTORE PUSH1 0x24 SWAP1 DUP3 ADD MSTORE PUSH32 0x4E6F7420656E6F75676820475220617661696C61626C6520666F722072657761 PUSH1 0x40 DUP3 ADD MSTORE PUSH4 0x72647321 PUSH1 0xE0 SHL PUSH1 0x60 DUP3 ADD MSTORE PUSH1 0x80 ADD SWAP1 JUMP JUMPDEST PUSH1 0x20 DUP1 DUP3 MSTORE PUSH1 0x16 SWAP1 DUP3 ADD MSTORE PUSH22 0x5374616B65206973207374696C6C206C6F636B656421 PUSH1 0x50 SHL PUSH1 0x40 DUP3 ADD MSTORE PUSH1 0x60 ADD SWAP1 JUMP JUMPDEST PUSH1 0x20 DUP1 DUP3 MSTORE PUSH1 0x26 SWAP1 DUP3 ADD MSTORE PUSH32 0x4F776E61626C653A206E6577206F776E657220697320746865207A65726F2061 PUSH1 0x40 DUP3 ADD MSTORE PUSH6 0x646472657373 PUSH1 0xD0 SHL PUSH1 0x60 DUP3 ADD MSTORE PUSH1 0x80 ADD SWAP1 JUMP JUMPDEST PUSH1 0x20 DUP1 DUP3 MSTORE PUSH1 0xE SWAP1 DUP3 ADD MSTORE PUSH14 0x43616E6E6F74207374616B65203 PUSH1 0x94 SHL PUSH1 0x40 DUP3 ADD MSTORE PUSH1 0x60 ADD SWAP1 JUMP JUMPDEST PUSH1 0x20 DUP1 DUP3 MSTORE PUSH1 0x1B SWAP1 DUP3 ADD MSTORE PUSH32 0x536166654D6174683A206164646974696F6E206F766572666C6F770000000000 PUSH1 0x40 DUP3 ADD MSTORE PUSH1 0x60 ADD SWAP1 JUMP JUMPDEST PUSH1 0x20 DUP1 DUP3 MSTORE PUSH1 0x1B SWAP1 DUP3 ADD MSTORE PUSH32 0x506572696F6420686173206E6F74206578706972656420796574210000000000 PUSH1 0x40 DUP3 ADD MSTORE PUSH1 0x60 ADD SWAP1 JUMP JUMPDEST PUSH1 0x20 DUP1 DUP3 MSTORE PUSH1 0x1E SWAP1 DUP3 ADD MSTORE PUSH32 0x536166654D6174683A207375627472616374696F6E206F766572666C6F770000 PUSH1 0x40 DUP3 ADD MSTORE PUSH1 0x60 ADD SWAP1 JUMP JUMPDEST PUSH1 0x20 DUP1 DUP3 MSTORE PUSH1 0x1A SWAP1 DUP3 ADD MSTORE PUSH32 0x536166654D6174683A206469766973696F6E206279207A65726F000000000000 PUSH1 0x40 DUP3 ADD MSTORE PUSH1 0x60 ADD SWAP1 JUMP JUMPDEST PUSH1 0x20 DUP1 DUP3 MSTORE PUSH1 0x30 SWAP1 DUP3 ADD MSTORE PUSH32 0x596F7520617265206E6F7420746865206F776E6572206F722074686520676F76 PUSH1 0x40 DUP3 ADD MSTORE PUSH16 0x65726E616E63652074696D656C6F636B PUSH1 0x80 SHL PUSH1 0x60 DUP3 ADD MSTORE PUSH1 0x80 ADD SWAP1 JUMP JUMPDEST PUSH1 0x20 DUP1 DUP3 MSTORE PUSH1 0x10 SWAP1 DUP3 ADD MSTORE PUSH16 0x14185D5CD8589B194E881C185D5CD959 PUSH1 0x82 SHL PUSH1 0x40 DUP3 ADD MSTORE PUSH1 0x60 ADD SWAP1 JUMP JUMPDEST PUSH1 0x20 DUP1 DUP3 MSTORE PUSH1 0x2E SWAP1 DUP3 ADD MSTORE PUSH32 0x496E697469616C697A61626C653A20636F6E747261637420697320616C726561 PUSH1 0x40 DUP3 ADD MSTORE PUSH14 0x191E481A5B9A5D1A585B1A5E9959 PUSH1 0x92 SHL PUSH1 0x60 DUP3 ADD MSTORE PUSH1 0x80 ADD SWAP1 JUMP JUMPDEST PUSH1 0x20 DUP1 DUP3 MSTORE PUSH1 0x11 SWAP1 DUP3 ADD MSTORE PUSH17 0x43616E6E6F74207769746864726177203 PUSH1 0x7C SHL PUSH1 0x40 DUP3 ADD MSTORE PUSH1 0x60 ADD SWAP1 JUMP JUMPDEST PUSH1 0x20 DUP1 DUP3 MSTORE PUSH1 0x21 SWAP1 DUP3 ADD MSTORE PUSH32 0x536166654D6174683A206D756C7469706C69636174696F6E206F766572666C6F PUSH1 0x40 DUP3 ADD MSTORE PUSH1 0x77 PUSH1 0xF8 SHL PUSH1 0x60 DUP3 ADD MSTORE PUSH1 0x80 ADD SWAP1 JUMP JUMPDEST PUSH1 0x20 DUP1 DUP3 MSTORE DUP2 DUP2 ADD MSTORE PUSH32 0x4F776E61626C653A2063616C6C6572206973206E6F7420746865206F776E6572 PUSH1 0x40 DUP3 ADD MSTORE PUSH1 0x60 ADD SWAP1 JUMP JUMPDEST PUSH1 0x20 DUP1 DUP3 MSTORE PUSH1 0x2D SWAP1 DUP3 ADD MSTORE PUSH32 0x4D756C7469706C696572206D7573742062652067726561746572207468616E20 PUSH1 0x40 DUP3 ADD MSTORE PUSH13 0x6F7220657175616C20746F2031 PUSH1 0x98 SHL PUSH1 0x60 DUP3 ADD MSTORE PUSH1 0x80 ADD SWAP1 JUMP JUMPDEST PUSH1 0x20 DUP1 DUP3 MSTORE PUSH1 0xF SWAP1 DUP3 ADD MSTORE PUSH15 0x14DD185AD9481B9BDD08199BDD5B99 PUSH1 0x8A SHL PUSH1 0x40 DUP3 ADD MSTORE PUSH1 0x60 ADD SWAP1 JUMP JUMPDEST PUSH1 0x20 DUP1 DUP3 MSTORE PUSH1 0x1D SWAP1 DUP3 ADD MSTORE PUSH32 0x416464726573733A2063616C6C20746F206E6F6E2D636F6E7472616374000000 PUSH1 0x40 DUP3 ADD MSTORE PUSH1 0x60 ADD SWAP1 JUMP JUMPDEST PUSH1 0x20 DUP1 DUP3 MSTORE PUSH1 0x36 SWAP1 DUP3 ADD MSTORE PUSH32 0x4D756C7469706C696572204D61782054696D65206D7573742062652067726561 PUSH1 0x40 DUP3 ADD MSTORE PUSH22 0x746572207468616E206F7220657175616C20746F2031 PUSH1 0x50 SHL PUSH1 0x60 DUP3 ADD MSTORE PUSH1 0x80 ADD SWAP1 JUMP JUMPDEST PUSH1 0x20 DUP1 DUP3 MSTORE PUSH1 0x2F SWAP1 DUP3 ADD MSTORE PUSH32 0x4D617820435220426F6F7374206D757374206265206772656174657220746861 PUSH1 0x40 DUP3 ADD MSTORE PUSH15 0x6E206F7220657175616C20746F2031 PUSH1 0x88 SHL PUSH1 0x60 DUP3 ADD MSTORE PUSH1 0x80 ADD SWAP1 JUMP JUMPDEST PUSH1 0x20 DUP1 DUP3 MSTORE PUSH1 0x2A SWAP1 DUP3 ADD MSTORE PUSH32 0x5361666545524332303A204552433230206F7065726174696F6E20646964206E PUSH1 0x40 DUP3 ADD MSTORE PUSH10 0x1BDD081CDD58D8D95959 PUSH1 0xB2 SHL PUSH1 0x60 DUP3 ADD MSTORE PUSH1 0x80 ADD SWAP1 JUMP JUMPDEST PUSH1 0x20 DUP1 DUP3 MSTORE PUSH1 0x24 SWAP1 DUP3 ADD MSTORE PUSH32 0x5472616E7366657248656C7065723A205452414E534645525F46524F4D5F4641 PUSH1 0x40 DUP3 ADD MSTORE PUSH4 0x12531151 PUSH1 0xE2 SHL PUSH1 0x60 DUP3 ADD MSTORE PUSH1 0x80 ADD SWAP1 JUMP JUMPDEST PUSH1 0x20 DUP1 DUP3 MSTORE PUSH1 0x1F SWAP1 DUP3 ADD MSTORE PUSH32 0x5265656E7472616E637947756172643A207265656E7472616E742063616C6C00 PUSH1 0x40 DUP3 ADD MSTORE PUSH1 0x60 ADD SWAP1 JUMP JUMPDEST PUSH1 0x20 DUP1 DUP3 MSTORE PUSH1 0x21 SWAP1 DUP3 ADD MSTORE PUSH32 0x43616E6E6F74207761697420666F722061206E65676174697665206E756D6265 PUSH1 0x40 DUP3 ADD MSTORE PUSH1 0x39 PUSH1 0xF9 SHL PUSH1 0x60 DUP3 ADD MSTORE PUSH1 0x80 ADD SWAP1 JUMP JUMPDEST PUSH1 0x20 DUP1 DUP3 MSTORE PUSH1 0x36 SWAP1 DUP3 ADD MSTORE PUSH32 0x4D756C7469706C696572204D696E2054696D65206D7573742062652067726561 PUSH1 0x40 DUP3 ADD MSTORE PUSH22 0x746572207468616E206F7220657175616C20746F2031 PUSH1 0x50 SHL PUSH1 0x60 DUP3 ADD MSTORE PUSH1 0x80 ADD SWAP1 JUMP JUMPDEST SWAP1 DUP2 MSTORE PUSH1 0x20 ADD SWAP1 JUMP JUMPDEST SWAP2 DUP3 MSTORE PUSH1 0x20 DUP3 ADD MSTORE PUSH1 0x40 ADD SWAP1 JUMP JUMPDEST PUSH1 0x0 JUMPDEST DUP4 DUP2 LT ISZERO PUSH2 0x3548 JUMPI DUP2 DUP2 ADD MLOAD DUP4 DUP3 ADD MSTORE PUSH1 0x20 ADD PUSH2 0x3530 JUMP JUMPDEST DUP4 DUP2 GT ISZERO PUSH2 0x3557 JUMPI PUSH1 0x0 DUP5 DUP5 ADD MSTORE JUMPDEST POP POP POP POP JUMP JUMPDEST PUSH1 0x1 PUSH1 0x1 PUSH1 0xA0 SHL SUB DUP2 AND DUP2 EQ PUSH2 0x242D JUMPI PUSH1 0x0 DUP1 REVERT INVALID LOG2 PUSH5 0x6970667358 0x22 SLT KECCAK256 0xE 0xB7 PUSH3 0x6B61D 0x4B 0xAB 0xC9 0xC4 CALLDATALOAD 0xB6 DUP11 PUSH25 0xD58DC39B902B1E0172F4D8ECE59E5D2A2AF864736F6C634300 MOD 0xC STOP CALLER "
		},
		"gasEstimates": {
			"creation": {
				"codeDepositCost": "2747200",
				"executionCost": "2992",
				"totalCost": "2750192"
			},
			"external": {
				"balanceOf(address)": "infinite",
				"boostedBalanceOf(address)": "1321",
				"crBoostMultiplier()": "infinite",
				"cr_boost_max_multiplier()": "1117",
				"earned(address)": "infinite",
				"getReward()": "infinite",
				"getRewardForDuration()": "infinite",
				"greylist(address)": "1403",
				"greylistAddress(address)": "23112",
				"initialize(address,address,address,address,uint256)": "infinite",
				"initializeDefault()": "43670",
				"lastTimeRewardApplicable()": "1225",
				"lastUpdateTime()": "1161",
				"lockedBalanceOf(address)": "1409",
				"lockedStakesOf(address)": "infinite",
				"locked_stake_max_multiplier()": "1096",
				"locked_stake_min_time()": "1184",
				"locked_stake_time_for_max_multiplier()": "1117",
				"owner()": "1160",
				"paused()": "1196",
				"periodFinish()": "1094",
				"recoverERC20(address,uint256)": "infinite",
				"renewIfApplicable()": "infinite",
				"renounceOwnership()": "24364",
				"rewardPerToken()": "infinite",
				"rewardPerTokenStored()": "1095",
				"rewardRate()": "1117",
				"rewards(address)": "1326",
				"rewardsDuration()": "1184",
				"rewardsFor(address)": "1364",
				"rewardsToken()": "1181",
				"setLockedStakeTimeForMinAndMaxMultiplier(uint256,uint256)": "infinite",
				"setMultipliers(uint256,uint256)": "infinite",
				"setOwnerAndTimelock(address)": "23057",
				"setRewardRate(uint256)": "infinite",
				"setRewardsDuration(uint256)": "24765",
				"stake(uint256)": "infinite",
				"stakeLocked(uint256,uint256)": "infinite",
				"stakingDecimals()": "infinite",
				"stakingMultiplier(uint256)": "infinite",
				"stakingToken()": "1137",
				"timelock_address()": "1225",
				"totalBoostedSupply()": "1120",
				"totalSupply()": "1185",
				"transferOwnership(address)": "24583",
				"unlockStakes()": "22842",
				"unlockedBalanceOf(address)": "1408",
				"unlockedStakes()": "1086",
				"userRewardPerTokenPaid(address)": "1325",
				"withdraw(uint256)": "infinite",
				"withdrawLocked(bytes32)": "infinite"
			},
			"internal": {
				"retroCatchUp()": "infinite"
			}
		},
		"methodIdentifiers": {
			"balanceOf(address)": "70a08231",
			"boostedBalanceOf(address)": "1beabcd2",
			"crBoostMultiplier()": "93b52be8",
			"cr_boost_max_multiplier()": "ce08bf13",
			"earned(address)": "008cc262",
			"getReward()": "3d18b912",
			"getRewardForDuration()": "1c1f78eb",
			"greylist(address)": "31ca208c",
			"greylistAddress(address)": "941d9f65",
			"initialize(address,address,address,address,uint256)": "f7013ef6",
			"initializeDefault()": "169d27ef",
			"lastTimeRewardApplicable()": "80faa57d",
			"lastUpdateTime()": "c8f33c91",
			"lockedBalanceOf(address)": "59355736",
			"lockedStakesOf(address)": "1e090f01",
			"locked_stake_max_multiplier()": "948de6ad",
			"locked_stake_min_time()": "9477eb1c",
			"locked_stake_time_for_max_multiplier()": "e0c18f70",
			"owner()": "8da5cb5b",
			"paused()": "5c975abb",
			"periodFinish()": "ebe2b12b",
			"recoverERC20(address,uint256)": "8980f11f",
			"renewIfApplicable()": "fee2eae6",
			"renounceOwnership()": "715018a6",
			"rewardPerToken()": "cd3daf9d",
			"rewardPerTokenStored()": "df136d65",
			"rewardRate()": "7b0a47ee",
			"rewards(address)": "0700037d",
			"rewardsDuration()": "386a9525",
			"rewardsFor(address)": "b51f7902",
			"rewardsToken()": "d1af0c7d",
			"setLockedStakeTimeForMinAndMaxMultiplier(uint256,uint256)": "af00f4e2",
			"setMultipliers(uint256,uint256)": "6f50f507",
			"setOwnerAndTimelock(address)": "db08e09d",
			"setRewardRate(uint256)": "9e447fc6",
			"setRewardsDuration(uint256)": "cc1a378f",
			"stake(uint256)": "a694fc3a",
			"stakeLocked(uint256,uint256)": "17b18c89",
			"stakingDecimals()": "c11f5344",
			"stakingMultiplier(uint256)": "4f232d50",
			"stakingToken()": "72f702f3",
			"timelock_address()": "dc6663c7",
			"totalBoostedSupply()": "0dda7299",
			"totalSupply()": "18160ddd",
			"transferOwnership(address)": "f2fde38b",
			"unlockStakes()": "e1ba95d2",
			"unlockedBalanceOf(address)": "84955c88",
			"unlockedStakes()": "399f5467",
			"userRewardPerTokenPaid(address)": "8b876347",
			"withdraw(uint256)": "2e1a7d4d",
			"withdrawLocked(bytes32)": "51e3fc17"
		}
	},
	"abi": [
		{
			"anonymous": false,
			"inputs": [],
			"name": "DefaultInitialization",
			"type": "event"
		},
		{
			"anonymous": false,
			"inputs": [
				{
					"indexed": false,
					"internalType": "uint256",
					"name": "multiplier",
					"type": "uint256"
				}
			],
			"name": "LockedStakeMaxMultiplierUpdated",
			"type": "event"
		},
		{
			"anonymous": false,
			"inputs": [
				{
					"indexed": false,
					"internalType": "uint256",
					"name": "secs",
					"type": "uint256"
				}
			],
			"name": "LockedStakeMinTime",
			"type": "event"
		},
		{
			"anonymous": false,
			"inputs": [
				{
					"indexed": false,
					"internalType": "uint256",
					"name": "secs",
					"type": "uint256"
				}
			],
			"name": "LockedStakeTimeForMaxMultiplier",
			"type": "event"
		},
		{
			"anonymous": false,
			"inputs": [
				{
					"indexed": false,
					"internalType": "uint256",
					"name": "multiplier",
					"type": "uint256"
				}
			],
			"name": "MaxCRBoostMultiplier",
			"type": "event"
		},
		{
			"anonymous": false,
			"inputs": [
				{
					"indexed": true,
					"internalType": "address",
					"name": "previousOwner",
					"type": "address"
				},
				{
					"indexed": true,
					"internalType": "address",
					"name": "newOwner",
					"type": "address"
				}
			],
			"name": "OwnershipTransferred",
			"type": "event"
		},
		{
			"anonymous": false,
			"inputs": [
				{
					"indexed": false,
					"internalType": "address",
					"name": "account",
					"type": "address"
				}
			],
			"name": "Paused",
			"type": "event"
		},
		{
			"anonymous": false,
			"inputs": [
				{
					"indexed": false,
					"internalType": "address",
					"name": "token",
					"type": "address"
				},
				{
					"indexed": false,
					"internalType": "uint256",
					"name": "amount",
					"type": "uint256"
				}
			],
			"name": "Recovered",
			"type": "event"
		},
		{
			"anonymous": false,
			"inputs": [
				{
					"indexed": false,
					"internalType": "uint256",
					"name": "reward",
					"type": "uint256"
				}
			],
			"name": "RewardAdded",
			"type": "event"
		},
		{
			"anonymous": false,
			"inputs": [
				{
					"indexed": true,
					"internalType": "address",
					"name": "user",
					"type": "address"
				},
				{
					"indexed": false,
					"internalType": "uint256",
					"name": "reward",
					"type": "uint256"
				}
			],
			"name": "RewardPaid",
			"type": "event"
		},
		{
			"anonymous": false,
			"inputs": [
				{
					"indexed": false,
					"internalType": "uint256",
					"name": "newDuration",
					"type": "uint256"
				}
			],
			"name": "RewardsDurationUpdated",
			"type": "event"
		},
		{
			"anonymous": false,
			"inputs": [
				{
					"indexed": false,
					"internalType": "address",
					"name": "token",
					"type": "address"
				}
			],
			"name": "RewardsPeriodRenewed",
			"type": "event"
		},
		{
			"anonymous": false,
			"inputs": [
				{
					"indexed": true,
					"internalType": "address",
					"name": "user",
					"type": "address"
				},
				{
					"indexed": false,
					"internalType": "uint256",
					"name": "amount",
					"type": "uint256"
				},
				{
					"indexed": false,
					"internalType": "uint256",
					"name": "secs",
					"type": "uint256"
				}
			],
			"name": "StakeLocked",
			"type": "event"
		},
		{
			"anonymous": false,
			"inputs": [
				{
					"indexed": true,
					"internalType": "address",
					"name": "user",
					"type": "address"
				},
				{
					"indexed": false,
					"internalType": "uint256",
					"name": "amount",
					"type": "uint256"
				}
			],
			"name": "Staked",
			"type": "event"
		},
		{
			"anonymous": false,
			"inputs": [
				{
					"indexed": false,
					"internalType": "address",
					"name": "account",
					"type": "address"
				}
			],
			"name": "Unpaused",
			"type": "event"
		},
		{
			"anonymous": false,
			"inputs": [
				{
					"indexed": true,
					"internalType": "address",
					"name": "user",
					"type": "address"
				},
				{
					"indexed": false,
					"internalType": "uint256",
					"name": "amount",
					"type": "uint256"
				}
			],
			"name": "Withdrawn",
			"type": "event"
		},
		{
			"anonymous": false,
			"inputs": [
				{
					"indexed": true,
					"internalType": "address",
					"name": "user",
					"type": "address"
				},
				{
					"indexed": false,
					"internalType": "uint256",
					"name": "amount",
					"type": "uint256"
				},
				{
					"indexed": false,
					"internalType": "bytes32",
					"name": "kek_id",
					"type": "bytes32"
				}
			],
			"name": "WithdrawnLocked",
			"type": "event"
		},
		{
			"inputs": [
				{
					"internalType": "address",
					"name": "account",
					"type": "address"
				}
			],
			"name": "balanceOf",
			"outputs": [
				{
					"internalType": "uint256",
					"name": "",
					"type": "uint256"
				}
			],
			"stateMutability": "view",
			"type": "function"
		},
		{
			"inputs": [
				{
					"internalType": "address",
					"name": "account",
					"type": "address"
				}
			],
			"name": "boostedBalanceOf",
			"outputs": [
				{
					"internalType": "uint256",
					"name": "",
					"type": "uint256"
				}
			],
			"stateMutability": "view",
			"type": "function"
		},
		{
			"inputs": [],
			"name": "crBoostMultiplier",
			"outputs": [
				{
					"internalType": "uint256",
					"name": "",
					"type": "uint256"
				}
			],
			"stateMutability": "view",
			"type": "function"
		},
		{
			"inputs": [],
			"name": "cr_boost_max_multiplier",
			"outputs": [
				{
					"internalType": "uint256",
					"name": "",
					"type": "uint256"
				}
			],
			"stateMutability": "view",
			"type": "function"
		},
		{
			"inputs": [
				{
					"internalType": "address",
					"name": "account",
					"type": "address"
				}
			],
			"name": "earned",
			"outputs": [
				{
					"internalType": "uint256",
					"name": "",
					"type": "uint256"
				}
			],
			"stateMutability": "view",
			"type": "function"
		},
		{
			"inputs": [],
			"name": "getReward",
			"outputs": [],
			"stateMutability": "nonpayable",
			"type": "function"
		},
		{
			"inputs": [],
			"name": "getRewardForDuration",
			"outputs": [
				{
					"internalType": "uint256",
					"name": "",
					"type": "uint256"
				}
			],
			"stateMutability": "view",
			"type": "function"
		},
		{
			"inputs": [
				{
					"internalType": "address",
					"name": "",
					"type": "address"
				}
			],
			"name": "greylist",
			"outputs": [
				{
					"internalType": "bool",
					"name": "",
					"type": "bool"
				}
			],
			"stateMutability": "view",
			"type": "function"
		},
		{
			"inputs": [
				{
					"internalType": "address",
					"name": "_address",
					"type": "address"
				}
			],
			"name": "greylistAddress",
			"outputs": [],
			"stateMutability": "nonpayable",
			"type": "function"
		},
		{
			"inputs": [
				{
					"internalType": "address",
					"name": "_rewardsToken",
					"type": "address"
				},
				{
					"internalType": "address",
					"name": "_stakingToken",
					"type": "address"
				},
				{
					"internalType": "address",
					"name": "_synth_address",
					"type": "address"
				},
				{
					"internalType": "address",
					"name": "_timelock_address",
					"type": "address"
				},
				{
					"internalType": "uint256",
					"name": "_rewardRate",
					"type": "uint256"
				}
			],
			"name": "initialize",
			"outputs": [],
			"stateMutability": "nonpayable",
			"type": "function"
		},
		{
			"inputs": [],
			"name": "initializeDefault",
			"outputs": [],
			"stateMutability": "nonpayable",
			"type": "function"
		},
		{
			"inputs": [],
			"name": "lastTimeRewardApplicable",
			"outputs": [
				{
					"internalType": "uint256",
					"name": "",
					"type": "uint256"
				}
			],
			"stateMutability": "view",
			"type": "function"
		},
		{
			"inputs": [],
			"name": "lastUpdateTime",
			"outputs": [
				{
					"internalType": "uint256",
					"name": "",
					"type": "uint256"
				}
			],
			"stateMutability": "view",
			"type": "function"
		},
		{
			"inputs": [
				{
					"internalType": "address",
					"name": "account",
					"type": "address"
				}
			],
			"name": "lockedBalanceOf",
			"outputs": [
				{
					"internalType": "uint256",
					"name": "",
					"type": "uint256"
				}
			],
			"stateMutability": "view",
			"type": "function"
		},
		{
			"inputs": [
				{
					"internalType": "address",
					"name": "account",
					"type": "address"
				}
			],
			"name": "lockedStakesOf",
			"outputs": [
				{
					"components": [
						{
							"internalType": "bytes32",
							"name": "kek_id",
							"type": "bytes32"
						},
						{
							"internalType": "uint256",
							"name": "start_timestamp",
							"type": "uint256"
						},
						{
							"internalType": "uint256",
							"name": "amount",
							"type": "uint256"
						},
						{
							"internalType": "uint256",
							"name": "ending_timestamp",
							"type": "uint256"
						},
						{
							"internalType": "uint256",
							"name": "multiplier",
							"type": "uint256"
						}
					],
					"internalType": "struct StakingRewards.LockedStake[]",
					"name": "",
					"type": "tuple[]"
				}
			],
			"stateMutability": "view",
			"type": "function"
		},
		{
			"inputs": [],
			"name": "locked_stake_max_multiplier",
			"outputs": [
				{
					"internalType": "uint256",
					"name": "",
					"type": "uint256"
				}
			],
			"stateMutability": "view",
			"type": "function"
		},
		{
			"inputs": [],
			"name": "locked_stake_min_time",
			"outputs": [
				{
					"internalType": "uint256",
					"name": "",
					"type": "uint256"
				}
			],
			"stateMutability": "view",
			"type": "function"
		},
		{
			"inputs": [],
			"name": "locked_stake_time_for_max_multiplier",
			"outputs": [
				{
					"internalType": "uint256",
					"name": "",
					"type": "uint256"
				}
			],
			"stateMutability": "view",
			"type": "function"
		},
		{
			"inputs": [],
			"name": "owner",
			"outputs": [
				{
					"internalType": "address",
					"name": "",
					"type": "address"
				}
			],
			"stateMutability": "view",
			"type": "function"
		},
		{
			"inputs": [],
			"name": "paused",
			"outputs": [
				{
					"internalType": "bool",
					"name": "",
					"type": "bool"
				}
			],
			"stateMutability": "view",
			"type": "function"
		},
		{
			"inputs": [],
			"name": "periodFinish",
			"outputs": [
				{
					"internalType": "uint256",
					"name": "",
					"type": "uint256"
				}
			],
			"stateMutability": "view",
			"type": "function"
		},
		{
			"inputs": [
				{
					"internalType": "address",
					"name": "tokenAddress",
					"type": "address"
				},
				{
					"internalType": "uint256",
					"name": "tokenAmount",
					"type": "uint256"
				}
			],
			"name": "recoverERC20",
			"outputs": [],
			"stateMutability": "nonpayable",
			"type": "function"
		},
		{
			"inputs": [],
			"name": "renewIfApplicable",
			"outputs": [],
			"stateMutability": "nonpayable",
			"type": "function"
		},
		{
			"inputs": [],
			"name": "renounceOwnership",
			"outputs": [],
			"stateMutability": "nonpayable",
			"type": "function"
		},
		{
			"inputs": [],
			"name": "rewardPerToken",
			"outputs": [
				{
					"internalType": "uint256",
					"name": "",
					"type": "uint256"
				}
			],
			"stateMutability": "view",
			"type": "function"
		},
		{
			"inputs": [],
			"name": "rewardPerTokenStored",
			"outputs": [
				{
					"internalType": "uint256",
					"name": "",
					"type": "uint256"
				}
			],
			"stateMutability": "view",
			"type": "function"
		},
		{
			"inputs": [],
			"name": "rewardRate",
			"outputs": [
				{
					"internalType": "uint256",
					"name": "",
					"type": "uint256"
				}
			],
			"stateMutability": "view",
			"type": "function"
		},
		{
			"inputs": [
				{
					"internalType": "address",
					"name": "",
					"type": "address"
				}
			],
			"name": "rewards",
			"outputs": [
				{
					"internalType": "uint256",
					"name": "",
					"type": "uint256"
				}
			],
			"stateMutability": "view",
			"type": "function"
		},
		{
			"inputs": [],
			"name": "rewardsDuration",
			"outputs": [
				{
					"internalType": "uint256",
					"name": "",
					"type": "uint256"
				}
			],
			"stateMutability": "view",
			"type": "function"
		},
		{
			"inputs": [
				{
					"internalType": "address",
					"name": "account",
					"type": "address"
				}
			],
			"name": "rewardsFor",
			"outputs": [
				{
					"internalType": "uint256",
					"name": "",
					"type": "uint256"
				}
			],
			"stateMutability": "view",
			"type": "function"
		},
		{
			"inputs": [],
			"name": "rewardsToken",
			"outputs": [
				{
					"internalType": "contract ERC20",
					"name": "",
					"type": "address"
				}
			],
			"stateMutability": "view",
			"type": "function"
		},
		{
			"inputs": [
				{
					"internalType": "uint256",
					"name": "_locked_stake_time_for_max_multiplier",
					"type": "uint256"
				},
				{
					"internalType": "uint256",
					"name": "_locked_stake_min_time",
					"type": "uint256"
				}
			],
			"name": "setLockedStakeTimeForMinAndMaxMultiplier",
			"outputs": [],
			"stateMutability": "nonpayable",
			"type": "function"
		},
		{
			"inputs": [
				{
					"internalType": "uint256",
					"name": "_locked_stake_max_multiplier",
					"type": "uint256"
				},
				{
					"internalType": "uint256",
					"name": "_cr_boost_max_multiplier",
					"type": "uint256"
				}
			],
			"name": "setMultipliers",
			"outputs": [],
			"stateMutability": "nonpayable",
			"type": "function"
		},
		{
			"inputs": [
				{
					"internalType": "address",
					"name": "_new_timelock",
					"type": "address"
				}
			],
			"name": "setOwnerAndTimelock",
			"outputs": [],
			"stateMutability": "nonpayable",
			"type": "function"
		},
		{
			"inputs": [
				{
					"internalType": "uint256",
					"name": "_new_rate",
					"type": "uint256"
				}
			],
			"name": "setRewardRate",
			"outputs": [],
			"stateMutability": "nonpayable",
			"type": "function"
		},
		{
			"inputs": [
				{
					"internalType": "uint256",
					"name": "_rewardsDuration",
					"type": "uint256"
				}
			],
			"name": "setRewardsDuration",
			"outputs": [],
			"stateMutability": "nonpayable",
			"type": "function"
		},
		{
			"inputs": [
				{
					"internalType": "uint256",
					"name": "amount",
					"type": "uint256"
				}
			],
			"name": "stake",
			"outputs": [],
			"stateMutability": "nonpayable",
			"type": "function"
		},
		{
			"inputs": [
				{
					"internalType": "uint256",
					"name": "amount",
					"type": "uint256"
				},
				{
					"internalType": "uint256",
					"name": "secs",
					"type": "uint256"
				}
			],
			"name": "stakeLocked",
			"outputs": [],
			"stateMutability": "nonpayable",
			"type": "function"
		},
		{
			"inputs": [],
			"name": "stakingDecimals",
			"outputs": [
				{
					"internalType": "uint256",
					"name": "",
					"type": "uint256"
				}
			],
			"stateMutability": "view",
			"type": "function"
		},
		{
			"inputs": [
				{
					"internalType": "uint256",
					"name": "secs",
					"type": "uint256"
				}
			],
			"name": "stakingMultiplier",
			"outputs": [
				{
					"internalType": "uint256",
					"name": "",
					"type": "uint256"
				}
			],
			"stateMutability": "view",
			"type": "function"
		},
		{
			"inputs": [],
			"name": "stakingToken",
			"outputs": [
				{
					"internalType": "contract ERC20",
					"name": "",
					"type": "address"
				}
			],
			"stateMutability": "view",
			"type": "function"
		},
		{
			"inputs": [],
			"name": "timelock_address",
			"outputs": [
				{
					"internalType": "address",
					"name": "",
					"type": "address"
				}
			],
			"stateMutability": "view",
			"type": "function"
		},
		{
			"inputs": [],
			"name": "totalBoostedSupply",
			"outputs": [
				{
					"internalType": "uint256",
					"name": "",
					"type": "uint256"
				}
			],
			"stateMutability": "view",
			"type": "function"
		},
		{
			"inputs": [],
			"name": "totalSupply",
			"outputs": [
				{
					"internalType": "uint256",
					"name": "",
					"type": "uint256"
				}
			],
			"stateMutability": "view",
			"type": "function"
		},
		{
			"inputs": [
				{
					"internalType": "address",
					"name": "newOwner",
					"type": "address"
				}
			],
			"name": "transferOwnership",
			"outputs": [],
			"stateMutability": "nonpayable",
			"type": "function"
		},
		{
			"inputs": [],
			"name": "unlockStakes",
			"outputs": [],
			"stateMutability": "nonpayable",
			"type": "function"
		},
		{
			"inputs": [
				{
					"internalType": "address",
					"name": "account",
					"type": "address"
				}
			],
			"name": "unlockedBalanceOf",
			"outputs": [
				{
					"internalType": "uint256",
					"name": "",
					"type": "uint256"
				}
			],
			"stateMutability": "view",
			"type": "function"
		},
		{
			"inputs": [],
			"name": "unlockedStakes",
			"outputs": [
				{
					"internalType": "bool",
					"name": "",
					"type": "bool"
				}
			],
			"stateMutability": "view",
			"type": "function"
		},
		{
			"inputs": [
				{
					"internalType": "address",
					"name": "",
					"type": "address"
				}
			],
			"name": "userRewardPerTokenPaid",
			"outputs": [
				{
					"internalType": "uint256",
					"name": "",
					"type": "uint256"
				}
			],
			"stateMutability": "view",
			"type": "function"
		},
		{
			"inputs": [
				{
					"internalType": "uint256",
					"name": "amount",
					"type": "uint256"
				}
			],
			"name": "withdraw",
			"outputs": [],
			"stateMutability": "nonpayable",
			"type": "function"
		},
		{
			"inputs": [
				{
					"internalType": "bytes32",
					"name": "kek_id",
					"type": "bytes32"
				}
			],
			"name": "withdrawLocked",
			"outputs": [],
			"stateMutability": "nonpayable",
			"type": "function"
		}
	]
}