{
	"data": {
		"bytecode": {
			"linkReferences": {
				"contracts/anchor/pool/PoolLibrary.sol": {
					"PoolLibrary": [
						{
							"length": 20,
							"start": 3555
						},
						{
							"length": 20,
							"start": 11169
						},
						{
							"length": 20,
							"start": 13748
						},
						{
							"length": 20,
							"start": 14763
						}
					]
				}
			},
			"object": "608060405234801561001057600080fd5b506157fe80620000216000396000f3fe608060405234801561001057600080fd5b50600436106103c55760003560e01c80639010d07c116101ff578063d2c897b41161011a578063f2fde38b116100ad578063f7013ef61161007c578063f7013ef614610916578063f7683bbc1461095c578063fede5c9c14610964578063ff9f4fb51461096c576103c5565b8063f2fde38b146108ba578063f41d43e3146108e0578063f51b41cc146108e8578063f61adab21461090e576103c5565b8063dcabc282116100e9578063dcabc2821461087c578063df4abc9c14610884578063e714df311461088c578063e81372c814610894576103c5565b8063d2c897b41461081d578063d547741f14610840578063da09c72c1461086c578063daa5048514610874576103c5565b8063b235d46811610192578063c4d7c18b11610161578063c4d7c18b146107cd578063c74ec56a146107f0578063ca15c873146107f8578063cb73999f14610815576103c5565b8063b235d46814610771578063b83458b414610779578063bdacb3031461079f578063c3355b8d146107c5576103c5565b8063abae2c4c116101ce578063abae2c4c146106df578063adc20b1c14610705578063b04f30101461072b578063b1d48f241461074e576103c5565b80639010d07c1461068057806391d14854146106a3578063a217fddf146106cf578063a6d5ab1b146106d7576103c5565b80634ebbe762116102ef5780637ad1f61b116102825780637f877f85116102515780637f877f85146106455780638266afa31461064d5780638d2ac7a4146106705780638da5cb5b14610678576103c5565b80637ad1f61b146106105780637b0461e91461062d5780637d55094d146106355780637e4831d31461063d576103c5565b80636ebb64a2116102be5780636ebb64a214610596578063715018a6146105bc5780637853c888146105c457806378f0cb76146105e7576103c5565b80634ebbe7621461053d57806350c9ecd91461057e5780636526a12a146105865780636d2c56151461058e576103c5565b8063248a9ca311610367578063401fe34e11610336578063401fe34e146104fc57806342d15aec14610525578063466e355a1461052d5780634c63493414610535576103c5565b8063248a9ca314610464578063283b38fc146104815780632f2ff15d146104a457806336568abe146104d0576103c5565b80631398992e116103a35780631398992e1461041457806314abc93f1461041c57806315128425146104385780631eaa0e1714610440576103c5565b806308a7493d146103ca578063101197c71461040257806312ace5a21461040a575b600080fd5b6103f0600480360360208110156103e057600080fd5b50356001600160a01b0316610974565b60408051918252519081900360200190f35b6103f0610986565b61041261098c565b005b6103f0610b6e565b610424610b74565b604080519115158252519081900360200190f35b6103f0610b84565b610448610b8a565b604080516001600160a01b039092168252519081900360200190f35b6103f06004803603602081101561047a57600080fd5b5035610b99565b6104126004803603604081101561049757600080fd5b5080359060200135610bae565b610412600480360360408110156104ba57600080fd5b50803590602001356001600160a01b03166110cd565b610412600480360360408110156104e657600080fd5b50803590602001356001600160a01b0316611139565b6104126004803603606081101561051257600080fd5b508035906020810135906040013561119a565b610412611760565b6104486117f0565b6103f06117ff565b610412600480360360e081101561055357600080fd5b5080359060208101359060408101359060608101359060808101359060a08101359060c00135611805565b610412611912565b6103f06119a4565b6104246119aa565b610412600480360360208110156105ac57600080fd5b50356001600160a01b03166119b9565b610412611a96565b610412600480360360408110156105da57600080fd5b5080359060200135611b54565b610412600480360360608110156105fd57600080fd5b5080359060208101359060400135611c55565b6104126004803603602081101561062657600080fd5b50356122bd565b6103f0612374565b61041261237a565b6104246123fa565b610424612403565b6104126004803603604081101561066357600080fd5b5080359060200135612413565b61042461268d565b61044861269e565b6104486004803603604081101561069657600080fd5b50803590602001356126ae565b610424600480360360408110156106b957600080fd5b50803590602001356001600160a01b03166126cf565b6103f06126e7565b6103f06126ec565b6103f0600480360360208110156106f557600080fd5b50356001600160a01b03166128b0565b6103f06004803603602081101561071b57600080fd5b50356001600160a01b03166128c2565b6104126004803603604081101561074157600080fd5b50803590602001356128d4565b6104126004803603604081101561076457600080fd5b5080359060200135612da1565b61042461323d565b6103f06004803603602081101561078f57600080fd5b50356001600160a01b031661324b565b610412600480360360208110156107b557600080fd5b50356001600160a01b031661325d565b6103f061332b565b610412600480360360408110156107e357600080fd5b5080359060200135613331565b6103f0613720565b6103f06004803603602081101561080e57600080fd5b5035613726565b6103f061373d565b6104126004803603604081101561083357600080fd5b5080359060200135613743565b6104126004803603604081101561085657600080fd5b50803590602001356001600160a01b0316613bdc565b610448613c35565b610412613c4b565b6103f0613cd9565b6103f0613cdf565b6103f0613d4e565b6103f0600480360360208110156108aa57600080fd5b50356001600160a01b0316613d54565b610412600480360360208110156108d057600080fd5b50356001600160a01b0316613d66565b610412613e7b565b610412600480360360208110156108fe57600080fd5b50356001600160a01b0316613f56565b6103f0614118565b610412600480360360a081101561092c57600080fd5b506001600160a01b03813581169160208101358216916040820135811691606081013590911690608001356142cb565b6103f0614658565b6103f0614718565b6103f061471e565b60a56020526000908152604090205481565b60a25481565b60b05433600090815260aa602052604090205443916109ab9190614724565b11156109e85760405162461bcd60e51b81526004018080602001828103825260428152602001806156396042913960600191505060405180910390fd5b60b05433600090815260ab60205260409020544391610a079190614724565b1115610a445760405162461bcd60e51b81526004018080602001828103825260428152602001806156396042913960600191505060405180910390fd5b33600090815260a460205260408120548190819081908190819015610a8f5733600090815260a460205260408120805491905560a854909350610a87908461477e565b60a855600195505b33600090815260a5602052604090205415610ad05733600090815260a560205260408120805491905560a754909250610ac8908361477e565b60a755600194505b33600090815260a6602052604090205415610b0f575033600090815260a660205260408120805491905560a954610b07908261477e565b60a955600193505b8515610b2c57609c54610b2c906001600160a01b031633856147db565b8415610b4957609754610b49906001600160a01b031633846147db565b8315610b6657609d54610b66906001600160a01b031633836147db565b505050505050565b60a85481565b60b354600160281b900460ff1681565b60b05481565b6098546001600160a01b031681565b60009081526033602052604090206002015490565b60b354610100900460ff1615610c01576040805162461bcd60e51b815260206004820152601360248201527214995919595b5a5b99c81a5cc81c185d5cd959606a1b604482015290519081900360640190fd5b60b154609d60009054906101000a90046001600160a01b03166001600160a01b031663c0be03616040518163ffffffff1660e01b815260040160206040518083038186803b158015610c5257600080fd5b505afa158015610c66573d6000803e3d6000fd5b505050506040513d6020811015610c7c57600080fd5b5051111580610c95575060b354600160281b900460ff16155b610cdd576040805162461bcd60e51b81526020600482015260146024820152730a6f2dce8d040e0e4d2c6ca40e8dede40d0d2ced60631b604482015290519081900360640190fd5b609d5460408051632eb9771b60e01b81529051620f4240926001600160a01b031691632eb9771b916004808301926020929190829003018186803b158015610d2457600080fd5b505afa158015610d38573d6000803e3d6000fd5b505050506040513d6020811015610d4e57600080fd5b505114610da2576040805162461bcd60e51b815260206004820152601d60248201527f436f6c6c61746572616c20726174696f206d757374206265203d3d2031000000604482015290519081900360640190fd5b6000610dbc60ac54600a0a8461494590919063ffffffff16565b9050600073__$8f641ec47a04b34e554873000c707fc226$__632e8e4fc0610de2614658565b846040518363ffffffff1660e01b8152600401808381526020018281526020019250505060206040518083038186803b158015610e1e57600080fd5b505af4158015610e32573d6000803e3d6000fd5b505050506040513d6020811015610e4857600080fd5b505160a154909150600090610e6d90620f424090610e679085906149ac565b90614945565b9050610e98620f4240610e67610e9160a154620f424061477e90919063ffffffff16565b85906149ac565b60a754609754604080516370a0823160e01b81523060048201529051939550610f1f936001600160a01b03909216916370a0823191602480820192602092909190829003018186803b158015610eed57600080fd5b505afa158015610f01573d6000803e3d6000fd5b505050506040513d6020811015610f1757600080fd5b50519061477e565b610f298383614724565b1115610f7c576040805162461bcd60e51b815260206004820152601d60248201527f4e6f7420656e6f75676820636f6c6c61746572616c20696e20706f6f6c000000604482015290519081900360640190fd5b81841115610fbf576040805162461bcd60e51b8152602060048201526016602482015260008051602061571b833981519152604482015290519081900360640190fd5b33600090815260a56020526040902054610fd99083614724565b33600090815260a560205260408082209290925560b354600160301b90046001600160a01b03168152205461100e9082614724565b60b354600160301b90046001600160a01b0316600090815260a5602052604090205560a7546110499082906110439085614724565b90614724565b60a75533600081815260aa6020526040808220439055609d548151635453bc5760e11b815260048101949094526024840189905290516001600160a01b039091169263a8a778ae92604480830193919282900301818387803b1580156110ae57600080fd5b505af11580156110c2573d6000803e3d6000fd5b505050505050505050565b6000828152603360205260409020600201546110f0906110eb614a05565b6126cf565b61112b5760405162461bcd60e51b815260040180806020018281038252602f815260200180615513602f913960400191505060405180910390fd5b6111358282614a09565b5050565b611141614a05565b6001600160a01b0316816001600160a01b0316146111905760405162461bcd60e51b815260040180806020018281038252602f81526020018061579a602f913960400191505060405180910390fd5b6111358282614a72565b60b35460ff16156111e6576040805162461bcd60e51b8152602060048201526011602482015270135a5b9d1a5b99c81a5cc81c185d5cd959607a1b604482015290519081900360640190fd5b60b254609d60009054906101000a90046001600160a01b03166001600160a01b031663c0be03616040518163ffffffff1660e01b815260040160206040518083038186803b15801561123757600080fd5b505afa15801561124b573d6000803e3d6000fd5b505050506040513d602081101561126157600080fd5b505110158061127a575060b354600160281b900460ff16155b6112c1576040805162461bcd60e51b815260206004820152601360248201527253796e746820707269636520746f6f206c6f7760681b604482015290519081900360640190fd5b609d546040805163f9283a8760e01b815290516000926001600160a01b03169163f9283a87916004808301926020929190829003018186803b15801561130657600080fd5b505afa15801561131a573d6000803e3d6000fd5b505050506040513d602081101561133057600080fd5b5051609d5460408051632eb9771b60e01b815290519293506000926001600160a01b0390921691632eb9771b91600480820192602092909190829003018186803b15801561137d57600080fd5b505afa158015611391573d6000803e3d6000fd5b505050506040513d60208110156113a757600080fd5b50519050620f4240811080156113bd5750600081115b6113f85760405162461bcd60e51b81526004018080602001828103825260388152602001806155de6038913960400191505060405180910390fd5b60ad5460a754609754604080516370a0823160e01b81523060048201529051611454938a936110439391926001600160a01b03909116916370a08231916024808301926020929190829003018186803b158015610eed57600080fd5b11156114915760405162461bcd60e51b81526004018080602001828103825260468152602001806155986046913960600191505060405180910390fd5b60ac54600a0a85026114a1615499565b6040518060a001604052808581526020016114ba614658565b81526020018781526020018381526020018481525090506000806114dd83614adb565b9150915060006114ff620f4240610e6760a054866149ac90919063ffffffff16565b905061152a620f4240610e6761152360a054620f424061477e90919063ffffffff16565b86906149ac565b92508288111561156f576040805162461bcd60e51b8152602060048201526016602482015260008051602061571b833981519152604482015290519081900360640190fd5b888211156115bd576040805162461bcd60e51b8152602060048201526016602482015275139bdd08195b9bdd59da0811dc881a5b9c1d5d1d195960521b604482015290519081900360640190fd5b609c5460408051635453bc5760e11b81523360048201526024810185905290516001600160a01b039092169163a8a778ae9160448082019260009290919082900301818387803b15801561161057600080fd5b505af1158015611624573d6000803e3d6000fd5b505060975461164192506001600160a01b0316905033308d614b8a565b33600090815260a6602052604090205461165b9084614724565b33600090815260a660205260408082209290925560b354600160301b90046001600160a01b0316815220546116909082614724565b60b354600160301b90046001600160a01b0316600090815260a6602052604090205560a9546116c59082906110439086614724565b60a95533600090815260ab60205260409020439055609d546001600160a01b031663b4f56b26306116f68685614724565b6040518363ffffffff1660e01b815260040180836001600160a01b0316815260200182815260200192505050600060405180830381600087803b15801561173c57600080fd5b505af1158015611750573d6000803e3d6000fd5b5050505050505050505050505050565b61178a7f8118eeb5231a5fe4008a55b62860f6a0db4f6c3ac04f8141927a9b3fedd86d2f336126cf565b61179357600080fd5b60b3805460ff62010000808304821615810262ff00001990931692909217928390556040805192909304161515815290517f2fda313d9b5bb0b73bd003153f2fccbc0dca49791fdd1184dfad82b44f54bd2e9181900360200190a1565b609f546001600160a01b031681565b60af5481565b609b546001600160a01b0316331480611836575061182161269e565b6001600160a01b0316336001600160a01b0316145b61187f576040805162461bcd60e51b81526020600482015260156024820152744e6f74206f776e6572206f722074696d656c6f636b60581b604482015290519081900360640190fd5b6000871161188c57600080fd5b60ad87905560af86905560b085905560a084815560a184905560a283905560a38290556040805189815260208101899052808201889052606081018790526080810186905291820184905260c08201839052517f17fe98b66d27bd793ea01bd8a23a54acab8eeb167d9eb016a0c7cd71c573920c9181900360e00190a150505050505050565b61193c7f103da79ff3755ff7a17a557d28b73d37cb4de0b3c3cc02fa6c48df0f35071fbf336126cf565b61194557600080fd5b60b3805460ff6301000000808304821615810263ff0000001990931692909217928390556040805192909304161515815290517f4f40fd1c59f78d7a2220da638cd9400daba01e57c7965702f390bf13133cc31f9181900360200190a1565b60ad5481565b60b35462010000900460ff1681565b609b546001600160a01b03163314806119ea57506119d561269e565b6001600160a01b0316336001600160a01b0316145b611a33576040805162461bcd60e51b81526020600482015260156024820152744e6f74206f776e6572206f722074696d656c6f636b60581b604482015290519081900360640190fd5b60b380546001600160a01b038316600160301b81026601000000000000600160d01b03199092169190911790915560408051918252517f1091e56d4134949b3981ebae36bd0ff6d1a069e6875040a5ee2f85c6d7a491a19181900360200190a150565b611a9e614a05565b6001600160a01b0316611aaf61269e565b6001600160a01b031614611b0a576040805162461bcd60e51b815260206004820181905260248201527f4f776e61626c653a2063616c6c6572206973206e6f7420746865206f776e6572604482015290519081900360640190fd5b6065546040516000916001600160a01b0316907f8be0079c531659141344cd1fd0a4f28419497f9722a3daafe3b4186f6b6457e0908390a3606580546001600160a01b0319169055565b609b546001600160a01b0316331480611b855750611b7061269e565b6001600160a01b0316336001600160a01b0316145b611bce576040805162461bcd60e51b81526020600482015260156024820152744e6f74206f776e6572206f722074696d656c6f636b60581b604482015290519081900360640190fd5b808211611c0c5760405162461bcd60e51b815260040180806020018281038252603b81526020018061573b603b913960400191505060405180910390fd5b60b282905560b1819055604080518381526020810183905281517f08f944f25b910c541435bcde52d233072e903b37afc29bc8b5787b6e74d82c1a929181900390910190a15050565b60b354610100900460ff1615611ca8576040805162461bcd60e51b815260206004820152601360248201527214995919595b5a5b99c81a5cc81c185d5cd959606a1b604482015290519081900360640190fd5b60b154609d60009054906101000a90046001600160a01b03166001600160a01b031663c0be03616040518163ffffffff1660e01b815260040160206040518083038186803b158015611cf957600080fd5b505afa158015611d0d573d6000803e3d6000fd5b505050506040513d6020811015611d2357600080fd5b5051111580611d3c575060b354600160281b900460ff16155b611d84576040805162461bcd60e51b81526020600482015260146024820152730a6f2dce8d040e0e4d2c6ca40e8dede40d0d2ced60631b604482015290519081900360640190fd5b609d546040805163f9283a8760e01b815290516000926001600160a01b03169163f9283a87916004808301926020929190829003018186803b158015611dc957600080fd5b505afa158015611ddd573d6000803e3d6000fd5b505050506040513d6020811015611df357600080fd5b5051609d5460408051632eb9771b60e01b815290519293506000926001600160a01b0390921691632eb9771b91600480820192602092909190829003018186803b158015611e4057600080fd5b505afa158015611e54573d6000803e3d6000fd5b505050506040513d6020811015611e6a57600080fd5b50519050620f424081108015611e805750600081115b611ebb5760405162461bcd60e51b81526004018080602001828103825260388152602001806155de6038913960400191505060405180910390fd5b6000611ec5614658565b90506000611ee5620f4240610e6760a1548a6149ac90919063ffffffff16565b90506000611f12620f4240610e67611f0b60a154620f424061477e90919063ffffffff16565b8b906149ac565b90506000611f31611f2a620f4240610e6785896149ac565b839061477e565b90506000611f4687610e6784620f42406149ac565b90506000611f6260ac54600a0a8561494590919063ffffffff16565b90506000611f77620f4240610e67848b6149ac565b90506000611f8c88610e6784620f42406149ac565b60a754609754604080516370a0823160e01b81523060048201529051939450611fe1936001600160a01b03909216916370a0823191602480820192602092909190829003018186803b158015610eed57600080fd5b811115612035576040805162461bcd60e51b815260206004820152601d60248201527f4e6f7420656e6f75676820636f6c6c61746572616c20696e20706f6f6c000000604482015290519081900360640190fd5b808b11156120745760405162461bcd60e51b81526004018080602001828103825260238152602001806156166023913960400191505060405180910390fd5b838c11156120c9576040805162461bcd60e51b815260206004820152601b60248201527f536c697070616765206c696d69742072656163686564205b47725d0000000000604482015290519081900360640190fd5b33600090815260a560205260409020546120e39082614724565b33600090815260a5602052604090205560a7546121009082614724565b60a75533600090815260a4602052604090205461211d9085614724565b33600090815260a4602052604090205560a85461213a9085614724565b60a85533600090815260aa6020526040808220439055609d5460b3548251635a7ab59360e11b81526001600160a01b03600160301b90920482166004820152602481018c9052925191169263b4f56b26926044808201939182900301818387803b1580156121a757600080fd5b505af11580156121bb573d6000803e3d6000fd5b50505050609d60009054906101000a90046001600160a01b03166001600160a01b031663a8a778ae338f6040518363ffffffff1660e01b815260040180836001600160a01b0316815260200182815260200192505050600060405180830381600087803b15801561222b57600080fd5b505af115801561223f573d6000803e3d6000fd5b5050609c5460408051635a7ab59360e11b81523060048201526024810189905290516001600160a01b03909216935063b4f56b26925060448082019260009290919082900301818387803b15801561229657600080fd5b505af11580156122aa573d6000803e3d6000fd5b5050505050505050505050505050505050565b6122e77fbb2c68b8dc5bccdd2536307080a7865a7e133bf54e31d4d463b1b749b4bcf26d336126cf565b6122f057600080fd5b60b354640100000000900460ff1661230c5760ae819055612312565b600060ae555b60b3805460ff640100000000808304821615810264ff000000001990931692909217928390556040805192909304161515815290517fbf1f9e6d8d67bb57a141c627f40368ec23ed7603249f0c3518c16eafbf9c4f6f9181900360200190a150565b60a75481565b6123a47fc65532185ed70b2e999433e2e9fac124e083acb13ec183a4e05944da0792337b336126cf565b6123ad57600080fd5b60b3805460ff19811660ff918216151791829055604080519290911615158252517f6bdfe227d5db299c59aa56d5f846f40dbd73b271aaa78e18ed74fc3e00b8aa6b9181900360200190a1565b60b35460ff1681565b60b3546301000000900460ff1681565b60b3546301000000900460ff1615612466576040805162461bcd60e51b8152602060048201526011602482015270109d5e589858dac81a5cc81c185d5cd959607a1b604482015290519081900360640190fd5b609d546040805163f9283a8760e01b815290516000926001600160a01b03169163f9283a87916004808301926020929190829003018186803b1580156124ab57600080fd5b505afa1580156124bf573d6000803e3d6000fd5b505050506040513d60208110156124d557600080fd5b505190506124e16154c8565b60405180608001604052806124f4614118565b8152602001838152602001612507614658565b81526020018590529050600061251c82614cdf565b9050600061253c620f4240610e6760a254856149ac90919063ffffffff16565b9050600061255860ac54600a0a8361494590919063ffffffff16565b90506000612585620f4240610e6761257e60a254620f424061477e90919063ffffffff16565b87906149ac565b905060006125a160ac54600a0a8361494590919063ffffffff16565b9050808811156125e6576040805162461bcd60e51b8152602060048201526016602482015260008051602061571b833981519152604482015290519081900360640190fd5b609c5460408051635453bc5760e11b8152336004820152602481018c905290516001600160a01b039092169163a8a778ae9160448082019260009290919082900301818387803b15801561263957600080fd5b505af115801561264d573d6000803e3d6000fd5b505060975461266992506001600160a01b0316905033836147db565b60975460b3546110c2916001600160a01b0390811691600160301b900416856147db565b60b354640100000000900460ff1681565b6065546001600160a01b03165b90565b60008281526033602052604081206126c69083614da7565b90505b92915050565b60008281526033602052604081206126c69083614db3565b600081565b600080609d60009054906101000a90046001600160a01b03166001600160a01b03166318160ddd6040518163ffffffff1660e01b815260040160206040518083038186803b15801561273d57600080fd5b505afa158015612751573d6000803e3d6000fd5b505050506040513d602081101561276757600080fd5b5051609d5460408051632eb9771b60e01b815290519293506000926001600160a01b0390921691632eb9771b91600480820192602092909190829003018186803b1580156127b457600080fd5b505afa1580156127c8573d6000803e3d6000fd5b505050506040513d60208110156127de57600080fd5b5051609d546040805163696cbd8360e11b815290519293506000926001600160a01b039092169163d2d97b0691600480820192602092909190829003018186803b15801561282b57600080fd5b505afa15801561283f573d6000803e3d6000fd5b505050506040513d602081101561285557600080fd5b50519050600061286c84610e6784620f42406149ac565b9050808311156128a55761289a620f4240610e6761288a87856149ac565b61289487896149ac565b9061477e565b9450505050506126ab565b600094505050505090565b60aa6020526000908152604090205481565b60ab6020526000908152604090205481565b60b35460ff1615612920576040805162461bcd60e51b8152602060048201526011602482015270135a5b9d1a5b99c81a5cc81c185d5cd959607a1b604482015290519081900360640190fd5b60b254609d60009054906101000a90046001600160a01b03166001600160a01b031663c0be03616040518163ffffffff1660e01b815260040160206040518083038186803b15801561297157600080fd5b505afa158015612985573d6000803e3d6000fd5b505050506040513d602081101561299b57600080fd5b50511015806129b4575060b354600160281b900460ff16155b6129fb576040805162461bcd60e51b815260206004820152601360248201527253796e746820707269636520746f6f206c6f7760681b604482015290519081900360640190fd5b60ac54609d5460408051632eb9771b60e01b81529051600a9390930a850292620f4240926001600160a01b031691632eb9771b916004808301926020929190829003018186803b158015612a4e57600080fd5b505afa158015612a62573d6000803e3d6000fd5b505050506040513d6020811015612a7857600080fd5b50511015612acd576040805162461bcd60e51b815260206004820152601d60248201527f436f6c6c61746572616c20726174696f206d757374206265203e3d2031000000604482015290519081900360640190fd5b60ad5460a754609754604080516370a0823160e01b81523060048201529051612b299388936110439391926001600160a01b03909116916370a08231916024808301926020929190829003018186803b158015610eed57600080fd5b1115612b7c576040805162461bcd60e51b815260206004820181905260248201527f5b506f6f6c277320436c6f7365645d3a204365696c696e672072656163686564604482015290519081900360640190fd5b600073__$8f641ec47a04b34e554873000c707fc226$__633a1ef8aa612ba0614658565b846040518363ffffffff1660e01b8152600401808381526020018281526020019250505060206040518083038186803b158015612bdc57600080fd5b505af4158015612bf0573d6000803e3d6000fd5b505050506040513d6020811015612c0657600080fd5b505160a054909150600090612c2590620f424090610e679085906149ac565b9050612c49620f4240610e67610e9160a054620f424061477e90919063ffffffff16565b915081841115612c8e576040805162461bcd60e51b8152602060048201526016602482015260008051602061571b833981519152604482015290519081900360640190fd5b609754612ca6906001600160a01b0316333088614b8a565b33600090815260a66020526040902054612cc09083614724565b33600090815260a660205260408082209290925560b354600160301b90046001600160a01b031681522054612cf59082614724565b60b354600160301b90046001600160a01b0316600090815260a6602052604090205560a954612d2a9082906110439085614724565b60a95533600090815260ab60205260409020439055609d546001600160a01b031663b4f56b2630612d5b8585614724565b6040518363ffffffff1660e01b815260040180836001600160a01b0316815260200182815260200192505050600060405180830381600087803b1580156110ae57600080fd5b60b354610100900460ff1615612df4576040805162461bcd60e51b815260206004820152601360248201527214995919595b5a5b99c81a5cc81c185d5cd959606a1b604482015290519081900360640190fd5b60b154609d60009054906101000a90046001600160a01b03166001600160a01b031663c0be03616040518163ffffffff1660e01b815260040160206040518083038186803b158015612e4557600080fd5b505afa158015612e59573d6000803e3d6000fd5b505050506040513d6020811015612e6f57600080fd5b5051111580612e88575060b354600160281b900460ff16155b612ed0576040805162461bcd60e51b81526020600482015260146024820152730a6f2dce8d040e0e4d2c6ca40e8dede40d0d2ced60631b604482015290519081900360640190fd5b609d546040805163f9283a8760e01b815290516000926001600160a01b03169163f9283a87916004808301926020929190829003018186803b158015612f1557600080fd5b505afa158015612f29573d6000803e3d6000fd5b505050506040513d6020811015612f3f57600080fd5b5051609d5460408051632eb9771b60e01b815290519293506000926001600160a01b0390921691632eb9771b91600480820192602092909190829003018186803b158015612f8c57600080fd5b505afa158015612fa0573d6000803e3d6000fd5b505050506040513d6020811015612fb657600080fd5b50519050801561300d576040805162461bcd60e51b815260206004820152601a60248201527f436f6c6c61746572616c20726174696f206d7573742062652030000000000000604482015290519081900360640190fd5b60008490506000613030620f4240610e6760a154856149ac90919063ffffffff16565b9050600061304585610e6784620f42406149ac565b9050613069620f4240610e6761152360a154620f424061477e90919063ffffffff16565b9250600061307e86610e6786620f42406149ac565b33600090815260a4602052604090205490915061309b9082614724565b33600090815260a460205260408082209290925560b354600160301b90046001600160a01b0316815220546130d09083614724565b60b354600160301b90046001600160a01b0316600090815260a4602052604090205560a8546131059083906110439084614724565b60a85533600090815260aa602052604090204390558087111561315d576040805162461bcd60e51b8152602060048201526016602482015260008051602061571b833981519152604482015290519081900360640190fd5b609d5460408051635453bc5760e11b8152336004820152602481018b905290516001600160a01b039092169163a8a778ae9160448082019260009290919082900301818387803b1580156131b057600080fd5b505af11580156131c4573d6000803e3d6000fd5b5050609c5460408051635a7ab59360e11b81523060048201526024810186905290516001600160a01b03909216935063b4f56b26925060448082019260009290919082900301818387803b15801561321b57600080fd5b505af115801561322f573d6000803e3d6000fd5b505050505050505050505050565b60b354610100900460ff1681565b60a46020526000908152604090205481565b609b546001600160a01b031633148061328e575061327961269e565b6001600160a01b0316336001600160a01b0316145b6132d7576040805162461bcd60e51b81526020600482015260156024820152744e6f74206f776e6572206f722074696d656c6f636b60581b604482015290519081900360640190fd5b609b80546001600160a01b0383166001600160a01b0319909116811790915560408051918252517f7e7ee4175d63f671fac3401d5f401ed18d1f48a586e756f404d5696fc77a70589181900360200190a150565b60a05481565b60b35460ff161561337d576040805162461bcd60e51b8152602060048201526011602482015270135a5b9d1a5b99c81a5cc81c185d5cd959607a1b604482015290519081900360640190fd5b60b254609d60009054906101000a90046001600160a01b03166001600160a01b031663c0be03616040518163ffffffff1660e01b815260040160206040518083038186803b1580156133ce57600080fd5b505afa1580156133e2573d6000803e3d6000fd5b505050506040513d60208110156133f857600080fd5b5051101580613411575060b354600160281b900460ff16155b613458576040805162461bcd60e51b815260206004820152601360248201527253796e746820707269636520746f6f206c6f7760681b604482015290519081900360640190fd5b609d546040805163f9283a8760e01b815290516000926001600160a01b03169163f9283a87916004808301926020929190829003018186803b15801561349d57600080fd5b505afa1580156134b1573d6000803e3d6000fd5b505050506040513d60208110156134c757600080fd5b5051609d5460408051632eb9771b60e01b815290519293506001600160a01b0390911691632eb9771b91600480820192602092909190829003018186803b15801561351157600080fd5b505afa158015613525573d6000803e3d6000fd5b505050506040513d602081101561353b57600080fd5b50511561358f576040805162461bcd60e51b815260206004820152601a60248201527f436f6c6c61746572616c20726174696f206d7573742062652030000000000000604482015290519081900360640190fd5b600073__$8f641ec47a04b34e554873000c707fc226$__63ba3e728183866040518363ffffffff1660e01b8152600401808381526020018281526020019250505060206040518083038186803b1580156135e857600080fd5b505af41580156135fc573d6000803e3d6000fd5b505050506040513d602081101561361257600080fd5b505160a05490915060009061363190620f424090610e679085906149ac565b9050613655620f4240610e67610e9160a054620f424061477e90919063ffffffff16565b91508184111561369a576040805162461bcd60e51b8152602060048201526016602482015260008051602061571b833981519152604482015290519081900360640190fd5b609c5460408051635453bc5760e11b81523360048201526024810188905290516001600160a01b039092169163a8a778ae9160448082019260009290919082900301818387803b1580156136ed57600080fd5b505af1158015613701573d6000803e3d6000fd5b505033600090815260a66020526040902054612cc09250905083614724565b60ae5481565b60008181526033602052604081206126c990614dc8565b60a15481565b60b35462010000900460ff16156137a1576040805162461bcd60e51b815260206004820152601960248201527f5265636f6c6c61746572616c697a652069732070617573656400000000000000604482015290519081900360640190fd5b60ac54609d546040805163f9283a8760e01b81529051600a9390930a8502926000926001600160a01b03169163f9283a87916004808301926020929190829003018186803b1580156137f257600080fd5b505afa158015613806573d6000803e3d6000fd5b505050506040513d602081101561381c57600080fd5b5051609d54604080516318160ddd60e01b815290519293506000926001600160a01b03909216916318160ddd91600480820192602092909190829003018186803b15801561386957600080fd5b505afa15801561387d573d6000803e3d6000fd5b505050506040513d602081101561389357600080fd5b5051609d5460408051632eb9771b60e01b815290519293506000926001600160a01b0390921691632eb9771b91600480820192602092909190829003018186803b1580156138e057600080fd5b505afa1580156138f4573d6000803e3d6000fd5b505050506040513d602081101561390a57600080fd5b5051609d546040805163696cbd8360e11b815290519293506000926001600160a01b039092169163d2d97b0691600480820192602092909190829003018186803b15801561395757600080fd5b505afa15801561396b573d6000803e3d6000fd5b505050506040513d602081101561398157600080fd5b5051905060008073__$8f641ec47a04b34e554873000c707fc226$__635c6aedc8886139ab614658565b8689896040518663ffffffff1660e01b81526004018086815260200185815260200184815260200183815260200182815260200195505050505050604080518083038186803b1580156139fd57600080fd5b505af4158015613a11573d6000803e3d6000fd5b505050506040513d6040811015613a2757600080fd5b50805160209091015160ac549193509150600090613a49908490600a0a614945565b90506000613a6688610e6760a354866149ac90919063ffffffff16565b90506000613a8f89610e6761257e60a35461289460af54620f424061472490919063ffffffff16565b9050808b1115613ad4576040805162461bcd60e51b8152602060048201526016602482015260008051602061571b833981519152604482015290519081900360640190fd5b609754613aec906001600160a01b0316333086614b8a565b609c5460408051635a7ab59360e11b81523360048201526024810184905290516001600160a01b039092169163b4f56b269160448082019260009290919082900301818387803b158015613b3f57600080fd5b505af1158015613b53573d6000803e3d6000fd5b5050609c5460b35460408051635a7ab59360e11b8152600160301b9092046001600160a01b0390811660048401526024830188905290519216935063b4f56b26925060448082019260009290919082900301818387803b158015613bb657600080fd5b505af1158015613bca573d6000803e3d6000fd5b50505050505050505050505050505050565b600082815260336020526040902060020154613bfa906110eb614a05565b6111905760405162461bcd60e51b815260040180806020018281038252603081526020018061569c6030913960400191505060405180910390fd5b60b354600160301b90046001600160a01b031681565b613c757fa84a5389ad41f9aab0831b01e5384cae76e7a7fd09131c206ff7927c201c3857336126cf565b613c7e57600080fd5b60b3805460ff610100808304821615810261ff001990931692909217928390556040805192909304161515815290517f5860c5063a65e23cea4e2e2925f1a841bb6d1bc9615bd425f8dd084980b051419181900360200190a1565b60a95481565b6000613d49620f4240610e67613cf3614658565b60a754609754604080516370a0823160e01b81523060048201529051613d4393926001600160a01b0316916370a08231916024808301926020929190829003018186803b158015610eed57600080fd5b906149ac565b905090565b60b25481565b60a66020526000908152604090205481565b613d6e614a05565b6001600160a01b0316613d7f61269e565b6001600160a01b031614613dda576040805162461bcd60e51b815260206004820181905260248201527f4f776e61626c653a2063616c6c6572206973206e6f7420746865206f776e6572604482015290519081900360640190fd5b6001600160a01b038116613e1f5760405162461bcd60e51b81526004018080602001828103825260268152602001806155726026913960400191505060405180910390fd5b6065546040516001600160a01b038084169216907f8be0079c531659141344cd1fd0a4f28419497f9722a3daafe3b4186f6b6457e090600090a3606580546001600160a01b0319166001600160a01b0392909216919091179055565b609b546001600160a01b0316331480613eac5750613e9761269e565b6001600160a01b0316336001600160a01b0316145b613ef5576040805162461bcd60e51b81526020600482015260156024820152744e6f74206f776e6572206f722074696d656c6f636b60581b604482015290519081900360640190fd5b60b3805460ff600160281b808304821615810265ff00000000001990931692909217928390556040805192909304161515815290517f26b40c82e928ed696a436de6d145252b09951aa14696c8f82f75cc25166121a59181900360200190a1565b609b546001600160a01b0316331480613f875750613f7261269e565b6001600160a01b0316336001600160a01b0316145b613fd0576040805162461bcd60e51b81526020600482015260156024820152744e6f74206f776e6572206f722074696d656c6f636b60581b604482015290519081900360640190fd5b6001600160a01b038116614023576040805162461bcd60e51b815260206004820152601560248201527416995c9bc81859191c995cdcc819195d1958dd1959605a1b604482015290519081900360640190fd5b609f80546001600160a01b038084166001600160a01b03199283161792839055609e8054909216928116929092179081905560408051633c05076160e21b81529051919092169163f0141d84916004808301926020929190829003018186803b15801561408f57600080fd5b505afa1580156140a3573d6000803e3d6000fd5b505050506040513d60208110156140b957600080fd5b5051609f805460ff909216600160a01b0260ff60a01b19909216919091179055604080516001600160a01b038316815290517f614bd83035569d78f3b8599de69e2d258cddc5adeb6005524a1ae5d13c28ba899181900360200190a150565b600080609d60009054906101000a90046001600160a01b03166001600160a01b03166318160ddd6040518163ffffffff1660e01b815260040160206040518083038186803b15801561416957600080fd5b505afa15801561417d573d6000803e3d6000fd5b505050506040513d602081101561419357600080fd5b5051609d5460408051632eb9771b60e01b815290519293506000926001600160a01b0390921691632eb9771b91600480820192602092909190829003018186803b1580156141e057600080fd5b505afa1580156141f4573d6000803e3d6000fd5b505050506040513d602081101561420a57600080fd5b5051609d546040805163696cbd8360e11b815290519293506000926001600160a01b039092169163d2d97b0691600480820192602092909190829003018186803b15801561425757600080fd5b505afa15801561426b573d6000803e3d6000fd5b505050506040513d602081101561428157600080fd5b50519050620f424082111561429757620f424091505b60006142aa620f4240610e6786866149ac565b9050808211156142be5761289a828261477e565b60009450505050506126ab565b600054610100900460ff16806142e457506142e4614dd3565b806142f2575060005460ff16155b61432d5760405162461bcd60e51b815260040180806020018281038252602e8152602001806156cc602e913960400191505060405180910390fd5b600054610100900460ff16158015614358576000805460ff1961ff0019909116610100171660011790555b6001600160a01b0386161580159061437857506001600160a01b03851615155b801561438c57506001600160a01b03841615155b80156143a057506001600160a01b03831615155b6143e9576040805162461bcd60e51b815260206004820152601560248201527416995c9bc81859191c995cdcc819195d1958dd1959605a1b604482015290519081900360640190fd5b6143f1614de4565b6143f9614e8e565b614401614f2b565b609d80546001600160a01b03199081166001600160a01b03898116918217909355609c80548316898516908117909155609980548416909217909155609a805483169091179055609880548216878416908117909155609b8054831687851617905560978054909216179081905560ad8490556040805163313ce56760e01b815290516144ea93929092169163313ce56791600481810192602092909190829003018186803b1580156144b357600080fd5b505afa1580156144c7573d6000803e3d6000fd5b505050506040513d60208110156144dd57600080fd5b505160129060ff1661477e565b60ac556144ff60006144fa614a05565b61112b565b609b54614536907fc65532185ed70b2e999433e2e9fac124e083acb13ec183a4e05944da0792337b906001600160a01b03166110cd565b609b5461456d907fa84a5389ad41f9aab0831b01e5384cae76e7a7fd09131c206ff7927c201c3857906001600160a01b03166110cd565b609b546145a4907f8118eeb5231a5fe4008a55b62860f6a0db4f6c3ac04f8141927a9b3fedd86d2f906001600160a01b03166110cd565b609b546145db907f103da79ff3755ff7a17a557d28b73d37cb4de0b3c3cc02fa6c48df0f35071fbf906001600160a01b03166110cd565b609b54614612907fbb2c68b8dc5bccdd2536307080a7865a7e133bf54e31d4d463b1b749b4bcf26d906001600160a01b03166110cd565b600060ae5561271060af55600160b055620f1b3060b155620f695060b25560b3805465ffffffffffff191690558015610b66576000805461ff0019169055505050505050565b60b354600090640100000000900460ff1615156001141561467c575060ae546126ab565b609f54609e5460408051638e15f47360e01b8152905161471193600160a01b900460ff16600a0a92610e6792620f4240926001600160a01b0390921691638e15f47391600480820192602092909190829003018186803b1580156146df57600080fd5b505afa1580156146f3573d6000803e3d6000fd5b505050506040513d602081101561470957600080fd5b5051906149ac565b90506126ab565b60a35481565b60b15481565b6000828201838110156126c6576040805162461bcd60e51b815260206004820152601b60248201527f536166654d6174683a206164646974696f6e206f766572666c6f770000000000604482015290519081900360640190fd5b6000828211156147d5576040805162461bcd60e51b815260206004820152601e60248201527f536166654d6174683a207375627472616374696f6e206f766572666c6f770000604482015290519081900360640190fd5b50900390565b604080516001600160a01b038481166024830152604480830185905283518084039091018152606490920183526020820180516001600160e01b031663a9059cbb60e01b178152925182516000946060949389169392918291908083835b602083106148585780518252601f199092019160209182019101614839565b6001836020036101000a0380198251168184511680821785525050505050509050019150506000604051808303816000865af19150503d80600081146148ba576040519150601f19603f3d011682016040523d82523d6000602084013e6148bf565b606091505b50915091508180156148ed5750805115806148ed57508080602001905160208110156148ea57600080fd5b50515b61493e576040805162461bcd60e51b815260206004820152601f60248201527f5472616e7366657248656c7065723a205452414e534645525f4641494c454400604482015290519081900360640190fd5b5050505050565b600080821161499b576040805162461bcd60e51b815260206004820152601a60248201527f536166654d6174683a206469766973696f6e206279207a65726f000000000000604482015290519081900360640190fd5b8183816149a457fe5b049392505050565b6000826149bb575060006126c9565b828202828482816149c857fe5b04146126c65760405162461bcd60e51b81526004018080602001828103825260218152602001806156fa6021913960400191505060405180910390fd5b3390565b6000828152603360205260409020614a219082614fc0565b1561113557614a2e614a05565b6001600160a01b0316816001600160a01b0316837f2f8788117e7eff1d82e926ec794901d17c78024a50270940304540a733656f0d60405160405180910390a45050565b6000828152603360205260409020614a8a9082614fd5565b1561113557614a97614a05565b6001600160a01b0316816001600160a01b0316837ff6391f5c32d9c69d2a47ea670b442974b53935d1edc7fd64eb21e047a839171b60405160405180910390a45050565b600080600080614b09620f4240614b03876000015188604001516149ac90919063ffffffff16565b90614fea565b9150614b2d620f4240614b03876020015188606001516149ac90919063ffffffff16565b90506000614b5982614b538860800151614b03620f4240876149ac90919063ffffffff16565b9061502c565b8651909150600090614b7290614b0384620f42406149ac565b9050614b7e8383614724565b95509350505050915091565b604080516001600160a01b0385811660248301528481166044830152606480830185905283518084039091018152608490920183526020820180516001600160e01b03166323b872dd60e01b17815292518251600094606094938a169392918291908083835b60208310614c0f5780518252601f199092019160209182019101614bf0565b6001836020036101000a0380198251168184511680821785525050505050509050019150506000604051808303816000865af19150503d8060008114614c71576040519150601f19603f3d011682016040523d82523d6000602084013e614c76565b606091505b5091509150818015614ca4575080511580614ca45750808060200190516020811015614ca157600080fd5b50515b610b665760405162461bcd60e51b81526004018080602001828103825260248152602001806157766024913960400191505060405180910390fd5b8051600090614d1f5760405162461bcd60e51b815260040180806020018281038252602181526020018061567b6021913960400191505060405180910390fd5b6000614d43620f4240614b03856020015186606001516149ac90919063ffffffff16565b8351909150811115614d865760405162461bcd60e51b81526004018080602001828103825260308152602001806155426030913960400191505060405180910390fd5b6040830151600090614d9f90614b0384620f42406149ac565b949350505050565b60006126c6838361506e565b60006126c6836001600160a01b0384166150d2565b60006126c9826150ea565b6000614dde306150ee565b15905090565b600054610100900460ff1680614dfd5750614dfd614dd3565b80614e0b575060005460ff16155b614e465760405162461bcd60e51b815260040180806020018281038252602e8152602001806156cc602e913960400191505060405180910390fd5b600054610100900460ff16158015614e71576000805460ff1961ff0019909116610100171660011790555b614e796150f4565b8015614e8b576000805461ff00191690555b50565b600054610100900460ff1680614ea75750614ea7614dd3565b80614eb5575060005460ff16155b614ef05760405162461bcd60e51b815260040180806020018281038252602e8152602001806156cc602e913960400191505060405180910390fd5b600054610100900460ff16158015614f1b576000805460ff1961ff0019909116610100171660011790555b614f236150f4565b614e79615194565b600054610100900460ff1680614f445750614f44614dd3565b80614f52575060005460ff16155b614f8d5760405162461bcd60e51b815260040180806020018281038252602e8152602001806156cc602e913960400191505060405180910390fd5b600054610100900460ff16158015614fb8576000805460ff1961ff0019909116610100171660011790555b614e716150f4565b60006126c6836001600160a01b03841661528d565b60006126c6836001600160a01b0384166152d7565b60006126c683836040518060400160405280601a81526020017f536166654d6174683a206469766973696f6e206279207a65726f00000000000081525061539d565b60006126c683836040518060400160405280601e81526020017f536166654d6174683a207375627472616374696f6e206f766572666c6f77000081525061543f565b815460009082106150b05760405162461bcd60e51b81526004018080602001828103825260228152602001806154f16022913960400191505060405180910390fd5b8260000182815481106150bf57fe5b9060005260206000200154905092915050565b60009081526001919091016020526040902054151590565b5490565b3b151590565b600054610100900460ff168061510d575061510d614dd3565b8061511b575060005460ff16155b6151565760405162461bcd60e51b815260040180806020018281038252602e8152602001806156cc602e913960400191505060405180910390fd5b600054610100900460ff16158015614e79576000805460ff1961ff0019909116610100171660011790558015614e8b576000805461ff001916905550565b600054610100900460ff16806151ad57506151ad614dd3565b806151bb575060005460ff16155b6151f65760405162461bcd60e51b815260040180806020018281038252602e8152602001806156cc602e913960400191505060405180910390fd5b600054610100900460ff16158015615221576000805460ff1961ff0019909116610100171660011790555b600061522b614a05565b606580546001600160a01b0319166001600160a01b038316908117909155604051919250906000907f8be0079c531659141344cd1fd0a4f28419497f9722a3daafe3b4186f6b6457e0908290a3508015614e8b576000805461ff001916905550565b600061529983836150d2565b6152cf575081546001818101845560008481526020808220909301849055845484825282860190935260409020919091556126c9565b5060006126c9565b60008181526001830160205260408120548015615393578354600019808301919081019060009087908390811061530a57fe5b906000526020600020015490508087600001848154811061532757fe5b60009182526020808320909101929092558281526001898101909252604090209084019055865487908061535757fe5b600190038181906000526020600020016000905590558660010160008781526020019081526020016000206000905560019450505050506126c9565b60009150506126c9565b600081836154295760405162461bcd60e51b81526004018080602001828103825283818151815260200191508051906020019080838360005b838110156153ee5781810151838201526020016153d6565b50505050905090810190601f16801561541b5780820380516001836020036101000a031916815260200191505b509250505060405180910390fd5b50600083858161543557fe5b0495945050505050565b600081848411156154915760405162461bcd60e51b81526020600482018181528351602484015283519092839260449091019190850190808383600083156153ee5781810151838201526020016153d6565b505050900390565b6040518060a0016040528060008152602001600081526020016000815260200160008152602001600081525090565b604051806080016040528060008152602001600081526020016000815260200160008152509056fe456e756d657261626c655365743a20696e646578206f7574206f6620626f756e6473416363657373436f6e74726f6c3a2073656e646572206d75737420626520616e2061646d696e20746f206772616e74596f752061726520747279696e6720746f20627579206261636b206d6f7265207468616e2074686520657863657373214f776e61626c653a206e6577206f776e657220697320746865207a65726f2061646472657373506f6f6c206365696c696e6720726561636865642c206e6f206d6f72652053796e74682063616e206265206d696e7465642077697468207468697320636f6c6c61746572616c436f6c6c61746572616c20726174696f206e6565647320746f206265206265747765656e202e30303030303120616e64202e393939393939536c697070616765206c696d69742072656163686564205b636f6c6c61746572616c5d4d757374207761697420666f7220726564656d7074696f6e5f64656c617920626c6f636b73206265666f726520636f6c6c656374696e6720726564656d7074696f6e4e6f2065786365737320636f6c6c61746572616c20746f20627579206261636b21416363657373436f6e74726f6c3a2073656e646572206d75737420626520616e2061646d696e20746f207265766f6b65496e697469616c697a61626c653a20636f6e747261637420697320616c726561647920696e697469616c697a6564536166654d6174683a206d756c7469706c69636174696f6e206f766572666c6f77536c697070616765206c696d697420726561636865640000000000000000000054686520666f756e647279207072696365206d7573742062652067726561746572207468616e2074686520726564656d7074696f6e2070726963655472616e7366657248656c7065723a205452414e534645525f46524f4d5f4641494c4544416363657373436f6e74726f6c3a2063616e206f6e6c792072656e6f756e636520726f6c657320666f722073656c66a2646970667358221220972ea1e0b2e65ef5ebf97093685a1efacbf43e01c73c11fc87d564d50fcbea2564736f6c634300060c0033",
			"opcodes": "PUSH1 0x80 PUSH1 0x40 MSTORE CALLVALUE DUP1 ISZERO PUSH2 0x10 JUMPI PUSH1 0x0 DUP1 REVERT JUMPDEST POP PUSH2 0x57FE DUP1 PUSH3 0x21 PUSH1 0x0 CODECOPY PUSH1 0x0 RETURN INVALID PUSH1 0x80 PUSH1 0x40 MSTORE CALLVALUE DUP1 ISZERO PUSH2 0x10 JUMPI PUSH1 0x0 DUP1 REVERT JUMPDEST POP PUSH1 0x4 CALLDATASIZE LT PUSH2 0x3C5 JUMPI PUSH1 0x0 CALLDATALOAD PUSH1 0xE0 SHR DUP1 PUSH4 0x9010D07C GT PUSH2 0x1FF JUMPI DUP1 PUSH4 0xD2C897B4 GT PUSH2 0x11A JUMPI DUP1 PUSH4 0xF2FDE38B GT PUSH2 0xAD JUMPI DUP1 PUSH4 0xF7013EF6 GT PUSH2 0x7C JUMPI DUP1 PUSH4 0xF7013EF6 EQ PUSH2 0x916 JUMPI DUP1 PUSH4 0xF7683BBC EQ PUSH2 0x95C JUMPI DUP1 PUSH4 0xFEDE5C9C EQ PUSH2 0x964 JUMPI DUP1 PUSH4 0xFF9F4FB5 EQ PUSH2 0x96C JUMPI PUSH2 0x3C5 JUMP JUMPDEST DUP1 PUSH4 0xF2FDE38B EQ PUSH2 0x8BA JUMPI DUP1 PUSH4 0xF41D43E3 EQ PUSH2 0x8E0 JUMPI DUP1 PUSH4 0xF51B41CC EQ PUSH2 0x8E8 JUMPI DUP1 PUSH4 0xF61ADAB2 EQ PUSH2 0x90E JUMPI PUSH2 0x3C5 JUMP JUMPDEST DUP1 PUSH4 0xDCABC282 GT PUSH2 0xE9 JUMPI DUP1 PUSH4 0xDCABC282 EQ PUSH2 0x87C JUMPI DUP1 PUSH4 0xDF4ABC9C EQ PUSH2 0x884 JUMPI DUP1 PUSH4 0xE714DF31 EQ PUSH2 0x88C JUMPI DUP1 PUSH4 0xE81372C8 EQ PUSH2 0x894 JUMPI PUSH2 0x3C5 JUMP JUMPDEST DUP1 PUSH4 0xD2C897B4 EQ PUSH2 0x81D JUMPI DUP1 PUSH4 0xD547741F EQ PUSH2 0x840 JUMPI DUP1 PUSH4 0xDA09C72C EQ PUSH2 0x86C JUMPI DUP1 PUSH4 0xDAA50485 EQ PUSH2 0x874 JUMPI PUSH2 0x3C5 JUMP JUMPDEST DUP1 PUSH4 0xB235D468 GT PUSH2 0x192 JUMPI DUP1 PUSH4 0xC4D7C18B GT PUSH2 0x161 JUMPI DUP1 PUSH4 0xC4D7C18B EQ PUSH2 0x7CD JUMPI DUP1 PUSH4 0xC74EC56A EQ PUSH2 0x7F0 JUMPI DUP1 PUSH4 0xCA15C873 EQ PUSH2 0x7F8 JUMPI DUP1 PUSH4 0xCB73999F EQ PUSH2 0x815 JUMPI PUSH2 0x3C5 JUMP JUMPDEST DUP1 PUSH4 0xB235D468 EQ PUSH2 0x771 JUMPI DUP1 PUSH4 0xB83458B4 EQ PUSH2 0x779 JUMPI DUP1 PUSH4 0xBDACB303 EQ PUSH2 0x79F JUMPI DUP1 PUSH4 0xC3355B8D EQ PUSH2 0x7C5 JUMPI PUSH2 0x3C5 JUMP JUMPDEST DUP1 PUSH4 0xABAE2C4C GT PUSH2 0x1CE JUMPI DUP1 PUSH4 0xABAE2C4C EQ PUSH2 0x6DF JUMPI DUP1 PUSH4 0xADC20B1C EQ PUSH2 0x705 JUMPI DUP1 PUSH4 0xB04F3010 EQ PUSH2 0x72B JUMPI DUP1 PUSH4 0xB1D48F24 EQ PUSH2 0x74E JUMPI PUSH2 0x3C5 JUMP JUMPDEST DUP1 PUSH4 0x9010D07C EQ PUSH2 0x680 JUMPI DUP1 PUSH4 0x91D14854 EQ PUSH2 0x6A3 JUMPI DUP1 PUSH4 0xA217FDDF EQ PUSH2 0x6CF JUMPI DUP1 PUSH4 0xA6D5AB1B EQ PUSH2 0x6D7 JUMPI PUSH2 0x3C5 JUMP JUMPDEST DUP1 PUSH4 0x4EBBE762 GT PUSH2 0x2EF JUMPI DUP1 PUSH4 0x7AD1F61B GT PUSH2 0x282 JUMPI DUP1 PUSH4 0x7F877F85 GT PUSH2 0x251 JUMPI DUP1 PUSH4 0x7F877F85 EQ PUSH2 0x645 JUMPI DUP1 PUSH4 0x8266AFA3 EQ PUSH2 0x64D JUMPI DUP1 PUSH4 0x8D2AC7A4 EQ PUSH2 0x670 JUMPI DUP1 PUSH4 0x8DA5CB5B EQ PUSH2 0x678 JUMPI PUSH2 0x3C5 JUMP JUMPDEST DUP1 PUSH4 0x7AD1F61B EQ PUSH2 0x610 JUMPI DUP1 PUSH4 0x7B0461E9 EQ PUSH2 0x62D JUMPI DUP1 PUSH4 0x7D55094D EQ PUSH2 0x635 JUMPI DUP1 PUSH4 0x7E4831D3 EQ PUSH2 0x63D JUMPI PUSH2 0x3C5 JUMP JUMPDEST DUP1 PUSH4 0x6EBB64A2 GT PUSH2 0x2BE JUMPI DUP1 PUSH4 0x6EBB64A2 EQ PUSH2 0x596 JUMPI DUP1 PUSH4 0x715018A6 EQ PUSH2 0x5BC JUMPI DUP1 PUSH4 0x7853C888 EQ PUSH2 0x5C4 JUMPI DUP1 PUSH4 0x78F0CB76 EQ PUSH2 0x5E7 JUMPI PUSH2 0x3C5 JUMP JUMPDEST DUP1 PUSH4 0x4EBBE762 EQ PUSH2 0x53D JUMPI DUP1 PUSH4 0x50C9ECD9 EQ PUSH2 0x57E JUMPI DUP1 PUSH4 0x6526A12A EQ PUSH2 0x586 JUMPI DUP1 PUSH4 0x6D2C5615 EQ PUSH2 0x58E JUMPI PUSH2 0x3C5 JUMP JUMPDEST DUP1 PUSH4 0x248A9CA3 GT PUSH2 0x367 JUMPI DUP1 PUSH4 0x401FE34E GT PUSH2 0x336 JUMPI DUP1 PUSH4 0x401FE34E EQ PUSH2 0x4FC JUMPI DUP1 PUSH4 0x42D15AEC EQ PUSH2 0x525 JUMPI DUP1 PUSH4 0x466E355A EQ PUSH2 0x52D JUMPI DUP1 PUSH4 0x4C634934 EQ PUSH2 0x535 JUMPI PUSH2 0x3C5 JUMP JUMPDEST DUP1 PUSH4 0x248A9CA3 EQ PUSH2 0x464 JUMPI DUP1 PUSH4 0x283B38FC EQ PUSH2 0x481 JUMPI DUP1 PUSH4 0x2F2FF15D EQ PUSH2 0x4A4 JUMPI DUP1 PUSH4 0x36568ABE EQ PUSH2 0x4D0 JUMPI PUSH2 0x3C5 JUMP JUMPDEST DUP1 PUSH4 0x1398992E GT PUSH2 0x3A3 JUMPI DUP1 PUSH4 0x1398992E EQ PUSH2 0x414 JUMPI DUP1 PUSH4 0x14ABC93F EQ PUSH2 0x41C JUMPI DUP1 PUSH4 0x15128425 EQ PUSH2 0x438 JUMPI DUP1 PUSH4 0x1EAA0E17 EQ PUSH2 0x440 JUMPI PUSH2 0x3C5 JUMP JUMPDEST DUP1 PUSH4 0x8A7493D EQ PUSH2 0x3CA JUMPI DUP1 PUSH4 0x101197C7 EQ PUSH2 0x402 JUMPI DUP1 PUSH4 0x12ACE5A2 EQ PUSH2 0x40A JUMPI JUMPDEST PUSH1 0x0 DUP1 REVERT JUMPDEST PUSH2 0x3F0 PUSH1 0x4 DUP1 CALLDATASIZE SUB PUSH1 0x20 DUP2 LT ISZERO PUSH2 0x3E0 JUMPI PUSH1 0x0 DUP1 REVERT JUMPDEST POP CALLDATALOAD PUSH1 0x1 PUSH1 0x1 PUSH1 0xA0 SHL SUB AND PUSH2 0x974 JUMP JUMPDEST PUSH1 0x40 DUP1 MLOAD SWAP2 DUP3 MSTORE MLOAD SWAP1 DUP2 SWAP1 SUB PUSH1 0x20 ADD SWAP1 RETURN JUMPDEST PUSH2 0x3F0 PUSH2 0x986 JUMP JUMPDEST PUSH2 0x412 PUSH2 0x98C JUMP JUMPDEST STOP JUMPDEST PUSH2 0x3F0 PUSH2 0xB6E JUMP JUMPDEST PUSH2 0x424 PUSH2 0xB74 JUMP JUMPDEST PUSH1 0x40 DUP1 MLOAD SWAP2 ISZERO ISZERO DUP3 MSTORE MLOAD SWAP1 DUP2 SWAP1 SUB PUSH1 0x20 ADD SWAP1 RETURN JUMPDEST PUSH2 0x3F0 PUSH2 0xB84 JUMP JUMPDEST PUSH2 0x448 PUSH2 0xB8A JUMP JUMPDEST PUSH1 0x40 DUP1 MLOAD PUSH1 0x1 PUSH1 0x1 PUSH1 0xA0 SHL SUB SWAP1 SWAP3 AND DUP3 MSTORE MLOAD SWAP1 DUP2 SWAP1 SUB PUSH1 0x20 ADD SWAP1 RETURN JUMPDEST PUSH2 0x3F0 PUSH1 0x4 DUP1 CALLDATASIZE SUB PUSH1 0x20 DUP2 LT ISZERO PUSH2 0x47A JUMPI PUSH1 0x0 DUP1 REVERT JUMPDEST POP CALLDATALOAD PUSH2 0xB99 JUMP JUMPDEST PUSH2 0x412 PUSH1 0x4 DUP1 CALLDATASIZE SUB PUSH1 0x40 DUP2 LT ISZERO PUSH2 0x497 JUMPI PUSH1 0x0 DUP1 REVERT JUMPDEST POP DUP1 CALLDATALOAD SWAP1 PUSH1 0x20 ADD CALLDATALOAD PUSH2 0xBAE JUMP JUMPDEST PUSH2 0x412 PUSH1 0x4 DUP1 CALLDATASIZE SUB PUSH1 0x40 DUP2 LT ISZERO PUSH2 0x4BA JUMPI PUSH1 0x0 DUP1 REVERT JUMPDEST POP DUP1 CALLDATALOAD SWAP1 PUSH1 0x20 ADD CALLDATALOAD PUSH1 0x1 PUSH1 0x1 PUSH1 0xA0 SHL SUB AND PUSH2 0x10CD JUMP JUMPDEST PUSH2 0x412 PUSH1 0x4 DUP1 CALLDATASIZE SUB PUSH1 0x40 DUP2 LT ISZERO PUSH2 0x4E6 JUMPI PUSH1 0x0 DUP1 REVERT JUMPDEST POP DUP1 CALLDATALOAD SWAP1 PUSH1 0x20 ADD CALLDATALOAD PUSH1 0x1 PUSH1 0x1 PUSH1 0xA0 SHL SUB AND PUSH2 0x1139 JUMP JUMPDEST PUSH2 0x412 PUSH1 0x4 DUP1 CALLDATASIZE SUB PUSH1 0x60 DUP2 LT ISZERO PUSH2 0x512 JUMPI PUSH1 0x0 DUP1 REVERT JUMPDEST POP DUP1 CALLDATALOAD SWAP1 PUSH1 0x20 DUP2 ADD CALLDATALOAD SWAP1 PUSH1 0x40 ADD CALLDATALOAD PUSH2 0x119A JUMP JUMPDEST PUSH2 0x412 PUSH2 0x1760 JUMP JUMPDEST PUSH2 0x448 PUSH2 0x17F0 JUMP JUMPDEST PUSH2 0x3F0 PUSH2 0x17FF JUMP JUMPDEST PUSH2 0x412 PUSH1 0x4 DUP1 CALLDATASIZE SUB PUSH1 0xE0 DUP2 LT ISZERO PUSH2 0x553 JUMPI PUSH1 0x0 DUP1 REVERT JUMPDEST POP DUP1 CALLDATALOAD SWAP1 PUSH1 0x20 DUP2 ADD CALLDATALOAD SWAP1 PUSH1 0x40 DUP2 ADD CALLDATALOAD SWAP1 PUSH1 0x60 DUP2 ADD CALLDATALOAD SWAP1 PUSH1 0x80 DUP2 ADD CALLDATALOAD SWAP1 PUSH1 0xA0 DUP2 ADD CALLDATALOAD SWAP1 PUSH1 0xC0 ADD CALLDATALOAD PUSH2 0x1805 JUMP JUMPDEST PUSH2 0x412 PUSH2 0x1912 JUMP JUMPDEST PUSH2 0x3F0 PUSH2 0x19A4 JUMP JUMPDEST PUSH2 0x424 PUSH2 0x19AA JUMP JUMPDEST PUSH2 0x412 PUSH1 0x4 DUP1 CALLDATASIZE SUB PUSH1 0x20 DUP2 LT ISZERO PUSH2 0x5AC JUMPI PUSH1 0x0 DUP1 REVERT JUMPDEST POP CALLDATALOAD PUSH1 0x1 PUSH1 0x1 PUSH1 0xA0 SHL SUB AND PUSH2 0x19B9 JUMP JUMPDEST PUSH2 0x412 PUSH2 0x1A96 JUMP JUMPDEST PUSH2 0x412 PUSH1 0x4 DUP1 CALLDATASIZE SUB PUSH1 0x40 DUP2 LT ISZERO PUSH2 0x5DA JUMPI PUSH1 0x0 DUP1 REVERT JUMPDEST POP DUP1 CALLDATALOAD SWAP1 PUSH1 0x20 ADD CALLDATALOAD PUSH2 0x1B54 JUMP JUMPDEST PUSH2 0x412 PUSH1 0x4 DUP1 CALLDATASIZE SUB PUSH1 0x60 DUP2 LT ISZERO PUSH2 0x5FD JUMPI PUSH1 0x0 DUP1 REVERT JUMPDEST POP DUP1 CALLDATALOAD SWAP1 PUSH1 0x20 DUP2 ADD CALLDATALOAD SWAP1 PUSH1 0x40 ADD CALLDATALOAD PUSH2 0x1C55 JUMP JUMPDEST PUSH2 0x412 PUSH1 0x4 DUP1 CALLDATASIZE SUB PUSH1 0x20 DUP2 LT ISZERO PUSH2 0x626 JUMPI PUSH1 0x0 DUP1 REVERT JUMPDEST POP CALLDATALOAD PUSH2 0x22BD JUMP JUMPDEST PUSH2 0x3F0 PUSH2 0x2374 JUMP JUMPDEST PUSH2 0x412 PUSH2 0x237A JUMP JUMPDEST PUSH2 0x424 PUSH2 0x23FA JUMP JUMPDEST PUSH2 0x424 PUSH2 0x2403 JUMP JUMPDEST PUSH2 0x412 PUSH1 0x4 DUP1 CALLDATASIZE SUB PUSH1 0x40 DUP2 LT ISZERO PUSH2 0x663 JUMPI PUSH1 0x0 DUP1 REVERT JUMPDEST POP DUP1 CALLDATALOAD SWAP1 PUSH1 0x20 ADD CALLDATALOAD PUSH2 0x2413 JUMP JUMPDEST PUSH2 0x424 PUSH2 0x268D JUMP JUMPDEST PUSH2 0x448 PUSH2 0x269E JUMP JUMPDEST PUSH2 0x448 PUSH1 0x4 DUP1 CALLDATASIZE SUB PUSH1 0x40 DUP2 LT ISZERO PUSH2 0x696 JUMPI PUSH1 0x0 DUP1 REVERT JUMPDEST POP DUP1 CALLDATALOAD SWAP1 PUSH1 0x20 ADD CALLDATALOAD PUSH2 0x26AE JUMP JUMPDEST PUSH2 0x424 PUSH1 0x4 DUP1 CALLDATASIZE SUB PUSH1 0x40 DUP2 LT ISZERO PUSH2 0x6B9 JUMPI PUSH1 0x0 DUP1 REVERT JUMPDEST POP DUP1 CALLDATALOAD SWAP1 PUSH1 0x20 ADD CALLDATALOAD PUSH1 0x1 PUSH1 0x1 PUSH1 0xA0 SHL SUB AND PUSH2 0x26CF JUMP JUMPDEST PUSH2 0x3F0 PUSH2 0x26E7 JUMP JUMPDEST PUSH2 0x3F0 PUSH2 0x26EC JUMP JUMPDEST PUSH2 0x3F0 PUSH1 0x4 DUP1 CALLDATASIZE SUB PUSH1 0x20 DUP2 LT ISZERO PUSH2 0x6F5 JUMPI PUSH1 0x0 DUP1 REVERT JUMPDEST POP CALLDATALOAD PUSH1 0x1 PUSH1 0x1 PUSH1 0xA0 SHL SUB AND PUSH2 0x28B0 JUMP JUMPDEST PUSH2 0x3F0 PUSH1 0x4 DUP1 CALLDATASIZE SUB PUSH1 0x20 DUP2 LT ISZERO PUSH2 0x71B JUMPI PUSH1 0x0 DUP1 REVERT JUMPDEST POP CALLDATALOAD PUSH1 0x1 PUSH1 0x1 PUSH1 0xA0 SHL SUB AND PUSH2 0x28C2 JUMP JUMPDEST PUSH2 0x412 PUSH1 0x4 DUP1 CALLDATASIZE SUB PUSH1 0x40 DUP2 LT ISZERO PUSH2 0x741 JUMPI PUSH1 0x0 DUP1 REVERT JUMPDEST POP DUP1 CALLDATALOAD SWAP1 PUSH1 0x20 ADD CALLDATALOAD PUSH2 0x28D4 JUMP JUMPDEST PUSH2 0x412 PUSH1 0x4 DUP1 CALLDATASIZE SUB PUSH1 0x40 DUP2 LT ISZERO PUSH2 0x764 JUMPI PUSH1 0x0 DUP1 REVERT JUMPDEST POP DUP1 CALLDATALOAD SWAP1 PUSH1 0x20 ADD CALLDATALOAD PUSH2 0x2DA1 JUMP JUMPDEST PUSH2 0x424 PUSH2 0x323D JUMP JUMPDEST PUSH2 0x3F0 PUSH1 0x4 DUP1 CALLDATASIZE SUB PUSH1 0x20 DUP2 LT ISZERO PUSH2 0x78F JUMPI PUSH1 0x0 DUP1 REVERT JUMPDEST POP CALLDATALOAD PUSH1 0x1 PUSH1 0x1 PUSH1 0xA0 SHL SUB AND PUSH2 0x324B JUMP JUMPDEST PUSH2 0x412 PUSH1 0x4 DUP1 CALLDATASIZE SUB PUSH1 0x20 DUP2 LT ISZERO PUSH2 0x7B5 JUMPI PUSH1 0x0 DUP1 REVERT JUMPDEST POP CALLDATALOAD PUSH1 0x1 PUSH1 0x1 PUSH1 0xA0 SHL SUB AND PUSH2 0x325D JUMP JUMPDEST PUSH2 0x3F0 PUSH2 0x332B JUMP JUMPDEST PUSH2 0x412 PUSH1 0x4 DUP1 CALLDATASIZE SUB PUSH1 0x40 DUP2 LT ISZERO PUSH2 0x7E3 JUMPI PUSH1 0x0 DUP1 REVERT JUMPDEST POP DUP1 CALLDATALOAD SWAP1 PUSH1 0x20 ADD CALLDATALOAD PUSH2 0x3331 JUMP JUMPDEST PUSH2 0x3F0 PUSH2 0x3720 JUMP JUMPDEST PUSH2 0x3F0 PUSH1 0x4 DUP1 CALLDATASIZE SUB PUSH1 0x20 DUP2 LT ISZERO PUSH2 0x80E JUMPI PUSH1 0x0 DUP1 REVERT JUMPDEST POP CALLDATALOAD PUSH2 0x3726 JUMP JUMPDEST PUSH2 0x3F0 PUSH2 0x373D JUMP JUMPDEST PUSH2 0x412 PUSH1 0x4 DUP1 CALLDATASIZE SUB PUSH1 0x40 DUP2 LT ISZERO PUSH2 0x833 JUMPI PUSH1 0x0 DUP1 REVERT JUMPDEST POP DUP1 CALLDATALOAD SWAP1 PUSH1 0x20 ADD CALLDATALOAD PUSH2 0x3743 JUMP JUMPDEST PUSH2 0x412 PUSH1 0x4 DUP1 CALLDATASIZE SUB PUSH1 0x40 DUP2 LT ISZERO PUSH2 0x856 JUMPI PUSH1 0x0 DUP1 REVERT JUMPDEST POP DUP1 CALLDATALOAD SWAP1 PUSH1 0x20 ADD CALLDATALOAD PUSH1 0x1 PUSH1 0x1 PUSH1 0xA0 SHL SUB AND PUSH2 0x3BDC JUMP JUMPDEST PUSH2 0x448 PUSH2 0x3C35 JUMP JUMPDEST PUSH2 0x412 PUSH2 0x3C4B JUMP JUMPDEST PUSH2 0x3F0 PUSH2 0x3CD9 JUMP JUMPDEST PUSH2 0x3F0 PUSH2 0x3CDF JUMP JUMPDEST PUSH2 0x3F0 PUSH2 0x3D4E JUMP JUMPDEST PUSH2 0x3F0 PUSH1 0x4 DUP1 CALLDATASIZE SUB PUSH1 0x20 DUP2 LT ISZERO PUSH2 0x8AA JUMPI PUSH1 0x0 DUP1 REVERT JUMPDEST POP CALLDATALOAD PUSH1 0x1 PUSH1 0x1 PUSH1 0xA0 SHL SUB AND PUSH2 0x3D54 JUMP JUMPDEST PUSH2 0x412 PUSH1 0x4 DUP1 CALLDATASIZE SUB PUSH1 0x20 DUP2 LT ISZERO PUSH2 0x8D0 JUMPI PUSH1 0x0 DUP1 REVERT JUMPDEST POP CALLDATALOAD PUSH1 0x1 PUSH1 0x1 PUSH1 0xA0 SHL SUB AND PUSH2 0x3D66 JUMP JUMPDEST PUSH2 0x412 PUSH2 0x3E7B JUMP JUMPDEST PUSH2 0x412 PUSH1 0x4 DUP1 CALLDATASIZE SUB PUSH1 0x20 DUP2 LT ISZERO PUSH2 0x8FE JUMPI PUSH1 0x0 DUP1 REVERT JUMPDEST POP CALLDATALOAD PUSH1 0x1 PUSH1 0x1 PUSH1 0xA0 SHL SUB AND PUSH2 0x3F56 JUMP JUMPDEST PUSH2 0x3F0 PUSH2 0x4118 JUMP JUMPDEST PUSH2 0x412 PUSH1 0x4 DUP1 CALLDATASIZE SUB PUSH1 0xA0 DUP2 LT ISZERO PUSH2 0x92C JUMPI PUSH1 0x0 DUP1 REVERT JUMPDEST POP PUSH1 0x1 PUSH1 0x1 PUSH1 0xA0 SHL SUB DUP2 CALLDATALOAD DUP2 AND SWAP2 PUSH1 0x20 DUP2 ADD CALLDATALOAD DUP3 AND SWAP2 PUSH1 0x40 DUP3 ADD CALLDATALOAD DUP2 AND SWAP2 PUSH1 0x60 DUP2 ADD CALLDATALOAD SWAP1 SWAP2 AND SWAP1 PUSH1 0x80 ADD CALLDATALOAD PUSH2 0x42CB JUMP JUMPDEST PUSH2 0x3F0 PUSH2 0x4658 JUMP JUMPDEST PUSH2 0x3F0 PUSH2 0x4718 JUMP JUMPDEST PUSH2 0x3F0 PUSH2 0x471E JUMP JUMPDEST PUSH1 0xA5 PUSH1 0x20 MSTORE PUSH1 0x0 SWAP1 DUP2 MSTORE PUSH1 0x40 SWAP1 KECCAK256 SLOAD DUP2 JUMP JUMPDEST PUSH1 0xA2 SLOAD DUP2 JUMP JUMPDEST PUSH1 0xB0 SLOAD CALLER PUSH1 0x0 SWAP1 DUP2 MSTORE PUSH1 0xAA PUSH1 0x20 MSTORE PUSH1 0x40 SWAP1 KECCAK256 SLOAD NUMBER SWAP2 PUSH2 0x9AB SWAP2 SWAP1 PUSH2 0x4724 JUMP JUMPDEST GT ISZERO PUSH2 0x9E8 JUMPI PUSH1 0x40 MLOAD PUSH3 0x461BCD PUSH1 0xE5 SHL DUP2 MSTORE PUSH1 0x4 ADD DUP1 DUP1 PUSH1 0x20 ADD DUP3 DUP2 SUB DUP3 MSTORE PUSH1 0x42 DUP2 MSTORE PUSH1 0x20 ADD DUP1 PUSH2 0x5639 PUSH1 0x42 SWAP2 CODECOPY PUSH1 0x60 ADD SWAP2 POP POP PUSH1 0x40 MLOAD DUP1 SWAP2 SUB SWAP1 REVERT JUMPDEST PUSH1 0xB0 SLOAD CALLER PUSH1 0x0 SWAP1 DUP2 MSTORE PUSH1 0xAB PUSH1 0x20 MSTORE PUSH1 0x40 SWAP1 KECCAK256 SLOAD NUMBER SWAP2 PUSH2 0xA07 SWAP2 SWAP1 PUSH2 0x4724 JUMP JUMPDEST GT ISZERO PUSH2 0xA44 JUMPI PUSH1 0x40 MLOAD PUSH3 0x461BCD PUSH1 0xE5 SHL DUP2 MSTORE PUSH1 0x4 ADD DUP1 DUP1 PUSH1 0x20 ADD DUP3 DUP2 SUB DUP3 MSTORE PUSH1 0x42 DUP2 MSTORE PUSH1 0x20 ADD DUP1 PUSH2 0x5639 PUSH1 0x42 SWAP2 CODECOPY PUSH1 0x60 ADD SWAP2 POP POP PUSH1 0x40 MLOAD DUP1 SWAP2 SUB SWAP1 REVERT JUMPDEST CALLER PUSH1 0x0 SWAP1 DUP2 MSTORE PUSH1 0xA4 PUSH1 0x20 MSTORE PUSH1 0x40 DUP2 KECCAK256 SLOAD DUP2 SWAP1 DUP2 SWAP1 DUP2 SWAP1 DUP2 SWAP1 DUP2 SWAP1 ISZERO PUSH2 0xA8F JUMPI CALLER PUSH1 0x0 SWAP1 DUP2 MSTORE PUSH1 0xA4 PUSH1 0x20 MSTORE PUSH1 0x40 DUP2 KECCAK256 DUP1 SLOAD SWAP2 SWAP1 SSTORE PUSH1 0xA8 SLOAD SWAP1 SWAP4 POP PUSH2 0xA87 SWAP1 DUP5 PUSH2 0x477E JUMP JUMPDEST PUSH1 0xA8 SSTORE PUSH1 0x1 SWAP6 POP JUMPDEST CALLER PUSH1 0x0 SWAP1 DUP2 MSTORE PUSH1 0xA5 PUSH1 0x20 MSTORE PUSH1 0x40 SWAP1 KECCAK256 SLOAD ISZERO PUSH2 0xAD0 JUMPI CALLER PUSH1 0x0 SWAP1 DUP2 MSTORE PUSH1 0xA5 PUSH1 0x20 MSTORE PUSH1 0x40 DUP2 KECCAK256 DUP1 SLOAD SWAP2 SWAP1 SSTORE PUSH1 0xA7 SLOAD SWAP1 SWAP3 POP PUSH2 0xAC8 SWAP1 DUP4 PUSH2 0x477E JUMP JUMPDEST PUSH1 0xA7 SSTORE PUSH1 0x1 SWAP5 POP JUMPDEST CALLER PUSH1 0x0 SWAP1 DUP2 MSTORE PUSH1 0xA6 PUSH1 0x20 MSTORE PUSH1 0x40 SWAP1 KECCAK256 SLOAD ISZERO PUSH2 0xB0F JUMPI POP CALLER PUSH1 0x0 SWAP1 DUP2 MSTORE PUSH1 0xA6 PUSH1 0x20 MSTORE PUSH1 0x40 DUP2 KECCAK256 DUP1 SLOAD SWAP2 SWAP1 SSTORE PUSH1 0xA9 SLOAD PUSH2 0xB07 SWAP1 DUP3 PUSH2 0x477E JUMP JUMPDEST PUSH1 0xA9 SSTORE PUSH1 0x1 SWAP4 POP JUMPDEST DUP6 ISZERO PUSH2 0xB2C JUMPI PUSH1 0x9C SLOAD PUSH2 0xB2C SWAP1 PUSH1 0x1 PUSH1 0x1 PUSH1 0xA0 SHL SUB AND CALLER DUP6 PUSH2 0x47DB JUMP JUMPDEST DUP5 ISZERO PUSH2 0xB49 JUMPI PUSH1 0x97 SLOAD PUSH2 0xB49 SWAP1 PUSH1 0x1 PUSH1 0x1 PUSH1 0xA0 SHL SUB AND CALLER DUP5 PUSH2 0x47DB JUMP JUMPDEST DUP4 ISZERO PUSH2 0xB66 JUMPI PUSH1 0x9D SLOAD PUSH2 0xB66 SWAP1 PUSH1 0x1 PUSH1 0x1 PUSH1 0xA0 SHL SUB AND CALLER DUP4 PUSH2 0x47DB JUMP JUMPDEST POP POP POP POP POP POP JUMP JUMPDEST PUSH1 0xA8 SLOAD DUP2 JUMP JUMPDEST PUSH1 0xB3 SLOAD PUSH1 0x1 PUSH1 0x28 SHL SWAP1 DIV PUSH1 0xFF AND DUP2 JUMP JUMPDEST PUSH1 0xB0 SLOAD DUP2 JUMP JUMPDEST PUSH1 0x98 SLOAD PUSH1 0x1 PUSH1 0x1 PUSH1 0xA0 SHL SUB AND DUP2 JUMP JUMPDEST PUSH1 0x0 SWAP1 DUP2 MSTORE PUSH1 0x33 PUSH1 0x20 MSTORE PUSH1 0x40 SWAP1 KECCAK256 PUSH1 0x2 ADD SLOAD SWAP1 JUMP JUMPDEST PUSH1 0xB3 SLOAD PUSH2 0x100 SWAP1 DIV PUSH1 0xFF AND ISZERO PUSH2 0xC01 JUMPI PUSH1 0x40 DUP1 MLOAD PUSH3 0x461BCD PUSH1 0xE5 SHL DUP2 MSTORE PUSH1 0x20 PUSH1 0x4 DUP3 ADD MSTORE PUSH1 0x13 PUSH1 0x24 DUP3 ADD MSTORE PUSH19 0x14995919595B5A5B99C81A5CC81C185D5CD959 PUSH1 0x6A SHL PUSH1 0x44 DUP3 ADD MSTORE SWAP1 MLOAD SWAP1 DUP2 SWAP1 SUB PUSH1 0x64 ADD SWAP1 REVERT JUMPDEST PUSH1 0xB1 SLOAD PUSH1 0x9D PUSH1 0x0 SWAP1 SLOAD SWAP1 PUSH2 0x100 EXP SWAP1 DIV PUSH1 0x1 PUSH1 0x1 PUSH1 0xA0 SHL SUB AND PUSH1 0x1 PUSH1 0x1 PUSH1 0xA0 SHL SUB AND PUSH4 0xC0BE0361 PUSH1 0x40 MLOAD DUP2 PUSH4 0xFFFFFFFF AND PUSH1 0xE0 SHL DUP2 MSTORE PUSH1 0x4 ADD PUSH1 0x20 PUSH1 0x40 MLOAD DUP1 DUP4 SUB DUP2 DUP7 DUP1 EXTCODESIZE ISZERO DUP1 ISZERO PUSH2 0xC52 JUMPI PUSH1 0x0 DUP1 REVERT JUMPDEST POP GAS STATICCALL ISZERO DUP1 ISZERO PUSH2 0xC66 JUMPI RETURNDATASIZE PUSH1 0x0 DUP1 RETURNDATACOPY RETURNDATASIZE PUSH1 0x0 REVERT JUMPDEST POP POP POP POP PUSH1 0x40 MLOAD RETURNDATASIZE PUSH1 0x20 DUP2 LT ISZERO PUSH2 0xC7C JUMPI PUSH1 0x0 DUP1 REVERT JUMPDEST POP MLOAD GT ISZERO DUP1 PUSH2 0xC95 JUMPI POP PUSH1 0xB3 SLOAD PUSH1 0x1 PUSH1 0x28 SHL SWAP1 DIV PUSH1 0xFF AND ISZERO JUMPDEST PUSH2 0xCDD JUMPI PUSH1 0x40 DUP1 MLOAD PUSH3 0x461BCD PUSH1 0xE5 SHL DUP2 MSTORE PUSH1 0x20 PUSH1 0x4 DUP3 ADD MSTORE PUSH1 0x14 PUSH1 0x24 DUP3 ADD MSTORE PUSH20 0xA6F2DCE8D040E0E4D2C6CA40E8DEDE40D0D2CED PUSH1 0x63 SHL PUSH1 0x44 DUP3 ADD MSTORE SWAP1 MLOAD SWAP1 DUP2 SWAP1 SUB PUSH1 0x64 ADD SWAP1 REVERT JUMPDEST PUSH1 0x9D SLOAD PUSH1 0x40 DUP1 MLOAD PUSH4 0x2EB9771B PUSH1 0xE0 SHL DUP2 MSTORE SWAP1 MLOAD PUSH3 0xF4240 SWAP3 PUSH1 0x1 PUSH1 0x1 PUSH1 0xA0 SHL SUB AND SWAP2 PUSH4 0x2EB9771B SWAP2 PUSH1 0x4 DUP1 DUP4 ADD SWAP3 PUSH1 0x20 SWAP3 SWAP2 SWAP1 DUP3 SWAP1 SUB ADD DUP2 DUP7 DUP1 EXTCODESIZE ISZERO DUP1 ISZERO PUSH2 0xD24 JUMPI PUSH1 0x0 DUP1 REVERT JUMPDEST POP GAS STATICCALL ISZERO DUP1 ISZERO PUSH2 0xD38 JUMPI RETURNDATASIZE PUSH1 0x0 DUP1 RETURNDATACOPY RETURNDATASIZE PUSH1 0x0 REVERT JUMPDEST POP POP POP POP PUSH1 0x40 MLOAD RETURNDATASIZE PUSH1 0x20 DUP2 LT ISZERO PUSH2 0xD4E JUMPI PUSH1 0x0 DUP1 REVERT JUMPDEST POP MLOAD EQ PUSH2 0xDA2 JUMPI PUSH1 0x40 DUP1 MLOAD PUSH3 0x461BCD PUSH1 0xE5 SHL DUP2 MSTORE PUSH1 0x20 PUSH1 0x4 DUP3 ADD MSTORE PUSH1 0x1D PUSH1 0x24 DUP3 ADD MSTORE PUSH32 0x436F6C6C61746572616C20726174696F206D757374206265203D3D2031000000 PUSH1 0x44 DUP3 ADD MSTORE SWAP1 MLOAD SWAP1 DUP2 SWAP1 SUB PUSH1 0x64 ADD SWAP1 REVERT JUMPDEST PUSH1 0x0 PUSH2 0xDBC PUSH1 0xAC SLOAD PUSH1 0xA EXP DUP5 PUSH2 0x4945 SWAP1 SWAP2 SWAP1 PUSH4 0xFFFFFFFF AND JUMP JUMPDEST SWAP1 POP PUSH1 0x0 PUSH20 0x0 PUSH4 0x2E8E4FC0 PUSH2 0xDE2 PUSH2 0x4658 JUMP JUMPDEST DUP5 PUSH1 0x40 MLOAD DUP4 PUSH4 0xFFFFFFFF AND PUSH1 0xE0 SHL DUP2 MSTORE PUSH1 0x4 ADD DUP1 DUP4 DUP2 MSTORE PUSH1 0x20 ADD DUP3 DUP2 MSTORE PUSH1 0x20 ADD SWAP3 POP POP POP PUSH1 0x20 PUSH1 0x40 MLOAD DUP1 DUP4 SUB DUP2 DUP7 DUP1 EXTCODESIZE ISZERO DUP1 ISZERO PUSH2 0xE1E JUMPI PUSH1 0x0 DUP1 REVERT JUMPDEST POP GAS DELEGATECALL ISZERO DUP1 ISZERO PUSH2 0xE32 JUMPI RETURNDATASIZE PUSH1 0x0 DUP1 RETURNDATACOPY RETURNDATASIZE PUSH1 0x0 REVERT JUMPDEST POP POP POP POP PUSH1 0x40 MLOAD RETURNDATASIZE PUSH1 0x20 DUP2 LT ISZERO PUSH2 0xE48 JUMPI PUSH1 0x0 DUP1 REVERT JUMPDEST POP MLOAD PUSH1 0xA1 SLOAD SWAP1 SWAP2 POP PUSH1 0x0 SWAP1 PUSH2 0xE6D SWAP1 PUSH3 0xF4240 SWAP1 PUSH2 0xE67 SWAP1 DUP6 SWAP1 PUSH2 0x49AC JUMP JUMPDEST SWAP1 PUSH2 0x4945 JUMP JUMPDEST SWAP1 POP PUSH2 0xE98 PUSH3 0xF4240 PUSH2 0xE67 PUSH2 0xE91 PUSH1 0xA1 SLOAD PUSH3 0xF4240 PUSH2 0x477E SWAP1 SWAP2 SWAP1 PUSH4 0xFFFFFFFF AND JUMP JUMPDEST DUP6 SWAP1 PUSH2 0x49AC JUMP JUMPDEST PUSH1 0xA7 SLOAD PUSH1 0x97 SLOAD PUSH1 0x40 DUP1 MLOAD PUSH4 0x70A08231 PUSH1 0xE0 SHL DUP2 MSTORE ADDRESS PUSH1 0x4 DUP3 ADD MSTORE SWAP1 MLOAD SWAP4 SWAP6 POP PUSH2 0xF1F SWAP4 PUSH1 0x1 PUSH1 0x1 PUSH1 0xA0 SHL SUB SWAP1 SWAP3 AND SWAP2 PUSH4 0x70A08231 SWAP2 PUSH1 0x24 DUP1 DUP3 ADD SWAP3 PUSH1 0x20 SWAP3 SWAP1 SWAP2 SWAP1 DUP3 SWAP1 SUB ADD DUP2 DUP7 DUP1 EXTCODESIZE ISZERO DUP1 ISZERO PUSH2 0xEED JUMPI PUSH1 0x0 DUP1 REVERT JUMPDEST POP GAS STATICCALL ISZERO DUP1 ISZERO PUSH2 0xF01 JUMPI RETURNDATASIZE PUSH1 0x0 DUP1 RETURNDATACOPY RETURNDATASIZE PUSH1 0x0 REVERT JUMPDEST POP POP POP POP PUSH1 0x40 MLOAD RETURNDATASIZE PUSH1 0x20 DUP2 LT ISZERO PUSH2 0xF17 JUMPI PUSH1 0x0 DUP1 REVERT JUMPDEST POP MLOAD SWAP1 PUSH2 0x477E JUMP JUMPDEST PUSH2 0xF29 DUP4 DUP4 PUSH2 0x4724 JUMP JUMPDEST GT ISZERO PUSH2 0xF7C JUMPI PUSH1 0x40 DUP1 MLOAD PUSH3 0x461BCD PUSH1 0xE5 SHL DUP2 MSTORE PUSH1 0x20 PUSH1 0x4 DUP3 ADD MSTORE PUSH1 0x1D PUSH1 0x24 DUP3 ADD MSTORE PUSH32 0x4E6F7420656E6F75676820636F6C6C61746572616C20696E20706F6F6C000000 PUSH1 0x44 DUP3 ADD MSTORE SWAP1 MLOAD SWAP1 DUP2 SWAP1 SUB PUSH1 0x64 ADD SWAP1 REVERT JUMPDEST DUP2 DUP5 GT ISZERO PUSH2 0xFBF JUMPI PUSH1 0x40 DUP1 MLOAD PUSH3 0x461BCD PUSH1 0xE5 SHL DUP2 MSTORE PUSH1 0x20 PUSH1 0x4 DUP3 ADD MSTORE PUSH1 0x16 PUSH1 0x24 DUP3 ADD MSTORE PUSH1 0x0 DUP1 MLOAD PUSH1 0x20 PUSH2 0x571B DUP4 CODECOPY DUP2 MLOAD SWAP2 MSTORE PUSH1 0x44 DUP3 ADD MSTORE SWAP1 MLOAD SWAP1 DUP2 SWAP1 SUB PUSH1 0x64 ADD SWAP1 REVERT JUMPDEST CALLER PUSH1 0x0 SWAP1 DUP2 MSTORE PUSH1 0xA5 PUSH1 0x20 MSTORE PUSH1 0x40 SWAP1 KECCAK256 SLOAD PUSH2 0xFD9 SWAP1 DUP4 PUSH2 0x4724 JUMP JUMPDEST CALLER PUSH1 0x0 SWAP1 DUP2 MSTORE PUSH1 0xA5 PUSH1 0x20 MSTORE PUSH1 0x40 DUP1 DUP3 KECCAK256 SWAP3 SWAP1 SWAP3 SSTORE PUSH1 0xB3 SLOAD PUSH1 0x1 PUSH1 0x30 SHL SWAP1 DIV PUSH1 0x1 PUSH1 0x1 PUSH1 0xA0 SHL SUB AND DUP2 MSTORE KECCAK256 SLOAD PUSH2 0x100E SWAP1 DUP3 PUSH2 0x4724 JUMP JUMPDEST PUSH1 0xB3 SLOAD PUSH1 0x1 PUSH1 0x30 SHL SWAP1 DIV PUSH1 0x1 PUSH1 0x1 PUSH1 0xA0 SHL SUB AND PUSH1 0x0 SWAP1 DUP2 MSTORE PUSH1 0xA5 PUSH1 0x20 MSTORE PUSH1 0x40 SWAP1 KECCAK256 SSTORE PUSH1 0xA7 SLOAD PUSH2 0x1049 SWAP1 DUP3 SWAP1 PUSH2 0x1043 SWAP1 DUP6 PUSH2 0x4724 JUMP JUMPDEST SWAP1 PUSH2 0x4724 JUMP JUMPDEST PUSH1 0xA7 SSTORE CALLER PUSH1 0x0 DUP2 DUP2 MSTORE PUSH1 0xAA PUSH1 0x20 MSTORE PUSH1 0x40 DUP1 DUP3 KECCAK256 NUMBER SWAP1 SSTORE PUSH1 0x9D SLOAD DUP2 MLOAD PUSH4 0x5453BC57 PUSH1 0xE1 SHL DUP2 MSTORE PUSH1 0x4 DUP2 ADD SWAP5 SWAP1 SWAP5 MSTORE PUSH1 0x24 DUP5 ADD DUP10 SWAP1 MSTORE SWAP1 MLOAD PUSH1 0x1 PUSH1 0x1 PUSH1 0xA0 SHL SUB SWAP1 SWAP2 AND SWAP3 PUSH4 0xA8A778AE SWAP3 PUSH1 0x44 DUP1 DUP4 ADD SWAP4 SWAP2 SWAP3 DUP3 SWAP1 SUB ADD DUP2 DUP4 DUP8 DUP1 EXTCODESIZE ISZERO DUP1 ISZERO PUSH2 0x10AE JUMPI PUSH1 0x0 DUP1 REVERT JUMPDEST POP GAS CALL ISZERO DUP1 ISZERO PUSH2 0x10C2 JUMPI RETURNDATASIZE PUSH1 0x0 DUP1 RETURNDATACOPY RETURNDATASIZE PUSH1 0x0 REVERT JUMPDEST POP POP POP POP POP POP POP POP POP JUMP JUMPDEST PUSH1 0x0 DUP3 DUP2 MSTORE PUSH1 0x33 PUSH1 0x20 MSTORE PUSH1 0x40 SWAP1 KECCAK256 PUSH1 0x2 ADD SLOAD PUSH2 0x10F0 SWAP1 PUSH2 0x10EB PUSH2 0x4A05 JUMP JUMPDEST PUSH2 0x26CF JUMP JUMPDEST PUSH2 0x112B JUMPI PUSH1 0x40 MLOAD PUSH3 0x461BCD PUSH1 0xE5 SHL DUP2 MSTORE PUSH1 0x4 ADD DUP1 DUP1 PUSH1 0x20 ADD DUP3 DUP2 SUB DUP3 MSTORE PUSH1 0x2F DUP2 MSTORE PUSH1 0x20 ADD DUP1 PUSH2 0x5513 PUSH1 0x2F SWAP2 CODECOPY PUSH1 0x40 ADD SWAP2 POP POP PUSH1 0x40 MLOAD DUP1 SWAP2 SUB SWAP1 REVERT JUMPDEST PUSH2 0x1135 DUP3 DUP3 PUSH2 0x4A09 JUMP JUMPDEST POP POP JUMP JUMPDEST PUSH2 0x1141 PUSH2 0x4A05 JUMP JUMPDEST PUSH1 0x1 PUSH1 0x1 PUSH1 0xA0 SHL SUB AND DUP2 PUSH1 0x1 PUSH1 0x1 PUSH1 0xA0 SHL SUB AND EQ PUSH2 0x1190 JUMPI PUSH1 0x40 MLOAD PUSH3 0x461BCD PUSH1 0xE5 SHL DUP2 MSTORE PUSH1 0x4 ADD DUP1 DUP1 PUSH1 0x20 ADD DUP3 DUP2 SUB DUP3 MSTORE PUSH1 0x2F DUP2 MSTORE PUSH1 0x20 ADD DUP1 PUSH2 0x579A PUSH1 0x2F SWAP2 CODECOPY PUSH1 0x40 ADD SWAP2 POP POP PUSH1 0x40 MLOAD DUP1 SWAP2 SUB SWAP1 REVERT JUMPDEST PUSH2 0x1135 DUP3 DUP3 PUSH2 0x4A72 JUMP JUMPDEST PUSH1 0xB3 SLOAD PUSH1 0xFF AND ISZERO PUSH2 0x11E6 JUMPI PUSH1 0x40 DUP1 MLOAD PUSH3 0x461BCD PUSH1 0xE5 SHL DUP2 MSTORE PUSH1 0x20 PUSH1 0x4 DUP3 ADD MSTORE PUSH1 0x11 PUSH1 0x24 DUP3 ADD MSTORE PUSH17 0x135A5B9D1A5B99C81A5CC81C185D5CD959 PUSH1 0x7A SHL PUSH1 0x44 DUP3 ADD MSTORE SWAP1 MLOAD SWAP1 DUP2 SWAP1 SUB PUSH1 0x64 ADD SWAP1 REVERT JUMPDEST PUSH1 0xB2 SLOAD PUSH1 0x9D PUSH1 0x0 SWAP1 SLOAD SWAP1 PUSH2 0x100 EXP SWAP1 DIV PUSH1 0x1 PUSH1 0x1 PUSH1 0xA0 SHL SUB AND PUSH1 0x1 PUSH1 0x1 PUSH1 0xA0 SHL SUB AND PUSH4 0xC0BE0361 PUSH1 0x40 MLOAD DUP2 PUSH4 0xFFFFFFFF AND PUSH1 0xE0 SHL DUP2 MSTORE PUSH1 0x4 ADD PUSH1 0x20 PUSH1 0x40 MLOAD DUP1 DUP4 SUB DUP2 DUP7 DUP1 EXTCODESIZE ISZERO DUP1 ISZERO PUSH2 0x1237 JUMPI PUSH1 0x0 DUP1 REVERT JUMPDEST POP GAS STATICCALL ISZERO DUP1 ISZERO PUSH2 0x124B JUMPI RETURNDATASIZE PUSH1 0x0 DUP1 RETURNDATACOPY RETURNDATASIZE PUSH1 0x0 REVERT JUMPDEST POP POP POP POP PUSH1 0x40 MLOAD RETURNDATASIZE PUSH1 0x20 DUP2 LT ISZERO PUSH2 0x1261 JUMPI PUSH1 0x0 DUP1 REVERT JUMPDEST POP MLOAD LT ISZERO DUP1 PUSH2 0x127A JUMPI POP PUSH1 0xB3 SLOAD PUSH1 0x1 PUSH1 0x28 SHL SWAP1 DIV PUSH1 0xFF AND ISZERO JUMPDEST PUSH2 0x12C1 JUMPI PUSH1 0x40 DUP1 MLOAD PUSH3 0x461BCD PUSH1 0xE5 SHL DUP2 MSTORE PUSH1 0x20 PUSH1 0x4 DUP3 ADD MSTORE PUSH1 0x13 PUSH1 0x24 DUP3 ADD MSTORE PUSH19 0x53796E746820707269636520746F6F206C6F77 PUSH1 0x68 SHL PUSH1 0x44 DUP3 ADD MSTORE SWAP1 MLOAD SWAP1 DUP2 SWAP1 SUB PUSH1 0x64 ADD SWAP1 REVERT JUMPDEST PUSH1 0x9D SLOAD PUSH1 0x40 DUP1 MLOAD PUSH4 0xF9283A87 PUSH1 0xE0 SHL DUP2 MSTORE SWAP1 MLOAD PUSH1 0x0 SWAP3 PUSH1 0x1 PUSH1 0x1 PUSH1 0xA0 SHL SUB AND SWAP2 PUSH4 0xF9283A87 SWAP2 PUSH1 0x4 DUP1 DUP4 ADD SWAP3 PUSH1 0x20 SWAP3 SWAP2 SWAP1 DUP3 SWAP1 SUB ADD DUP2 DUP7 DUP1 EXTCODESIZE ISZERO DUP1 ISZERO PUSH2 0x1306 JUMPI PUSH1 0x0 DUP1 REVERT JUMPDEST POP GAS STATICCALL ISZERO DUP1 ISZERO PUSH2 0x131A JUMPI RETURNDATASIZE PUSH1 0x0 DUP1 RETURNDATACOPY RETURNDATASIZE PUSH1 0x0 REVERT JUMPDEST POP POP POP POP PUSH1 0x40 MLOAD RETURNDATASIZE PUSH1 0x20 DUP2 LT ISZERO PUSH2 0x1330 JUMPI PUSH1 0x0 DUP1 REVERT JUMPDEST POP MLOAD PUSH1 0x9D SLOAD PUSH1 0x40 DUP1 MLOAD PUSH4 0x2EB9771B PUSH1 0xE0 SHL DUP2 MSTORE SWAP1 MLOAD SWAP3 SWAP4 POP PUSH1 0x0 SWAP3 PUSH1 0x1 PUSH1 0x1 PUSH1 0xA0 SHL SUB SWAP1 SWAP3 AND SWAP2 PUSH4 0x2EB9771B SWAP2 PUSH1 0x4 DUP1 DUP3 ADD SWAP3 PUSH1 0x20 SWAP3 SWAP1 SWAP2 SWAP1 DUP3 SWAP1 SUB ADD DUP2 DUP7 DUP1 EXTCODESIZE ISZERO DUP1 ISZERO PUSH2 0x137D JUMPI PUSH1 0x0 DUP1 REVERT JUMPDEST POP GAS STATICCALL ISZERO DUP1 ISZERO PUSH2 0x1391 JUMPI RETURNDATASIZE PUSH1 0x0 DUP1 RETURNDATACOPY RETURNDATASIZE PUSH1 0x0 REVERT JUMPDEST POP POP POP POP PUSH1 0x40 MLOAD RETURNDATASIZE PUSH1 0x20 DUP2 LT ISZERO PUSH2 0x13A7 JUMPI PUSH1 0x0 DUP1 REVERT JUMPDEST POP MLOAD SWAP1 POP PUSH3 0xF4240 DUP2 LT DUP1 ISZERO PUSH2 0x13BD JUMPI POP PUSH1 0x0 DUP2 GT JUMPDEST PUSH2 0x13F8 JUMPI PUSH1 0x40 MLOAD PUSH3 0x461BCD PUSH1 0xE5 SHL DUP2 MSTORE PUSH1 0x4 ADD DUP1 DUP1 PUSH1 0x20 ADD DUP3 DUP2 SUB DUP3 MSTORE PUSH1 0x38 DUP2 MSTORE PUSH1 0x20 ADD DUP1 PUSH2 0x55DE PUSH1 0x38 SWAP2 CODECOPY PUSH1 0x40 ADD SWAP2 POP POP PUSH1 0x40 MLOAD DUP1 SWAP2 SUB SWAP1 REVERT JUMPDEST PUSH1 0xAD SLOAD PUSH1 0xA7 SLOAD PUSH1 0x97 SLOAD PUSH1 0x40 DUP1 MLOAD PUSH4 0x70A08231 PUSH1 0xE0 SHL DUP2 MSTORE ADDRESS PUSH1 0x4 DUP3 ADD MSTORE SWAP1 MLOAD PUSH2 0x1454 SWAP4 DUP11 SWAP4 PUSH2 0x1043 SWAP4 SWAP2 SWAP3 PUSH1 0x1 PUSH1 0x1 PUSH1 0xA0 SHL SUB SWAP1 SWAP2 AND SWAP2 PUSH4 0x70A08231 SWAP2 PUSH1 0x24 DUP1 DUP4 ADD SWAP3 PUSH1 0x20 SWAP3 SWAP2 SWAP1 DUP3 SWAP1 SUB ADD DUP2 DUP7 DUP1 EXTCODESIZE ISZERO DUP1 ISZERO PUSH2 0xEED JUMPI PUSH1 0x0 DUP1 REVERT JUMPDEST GT ISZERO PUSH2 0x1491 JUMPI PUSH1 0x40 MLOAD PUSH3 0x461BCD PUSH1 0xE5 SHL DUP2 MSTORE PUSH1 0x4 ADD DUP1 DUP1 PUSH1 0x20 ADD DUP3 DUP2 SUB DUP3 MSTORE PUSH1 0x46 DUP2 MSTORE PUSH1 0x20 ADD DUP1 PUSH2 0x5598 PUSH1 0x46 SWAP2 CODECOPY PUSH1 0x60 ADD SWAP2 POP POP PUSH1 0x40 MLOAD DUP1 SWAP2 SUB SWAP1 REVERT JUMPDEST PUSH1 0xAC SLOAD PUSH1 0xA EXP DUP6 MUL PUSH2 0x14A1 PUSH2 0x5499 JUMP JUMPDEST PUSH1 0x40 MLOAD DUP1 PUSH1 0xA0 ADD PUSH1 0x40 MSTORE DUP1 DUP6 DUP2 MSTORE PUSH1 0x20 ADD PUSH2 0x14BA PUSH2 0x4658 JUMP JUMPDEST DUP2 MSTORE PUSH1 0x20 ADD DUP8 DUP2 MSTORE PUSH1 0x20 ADD DUP4 DUP2 MSTORE PUSH1 0x20 ADD DUP5 DUP2 MSTORE POP SWAP1 POP PUSH1 0x0 DUP1 PUSH2 0x14DD DUP4 PUSH2 0x4ADB JUMP JUMPDEST SWAP2 POP SWAP2 POP PUSH1 0x0 PUSH2 0x14FF PUSH3 0xF4240 PUSH2 0xE67 PUSH1 0xA0 SLOAD DUP7 PUSH2 0x49AC SWAP1 SWAP2 SWAP1 PUSH4 0xFFFFFFFF AND JUMP JUMPDEST SWAP1 POP PUSH2 0x152A PUSH3 0xF4240 PUSH2 0xE67 PUSH2 0x1523 PUSH1 0xA0 SLOAD PUSH3 0xF4240 PUSH2 0x477E SWAP1 SWAP2 SWAP1 PUSH4 0xFFFFFFFF AND JUMP JUMPDEST DUP7 SWAP1 PUSH2 0x49AC JUMP JUMPDEST SWAP3 POP DUP3 DUP9 GT ISZERO PUSH2 0x156F JUMPI PUSH1 0x40 DUP1 MLOAD PUSH3 0x461BCD PUSH1 0xE5 SHL DUP2 MSTORE PUSH1 0x20 PUSH1 0x4 DUP3 ADD MSTORE PUSH1 0x16 PUSH1 0x24 DUP3 ADD MSTORE PUSH1 0x0 DUP1 MLOAD PUSH1 0x20 PUSH2 0x571B DUP4 CODECOPY DUP2 MLOAD SWAP2 MSTORE PUSH1 0x44 DUP3 ADD MSTORE SWAP1 MLOAD SWAP1 DUP2 SWAP1 SUB PUSH1 0x64 ADD SWAP1 REVERT JUMPDEST DUP9 DUP3 GT ISZERO PUSH2 0x15BD JUMPI PUSH1 0x40 DUP1 MLOAD PUSH3 0x461BCD PUSH1 0xE5 SHL DUP2 MSTORE PUSH1 0x20 PUSH1 0x4 DUP3 ADD MSTORE PUSH1 0x16 PUSH1 0x24 DUP3 ADD MSTORE PUSH22 0x139BDD08195B9BDD59DA0811DC881A5B9C1D5D1D1959 PUSH1 0x52 SHL PUSH1 0x44 DUP3 ADD MSTORE SWAP1 MLOAD SWAP1 DUP2 SWAP1 SUB PUSH1 0x64 ADD SWAP1 REVERT JUMPDEST PUSH1 0x9C SLOAD PUSH1 0x40 DUP1 MLOAD PUSH4 0x5453BC57 PUSH1 0xE1 SHL DUP2 MSTORE CALLER PUSH1 0x4 DUP3 ADD MSTORE PUSH1 0x24 DUP2 ADD DUP6 SWAP1 MSTORE SWAP1 MLOAD PUSH1 0x1 PUSH1 0x1 PUSH1 0xA0 SHL SUB SWAP1 SWAP3 AND SWAP2 PUSH4 0xA8A778AE SWAP2 PUSH1 0x44 DUP1 DUP3 ADD SWAP3 PUSH1 0x0 SWAP3 SWAP1 SWAP2 SWAP1 DUP3 SWAP1 SUB ADD DUP2 DUP4 DUP8 DUP1 EXTCODESIZE ISZERO DUP1 ISZERO PUSH2 0x1610 JUMPI PUSH1 0x0 DUP1 REVERT JUMPDEST POP GAS CALL ISZERO DUP1 ISZERO PUSH2 0x1624 JUMPI RETURNDATASIZE PUSH1 0x0 DUP1 RETURNDATACOPY RETURNDATASIZE PUSH1 0x0 REVERT JUMPDEST POP POP PUSH1 0x97 SLOAD PUSH2 0x1641 SWAP3 POP PUSH1 0x1 PUSH1 0x1 PUSH1 0xA0 SHL SUB AND SWAP1 POP CALLER ADDRESS DUP14 PUSH2 0x4B8A JUMP JUMPDEST CALLER PUSH1 0x0 SWAP1 DUP2 MSTORE PUSH1 0xA6 PUSH1 0x20 MSTORE PUSH1 0x40 SWAP1 KECCAK256 SLOAD PUSH2 0x165B SWAP1 DUP5 PUSH2 0x4724 JUMP JUMPDEST CALLER PUSH1 0x0 SWAP1 DUP2 MSTORE PUSH1 0xA6 PUSH1 0x20 MSTORE PUSH1 0x40 DUP1 DUP3 KECCAK256 SWAP3 SWAP1 SWAP3 SSTORE PUSH1 0xB3 SLOAD PUSH1 0x1 PUSH1 0x30 SHL SWAP1 DIV PUSH1 0x1 PUSH1 0x1 PUSH1 0xA0 SHL SUB AND DUP2 MSTORE KECCAK256 SLOAD PUSH2 0x1690 SWAP1 DUP3 PUSH2 0x4724 JUMP JUMPDEST PUSH1 0xB3 SLOAD PUSH1 0x1 PUSH1 0x30 SHL SWAP1 DIV PUSH1 0x1 PUSH1 0x1 PUSH1 0xA0 SHL SUB AND PUSH1 0x0 SWAP1 DUP2 MSTORE PUSH1 0xA6 PUSH1 0x20 MSTORE PUSH1 0x40 SWAP1 KECCAK256 SSTORE PUSH1 0xA9 SLOAD PUSH2 0x16C5 SWAP1 DUP3 SWAP1 PUSH2 0x1043 SWAP1 DUP7 PUSH2 0x4724 JUMP JUMPDEST PUSH1 0xA9 SSTORE CALLER PUSH1 0x0 SWAP1 DUP2 MSTORE PUSH1 0xAB PUSH1 0x20 MSTORE PUSH1 0x40 SWAP1 KECCAK256 NUMBER SWAP1 SSTORE PUSH1 0x9D SLOAD PUSH1 0x1 PUSH1 0x1 PUSH1 0xA0 SHL SUB AND PUSH4 0xB4F56B26 ADDRESS PUSH2 0x16F6 DUP7 DUP6 PUSH2 0x4724 JUMP JUMPDEST PUSH1 0x40 MLOAD DUP4 PUSH4 0xFFFFFFFF AND PUSH1 0xE0 SHL DUP2 MSTORE PUSH1 0x4 ADD DUP1 DUP4 PUSH1 0x1 PUSH1 0x1 PUSH1 0xA0 SHL SUB AND DUP2 MSTORE PUSH1 0x20 ADD DUP3 DUP2 MSTORE PUSH1 0x20 ADD SWAP3 POP POP POP PUSH1 0x0 PUSH1 0x40 MLOAD DUP1 DUP4 SUB DUP2 PUSH1 0x0 DUP8 DUP1 EXTCODESIZE ISZERO DUP1 ISZERO PUSH2 0x173C JUMPI PUSH1 0x0 DUP1 REVERT JUMPDEST POP GAS CALL ISZERO DUP1 ISZERO PUSH2 0x1750 JUMPI RETURNDATASIZE PUSH1 0x0 DUP1 RETURNDATACOPY RETURNDATASIZE PUSH1 0x0 REVERT JUMPDEST POP POP POP POP POP POP POP POP POP POP POP POP POP POP JUMP JUMPDEST PUSH2 0x178A PUSH32 0x8118EEB5231A5FE4008A55B62860F6A0DB4F6C3AC04F8141927A9B3FEDD86D2F CALLER PUSH2 0x26CF JUMP JUMPDEST PUSH2 0x1793 JUMPI PUSH1 0x0 DUP1 REVERT JUMPDEST PUSH1 0xB3 DUP1 SLOAD PUSH1 0xFF PUSH3 0x10000 DUP1 DUP4 DIV DUP3 AND ISZERO DUP2 MUL PUSH3 0xFF0000 NOT SWAP1 SWAP4 AND SWAP3 SWAP1 SWAP3 OR SWAP3 DUP4 SWAP1 SSTORE PUSH1 0x40 DUP1 MLOAD SWAP3 SWAP1 SWAP4 DIV AND ISZERO ISZERO DUP2 MSTORE SWAP1 MLOAD PUSH32 0x2FDA313D9B5BB0B73BD003153F2FCCBC0DCA49791FDD1184DFAD82B44F54BD2E SWAP2 DUP2 SWAP1 SUB PUSH1 0x20 ADD SWAP1 LOG1 JUMP JUMPDEST PUSH1 0x9F SLOAD PUSH1 0x1 PUSH1 0x1 PUSH1 0xA0 SHL SUB AND DUP2 JUMP JUMPDEST PUSH1 0xAF SLOAD DUP2 JUMP JUMPDEST PUSH1 0x9B SLOAD PUSH1 0x1 PUSH1 0x1 PUSH1 0xA0 SHL SUB AND CALLER EQ DUP1 PUSH2 0x1836 JUMPI POP PUSH2 0x1821 PUSH2 0x269E JUMP JUMPDEST PUSH1 0x1 PUSH1 0x1 PUSH1 0xA0 SHL SUB AND CALLER PUSH1 0x1 PUSH1 0x1 PUSH1 0xA0 SHL SUB AND EQ JUMPDEST PUSH2 0x187F JUMPI PUSH1 0x40 DUP1 MLOAD PUSH3 0x461BCD PUSH1 0xE5 SHL DUP2 MSTORE PUSH1 0x20 PUSH1 0x4 DUP3 ADD MSTORE PUSH1 0x15 PUSH1 0x24 DUP3 ADD MSTORE PUSH21 0x4E6F74206F776E6572206F722074696D656C6F636B PUSH1 0x58 SHL PUSH1 0x44 DUP3 ADD MSTORE SWAP1 MLOAD SWAP1 DUP2 SWAP1 SUB PUSH1 0x64 ADD SWAP1 REVERT JUMPDEST PUSH1 0x0 DUP8 GT PUSH2 0x188C JUMPI PUSH1 0x0 DUP1 REVERT JUMPDEST PUSH1 0xAD DUP8 SWAP1 SSTORE PUSH1 0xAF DUP7 SWAP1 SSTORE PUSH1 0xB0 DUP6 SWAP1 SSTORE PUSH1 0xA0 DUP5 DUP2 SSTORE PUSH1 0xA1 DUP5 SWAP1 SSTORE PUSH1 0xA2 DUP4 SWAP1 SSTORE PUSH1 0xA3 DUP3 SWAP1 SSTORE PUSH1 0x40 DUP1 MLOAD DUP10 DUP2 MSTORE PUSH1 0x20 DUP2 ADD DUP10 SWAP1 MSTORE DUP1 DUP3 ADD DUP9 SWAP1 MSTORE PUSH1 0x60 DUP2 ADD DUP8 SWAP1 MSTORE PUSH1 0x80 DUP2 ADD DUP7 SWAP1 MSTORE SWAP2 DUP3 ADD DUP5 SWAP1 MSTORE PUSH1 0xC0 DUP3 ADD DUP4 SWAP1 MSTORE MLOAD PUSH32 0x17FE98B66D27BD793EA01BD8A23A54ACAB8EEB167D9EB016A0C7CD71C573920C SWAP2 DUP2 SWAP1 SUB PUSH1 0xE0 ADD SWAP1 LOG1 POP POP POP POP POP POP POP JUMP JUMPDEST PUSH2 0x193C PUSH32 0x103DA79FF3755FF7A17A557D28B73D37CB4DE0B3C3CC02FA6C48DF0F35071FBF CALLER PUSH2 0x26CF JUMP JUMPDEST PUSH2 0x1945 JUMPI PUSH1 0x0 DUP1 REVERT JUMPDEST PUSH1 0xB3 DUP1 SLOAD PUSH1 0xFF PUSH4 0x1000000 DUP1 DUP4 DIV DUP3 AND ISZERO DUP2 MUL PUSH4 0xFF000000 NOT SWAP1 SWAP4 AND SWAP3 SWAP1 SWAP3 OR SWAP3 DUP4 SWAP1 SSTORE PUSH1 0x40 DUP1 MLOAD SWAP3 SWAP1 SWAP4 DIV AND ISZERO ISZERO DUP2 MSTORE SWAP1 MLOAD PUSH32 0x4F40FD1C59F78D7A2220DA638CD9400DABA01E57C7965702F390BF13133CC31F SWAP2 DUP2 SWAP1 SUB PUSH1 0x20 ADD SWAP1 LOG1 JUMP JUMPDEST PUSH1 0xAD SLOAD DUP2 JUMP JUMPDEST PUSH1 0xB3 SLOAD PUSH3 0x10000 SWAP1 DIV PUSH1 0xFF AND DUP2 JUMP JUMPDEST PUSH1 0x9B SLOAD PUSH1 0x1 PUSH1 0x1 PUSH1 0xA0 SHL SUB AND CALLER EQ DUP1 PUSH2 0x19EA JUMPI POP PUSH2 0x19D5 PUSH2 0x269E JUMP JUMPDEST PUSH1 0x1 PUSH1 0x1 PUSH1 0xA0 SHL SUB AND CALLER PUSH1 0x1 PUSH1 0x1 PUSH1 0xA0 SHL SUB AND EQ JUMPDEST PUSH2 0x1A33 JUMPI PUSH1 0x40 DUP1 MLOAD PUSH3 0x461BCD PUSH1 0xE5 SHL DUP2 MSTORE PUSH1 0x20 PUSH1 0x4 DUP3 ADD MSTORE PUSH1 0x15 PUSH1 0x24 DUP3 ADD MSTORE PUSH21 0x4E6F74206F776E6572206F722074696D656C6F636B PUSH1 0x58 SHL PUSH1 0x44 DUP3 ADD MSTORE SWAP1 MLOAD SWAP1 DUP2 SWAP1 SUB PUSH1 0x64 ADD SWAP1 REVERT JUMPDEST PUSH1 0xB3 DUP1 SLOAD PUSH1 0x1 PUSH1 0x1 PUSH1 0xA0 SHL SUB DUP4 AND PUSH1 0x1 PUSH1 0x30 SHL DUP2 MUL PUSH7 0x1000000000000 PUSH1 0x1 PUSH1 0xD0 SHL SUB NOT SWAP1 SWAP3 AND SWAP2 SWAP1 SWAP2 OR SWAP1 SWAP2 SSTORE PUSH1 0x40 DUP1 MLOAD SWAP2 DUP3 MSTORE MLOAD PUSH32 0x1091E56D4134949B3981EBAE36BD0FF6D1A069E6875040A5EE2F85C6D7A491A1 SWAP2 DUP2 SWAP1 SUB PUSH1 0x20 ADD SWAP1 LOG1 POP JUMP JUMPDEST PUSH2 0x1A9E PUSH2 0x4A05 JUMP JUMPDEST PUSH1 0x1 PUSH1 0x1 PUSH1 0xA0 SHL SUB AND PUSH2 0x1AAF PUSH2 0x269E JUMP JUMPDEST PUSH1 0x1 PUSH1 0x1 PUSH1 0xA0 SHL SUB AND EQ PUSH2 0x1B0A JUMPI PUSH1 0x40 DUP1 MLOAD PUSH3 0x461BCD PUSH1 0xE5 SHL DUP2 MSTORE PUSH1 0x20 PUSH1 0x4 DUP3 ADD DUP2 SWAP1 MSTORE PUSH1 0x24 DUP3 ADD MSTORE PUSH32 0x4F776E61626C653A2063616C6C6572206973206E6F7420746865206F776E6572 PUSH1 0x44 DUP3 ADD MSTORE SWAP1 MLOAD SWAP1 DUP2 SWAP1 SUB PUSH1 0x64 ADD SWAP1 REVERT JUMPDEST PUSH1 0x65 SLOAD PUSH1 0x40 MLOAD PUSH1 0x0 SWAP2 PUSH1 0x1 PUSH1 0x1 PUSH1 0xA0 SHL SUB AND SWAP1 PUSH32 0x8BE0079C531659141344CD1FD0A4F28419497F9722A3DAAFE3B4186F6B6457E0 SWAP1 DUP4 SWAP1 LOG3 PUSH1 0x65 DUP1 SLOAD PUSH1 0x1 PUSH1 0x1 PUSH1 0xA0 SHL SUB NOT AND SWAP1 SSTORE JUMP JUMPDEST PUSH1 0x9B SLOAD PUSH1 0x1 PUSH1 0x1 PUSH1 0xA0 SHL SUB AND CALLER EQ DUP1 PUSH2 0x1B85 JUMPI POP PUSH2 0x1B70 PUSH2 0x269E JUMP JUMPDEST PUSH1 0x1 PUSH1 0x1 PUSH1 0xA0 SHL SUB AND CALLER PUSH1 0x1 PUSH1 0x1 PUSH1 0xA0 SHL SUB AND EQ JUMPDEST PUSH2 0x1BCE JUMPI PUSH1 0x40 DUP1 MLOAD PUSH3 0x461BCD PUSH1 0xE5 SHL DUP2 MSTORE PUSH1 0x20 PUSH1 0x4 DUP3 ADD MSTORE PUSH1 0x15 PUSH1 0x24 DUP3 ADD MSTORE PUSH21 0x4E6F74206F776E6572206F722074696D656C6F636B PUSH1 0x58 SHL PUSH1 0x44 DUP3 ADD MSTORE SWAP1 MLOAD SWAP1 DUP2 SWAP1 SUB PUSH1 0x64 ADD SWAP1 REVERT JUMPDEST DUP1 DUP3 GT PUSH2 0x1C0C JUMPI PUSH1 0x40 MLOAD PUSH3 0x461BCD PUSH1 0xE5 SHL DUP2 MSTORE PUSH1 0x4 ADD DUP1 DUP1 PUSH1 0x20 ADD DUP3 DUP2 SUB DUP3 MSTORE PUSH1 0x3B DUP2 MSTORE PUSH1 0x20 ADD DUP1 PUSH2 0x573B PUSH1 0x3B SWAP2 CODECOPY PUSH1 0x40 ADD SWAP2 POP POP PUSH1 0x40 MLOAD DUP1 SWAP2 SUB SWAP1 REVERT JUMPDEST PUSH1 0xB2 DUP3 SWAP1 SSTORE PUSH1 0xB1 DUP2 SWAP1 SSTORE PUSH1 0x40 DUP1 MLOAD DUP4 DUP2 MSTORE PUSH1 0x20 DUP2 ADD DUP4 SWAP1 MSTORE DUP2 MLOAD PUSH32 0x8F944F25B910C541435BCDE52D233072E903B37AFC29BC8B5787B6E74D82C1A SWAP3 SWAP2 DUP2 SWAP1 SUB SWAP1 SWAP2 ADD SWAP1 LOG1 POP POP JUMP JUMPDEST PUSH1 0xB3 SLOAD PUSH2 0x100 SWAP1 DIV PUSH1 0xFF AND ISZERO PUSH2 0x1CA8 JUMPI PUSH1 0x40 DUP1 MLOAD PUSH3 0x461BCD PUSH1 0xE5 SHL DUP2 MSTORE PUSH1 0x20 PUSH1 0x4 DUP3 ADD MSTORE PUSH1 0x13 PUSH1 0x24 DUP3 ADD MSTORE PUSH19 0x14995919595B5A5B99C81A5CC81C185D5CD959 PUSH1 0x6A SHL PUSH1 0x44 DUP3 ADD MSTORE SWAP1 MLOAD SWAP1 DUP2 SWAP1 SUB PUSH1 0x64 ADD SWAP1 REVERT JUMPDEST PUSH1 0xB1 SLOAD PUSH1 0x9D PUSH1 0x0 SWAP1 SLOAD SWAP1 PUSH2 0x100 EXP SWAP1 DIV PUSH1 0x1 PUSH1 0x1 PUSH1 0xA0 SHL SUB AND PUSH1 0x1 PUSH1 0x1 PUSH1 0xA0 SHL SUB AND PUSH4 0xC0BE0361 PUSH1 0x40 MLOAD DUP2 PUSH4 0xFFFFFFFF AND PUSH1 0xE0 SHL DUP2 MSTORE PUSH1 0x4 ADD PUSH1 0x20 PUSH1 0x40 MLOAD DUP1 DUP4 SUB DUP2 DUP7 DUP1 EXTCODESIZE ISZERO DUP1 ISZERO PUSH2 0x1CF9 JUMPI PUSH1 0x0 DUP1 REVERT JUMPDEST POP GAS STATICCALL ISZERO DUP1 ISZERO PUSH2 0x1D0D JUMPI RETURNDATASIZE PUSH1 0x0 DUP1 RETURNDATACOPY RETURNDATASIZE PUSH1 0x0 REVERT JUMPDEST POP POP POP POP PUSH1 0x40 MLOAD RETURNDATASIZE PUSH1 0x20 DUP2 LT ISZERO PUSH2 0x1D23 JUMPI PUSH1 0x0 DUP1 REVERT JUMPDEST POP MLOAD GT ISZERO DUP1 PUSH2 0x1D3C JUMPI POP PUSH1 0xB3 SLOAD PUSH1 0x1 PUSH1 0x28 SHL SWAP1 DIV PUSH1 0xFF AND ISZERO JUMPDEST PUSH2 0x1D84 JUMPI PUSH1 0x40 DUP1 MLOAD PUSH3 0x461BCD PUSH1 0xE5 SHL DUP2 MSTORE PUSH1 0x20 PUSH1 0x4 DUP3 ADD MSTORE PUSH1 0x14 PUSH1 0x24 DUP3 ADD MSTORE PUSH20 0xA6F2DCE8D040E0E4D2C6CA40E8DEDE40D0D2CED PUSH1 0x63 SHL PUSH1 0x44 DUP3 ADD MSTORE SWAP1 MLOAD SWAP1 DUP2 SWAP1 SUB PUSH1 0x64 ADD SWAP1 REVERT JUMPDEST PUSH1 0x9D SLOAD PUSH1 0x40 DUP1 MLOAD PUSH4 0xF9283A87 PUSH1 0xE0 SHL DUP2 MSTORE SWAP1 MLOAD PUSH1 0x0 SWAP3 PUSH1 0x1 PUSH1 0x1 PUSH1 0xA0 SHL SUB AND SWAP2 PUSH4 0xF9283A87 SWAP2 PUSH1 0x4 DUP1 DUP4 ADD SWAP3 PUSH1 0x20 SWAP3 SWAP2 SWAP1 DUP3 SWAP1 SUB ADD DUP2 DUP7 DUP1 EXTCODESIZE ISZERO DUP1 ISZERO PUSH2 0x1DC9 JUMPI PUSH1 0x0 DUP1 REVERT JUMPDEST POP GAS STATICCALL ISZERO DUP1 ISZERO PUSH2 0x1DDD JUMPI RETURNDATASIZE PUSH1 0x0 DUP1 RETURNDATACOPY RETURNDATASIZE PUSH1 0x0 REVERT JUMPDEST POP POP POP POP PUSH1 0x40 MLOAD RETURNDATASIZE PUSH1 0x20 DUP2 LT ISZERO PUSH2 0x1DF3 JUMPI PUSH1 0x0 DUP1 REVERT JUMPDEST POP MLOAD PUSH1 0x9D SLOAD PUSH1 0x40 DUP1 MLOAD PUSH4 0x2EB9771B PUSH1 0xE0 SHL DUP2 MSTORE SWAP1 MLOAD SWAP3 SWAP4 POP PUSH1 0x0 SWAP3 PUSH1 0x1 PUSH1 0x1 PUSH1 0xA0 SHL SUB SWAP1 SWAP3 AND SWAP2 PUSH4 0x2EB9771B SWAP2 PUSH1 0x4 DUP1 DUP3 ADD SWAP3 PUSH1 0x20 SWAP3 SWAP1 SWAP2 SWAP1 DUP3 SWAP1 SUB ADD DUP2 DUP7 DUP1 EXTCODESIZE ISZERO DUP1 ISZERO PUSH2 0x1E40 JUMPI PUSH1 0x0 DUP1 REVERT JUMPDEST POP GAS STATICCALL ISZERO DUP1 ISZERO PUSH2 0x1E54 JUMPI RETURNDATASIZE PUSH1 0x0 DUP1 RETURNDATACOPY RETURNDATASIZE PUSH1 0x0 REVERT JUMPDEST POP POP POP POP PUSH1 0x40 MLOAD RETURNDATASIZE PUSH1 0x20 DUP2 LT ISZERO PUSH2 0x1E6A JUMPI PUSH1 0x0 DUP1 REVERT JUMPDEST POP MLOAD SWAP1 POP PUSH3 0xF4240 DUP2 LT DUP1 ISZERO PUSH2 0x1E80 JUMPI POP PUSH1 0x0 DUP2 GT JUMPDEST PUSH2 0x1EBB JUMPI PUSH1 0x40 MLOAD PUSH3 0x461BCD PUSH1 0xE5 SHL DUP2 MSTORE PUSH1 0x4 ADD DUP1 DUP1 PUSH1 0x20 ADD DUP3 DUP2 SUB DUP3 MSTORE PUSH1 0x38 DUP2 MSTORE PUSH1 0x20 ADD DUP1 PUSH2 0x55DE PUSH1 0x38 SWAP2 CODECOPY PUSH1 0x40 ADD SWAP2 POP POP PUSH1 0x40 MLOAD DUP1 SWAP2 SUB SWAP1 REVERT JUMPDEST PUSH1 0x0 PUSH2 0x1EC5 PUSH2 0x4658 JUMP JUMPDEST SWAP1 POP PUSH1 0x0 PUSH2 0x1EE5 PUSH3 0xF4240 PUSH2 0xE67 PUSH1 0xA1 SLOAD DUP11 PUSH2 0x49AC SWAP1 SWAP2 SWAP1 PUSH4 0xFFFFFFFF AND JUMP JUMPDEST SWAP1 POP PUSH1 0x0 PUSH2 0x1F12 PUSH3 0xF4240 PUSH2 0xE67 PUSH2 0x1F0B PUSH1 0xA1 SLOAD PUSH3 0xF4240 PUSH2 0x477E SWAP1 SWAP2 SWAP1 PUSH4 0xFFFFFFFF AND JUMP JUMPDEST DUP12 SWAP1 PUSH2 0x49AC JUMP JUMPDEST SWAP1 POP PUSH1 0x0 PUSH2 0x1F31 PUSH2 0x1F2A PUSH3 0xF4240 PUSH2 0xE67 DUP6 DUP10 PUSH2 0x49AC JUMP JUMPDEST DUP4 SWAP1 PUSH2 0x477E JUMP JUMPDEST SWAP1 POP PUSH1 0x0 PUSH2 0x1F46 DUP8 PUSH2 0xE67 DUP5 PUSH3 0xF4240 PUSH2 0x49AC JUMP JUMPDEST SWAP1 POP PUSH1 0x0 PUSH2 0x1F62 PUSH1 0xAC SLOAD PUSH1 0xA EXP DUP6 PUSH2 0x4945 SWAP1 SWAP2 SWAP1 PUSH4 0xFFFFFFFF AND JUMP JUMPDEST SWAP1 POP PUSH1 0x0 PUSH2 0x1F77 PUSH3 0xF4240 PUSH2 0xE67 DUP5 DUP12 PUSH2 0x49AC JUMP JUMPDEST SWAP1 POP PUSH1 0x0 PUSH2 0x1F8C DUP9 PUSH2 0xE67 DUP5 PUSH3 0xF4240 PUSH2 0x49AC JUMP JUMPDEST PUSH1 0xA7 SLOAD PUSH1 0x97 SLOAD PUSH1 0x40 DUP1 MLOAD PUSH4 0x70A08231 PUSH1 0xE0 SHL DUP2 MSTORE ADDRESS PUSH1 0x4 DUP3 ADD MSTORE SWAP1 MLOAD SWAP4 SWAP5 POP PUSH2 0x1FE1 SWAP4 PUSH1 0x1 PUSH1 0x1 PUSH1 0xA0 SHL SUB SWAP1 SWAP3 AND SWAP2 PUSH4 0x70A08231 SWAP2 PUSH1 0x24 DUP1 DUP3 ADD SWAP3 PUSH1 0x20 SWAP3 SWAP1 SWAP2 SWAP1 DUP3 SWAP1 SUB ADD DUP2 DUP7 DUP1 EXTCODESIZE ISZERO DUP1 ISZERO PUSH2 0xEED JUMPI PUSH1 0x0 DUP1 REVERT JUMPDEST DUP2 GT ISZERO PUSH2 0x2035 JUMPI PUSH1 0x40 DUP1 MLOAD PUSH3 0x461BCD PUSH1 0xE5 SHL DUP2 MSTORE PUSH1 0x20 PUSH1 0x4 DUP3 ADD MSTORE PUSH1 0x1D PUSH1 0x24 DUP3 ADD MSTORE PUSH32 0x4E6F7420656E6F75676820636F6C6C61746572616C20696E20706F6F6C000000 PUSH1 0x44 DUP3 ADD MSTORE SWAP1 MLOAD SWAP1 DUP2 SWAP1 SUB PUSH1 0x64 ADD SWAP1 REVERT JUMPDEST DUP1 DUP12 GT ISZERO PUSH2 0x2074 JUMPI PUSH1 0x40 MLOAD PUSH3 0x461BCD PUSH1 0xE5 SHL DUP2 MSTORE PUSH1 0x4 ADD DUP1 DUP1 PUSH1 0x20 ADD DUP3 DUP2 SUB DUP3 MSTORE PUSH1 0x23 DUP2 MSTORE PUSH1 0x20 ADD DUP1 PUSH2 0x5616 PUSH1 0x23 SWAP2 CODECOPY PUSH1 0x40 ADD SWAP2 POP POP PUSH1 0x40 MLOAD DUP1 SWAP2 SUB SWAP1 REVERT JUMPDEST DUP4 DUP13 GT ISZERO PUSH2 0x20C9 JUMPI PUSH1 0x40 DUP1 MLOAD PUSH3 0x461BCD PUSH1 0xE5 SHL DUP2 MSTORE PUSH1 0x20 PUSH1 0x4 DUP3 ADD MSTORE PUSH1 0x1B PUSH1 0x24 DUP3 ADD MSTORE PUSH32 0x536C697070616765206C696D69742072656163686564205B47725D0000000000 PUSH1 0x44 DUP3 ADD MSTORE SWAP1 MLOAD SWAP1 DUP2 SWAP1 SUB PUSH1 0x64 ADD SWAP1 REVERT JUMPDEST CALLER PUSH1 0x0 SWAP1 DUP2 MSTORE PUSH1 0xA5 PUSH1 0x20 MSTORE PUSH1 0x40 SWAP1 KECCAK256 SLOAD PUSH2 0x20E3 SWAP1 DUP3 PUSH2 0x4724 JUMP JUMPDEST CALLER PUSH1 0x0 SWAP1 DUP2 MSTORE PUSH1 0xA5 PUSH1 0x20 MSTORE PUSH1 0x40 SWAP1 KECCAK256 SSTORE PUSH1 0xA7 SLOAD PUSH2 0x2100 SWAP1 DUP3 PUSH2 0x4724 JUMP JUMPDEST PUSH1 0xA7 SSTORE CALLER PUSH1 0x0 SWAP1 DUP2 MSTORE PUSH1 0xA4 PUSH1 0x20 MSTORE PUSH1 0x40 SWAP1 KECCAK256 SLOAD PUSH2 0x211D SWAP1 DUP6 PUSH2 0x4724 JUMP JUMPDEST CALLER PUSH1 0x0 SWAP1 DUP2 MSTORE PUSH1 0xA4 PUSH1 0x20 MSTORE PUSH1 0x40 SWAP1 KECCAK256 SSTORE PUSH1 0xA8 SLOAD PUSH2 0x213A SWAP1 DUP6 PUSH2 0x4724 JUMP JUMPDEST PUSH1 0xA8 SSTORE CALLER PUSH1 0x0 SWAP1 DUP2 MSTORE PUSH1 0xAA PUSH1 0x20 MSTORE PUSH1 0x40 DUP1 DUP3 KECCAK256 NUMBER SWAP1 SSTORE PUSH1 0x9D SLOAD PUSH1 0xB3 SLOAD DUP3 MLOAD PUSH4 0x5A7AB593 PUSH1 0xE1 SHL DUP2 MSTORE PUSH1 0x1 PUSH1 0x1 PUSH1 0xA0 SHL SUB PUSH1 0x1 PUSH1 0x30 SHL SWAP1 SWAP3 DIV DUP3 AND PUSH1 0x4 DUP3 ADD MSTORE PUSH1 0x24 DUP2 ADD DUP13 SWAP1 MSTORE SWAP3 MLOAD SWAP2 AND SWAP3 PUSH4 0xB4F56B26 SWAP3 PUSH1 0x44 DUP1 DUP3 ADD SWAP4 SWAP2 DUP3 SWAP1 SUB ADD DUP2 DUP4 DUP8 DUP1 EXTCODESIZE ISZERO DUP1 ISZERO PUSH2 0x21A7 JUMPI PUSH1 0x0 DUP1 REVERT JUMPDEST POP GAS CALL ISZERO DUP1 ISZERO PUSH2 0x21BB JUMPI RETURNDATASIZE PUSH1 0x0 DUP1 RETURNDATACOPY RETURNDATASIZE PUSH1 0x0 REVERT JUMPDEST POP POP POP POP PUSH1 0x9D PUSH1 0x0 SWAP1 SLOAD SWAP1 PUSH2 0x100 EXP SWAP1 DIV PUSH1 0x1 PUSH1 0x1 PUSH1 0xA0 SHL SUB AND PUSH1 0x1 PUSH1 0x1 PUSH1 0xA0 SHL SUB AND PUSH4 0xA8A778AE CALLER DUP16 PUSH1 0x40 MLOAD DUP4 PUSH4 0xFFFFFFFF AND PUSH1 0xE0 SHL DUP2 MSTORE PUSH1 0x4 ADD DUP1 DUP4 PUSH1 0x1 PUSH1 0x1 PUSH1 0xA0 SHL SUB AND DUP2 MSTORE PUSH1 0x20 ADD DUP3 DUP2 MSTORE PUSH1 0x20 ADD SWAP3 POP POP POP PUSH1 0x0 PUSH1 0x40 MLOAD DUP1 DUP4 SUB DUP2 PUSH1 0x0 DUP8 DUP1 EXTCODESIZE ISZERO DUP1 ISZERO PUSH2 0x222B JUMPI PUSH1 0x0 DUP1 REVERT JUMPDEST POP GAS CALL ISZERO DUP1 ISZERO PUSH2 0x223F JUMPI RETURNDATASIZE PUSH1 0x0 DUP1 RETURNDATACOPY RETURNDATASIZE PUSH1 0x0 REVERT JUMPDEST POP POP PUSH1 0x9C SLOAD PUSH1 0x40 DUP1 MLOAD PUSH4 0x5A7AB593 PUSH1 0xE1 SHL DUP2 MSTORE ADDRESS PUSH1 0x4 DUP3 ADD MSTORE PUSH1 0x24 DUP2 ADD DUP10 SWAP1 MSTORE SWAP1 MLOAD PUSH1 0x1 PUSH1 0x1 PUSH1 0xA0 SHL SUB SWAP1 SWAP3 AND SWAP4 POP PUSH4 0xB4F56B26 SWAP3 POP PUSH1 0x44 DUP1 DUP3 ADD SWAP3 PUSH1 0x0 SWAP3 SWAP1 SWAP2 SWAP1 DUP3 SWAP1 SUB ADD DUP2 DUP4 DUP8 DUP1 EXTCODESIZE ISZERO DUP1 ISZERO PUSH2 0x2296 JUMPI PUSH1 0x0 DUP1 REVERT JUMPDEST POP GAS CALL ISZERO DUP1 ISZERO PUSH2 0x22AA JUMPI RETURNDATASIZE PUSH1 0x0 DUP1 RETURNDATACOPY RETURNDATASIZE PUSH1 0x0 REVERT JUMPDEST POP POP POP POP POP POP POP POP POP POP POP POP POP POP POP POP POP JUMP JUMPDEST PUSH2 0x22E7 PUSH32 0xBB2C68B8DC5BCCDD2536307080A7865A7E133BF54E31D4D463B1B749B4BCF26D CALLER PUSH2 0x26CF JUMP JUMPDEST PUSH2 0x22F0 JUMPI PUSH1 0x0 DUP1 REVERT JUMPDEST PUSH1 0xB3 SLOAD PUSH5 0x100000000 SWAP1 DIV PUSH1 0xFF AND PUSH2 0x230C JUMPI PUSH1 0xAE DUP2 SWAP1 SSTORE PUSH2 0x2312 JUMP JUMPDEST PUSH1 0x0 PUSH1 0xAE SSTORE JUMPDEST PUSH1 0xB3 DUP1 SLOAD PUSH1 0xFF PUSH5 0x100000000 DUP1 DUP4 DIV DUP3 AND ISZERO DUP2 MUL PUSH5 0xFF00000000 NOT SWAP1 SWAP4 AND SWAP3 SWAP1 SWAP3 OR SWAP3 DUP4 SWAP1 SSTORE PUSH1 0x40 DUP1 MLOAD SWAP3 SWAP1 SWAP4 DIV AND ISZERO ISZERO DUP2 MSTORE SWAP1 MLOAD PUSH32 0xBF1F9E6D8D67BB57A141C627F40368EC23ED7603249F0C3518C16EAFBF9C4F6F SWAP2 DUP2 SWAP1 SUB PUSH1 0x20 ADD SWAP1 LOG1 POP JUMP JUMPDEST PUSH1 0xA7 SLOAD DUP2 JUMP JUMPDEST PUSH2 0x23A4 PUSH32 0xC65532185ED70B2E999433E2E9FAC124E083ACB13EC183A4E05944DA0792337B CALLER PUSH2 0x26CF JUMP JUMPDEST PUSH2 0x23AD JUMPI PUSH1 0x0 DUP1 REVERT JUMPDEST PUSH1 0xB3 DUP1 SLOAD PUSH1 0xFF NOT DUP2 AND PUSH1 0xFF SWAP2 DUP3 AND ISZERO OR SWAP2 DUP3 SWAP1 SSTORE PUSH1 0x40 DUP1 MLOAD SWAP3 SWAP1 SWAP2 AND ISZERO ISZERO DUP3 MSTORE MLOAD PUSH32 0x6BDFE227D5DB299C59AA56D5F846F40DBD73B271AAA78E18ED74FC3E00B8AA6B SWAP2 DUP2 SWAP1 SUB PUSH1 0x20 ADD SWAP1 LOG1 JUMP JUMPDEST PUSH1 0xB3 SLOAD PUSH1 0xFF AND DUP2 JUMP JUMPDEST PUSH1 0xB3 SLOAD PUSH4 0x1000000 SWAP1 DIV PUSH1 0xFF AND DUP2 JUMP JUMPDEST PUSH1 0xB3 SLOAD PUSH4 0x1000000 SWAP1 DIV PUSH1 0xFF AND ISZERO PUSH2 0x2466 JUMPI PUSH1 0x40 DUP1 MLOAD PUSH3 0x461BCD PUSH1 0xE5 SHL DUP2 MSTORE PUSH1 0x20 PUSH1 0x4 DUP3 ADD MSTORE PUSH1 0x11 PUSH1 0x24 DUP3 ADD MSTORE PUSH17 0x109D5E589858DAC81A5CC81C185D5CD959 PUSH1 0x7A SHL PUSH1 0x44 DUP3 ADD MSTORE SWAP1 MLOAD SWAP1 DUP2 SWAP1 SUB PUSH1 0x64 ADD SWAP1 REVERT JUMPDEST PUSH1 0x9D SLOAD PUSH1 0x40 DUP1 MLOAD PUSH4 0xF9283A87 PUSH1 0xE0 SHL DUP2 MSTORE SWAP1 MLOAD PUSH1 0x0 SWAP3 PUSH1 0x1 PUSH1 0x1 PUSH1 0xA0 SHL SUB AND SWAP2 PUSH4 0xF9283A87 SWAP2 PUSH1 0x4 DUP1 DUP4 ADD SWAP3 PUSH1 0x20 SWAP3 SWAP2 SWAP1 DUP3 SWAP1 SUB ADD DUP2 DUP7 DUP1 EXTCODESIZE ISZERO DUP1 ISZERO PUSH2 0x24AB JUMPI PUSH1 0x0 DUP1 REVERT JUMPDEST POP GAS STATICCALL ISZERO DUP1 ISZERO PUSH2 0x24BF JUMPI RETURNDATASIZE PUSH1 0x0 DUP1 RETURNDATACOPY RETURNDATASIZE PUSH1 0x0 REVERT JUMPDEST POP POP POP POP PUSH1 0x40 MLOAD RETURNDATASIZE PUSH1 0x20 DUP2 LT ISZERO PUSH2 0x24D5 JUMPI PUSH1 0x0 DUP1 REVERT JUMPDEST POP MLOAD SWAP1 POP PUSH2 0x24E1 PUSH2 0x54C8 JUMP JUMPDEST PUSH1 0x40 MLOAD DUP1 PUSH1 0x80 ADD PUSH1 0x40 MSTORE DUP1 PUSH2 0x24F4 PUSH2 0x4118 JUMP JUMPDEST DUP2 MSTORE PUSH1 0x20 ADD DUP4 DUP2 MSTORE PUSH1 0x20 ADD PUSH2 0x2507 PUSH2 0x4658 JUMP JUMPDEST DUP2 MSTORE PUSH1 0x20 ADD DUP6 SWAP1 MSTORE SWAP1 POP PUSH1 0x0 PUSH2 0x251C DUP3 PUSH2 0x4CDF JUMP JUMPDEST SWAP1 POP PUSH1 0x0 PUSH2 0x253C PUSH3 0xF4240 PUSH2 0xE67 PUSH1 0xA2 SLOAD DUP6 PUSH2 0x49AC SWAP1 SWAP2 SWAP1 PUSH4 0xFFFFFFFF AND JUMP JUMPDEST SWAP1 POP PUSH1 0x0 PUSH2 0x2558 PUSH1 0xAC SLOAD PUSH1 0xA EXP DUP4 PUSH2 0x4945 SWAP1 SWAP2 SWAP1 PUSH4 0xFFFFFFFF AND JUMP JUMPDEST SWAP1 POP PUSH1 0x0 PUSH2 0x2585 PUSH3 0xF4240 PUSH2 0xE67 PUSH2 0x257E PUSH1 0xA2 SLOAD PUSH3 0xF4240 PUSH2 0x477E SWAP1 SWAP2 SWAP1 PUSH4 0xFFFFFFFF AND JUMP JUMPDEST DUP8 SWAP1 PUSH2 0x49AC JUMP JUMPDEST SWAP1 POP PUSH1 0x0 PUSH2 0x25A1 PUSH1 0xAC SLOAD PUSH1 0xA EXP DUP4 PUSH2 0x4945 SWAP1 SWAP2 SWAP1 PUSH4 0xFFFFFFFF AND JUMP JUMPDEST SWAP1 POP DUP1 DUP9 GT ISZERO PUSH2 0x25E6 JUMPI PUSH1 0x40 DUP1 MLOAD PUSH3 0x461BCD PUSH1 0xE5 SHL DUP2 MSTORE PUSH1 0x20 PUSH1 0x4 DUP3 ADD MSTORE PUSH1 0x16 PUSH1 0x24 DUP3 ADD MSTORE PUSH1 0x0 DUP1 MLOAD PUSH1 0x20 PUSH2 0x571B DUP4 CODECOPY DUP2 MLOAD SWAP2 MSTORE PUSH1 0x44 DUP3 ADD MSTORE SWAP1 MLOAD SWAP1 DUP2 SWAP1 SUB PUSH1 0x64 ADD SWAP1 REVERT JUMPDEST PUSH1 0x9C SLOAD PUSH1 0x40 DUP1 MLOAD PUSH4 0x5453BC57 PUSH1 0xE1 SHL DUP2 MSTORE CALLER PUSH1 0x4 DUP3 ADD MSTORE PUSH1 0x24 DUP2 ADD DUP13 SWAP1 MSTORE SWAP1 MLOAD PUSH1 0x1 PUSH1 0x1 PUSH1 0xA0 SHL SUB SWAP1 SWAP3 AND SWAP2 PUSH4 0xA8A778AE SWAP2 PUSH1 0x44 DUP1 DUP3 ADD SWAP3 PUSH1 0x0 SWAP3 SWAP1 SWAP2 SWAP1 DUP3 SWAP1 SUB ADD DUP2 DUP4 DUP8 DUP1 EXTCODESIZE ISZERO DUP1 ISZERO PUSH2 0x2639 JUMPI PUSH1 0x0 DUP1 REVERT JUMPDEST POP GAS CALL ISZERO DUP1 ISZERO PUSH2 0x264D JUMPI RETURNDATASIZE PUSH1 0x0 DUP1 RETURNDATACOPY RETURNDATASIZE PUSH1 0x0 REVERT JUMPDEST POP POP PUSH1 0x97 SLOAD PUSH2 0x2669 SWAP3 POP PUSH1 0x1 PUSH1 0x1 PUSH1 0xA0 SHL SUB AND SWAP1 POP CALLER DUP4 PUSH2 0x47DB JUMP JUMPDEST PUSH1 0x97 SLOAD PUSH1 0xB3 SLOAD PUSH2 0x10C2 SWAP2 PUSH1 0x1 PUSH1 0x1 PUSH1 0xA0 SHL SUB SWAP1 DUP2 AND SWAP2 PUSH1 0x1 PUSH1 0x30 SHL SWAP1 DIV AND DUP6 PUSH2 0x47DB JUMP JUMPDEST PUSH1 0xB3 SLOAD PUSH5 0x100000000 SWAP1 DIV PUSH1 0xFF AND DUP2 JUMP JUMPDEST PUSH1 0x65 SLOAD PUSH1 0x1 PUSH1 0x1 PUSH1 0xA0 SHL SUB AND JUMPDEST SWAP1 JUMP JUMPDEST PUSH1 0x0 DUP3 DUP2 MSTORE PUSH1 0x33 PUSH1 0x20 MSTORE PUSH1 0x40 DUP2 KECCAK256 PUSH2 0x26C6 SWAP1 DUP4 PUSH2 0x4DA7 JUMP JUMPDEST SWAP1 POP JUMPDEST SWAP3 SWAP2 POP POP JUMP JUMPDEST PUSH1 0x0 DUP3 DUP2 MSTORE PUSH1 0x33 PUSH1 0x20 MSTORE PUSH1 0x40 DUP2 KECCAK256 PUSH2 0x26C6 SWAP1 DUP4 PUSH2 0x4DB3 JUMP JUMPDEST PUSH1 0x0 DUP2 JUMP JUMPDEST PUSH1 0x0 DUP1 PUSH1 0x9D PUSH1 0x0 SWAP1 SLOAD SWAP1 PUSH2 0x100 EXP SWAP1 DIV PUSH1 0x1 PUSH1 0x1 PUSH1 0xA0 SHL SUB AND PUSH1 0x1 PUSH1 0x1 PUSH1 0xA0 SHL SUB AND PUSH4 0x18160DDD PUSH1 0x40 MLOAD DUP2 PUSH4 0xFFFFFFFF AND PUSH1 0xE0 SHL DUP2 MSTORE PUSH1 0x4 ADD PUSH1 0x20 PUSH1 0x40 MLOAD DUP1 DUP4 SUB DUP2 DUP7 DUP1 EXTCODESIZE ISZERO DUP1 ISZERO PUSH2 0x273D JUMPI PUSH1 0x0 DUP1 REVERT JUMPDEST POP GAS STATICCALL ISZERO DUP1 ISZERO PUSH2 0x2751 JUMPI RETURNDATASIZE PUSH1 0x0 DUP1 RETURNDATACOPY RETURNDATASIZE PUSH1 0x0 REVERT JUMPDEST POP POP POP POP PUSH1 0x40 MLOAD RETURNDATASIZE PUSH1 0x20 DUP2 LT ISZERO PUSH2 0x2767 JUMPI PUSH1 0x0 DUP1 REVERT JUMPDEST POP MLOAD PUSH1 0x9D SLOAD PUSH1 0x40 DUP1 MLOAD PUSH4 0x2EB9771B PUSH1 0xE0 SHL DUP2 MSTORE SWAP1 MLOAD SWAP3 SWAP4 POP PUSH1 0x0 SWAP3 PUSH1 0x1 PUSH1 0x1 PUSH1 0xA0 SHL SUB SWAP1 SWAP3 AND SWAP2 PUSH4 0x2EB9771B SWAP2 PUSH1 0x4 DUP1 DUP3 ADD SWAP3 PUSH1 0x20 SWAP3 SWAP1 SWAP2 SWAP1 DUP3 SWAP1 SUB ADD DUP2 DUP7 DUP1 EXTCODESIZE ISZERO DUP1 ISZERO PUSH2 0x27B4 JUMPI PUSH1 0x0 DUP1 REVERT JUMPDEST POP GAS STATICCALL ISZERO DUP1 ISZERO PUSH2 0x27C8 JUMPI RETURNDATASIZE PUSH1 0x0 DUP1 RETURNDATACOPY RETURNDATASIZE PUSH1 0x0 REVERT JUMPDEST POP POP POP POP PUSH1 0x40 MLOAD RETURNDATASIZE PUSH1 0x20 DUP2 LT ISZERO PUSH2 0x27DE JUMPI PUSH1 0x0 DUP1 REVERT JUMPDEST POP MLOAD PUSH1 0x9D SLOAD PUSH1 0x40 DUP1 MLOAD PUSH4 0x696CBD83 PUSH1 0xE1 SHL DUP2 MSTORE SWAP1 MLOAD SWAP3 SWAP4 POP PUSH1 0x0 SWAP3 PUSH1 0x1 PUSH1 0x1 PUSH1 0xA0 SHL SUB SWAP1 SWAP3 AND SWAP2 PUSH4 0xD2D97B06 SWAP2 PUSH1 0x4 DUP1 DUP3 ADD SWAP3 PUSH1 0x20 SWAP3 SWAP1 SWAP2 SWAP1 DUP3 SWAP1 SUB ADD DUP2 DUP7 DUP1 EXTCODESIZE ISZERO DUP1 ISZERO PUSH2 0x282B JUMPI PUSH1 0x0 DUP1 REVERT JUMPDEST POP GAS STATICCALL ISZERO DUP1 ISZERO PUSH2 0x283F JUMPI RETURNDATASIZE PUSH1 0x0 DUP1 RETURNDATACOPY RETURNDATASIZE PUSH1 0x0 REVERT JUMPDEST POP POP POP POP PUSH1 0x40 MLOAD RETURNDATASIZE PUSH1 0x20 DUP2 LT ISZERO PUSH2 0x2855 JUMPI PUSH1 0x0 DUP1 REVERT JUMPDEST POP MLOAD SWAP1 POP PUSH1 0x0 PUSH2 0x286C DUP5 PUSH2 0xE67 DUP5 PUSH3 0xF4240 PUSH2 0x49AC JUMP JUMPDEST SWAP1 POP DUP1 DUP4 GT ISZERO PUSH2 0x28A5 JUMPI PUSH2 0x289A PUSH3 0xF4240 PUSH2 0xE67 PUSH2 0x288A DUP8 DUP6 PUSH2 0x49AC JUMP JUMPDEST PUSH2 0x2894 DUP8 DUP10 PUSH2 0x49AC JUMP JUMPDEST SWAP1 PUSH2 0x477E JUMP JUMPDEST SWAP5 POP POP POP POP POP PUSH2 0x26AB JUMP JUMPDEST PUSH1 0x0 SWAP5 POP POP POP POP POP SWAP1 JUMP JUMPDEST PUSH1 0xAA PUSH1 0x20 MSTORE PUSH1 0x0 SWAP1 DUP2 MSTORE PUSH1 0x40 SWAP1 KECCAK256 SLOAD DUP2 JUMP JUMPDEST PUSH1 0xAB PUSH1 0x20 MSTORE PUSH1 0x0 SWAP1 DUP2 MSTORE PUSH1 0x40 SWAP1 KECCAK256 SLOAD DUP2 JUMP JUMPDEST PUSH1 0xB3 SLOAD PUSH1 0xFF AND ISZERO PUSH2 0x2920 JUMPI PUSH1 0x40 DUP1 MLOAD PUSH3 0x461BCD PUSH1 0xE5 SHL DUP2 MSTORE PUSH1 0x20 PUSH1 0x4 DUP3 ADD MSTORE PUSH1 0x11 PUSH1 0x24 DUP3 ADD MSTORE PUSH17 0x135A5B9D1A5B99C81A5CC81C185D5CD959 PUSH1 0x7A SHL PUSH1 0x44 DUP3 ADD MSTORE SWAP1 MLOAD SWAP1 DUP2 SWAP1 SUB PUSH1 0x64 ADD SWAP1 REVERT JUMPDEST PUSH1 0xB2 SLOAD PUSH1 0x9D PUSH1 0x0 SWAP1 SLOAD SWAP1 PUSH2 0x100 EXP SWAP1 DIV PUSH1 0x1 PUSH1 0x1 PUSH1 0xA0 SHL SUB AND PUSH1 0x1 PUSH1 0x1 PUSH1 0xA0 SHL SUB AND PUSH4 0xC0BE0361 PUSH1 0x40 MLOAD DUP2 PUSH4 0xFFFFFFFF AND PUSH1 0xE0 SHL DUP2 MSTORE PUSH1 0x4 ADD PUSH1 0x20 PUSH1 0x40 MLOAD DUP1 DUP4 SUB DUP2 DUP7 DUP1 EXTCODESIZE ISZERO DUP1 ISZERO PUSH2 0x2971 JUMPI PUSH1 0x0 DUP1 REVERT JUMPDEST POP GAS STATICCALL ISZERO DUP1 ISZERO PUSH2 0x2985 JUMPI RETURNDATASIZE PUSH1 0x0 DUP1 RETURNDATACOPY RETURNDATASIZE PUSH1 0x0 REVERT JUMPDEST POP POP POP POP PUSH1 0x40 MLOAD RETURNDATASIZE PUSH1 0x20 DUP2 LT ISZERO PUSH2 0x299B JUMPI PUSH1 0x0 DUP1 REVERT JUMPDEST POP MLOAD LT ISZERO DUP1 PUSH2 0x29B4 JUMPI POP PUSH1 0xB3 SLOAD PUSH1 0x1 PUSH1 0x28 SHL SWAP1 DIV PUSH1 0xFF AND ISZERO JUMPDEST PUSH2 0x29FB JUMPI PUSH1 0x40 DUP1 MLOAD PUSH3 0x461BCD PUSH1 0xE5 SHL DUP2 MSTORE PUSH1 0x20 PUSH1 0x4 DUP3 ADD MSTORE PUSH1 0x13 PUSH1 0x24 DUP3 ADD MSTORE PUSH19 0x53796E746820707269636520746F6F206C6F77 PUSH1 0x68 SHL PUSH1 0x44 DUP3 ADD MSTORE SWAP1 MLOAD SWAP1 DUP2 SWAP1 SUB PUSH1 0x64 ADD SWAP1 REVERT JUMPDEST PUSH1 0xAC SLOAD PUSH1 0x9D SLOAD PUSH1 0x40 DUP1 MLOAD PUSH4 0x2EB9771B PUSH1 0xE0 SHL DUP2 MSTORE SWAP1 MLOAD PUSH1 0xA SWAP4 SWAP1 SWAP4 EXP DUP6 MUL SWAP3 PUSH3 0xF4240 SWAP3 PUSH1 0x1 PUSH1 0x1 PUSH1 0xA0 SHL SUB AND SWAP2 PUSH4 0x2EB9771B SWAP2 PUSH1 0x4 DUP1 DUP4 ADD SWAP3 PUSH1 0x20 SWAP3 SWAP2 SWAP1 DUP3 SWAP1 SUB ADD DUP2 DUP7 DUP1 EXTCODESIZE ISZERO DUP1 ISZERO PUSH2 0x2A4E JUMPI PUSH1 0x0 DUP1 REVERT JUMPDEST POP GAS STATICCALL ISZERO DUP1 ISZERO PUSH2 0x2A62 JUMPI RETURNDATASIZE PUSH1 0x0 DUP1 RETURNDATACOPY RETURNDATASIZE PUSH1 0x0 REVERT JUMPDEST POP POP POP POP PUSH1 0x40 MLOAD RETURNDATASIZE PUSH1 0x20 DUP2 LT ISZERO PUSH2 0x2A78 JUMPI PUSH1 0x0 DUP1 REVERT JUMPDEST POP MLOAD LT ISZERO PUSH2 0x2ACD JUMPI PUSH1 0x40 DUP1 MLOAD PUSH3 0x461BCD PUSH1 0xE5 SHL DUP2 MSTORE PUSH1 0x20 PUSH1 0x4 DUP3 ADD MSTORE PUSH1 0x1D PUSH1 0x24 DUP3 ADD MSTORE PUSH32 0x436F6C6C61746572616C20726174696F206D757374206265203E3D2031000000 PUSH1 0x44 DUP3 ADD MSTORE SWAP1 MLOAD SWAP1 DUP2 SWAP1 SUB PUSH1 0x64 ADD SWAP1 REVERT JUMPDEST PUSH1 0xAD SLOAD PUSH1 0xA7 SLOAD PUSH1 0x97 SLOAD PUSH1 0x40 DUP1 MLOAD PUSH4 0x70A08231 PUSH1 0xE0 SHL DUP2 MSTORE ADDRESS PUSH1 0x4 DUP3 ADD MSTORE SWAP1 MLOAD PUSH2 0x2B29 SWAP4 DUP9 SWAP4 PUSH2 0x1043 SWAP4 SWAP2 SWAP3 PUSH1 0x1 PUSH1 0x1 PUSH1 0xA0 SHL SUB SWAP1 SWAP2 AND SWAP2 PUSH4 0x70A08231 SWAP2 PUSH1 0x24 DUP1 DUP4 ADD SWAP3 PUSH1 0x20 SWAP3 SWAP2 SWAP1 DUP3 SWAP1 SUB ADD DUP2 DUP7 DUP1 EXTCODESIZE ISZERO DUP1 ISZERO PUSH2 0xEED JUMPI PUSH1 0x0 DUP1 REVERT JUMPDEST GT ISZERO PUSH2 0x2B7C JUMPI PUSH1 0x40 DUP1 MLOAD PUSH3 0x461BCD PUSH1 0xE5 SHL DUP2 MSTORE PUSH1 0x20 PUSH1 0x4 DUP3 ADD DUP2 SWAP1 MSTORE PUSH1 0x24 DUP3 ADD MSTORE PUSH32 0x5B506F6F6C277320436C6F7365645D3A204365696C696E672072656163686564 PUSH1 0x44 DUP3 ADD MSTORE SWAP1 MLOAD SWAP1 DUP2 SWAP1 SUB PUSH1 0x64 ADD SWAP1 REVERT JUMPDEST PUSH1 0x0 PUSH20 0x0 PUSH4 0x3A1EF8AA PUSH2 0x2BA0 PUSH2 0x4658 JUMP JUMPDEST DUP5 PUSH1 0x40 MLOAD DUP4 PUSH4 0xFFFFFFFF AND PUSH1 0xE0 SHL DUP2 MSTORE PUSH1 0x4 ADD DUP1 DUP4 DUP2 MSTORE PUSH1 0x20 ADD DUP3 DUP2 MSTORE PUSH1 0x20 ADD SWAP3 POP POP POP PUSH1 0x20 PUSH1 0x40 MLOAD DUP1 DUP4 SUB DUP2 DUP7 DUP1 EXTCODESIZE ISZERO DUP1 ISZERO PUSH2 0x2BDC JUMPI PUSH1 0x0 DUP1 REVERT JUMPDEST POP GAS DELEGATECALL ISZERO DUP1 ISZERO PUSH2 0x2BF0 JUMPI RETURNDATASIZE PUSH1 0x0 DUP1 RETURNDATACOPY RETURNDATASIZE PUSH1 0x0 REVERT JUMPDEST POP POP POP POP PUSH1 0x40 MLOAD RETURNDATASIZE PUSH1 0x20 DUP2 LT ISZERO PUSH2 0x2C06 JUMPI PUSH1 0x0 DUP1 REVERT JUMPDEST POP MLOAD PUSH1 0xA0 SLOAD SWAP1 SWAP2 POP PUSH1 0x0 SWAP1 PUSH2 0x2C25 SWAP1 PUSH3 0xF4240 SWAP1 PUSH2 0xE67 SWAP1 DUP6 SWAP1 PUSH2 0x49AC JUMP JUMPDEST SWAP1 POP PUSH2 0x2C49 PUSH3 0xF4240 PUSH2 0xE67 PUSH2 0xE91 PUSH1 0xA0 SLOAD PUSH3 0xF4240 PUSH2 0x477E SWAP1 SWAP2 SWAP1 PUSH4 0xFFFFFFFF AND JUMP JUMPDEST SWAP2 POP DUP2 DUP5 GT ISZERO PUSH2 0x2C8E JUMPI PUSH1 0x40 DUP1 MLOAD PUSH3 0x461BCD PUSH1 0xE5 SHL DUP2 MSTORE PUSH1 0x20 PUSH1 0x4 DUP3 ADD MSTORE PUSH1 0x16 PUSH1 0x24 DUP3 ADD MSTORE PUSH1 0x0 DUP1 MLOAD PUSH1 0x20 PUSH2 0x571B DUP4 CODECOPY DUP2 MLOAD SWAP2 MSTORE PUSH1 0x44 DUP3 ADD MSTORE SWAP1 MLOAD SWAP1 DUP2 SWAP1 SUB PUSH1 0x64 ADD SWAP1 REVERT JUMPDEST PUSH1 0x97 SLOAD PUSH2 0x2CA6 SWAP1 PUSH1 0x1 PUSH1 0x1 PUSH1 0xA0 SHL SUB AND CALLER ADDRESS DUP9 PUSH2 0x4B8A JUMP JUMPDEST CALLER PUSH1 0x0 SWAP1 DUP2 MSTORE PUSH1 0xA6 PUSH1 0x20 MSTORE PUSH1 0x40 SWAP1 KECCAK256 SLOAD PUSH2 0x2CC0 SWAP1 DUP4 PUSH2 0x4724 JUMP JUMPDEST CALLER PUSH1 0x0 SWAP1 DUP2 MSTORE PUSH1 0xA6 PUSH1 0x20 MSTORE PUSH1 0x40 DUP1 DUP3 KECCAK256 SWAP3 SWAP1 SWAP3 SSTORE PUSH1 0xB3 SLOAD PUSH1 0x1 PUSH1 0x30 SHL SWAP1 DIV PUSH1 0x1 PUSH1 0x1 PUSH1 0xA0 SHL SUB AND DUP2 MSTORE KECCAK256 SLOAD PUSH2 0x2CF5 SWAP1 DUP3 PUSH2 0x4724 JUMP JUMPDEST PUSH1 0xB3 SLOAD PUSH1 0x1 PUSH1 0x30 SHL SWAP1 DIV PUSH1 0x1 PUSH1 0x1 PUSH1 0xA0 SHL SUB AND PUSH1 0x0 SWAP1 DUP2 MSTORE PUSH1 0xA6 PUSH1 0x20 MSTORE PUSH1 0x40 SWAP1 KECCAK256 SSTORE PUSH1 0xA9 SLOAD PUSH2 0x2D2A SWAP1 DUP3 SWAP1 PUSH2 0x1043 SWAP1 DUP6 PUSH2 0x4724 JUMP JUMPDEST PUSH1 0xA9 SSTORE CALLER PUSH1 0x0 SWAP1 DUP2 MSTORE PUSH1 0xAB PUSH1 0x20 MSTORE PUSH1 0x40 SWAP1 KECCAK256 NUMBER SWAP1 SSTORE PUSH1 0x9D SLOAD PUSH1 0x1 PUSH1 0x1 PUSH1 0xA0 SHL SUB AND PUSH4 0xB4F56B26 ADDRESS PUSH2 0x2D5B DUP6 DUP6 PUSH2 0x4724 JUMP JUMPDEST PUSH1 0x40 MLOAD DUP4 PUSH4 0xFFFFFFFF AND PUSH1 0xE0 SHL DUP2 MSTORE PUSH1 0x4 ADD DUP1 DUP4 PUSH1 0x1 PUSH1 0x1 PUSH1 0xA0 SHL SUB AND DUP2 MSTORE PUSH1 0x20 ADD DUP3 DUP2 MSTORE PUSH1 0x20 ADD SWAP3 POP POP POP PUSH1 0x0 PUSH1 0x40 MLOAD DUP1 DUP4 SUB DUP2 PUSH1 0x0 DUP8 DUP1 EXTCODESIZE ISZERO DUP1 ISZERO PUSH2 0x10AE JUMPI PUSH1 0x0 DUP1 REVERT JUMPDEST PUSH1 0xB3 SLOAD PUSH2 0x100 SWAP1 DIV PUSH1 0xFF AND ISZERO PUSH2 0x2DF4 JUMPI PUSH1 0x40 DUP1 MLOAD PUSH3 0x461BCD PUSH1 0xE5 SHL DUP2 MSTORE PUSH1 0x20 PUSH1 0x4 DUP3 ADD MSTORE PUSH1 0x13 PUSH1 0x24 DUP3 ADD MSTORE PUSH19 0x14995919595B5A5B99C81A5CC81C185D5CD959 PUSH1 0x6A SHL PUSH1 0x44 DUP3 ADD MSTORE SWAP1 MLOAD SWAP1 DUP2 SWAP1 SUB PUSH1 0x64 ADD SWAP1 REVERT JUMPDEST PUSH1 0xB1 SLOAD PUSH1 0x9D PUSH1 0x0 SWAP1 SLOAD SWAP1 PUSH2 0x100 EXP SWAP1 DIV PUSH1 0x1 PUSH1 0x1 PUSH1 0xA0 SHL SUB AND PUSH1 0x1 PUSH1 0x1 PUSH1 0xA0 SHL SUB AND PUSH4 0xC0BE0361 PUSH1 0x40 MLOAD DUP2 PUSH4 0xFFFFFFFF AND PUSH1 0xE0 SHL DUP2 MSTORE PUSH1 0x4 ADD PUSH1 0x20 PUSH1 0x40 MLOAD DUP1 DUP4 SUB DUP2 DUP7 DUP1 EXTCODESIZE ISZERO DUP1 ISZERO PUSH2 0x2E45 JUMPI PUSH1 0x0 DUP1 REVERT JUMPDEST POP GAS STATICCALL ISZERO DUP1 ISZERO PUSH2 0x2E59 JUMPI RETURNDATASIZE PUSH1 0x0 DUP1 RETURNDATACOPY RETURNDATASIZE PUSH1 0x0 REVERT JUMPDEST POP POP POP POP PUSH1 0x40 MLOAD RETURNDATASIZE PUSH1 0x20 DUP2 LT ISZERO PUSH2 0x2E6F JUMPI PUSH1 0x0 DUP1 REVERT JUMPDEST POP MLOAD GT ISZERO DUP1 PUSH2 0x2E88 JUMPI POP PUSH1 0xB3 SLOAD PUSH1 0x1 PUSH1 0x28 SHL SWAP1 DIV PUSH1 0xFF AND ISZERO JUMPDEST PUSH2 0x2ED0 JUMPI PUSH1 0x40 DUP1 MLOAD PUSH3 0x461BCD PUSH1 0xE5 SHL DUP2 MSTORE PUSH1 0x20 PUSH1 0x4 DUP3 ADD MSTORE PUSH1 0x14 PUSH1 0x24 DUP3 ADD MSTORE PUSH20 0xA6F2DCE8D040E0E4D2C6CA40E8DEDE40D0D2CED PUSH1 0x63 SHL PUSH1 0x44 DUP3 ADD MSTORE SWAP1 MLOAD SWAP1 DUP2 SWAP1 SUB PUSH1 0x64 ADD SWAP1 REVERT JUMPDEST PUSH1 0x9D SLOAD PUSH1 0x40 DUP1 MLOAD PUSH4 0xF9283A87 PUSH1 0xE0 SHL DUP2 MSTORE SWAP1 MLOAD PUSH1 0x0 SWAP3 PUSH1 0x1 PUSH1 0x1 PUSH1 0xA0 SHL SUB AND SWAP2 PUSH4 0xF9283A87 SWAP2 PUSH1 0x4 DUP1 DUP4 ADD SWAP3 PUSH1 0x20 SWAP3 SWAP2 SWAP1 DUP3 SWAP1 SUB ADD DUP2 DUP7 DUP1 EXTCODESIZE ISZERO DUP1 ISZERO PUSH2 0x2F15 JUMPI PUSH1 0x0 DUP1 REVERT JUMPDEST POP GAS STATICCALL ISZERO DUP1 ISZERO PUSH2 0x2F29 JUMPI RETURNDATASIZE PUSH1 0x0 DUP1 RETURNDATACOPY RETURNDATASIZE PUSH1 0x0 REVERT JUMPDEST POP POP POP POP PUSH1 0x40 MLOAD RETURNDATASIZE PUSH1 0x20 DUP2 LT ISZERO PUSH2 0x2F3F JUMPI PUSH1 0x0 DUP1 REVERT JUMPDEST POP MLOAD PUSH1 0x9D SLOAD PUSH1 0x40 DUP1 MLOAD PUSH4 0x2EB9771B PUSH1 0xE0 SHL DUP2 MSTORE SWAP1 MLOAD SWAP3 SWAP4 POP PUSH1 0x0 SWAP3 PUSH1 0x1 PUSH1 0x1 PUSH1 0xA0 SHL SUB SWAP1 SWAP3 AND SWAP2 PUSH4 0x2EB9771B SWAP2 PUSH1 0x4 DUP1 DUP3 ADD SWAP3 PUSH1 0x20 SWAP3 SWAP1 SWAP2 SWAP1 DUP3 SWAP1 SUB ADD DUP2 DUP7 DUP1 EXTCODESIZE ISZERO DUP1 ISZERO PUSH2 0x2F8C JUMPI PUSH1 0x0 DUP1 REVERT JUMPDEST POP GAS STATICCALL ISZERO DUP1 ISZERO PUSH2 0x2FA0 JUMPI RETURNDATASIZE PUSH1 0x0 DUP1 RETURNDATACOPY RETURNDATASIZE PUSH1 0x0 REVERT JUMPDEST POP POP POP POP PUSH1 0x40 MLOAD RETURNDATASIZE PUSH1 0x20 DUP2 LT ISZERO PUSH2 0x2FB6 JUMPI PUSH1 0x0 DUP1 REVERT JUMPDEST POP MLOAD SWAP1 POP DUP1 ISZERO PUSH2 0x300D JUMPI PUSH1 0x40 DUP1 MLOAD PUSH3 0x461BCD PUSH1 0xE5 SHL DUP2 MSTORE PUSH1 0x20 PUSH1 0x4 DUP3 ADD MSTORE PUSH1 0x1A PUSH1 0x24 DUP3 ADD MSTORE PUSH32 0x436F6C6C61746572616C20726174696F206D7573742062652030000000000000 PUSH1 0x44 DUP3 ADD MSTORE SWAP1 MLOAD SWAP1 DUP2 SWAP1 SUB PUSH1 0x64 ADD SWAP1 REVERT JUMPDEST PUSH1 0x0 DUP5 SWAP1 POP PUSH1 0x0 PUSH2 0x3030 PUSH3 0xF4240 PUSH2 0xE67 PUSH1 0xA1 SLOAD DUP6 PUSH2 0x49AC SWAP1 SWAP2 SWAP1 PUSH4 0xFFFFFFFF AND JUMP JUMPDEST SWAP1 POP PUSH1 0x0 PUSH2 0x3045 DUP6 PUSH2 0xE67 DUP5 PUSH3 0xF4240 PUSH2 0x49AC JUMP JUMPDEST SWAP1 POP PUSH2 0x3069 PUSH3 0xF4240 PUSH2 0xE67 PUSH2 0x1523 PUSH1 0xA1 SLOAD PUSH3 0xF4240 PUSH2 0x477E SWAP1 SWAP2 SWAP1 PUSH4 0xFFFFFFFF AND JUMP JUMPDEST SWAP3 POP PUSH1 0x0 PUSH2 0x307E DUP7 PUSH2 0xE67 DUP7 PUSH3 0xF4240 PUSH2 0x49AC JUMP JUMPDEST CALLER PUSH1 0x0 SWAP1 DUP2 MSTORE PUSH1 0xA4 PUSH1 0x20 MSTORE PUSH1 0x40 SWAP1 KECCAK256 SLOAD SWAP1 SWAP2 POP PUSH2 0x309B SWAP1 DUP3 PUSH2 0x4724 JUMP JUMPDEST CALLER PUSH1 0x0 SWAP1 DUP2 MSTORE PUSH1 0xA4 PUSH1 0x20 MSTORE PUSH1 0x40 DUP1 DUP3 KECCAK256 SWAP3 SWAP1 SWAP3 SSTORE PUSH1 0xB3 SLOAD PUSH1 0x1 PUSH1 0x30 SHL SWAP1 DIV PUSH1 0x1 PUSH1 0x1 PUSH1 0xA0 SHL SUB AND DUP2 MSTORE KECCAK256 SLOAD PUSH2 0x30D0 SWAP1 DUP4 PUSH2 0x4724 JUMP JUMPDEST PUSH1 0xB3 SLOAD PUSH1 0x1 PUSH1 0x30 SHL SWAP1 DIV PUSH1 0x1 PUSH1 0x1 PUSH1 0xA0 SHL SUB AND PUSH1 0x0 SWAP1 DUP2 MSTORE PUSH1 0xA4 PUSH1 0x20 MSTORE PUSH1 0x40 SWAP1 KECCAK256 SSTORE PUSH1 0xA8 SLOAD PUSH2 0x3105 SWAP1 DUP4 SWAP1 PUSH2 0x1043 SWAP1 DUP5 PUSH2 0x4724 JUMP JUMPDEST PUSH1 0xA8 SSTORE CALLER PUSH1 0x0 SWAP1 DUP2 MSTORE PUSH1 0xAA PUSH1 0x20 MSTORE PUSH1 0x40 SWAP1 KECCAK256 NUMBER SWAP1 SSTORE DUP1 DUP8 GT ISZERO PUSH2 0x315D JUMPI PUSH1 0x40 DUP1 MLOAD PUSH3 0x461BCD PUSH1 0xE5 SHL DUP2 MSTORE PUSH1 0x20 PUSH1 0x4 DUP3 ADD MSTORE PUSH1 0x16 PUSH1 0x24 DUP3 ADD MSTORE PUSH1 0x0 DUP1 MLOAD PUSH1 0x20 PUSH2 0x571B DUP4 CODECOPY DUP2 MLOAD SWAP2 MSTORE PUSH1 0x44 DUP3 ADD MSTORE SWAP1 MLOAD SWAP1 DUP2 SWAP1 SUB PUSH1 0x64 ADD SWAP1 REVERT JUMPDEST PUSH1 0x9D SLOAD PUSH1 0x40 DUP1 MLOAD PUSH4 0x5453BC57 PUSH1 0xE1 SHL DUP2 MSTORE CALLER PUSH1 0x4 DUP3 ADD MSTORE PUSH1 0x24 DUP2 ADD DUP12 SWAP1 MSTORE SWAP1 MLOAD PUSH1 0x1 PUSH1 0x1 PUSH1 0xA0 SHL SUB SWAP1 SWAP3 AND SWAP2 PUSH4 0xA8A778AE SWAP2 PUSH1 0x44 DUP1 DUP3 ADD SWAP3 PUSH1 0x0 SWAP3 SWAP1 SWAP2 SWAP1 DUP3 SWAP1 SUB ADD DUP2 DUP4 DUP8 DUP1 EXTCODESIZE ISZERO DUP1 ISZERO PUSH2 0x31B0 JUMPI PUSH1 0x0 DUP1 REVERT JUMPDEST POP GAS CALL ISZERO DUP1 ISZERO PUSH2 0x31C4 JUMPI RETURNDATASIZE PUSH1 0x0 DUP1 RETURNDATACOPY RETURNDATASIZE PUSH1 0x0 REVERT JUMPDEST POP POP PUSH1 0x9C SLOAD PUSH1 0x40 DUP1 MLOAD PUSH4 0x5A7AB593 PUSH1 0xE1 SHL DUP2 MSTORE ADDRESS PUSH1 0x4 DUP3 ADD MSTORE PUSH1 0x24 DUP2 ADD DUP7 SWAP1 MSTORE SWAP1 MLOAD PUSH1 0x1 PUSH1 0x1 PUSH1 0xA0 SHL SUB SWAP1 SWAP3 AND SWAP4 POP PUSH4 0xB4F56B26 SWAP3 POP PUSH1 0x44 DUP1 DUP3 ADD SWAP3 PUSH1 0x0 SWAP3 SWAP1 SWAP2 SWAP1 DUP3 SWAP1 SUB ADD DUP2 DUP4 DUP8 DUP1 EXTCODESIZE ISZERO DUP1 ISZERO PUSH2 0x321B JUMPI PUSH1 0x0 DUP1 REVERT JUMPDEST POP GAS CALL ISZERO DUP1 ISZERO PUSH2 0x322F JUMPI RETURNDATASIZE PUSH1 0x0 DUP1 RETURNDATACOPY RETURNDATASIZE PUSH1 0x0 REVERT JUMPDEST POP POP POP POP POP POP POP POP POP POP POP POP JUMP JUMPDEST PUSH1 0xB3 SLOAD PUSH2 0x100 SWAP1 DIV PUSH1 0xFF AND DUP2 JUMP JUMPDEST PUSH1 0xA4 PUSH1 0x20 MSTORE PUSH1 0x0 SWAP1 DUP2 MSTORE PUSH1 0x40 SWAP1 KECCAK256 SLOAD DUP2 JUMP JUMPDEST PUSH1 0x9B SLOAD PUSH1 0x1 PUSH1 0x1 PUSH1 0xA0 SHL SUB AND CALLER EQ DUP1 PUSH2 0x328E JUMPI POP PUSH2 0x3279 PUSH2 0x269E JUMP JUMPDEST PUSH1 0x1 PUSH1 0x1 PUSH1 0xA0 SHL SUB AND CALLER PUSH1 0x1 PUSH1 0x1 PUSH1 0xA0 SHL SUB AND EQ JUMPDEST PUSH2 0x32D7 JUMPI PUSH1 0x40 DUP1 MLOAD PUSH3 0x461BCD PUSH1 0xE5 SHL DUP2 MSTORE PUSH1 0x20 PUSH1 0x4 DUP3 ADD MSTORE PUSH1 0x15 PUSH1 0x24 DUP3 ADD MSTORE PUSH21 0x4E6F74206F776E6572206F722074696D656C6F636B PUSH1 0x58 SHL PUSH1 0x44 DUP3 ADD MSTORE SWAP1 MLOAD SWAP1 DUP2 SWAP1 SUB PUSH1 0x64 ADD SWAP1 REVERT JUMPDEST PUSH1 0x9B DUP1 SLOAD PUSH1 0x1 PUSH1 0x1 PUSH1 0xA0 SHL SUB DUP4 AND PUSH1 0x1 PUSH1 0x1 PUSH1 0xA0 SHL SUB NOT SWAP1 SWAP2 AND DUP2 OR SWAP1 SWAP2 SSTORE PUSH1 0x40 DUP1 MLOAD SWAP2 DUP3 MSTORE MLOAD PUSH32 0x7E7EE4175D63F671FAC3401D5F401ED18D1F48A586E756F404D5696FC77A7058 SWAP2 DUP2 SWAP1 SUB PUSH1 0x20 ADD SWAP1 LOG1 POP JUMP JUMPDEST PUSH1 0xA0 SLOAD DUP2 JUMP JUMPDEST PUSH1 0xB3 SLOAD PUSH1 0xFF AND ISZERO PUSH2 0x337D JUMPI PUSH1 0x40 DUP1 MLOAD PUSH3 0x461BCD PUSH1 0xE5 SHL DUP2 MSTORE PUSH1 0x20 PUSH1 0x4 DUP3 ADD MSTORE PUSH1 0x11 PUSH1 0x24 DUP3 ADD MSTORE PUSH17 0x135A5B9D1A5B99C81A5CC81C185D5CD959 PUSH1 0x7A SHL PUSH1 0x44 DUP3 ADD MSTORE SWAP1 MLOAD SWAP1 DUP2 SWAP1 SUB PUSH1 0x64 ADD SWAP1 REVERT JUMPDEST PUSH1 0xB2 SLOAD PUSH1 0x9D PUSH1 0x0 SWAP1 SLOAD SWAP1 PUSH2 0x100 EXP SWAP1 DIV PUSH1 0x1 PUSH1 0x1 PUSH1 0xA0 SHL SUB AND PUSH1 0x1 PUSH1 0x1 PUSH1 0xA0 SHL SUB AND PUSH4 0xC0BE0361 PUSH1 0x40 MLOAD DUP2 PUSH4 0xFFFFFFFF AND PUSH1 0xE0 SHL DUP2 MSTORE PUSH1 0x4 ADD PUSH1 0x20 PUSH1 0x40 MLOAD DUP1 DUP4 SUB DUP2 DUP7 DUP1 EXTCODESIZE ISZERO DUP1 ISZERO PUSH2 0x33CE JUMPI PUSH1 0x0 DUP1 REVERT JUMPDEST POP GAS STATICCALL ISZERO DUP1 ISZERO PUSH2 0x33E2 JUMPI RETURNDATASIZE PUSH1 0x0 DUP1 RETURNDATACOPY RETURNDATASIZE PUSH1 0x0 REVERT JUMPDEST POP POP POP POP PUSH1 0x40 MLOAD RETURNDATASIZE PUSH1 0x20 DUP2 LT ISZERO PUSH2 0x33F8 JUMPI PUSH1 0x0 DUP1 REVERT JUMPDEST POP MLOAD LT ISZERO DUP1 PUSH2 0x3411 JUMPI POP PUSH1 0xB3 SLOAD PUSH1 0x1 PUSH1 0x28 SHL SWAP1 DIV PUSH1 0xFF AND ISZERO JUMPDEST PUSH2 0x3458 JUMPI PUSH1 0x40 DUP1 MLOAD PUSH3 0x461BCD PUSH1 0xE5 SHL DUP2 MSTORE PUSH1 0x20 PUSH1 0x4 DUP3 ADD MSTORE PUSH1 0x13 PUSH1 0x24 DUP3 ADD MSTORE PUSH19 0x53796E746820707269636520746F6F206C6F77 PUSH1 0x68 SHL PUSH1 0x44 DUP3 ADD MSTORE SWAP1 MLOAD SWAP1 DUP2 SWAP1 SUB PUSH1 0x64 ADD SWAP1 REVERT JUMPDEST PUSH1 0x9D SLOAD PUSH1 0x40 DUP1 MLOAD PUSH4 0xF9283A87 PUSH1 0xE0 SHL DUP2 MSTORE SWAP1 MLOAD PUSH1 0x0 SWAP3 PUSH1 0x1 PUSH1 0x1 PUSH1 0xA0 SHL SUB AND SWAP2 PUSH4 0xF9283A87 SWAP2 PUSH1 0x4 DUP1 DUP4 ADD SWAP3 PUSH1 0x20 SWAP3 SWAP2 SWAP1 DUP3 SWAP1 SUB ADD DUP2 DUP7 DUP1 EXTCODESIZE ISZERO DUP1 ISZERO PUSH2 0x349D JUMPI PUSH1 0x0 DUP1 REVERT JUMPDEST POP GAS STATICCALL ISZERO DUP1 ISZERO PUSH2 0x34B1 JUMPI RETURNDATASIZE PUSH1 0x0 DUP1 RETURNDATACOPY RETURNDATASIZE PUSH1 0x0 REVERT JUMPDEST POP POP POP POP PUSH1 0x40 MLOAD RETURNDATASIZE PUSH1 0x20 DUP2 LT ISZERO PUSH2 0x34C7 JUMPI PUSH1 0x0 DUP1 REVERT JUMPDEST POP MLOAD PUSH1 0x9D SLOAD PUSH1 0x40 DUP1 MLOAD PUSH4 0x2EB9771B PUSH1 0xE0 SHL DUP2 MSTORE SWAP1 MLOAD SWAP3 SWAP4 POP PUSH1 0x1 PUSH1 0x1 PUSH1 0xA0 SHL SUB SWAP1 SWAP2 AND SWAP2 PUSH4 0x2EB9771B SWAP2 PUSH1 0x4 DUP1 DUP3 ADD SWAP3 PUSH1 0x20 SWAP3 SWAP1 SWAP2 SWAP1 DUP3 SWAP1 SUB ADD DUP2 DUP7 DUP1 EXTCODESIZE ISZERO DUP1 ISZERO PUSH2 0x3511 JUMPI PUSH1 0x0 DUP1 REVERT JUMPDEST POP GAS STATICCALL ISZERO DUP1 ISZERO PUSH2 0x3525 JUMPI RETURNDATASIZE PUSH1 0x0 DUP1 RETURNDATACOPY RETURNDATASIZE PUSH1 0x0 REVERT JUMPDEST POP POP POP POP PUSH1 0x40 MLOAD RETURNDATASIZE PUSH1 0x20 DUP2 LT ISZERO PUSH2 0x353B JUMPI PUSH1 0x0 DUP1 REVERT JUMPDEST POP MLOAD ISZERO PUSH2 0x358F JUMPI PUSH1 0x40 DUP1 MLOAD PUSH3 0x461BCD PUSH1 0xE5 SHL DUP2 MSTORE PUSH1 0x20 PUSH1 0x4 DUP3 ADD MSTORE PUSH1 0x1A PUSH1 0x24 DUP3 ADD MSTORE PUSH32 0x436F6C6C61746572616C20726174696F206D7573742062652030000000000000 PUSH1 0x44 DUP3 ADD MSTORE SWAP1 MLOAD SWAP1 DUP2 SWAP1 SUB PUSH1 0x64 ADD SWAP1 REVERT JUMPDEST PUSH1 0x0 PUSH20 0x0 PUSH4 0xBA3E7281 DUP4 DUP7 PUSH1 0x40 MLOAD DUP4 PUSH4 0xFFFFFFFF AND PUSH1 0xE0 SHL DUP2 MSTORE PUSH1 0x4 ADD DUP1 DUP4 DUP2 MSTORE PUSH1 0x20 ADD DUP3 DUP2 MSTORE PUSH1 0x20 ADD SWAP3 POP POP POP PUSH1 0x20 PUSH1 0x40 MLOAD DUP1 DUP4 SUB DUP2 DUP7 DUP1 EXTCODESIZE ISZERO DUP1 ISZERO PUSH2 0x35E8 JUMPI PUSH1 0x0 DUP1 REVERT JUMPDEST POP GAS DELEGATECALL ISZERO DUP1 ISZERO PUSH2 0x35FC JUMPI RETURNDATASIZE PUSH1 0x0 DUP1 RETURNDATACOPY RETURNDATASIZE PUSH1 0x0 REVERT JUMPDEST POP POP POP POP PUSH1 0x40 MLOAD RETURNDATASIZE PUSH1 0x20 DUP2 LT ISZERO PUSH2 0x3612 JUMPI PUSH1 0x0 DUP1 REVERT JUMPDEST POP MLOAD PUSH1 0xA0 SLOAD SWAP1 SWAP2 POP PUSH1 0x0 SWAP1 PUSH2 0x3631 SWAP1 PUSH3 0xF4240 SWAP1 PUSH2 0xE67 SWAP1 DUP6 SWAP1 PUSH2 0x49AC JUMP JUMPDEST SWAP1 POP PUSH2 0x3655 PUSH3 0xF4240 PUSH2 0xE67 PUSH2 0xE91 PUSH1 0xA0 SLOAD PUSH3 0xF4240 PUSH2 0x477E SWAP1 SWAP2 SWAP1 PUSH4 0xFFFFFFFF AND JUMP JUMPDEST SWAP2 POP DUP2 DUP5 GT ISZERO PUSH2 0x369A JUMPI PUSH1 0x40 DUP1 MLOAD PUSH3 0x461BCD PUSH1 0xE5 SHL DUP2 MSTORE PUSH1 0x20 PUSH1 0x4 DUP3 ADD MSTORE PUSH1 0x16 PUSH1 0x24 DUP3 ADD MSTORE PUSH1 0x0 DUP1 MLOAD PUSH1 0x20 PUSH2 0x571B DUP4 CODECOPY DUP2 MLOAD SWAP2 MSTORE PUSH1 0x44 DUP3 ADD MSTORE SWAP1 MLOAD SWAP1 DUP2 SWAP1 SUB PUSH1 0x64 ADD SWAP1 REVERT JUMPDEST PUSH1 0x9C SLOAD PUSH1 0x40 DUP1 MLOAD PUSH4 0x5453BC57 PUSH1 0xE1 SHL DUP2 MSTORE CALLER PUSH1 0x4 DUP3 ADD MSTORE PUSH1 0x24 DUP2 ADD DUP9 SWAP1 MSTORE SWAP1 MLOAD PUSH1 0x1 PUSH1 0x1 PUSH1 0xA0 SHL SUB SWAP1 SWAP3 AND SWAP2 PUSH4 0xA8A778AE SWAP2 PUSH1 0x44 DUP1 DUP3 ADD SWAP3 PUSH1 0x0 SWAP3 SWAP1 SWAP2 SWAP1 DUP3 SWAP1 SUB ADD DUP2 DUP4 DUP8 DUP1 EXTCODESIZE ISZERO DUP1 ISZERO PUSH2 0x36ED JUMPI PUSH1 0x0 DUP1 REVERT JUMPDEST POP GAS CALL ISZERO DUP1 ISZERO PUSH2 0x3701 JUMPI RETURNDATASIZE PUSH1 0x0 DUP1 RETURNDATACOPY RETURNDATASIZE PUSH1 0x0 REVERT JUMPDEST POP POP CALLER PUSH1 0x0 SWAP1 DUP2 MSTORE PUSH1 0xA6 PUSH1 0x20 MSTORE PUSH1 0x40 SWAP1 KECCAK256 SLOAD PUSH2 0x2CC0 SWAP3 POP SWAP1 POP DUP4 PUSH2 0x4724 JUMP JUMPDEST PUSH1 0xAE SLOAD DUP2 JUMP JUMPDEST PUSH1 0x0 DUP2 DUP2 MSTORE PUSH1 0x33 PUSH1 0x20 MSTORE PUSH1 0x40 DUP2 KECCAK256 PUSH2 0x26C9 SWAP1 PUSH2 0x4DC8 JUMP JUMPDEST PUSH1 0xA1 SLOAD DUP2 JUMP JUMPDEST PUSH1 0xB3 SLOAD PUSH3 0x10000 SWAP1 DIV PUSH1 0xFF AND ISZERO PUSH2 0x37A1 JUMPI PUSH1 0x40 DUP1 MLOAD PUSH3 0x461BCD PUSH1 0xE5 SHL DUP2 MSTORE PUSH1 0x20 PUSH1 0x4 DUP3 ADD MSTORE PUSH1 0x19 PUSH1 0x24 DUP3 ADD MSTORE PUSH32 0x5265636F6C6C61746572616C697A652069732070617573656400000000000000 PUSH1 0x44 DUP3 ADD MSTORE SWAP1 MLOAD SWAP1 DUP2 SWAP1 SUB PUSH1 0x64 ADD SWAP1 REVERT JUMPDEST PUSH1 0xAC SLOAD PUSH1 0x9D SLOAD PUSH1 0x40 DUP1 MLOAD PUSH4 0xF9283A87 PUSH1 0xE0 SHL DUP2 MSTORE SWAP1 MLOAD PUSH1 0xA SWAP4 SWAP1 SWAP4 EXP DUP6 MUL SWAP3 PUSH1 0x0 SWAP3 PUSH1 0x1 PUSH1 0x1 PUSH1 0xA0 SHL SUB AND SWAP2 PUSH4 0xF9283A87 SWAP2 PUSH1 0x4 DUP1 DUP4 ADD SWAP3 PUSH1 0x20 SWAP3 SWAP2 SWAP1 DUP3 SWAP1 SUB ADD DUP2 DUP7 DUP1 EXTCODESIZE ISZERO DUP1 ISZERO PUSH2 0x37F2 JUMPI PUSH1 0x0 DUP1 REVERT JUMPDEST POP GAS STATICCALL ISZERO DUP1 ISZERO PUSH2 0x3806 JUMPI RETURNDATASIZE PUSH1 0x0 DUP1 RETURNDATACOPY RETURNDATASIZE PUSH1 0x0 REVERT JUMPDEST POP POP POP POP PUSH1 0x40 MLOAD RETURNDATASIZE PUSH1 0x20 DUP2 LT ISZERO PUSH2 0x381C JUMPI PUSH1 0x0 DUP1 REVERT JUMPDEST POP MLOAD PUSH1 0x9D SLOAD PUSH1 0x40 DUP1 MLOAD PUSH4 0x18160DDD PUSH1 0xE0 SHL DUP2 MSTORE SWAP1 MLOAD SWAP3 SWAP4 POP PUSH1 0x0 SWAP3 PUSH1 0x1 PUSH1 0x1 PUSH1 0xA0 SHL SUB SWAP1 SWAP3 AND SWAP2 PUSH4 0x18160DDD SWAP2 PUSH1 0x4 DUP1 DUP3 ADD SWAP3 PUSH1 0x20 SWAP3 SWAP1 SWAP2 SWAP1 DUP3 SWAP1 SUB ADD DUP2 DUP7 DUP1 EXTCODESIZE ISZERO DUP1 ISZERO PUSH2 0x3869 JUMPI PUSH1 0x0 DUP1 REVERT JUMPDEST POP GAS STATICCALL ISZERO DUP1 ISZERO PUSH2 0x387D JUMPI RETURNDATASIZE PUSH1 0x0 DUP1 RETURNDATACOPY RETURNDATASIZE PUSH1 0x0 REVERT JUMPDEST POP POP POP POP PUSH1 0x40 MLOAD RETURNDATASIZE PUSH1 0x20 DUP2 LT ISZERO PUSH2 0x3893 JUMPI PUSH1 0x0 DUP1 REVERT JUMPDEST POP MLOAD PUSH1 0x9D SLOAD PUSH1 0x40 DUP1 MLOAD PUSH4 0x2EB9771B PUSH1 0xE0 SHL DUP2 MSTORE SWAP1 MLOAD SWAP3 SWAP4 POP PUSH1 0x0 SWAP3 PUSH1 0x1 PUSH1 0x1 PUSH1 0xA0 SHL SUB SWAP1 SWAP3 AND SWAP2 PUSH4 0x2EB9771B SWAP2 PUSH1 0x4 DUP1 DUP3 ADD SWAP3 PUSH1 0x20 SWAP3 SWAP1 SWAP2 SWAP1 DUP3 SWAP1 SUB ADD DUP2 DUP7 DUP1 EXTCODESIZE ISZERO DUP1 ISZERO PUSH2 0x38E0 JUMPI PUSH1 0x0 DUP1 REVERT JUMPDEST POP GAS STATICCALL ISZERO DUP1 ISZERO PUSH2 0x38F4 JUMPI RETURNDATASIZE PUSH1 0x0 DUP1 RETURNDATACOPY RETURNDATASIZE PUSH1 0x0 REVERT JUMPDEST POP POP POP POP PUSH1 0x40 MLOAD RETURNDATASIZE PUSH1 0x20 DUP2 LT ISZERO PUSH2 0x390A JUMPI PUSH1 0x0 DUP1 REVERT JUMPDEST POP MLOAD PUSH1 0x9D SLOAD PUSH1 0x40 DUP1 MLOAD PUSH4 0x696CBD83 PUSH1 0xE1 SHL DUP2 MSTORE SWAP1 MLOAD SWAP3 SWAP4 POP PUSH1 0x0 SWAP3 PUSH1 0x1 PUSH1 0x1 PUSH1 0xA0 SHL SUB SWAP1 SWAP3 AND SWAP2 PUSH4 0xD2D97B06 SWAP2 PUSH1 0x4 DUP1 DUP3 ADD SWAP3 PUSH1 0x20 SWAP3 SWAP1 SWAP2 SWAP1 DUP3 SWAP1 SUB ADD DUP2 DUP7 DUP1 EXTCODESIZE ISZERO DUP1 ISZERO PUSH2 0x3957 JUMPI PUSH1 0x0 DUP1 REVERT JUMPDEST POP GAS STATICCALL ISZERO DUP1 ISZERO PUSH2 0x396B JUMPI RETURNDATASIZE PUSH1 0x0 DUP1 RETURNDATACOPY RETURNDATASIZE PUSH1 0x0 REVERT JUMPDEST POP POP POP POP PUSH1 0x40 MLOAD RETURNDATASIZE PUSH1 0x20 DUP2 LT ISZERO PUSH2 0x3981 JUMPI PUSH1 0x0 DUP1 REVERT JUMPDEST POP MLOAD SWAP1 POP PUSH1 0x0 DUP1 PUSH20 0x0 PUSH4 0x5C6AEDC8 DUP9 PUSH2 0x39AB PUSH2 0x4658 JUMP JUMPDEST DUP7 DUP10 DUP10 PUSH1 0x40 MLOAD DUP7 PUSH4 0xFFFFFFFF AND PUSH1 0xE0 SHL DUP2 MSTORE PUSH1 0x4 ADD DUP1 DUP7 DUP2 MSTORE PUSH1 0x20 ADD DUP6 DUP2 MSTORE PUSH1 0x20 ADD DUP5 DUP2 MSTORE PUSH1 0x20 ADD DUP4 DUP2 MSTORE PUSH1 0x20 ADD DUP3 DUP2 MSTORE PUSH1 0x20 ADD SWAP6 POP POP POP POP POP POP PUSH1 0x40 DUP1 MLOAD DUP1 DUP4 SUB DUP2 DUP7 DUP1 EXTCODESIZE ISZERO DUP1 ISZERO PUSH2 0x39FD JUMPI PUSH1 0x0 DUP1 REVERT JUMPDEST POP GAS DELEGATECALL ISZERO DUP1 ISZERO PUSH2 0x3A11 JUMPI RETURNDATASIZE PUSH1 0x0 DUP1 RETURNDATACOPY RETURNDATASIZE PUSH1 0x0 REVERT JUMPDEST POP POP POP POP PUSH1 0x40 MLOAD RETURNDATASIZE PUSH1 0x40 DUP2 LT ISZERO PUSH2 0x3A27 JUMPI PUSH1 0x0 DUP1 REVERT JUMPDEST POP DUP1 MLOAD PUSH1 0x20 SWAP1 SWAP2 ADD MLOAD PUSH1 0xAC SLOAD SWAP2 SWAP4 POP SWAP2 POP PUSH1 0x0 SWAP1 PUSH2 0x3A49 SWAP1 DUP5 SWAP1 PUSH1 0xA EXP PUSH2 0x4945 JUMP JUMPDEST SWAP1 POP PUSH1 0x0 PUSH2 0x3A66 DUP9 PUSH2 0xE67 PUSH1 0xA3 SLOAD DUP7 PUSH2 0x49AC SWAP1 SWAP2 SWAP1 PUSH4 0xFFFFFFFF AND JUMP JUMPDEST SWAP1 POP PUSH1 0x0 PUSH2 0x3A8F DUP10 PUSH2 0xE67 PUSH2 0x257E PUSH1 0xA3 SLOAD PUSH2 0x2894 PUSH1 0xAF SLOAD PUSH3 0xF4240 PUSH2 0x4724 SWAP1 SWAP2 SWAP1 PUSH4 0xFFFFFFFF AND JUMP JUMPDEST SWAP1 POP DUP1 DUP12 GT ISZERO PUSH2 0x3AD4 JUMPI PUSH1 0x40 DUP1 MLOAD PUSH3 0x461BCD PUSH1 0xE5 SHL DUP2 MSTORE PUSH1 0x20 PUSH1 0x4 DUP3 ADD MSTORE PUSH1 0x16 PUSH1 0x24 DUP3 ADD MSTORE PUSH1 0x0 DUP1 MLOAD PUSH1 0x20 PUSH2 0x571B DUP4 CODECOPY DUP2 MLOAD SWAP2 MSTORE PUSH1 0x44 DUP3 ADD MSTORE SWAP1 MLOAD SWAP1 DUP2 SWAP1 SUB PUSH1 0x64 ADD SWAP1 REVERT JUMPDEST PUSH1 0x97 SLOAD PUSH2 0x3AEC SWAP1 PUSH1 0x1 PUSH1 0x1 PUSH1 0xA0 SHL SUB AND CALLER ADDRESS DUP7 PUSH2 0x4B8A JUMP JUMPDEST PUSH1 0x9C SLOAD PUSH1 0x40 DUP1 MLOAD PUSH4 0x5A7AB593 PUSH1 0xE1 SHL DUP2 MSTORE CALLER PUSH1 0x4 DUP3 ADD MSTORE PUSH1 0x24 DUP2 ADD DUP5 SWAP1 MSTORE SWAP1 MLOAD PUSH1 0x1 PUSH1 0x1 PUSH1 0xA0 SHL SUB SWAP1 SWAP3 AND SWAP2 PUSH4 0xB4F56B26 SWAP2 PUSH1 0x44 DUP1 DUP3 ADD SWAP3 PUSH1 0x0 SWAP3 SWAP1 SWAP2 SWAP1 DUP3 SWAP1 SUB ADD DUP2 DUP4 DUP8 DUP1 EXTCODESIZE ISZERO DUP1 ISZERO PUSH2 0x3B3F JUMPI PUSH1 0x0 DUP1 REVERT JUMPDEST POP GAS CALL ISZERO DUP1 ISZERO PUSH2 0x3B53 JUMPI RETURNDATASIZE PUSH1 0x0 DUP1 RETURNDATACOPY RETURNDATASIZE PUSH1 0x0 REVERT JUMPDEST POP POP PUSH1 0x9C SLOAD PUSH1 0xB3 SLOAD PUSH1 0x40 DUP1 MLOAD PUSH4 0x5A7AB593 PUSH1 0xE1 SHL DUP2 MSTORE PUSH1 0x1 PUSH1 0x30 SHL SWAP1 SWAP3 DIV PUSH1 0x1 PUSH1 0x1 PUSH1 0xA0 SHL SUB SWAP1 DUP2 AND PUSH1 0x4 DUP5 ADD MSTORE PUSH1 0x24 DUP4 ADD DUP9 SWAP1 MSTORE SWAP1 MLOAD SWAP3 AND SWAP4 POP PUSH4 0xB4F56B26 SWAP3 POP PUSH1 0x44 DUP1 DUP3 ADD SWAP3 PUSH1 0x0 SWAP3 SWAP1 SWAP2 SWAP1 DUP3 SWAP1 SUB ADD DUP2 DUP4 DUP8 DUP1 EXTCODESIZE ISZERO DUP1 ISZERO PUSH2 0x3BB6 JUMPI PUSH1 0x0 DUP1 REVERT JUMPDEST POP GAS CALL ISZERO DUP1 ISZERO PUSH2 0x3BCA JUMPI RETURNDATASIZE PUSH1 0x0 DUP1 RETURNDATACOPY RETURNDATASIZE PUSH1 0x0 REVERT JUMPDEST POP POP POP POP POP POP POP POP POP POP POP POP POP POP POP POP JUMP JUMPDEST PUSH1 0x0 DUP3 DUP2 MSTORE PUSH1 0x33 PUSH1 0x20 MSTORE PUSH1 0x40 SWAP1 KECCAK256 PUSH1 0x2 ADD SLOAD PUSH2 0x3BFA SWAP1 PUSH2 0x10EB PUSH2 0x4A05 JUMP JUMPDEST PUSH2 0x1190 JUMPI PUSH1 0x40 MLOAD PUSH3 0x461BCD PUSH1 0xE5 SHL DUP2 MSTORE PUSH1 0x4 ADD DUP1 DUP1 PUSH1 0x20 ADD DUP3 DUP2 SUB DUP3 MSTORE PUSH1 0x30 DUP2 MSTORE PUSH1 0x20 ADD DUP1 PUSH2 0x569C PUSH1 0x30 SWAP2 CODECOPY PUSH1 0x40 ADD SWAP2 POP POP PUSH1 0x40 MLOAD DUP1 SWAP2 SUB SWAP1 REVERT JUMPDEST PUSH1 0xB3 SLOAD PUSH1 0x1 PUSH1 0x30 SHL SWAP1 DIV PUSH1 0x1 PUSH1 0x1 PUSH1 0xA0 SHL SUB AND DUP2 JUMP JUMPDEST PUSH2 0x3C75 PUSH32 0xA84A5389AD41F9AAB0831B01E5384CAE76E7A7FD09131C206FF7927C201C3857 CALLER PUSH2 0x26CF JUMP JUMPDEST PUSH2 0x3C7E JUMPI PUSH1 0x0 DUP1 REVERT JUMPDEST PUSH1 0xB3 DUP1 SLOAD PUSH1 0xFF PUSH2 0x100 DUP1 DUP4 DIV DUP3 AND ISZERO DUP2 MUL PUSH2 0xFF00 NOT SWAP1 SWAP4 AND SWAP3 SWAP1 SWAP3 OR SWAP3 DUP4 SWAP1 SSTORE PUSH1 0x40 DUP1 MLOAD SWAP3 SWAP1 SWAP4 DIV AND ISZERO ISZERO DUP2 MSTORE SWAP1 MLOAD PUSH32 0x5860C5063A65E23CEA4E2E2925F1A841BB6D1BC9615BD425F8DD084980B05141 SWAP2 DUP2 SWAP1 SUB PUSH1 0x20 ADD SWAP1 LOG1 JUMP JUMPDEST PUSH1 0xA9 SLOAD DUP2 JUMP JUMPDEST PUSH1 0x0 PUSH2 0x3D49 PUSH3 0xF4240 PUSH2 0xE67 PUSH2 0x3CF3 PUSH2 0x4658 JUMP JUMPDEST PUSH1 0xA7 SLOAD PUSH1 0x97 SLOAD PUSH1 0x40 DUP1 MLOAD PUSH4 0x70A08231 PUSH1 0xE0 SHL DUP2 MSTORE ADDRESS PUSH1 0x4 DUP3 ADD MSTORE SWAP1 MLOAD PUSH2 0x3D43 SWAP4 SWAP3 PUSH1 0x1 PUSH1 0x1 PUSH1 0xA0 SHL SUB AND SWAP2 PUSH4 0x70A08231 SWAP2 PUSH1 0x24 DUP1 DUP4 ADD SWAP3 PUSH1 0x20 SWAP3 SWAP2 SWAP1 DUP3 SWAP1 SUB ADD DUP2 DUP7 DUP1 EXTCODESIZE ISZERO DUP1 ISZERO PUSH2 0xEED JUMPI PUSH1 0x0 DUP1 REVERT JUMPDEST SWAP1 PUSH2 0x49AC JUMP JUMPDEST SWAP1 POP SWAP1 JUMP JUMPDEST PUSH1 0xB2 SLOAD DUP2 JUMP JUMPDEST PUSH1 0xA6 PUSH1 0x20 MSTORE PUSH1 0x0 SWAP1 DUP2 MSTORE PUSH1 0x40 SWAP1 KECCAK256 SLOAD DUP2 JUMP JUMPDEST PUSH2 0x3D6E PUSH2 0x4A05 JUMP JUMPDEST PUSH1 0x1 PUSH1 0x1 PUSH1 0xA0 SHL SUB AND PUSH2 0x3D7F PUSH2 0x269E JUMP JUMPDEST PUSH1 0x1 PUSH1 0x1 PUSH1 0xA0 SHL SUB AND EQ PUSH2 0x3DDA JUMPI PUSH1 0x40 DUP1 MLOAD PUSH3 0x461BCD PUSH1 0xE5 SHL DUP2 MSTORE PUSH1 0x20 PUSH1 0x4 DUP3 ADD DUP2 SWAP1 MSTORE PUSH1 0x24 DUP3 ADD MSTORE PUSH32 0x4F776E61626C653A2063616C6C6572206973206E6F7420746865206F776E6572 PUSH1 0x44 DUP3 ADD MSTORE SWAP1 MLOAD SWAP1 DUP2 SWAP1 SUB PUSH1 0x64 ADD SWAP1 REVERT JUMPDEST PUSH1 0x1 PUSH1 0x1 PUSH1 0xA0 SHL SUB DUP2 AND PUSH2 0x3E1F JUMPI PUSH1 0x40 MLOAD PUSH3 0x461BCD PUSH1 0xE5 SHL DUP2 MSTORE PUSH1 0x4 ADD DUP1 DUP1 PUSH1 0x20 ADD DUP3 DUP2 SUB DUP3 MSTORE PUSH1 0x26 DUP2 MSTORE PUSH1 0x20 ADD DUP1 PUSH2 0x5572 PUSH1 0x26 SWAP2 CODECOPY PUSH1 0x40 ADD SWAP2 POP POP PUSH1 0x40 MLOAD DUP1 SWAP2 SUB SWAP1 REVERT JUMPDEST PUSH1 0x65 SLOAD PUSH1 0x40 MLOAD PUSH1 0x1 PUSH1 0x1 PUSH1 0xA0 SHL SUB DUP1 DUP5 AND SWAP3 AND SWAP1 PUSH32 0x8BE0079C531659141344CD1FD0A4F28419497F9722A3DAAFE3B4186F6B6457E0 SWAP1 PUSH1 0x0 SWAP1 LOG3 PUSH1 0x65 DUP1 SLOAD PUSH1 0x1 PUSH1 0x1 PUSH1 0xA0 SHL SUB NOT AND PUSH1 0x1 PUSH1 0x1 PUSH1 0xA0 SHL SUB SWAP3 SWAP1 SWAP3 AND SWAP2 SWAP1 SWAP2 OR SWAP1 SSTORE JUMP JUMPDEST PUSH1 0x9B SLOAD PUSH1 0x1 PUSH1 0x1 PUSH1 0xA0 SHL SUB AND CALLER EQ DUP1 PUSH2 0x3EAC JUMPI POP PUSH2 0x3E97 PUSH2 0x269E JUMP JUMPDEST PUSH1 0x1 PUSH1 0x1 PUSH1 0xA0 SHL SUB AND CALLER PUSH1 0x1 PUSH1 0x1 PUSH1 0xA0 SHL SUB AND EQ JUMPDEST PUSH2 0x3EF5 JUMPI PUSH1 0x40 DUP1 MLOAD PUSH3 0x461BCD PUSH1 0xE5 SHL DUP2 MSTORE PUSH1 0x20 PUSH1 0x4 DUP3 ADD MSTORE PUSH1 0x15 PUSH1 0x24 DUP3 ADD MSTORE PUSH21 0x4E6F74206F776E6572206F722074696D656C6F636B PUSH1 0x58 SHL PUSH1 0x44 DUP3 ADD MSTORE SWAP1 MLOAD SWAP1 DUP2 SWAP1 SUB PUSH1 0x64 ADD SWAP1 REVERT JUMPDEST PUSH1 0xB3 DUP1 SLOAD PUSH1 0xFF PUSH1 0x1 PUSH1 0x28 SHL DUP1 DUP4 DIV DUP3 AND ISZERO DUP2 MUL PUSH6 0xFF0000000000 NOT SWAP1 SWAP4 AND SWAP3 SWAP1 SWAP3 OR SWAP3 DUP4 SWAP1 SSTORE PUSH1 0x40 DUP1 MLOAD SWAP3 SWAP1 SWAP4 DIV AND ISZERO ISZERO DUP2 MSTORE SWAP1 MLOAD PUSH32 0x26B40C82E928ED696A436DE6D145252B09951AA14696C8F82F75CC25166121A5 SWAP2 DUP2 SWAP1 SUB PUSH1 0x20 ADD SWAP1 LOG1 JUMP JUMPDEST PUSH1 0x9B SLOAD PUSH1 0x1 PUSH1 0x1 PUSH1 0xA0 SHL SUB AND CALLER EQ DUP1 PUSH2 0x3F87 JUMPI POP PUSH2 0x3F72 PUSH2 0x269E JUMP JUMPDEST PUSH1 0x1 PUSH1 0x1 PUSH1 0xA0 SHL SUB AND CALLER PUSH1 0x1 PUSH1 0x1 PUSH1 0xA0 SHL SUB AND EQ JUMPDEST PUSH2 0x3FD0 JUMPI PUSH1 0x40 DUP1 MLOAD PUSH3 0x461BCD PUSH1 0xE5 SHL DUP2 MSTORE PUSH1 0x20 PUSH1 0x4 DUP3 ADD MSTORE PUSH1 0x15 PUSH1 0x24 DUP3 ADD MSTORE PUSH21 0x4E6F74206F776E6572206F722074696D656C6F636B PUSH1 0x58 SHL PUSH1 0x44 DUP3 ADD MSTORE SWAP1 MLOAD SWAP1 DUP2 SWAP1 SUB PUSH1 0x64 ADD SWAP1 REVERT JUMPDEST PUSH1 0x1 PUSH1 0x1 PUSH1 0xA0 SHL SUB DUP2 AND PUSH2 0x4023 JUMPI PUSH1 0x40 DUP1 MLOAD PUSH3 0x461BCD PUSH1 0xE5 SHL DUP2 MSTORE PUSH1 0x20 PUSH1 0x4 DUP3 ADD MSTORE PUSH1 0x15 PUSH1 0x24 DUP3 ADD MSTORE PUSH21 0x16995C9BC81859191C995CDCC819195D1958DD1959 PUSH1 0x5A SHL PUSH1 0x44 DUP3 ADD MSTORE SWAP1 MLOAD SWAP1 DUP2 SWAP1 SUB PUSH1 0x64 ADD SWAP1 REVERT JUMPDEST PUSH1 0x9F DUP1 SLOAD PUSH1 0x1 PUSH1 0x1 PUSH1 0xA0 SHL SUB DUP1 DUP5 AND PUSH1 0x1 PUSH1 0x1 PUSH1 0xA0 SHL SUB NOT SWAP3 DUP4 AND OR SWAP3 DUP4 SWAP1 SSTORE PUSH1 0x9E DUP1 SLOAD SWAP1 SWAP3 AND SWAP3 DUP2 AND SWAP3 SWAP1 SWAP3 OR SWAP1 DUP2 SWAP1 SSTORE PUSH1 0x40 DUP1 MLOAD PUSH4 0x3C050761 PUSH1 0xE2 SHL DUP2 MSTORE SWAP1 MLOAD SWAP2 SWAP1 SWAP3 AND SWAP2 PUSH4 0xF0141D84 SWAP2 PUSH1 0x4 DUP1 DUP4 ADD SWAP3 PUSH1 0x20 SWAP3 SWAP2 SWAP1 DUP3 SWAP1 SUB ADD DUP2 DUP7 DUP1 EXTCODESIZE ISZERO DUP1 ISZERO PUSH2 0x408F JUMPI PUSH1 0x0 DUP1 REVERT JUMPDEST POP GAS STATICCALL ISZERO DUP1 ISZERO PUSH2 0x40A3 JUMPI RETURNDATASIZE PUSH1 0x0 DUP1 RETURNDATACOPY RETURNDATASIZE PUSH1 0x0 REVERT JUMPDEST POP POP POP POP PUSH1 0x40 MLOAD RETURNDATASIZE PUSH1 0x20 DUP2 LT ISZERO PUSH2 0x40B9 JUMPI PUSH1 0x0 DUP1 REVERT JUMPDEST POP MLOAD PUSH1 0x9F DUP1 SLOAD PUSH1 0xFF SWAP1 SWAP3 AND PUSH1 0x1 PUSH1 0xA0 SHL MUL PUSH1 0xFF PUSH1 0xA0 SHL NOT SWAP1 SWAP3 AND SWAP2 SWAP1 SWAP2 OR SWAP1 SSTORE PUSH1 0x40 DUP1 MLOAD PUSH1 0x1 PUSH1 0x1 PUSH1 0xA0 SHL SUB DUP4 AND DUP2 MSTORE SWAP1 MLOAD PUSH32 0x614BD83035569D78F3B8599DE69E2D258CDDC5ADEB6005524A1AE5D13C28BA89 SWAP2 DUP2 SWAP1 SUB PUSH1 0x20 ADD SWAP1 LOG1 POP JUMP JUMPDEST PUSH1 0x0 DUP1 PUSH1 0x9D PUSH1 0x0 SWAP1 SLOAD SWAP1 PUSH2 0x100 EXP SWAP1 DIV PUSH1 0x1 PUSH1 0x1 PUSH1 0xA0 SHL SUB AND PUSH1 0x1 PUSH1 0x1 PUSH1 0xA0 SHL SUB AND PUSH4 0x18160DDD PUSH1 0x40 MLOAD DUP2 PUSH4 0xFFFFFFFF AND PUSH1 0xE0 SHL DUP2 MSTORE PUSH1 0x4 ADD PUSH1 0x20 PUSH1 0x40 MLOAD DUP1 DUP4 SUB DUP2 DUP7 DUP1 EXTCODESIZE ISZERO DUP1 ISZERO PUSH2 0x4169 JUMPI PUSH1 0x0 DUP1 REVERT JUMPDEST POP GAS STATICCALL ISZERO DUP1 ISZERO PUSH2 0x417D JUMPI RETURNDATASIZE PUSH1 0x0 DUP1 RETURNDATACOPY RETURNDATASIZE PUSH1 0x0 REVERT JUMPDEST POP POP POP POP PUSH1 0x40 MLOAD RETURNDATASIZE PUSH1 0x20 DUP2 LT ISZERO PUSH2 0x4193 JUMPI PUSH1 0x0 DUP1 REVERT JUMPDEST POP MLOAD PUSH1 0x9D SLOAD PUSH1 0x40 DUP1 MLOAD PUSH4 0x2EB9771B PUSH1 0xE0 SHL DUP2 MSTORE SWAP1 MLOAD SWAP3 SWAP4 POP PUSH1 0x0 SWAP3 PUSH1 0x1 PUSH1 0x1 PUSH1 0xA0 SHL SUB SWAP1 SWAP3 AND SWAP2 PUSH4 0x2EB9771B SWAP2 PUSH1 0x4 DUP1 DUP3 ADD SWAP3 PUSH1 0x20 SWAP3 SWAP1 SWAP2 SWAP1 DUP3 SWAP1 SUB ADD DUP2 DUP7 DUP1 EXTCODESIZE ISZERO DUP1 ISZERO PUSH2 0x41E0 JUMPI PUSH1 0x0 DUP1 REVERT JUMPDEST POP GAS STATICCALL ISZERO DUP1 ISZERO PUSH2 0x41F4 JUMPI RETURNDATASIZE PUSH1 0x0 DUP1 RETURNDATACOPY RETURNDATASIZE PUSH1 0x0 REVERT JUMPDEST POP POP POP POP PUSH1 0x40 MLOAD RETURNDATASIZE PUSH1 0x20 DUP2 LT ISZERO PUSH2 0x420A JUMPI PUSH1 0x0 DUP1 REVERT JUMPDEST POP MLOAD PUSH1 0x9D SLOAD PUSH1 0x40 DUP1 MLOAD PUSH4 0x696CBD83 PUSH1 0xE1 SHL DUP2 MSTORE SWAP1 MLOAD SWAP3 SWAP4 POP PUSH1 0x0 SWAP3 PUSH1 0x1 PUSH1 0x1 PUSH1 0xA0 SHL SUB SWAP1 SWAP3 AND SWAP2 PUSH4 0xD2D97B06 SWAP2 PUSH1 0x4 DUP1 DUP3 ADD SWAP3 PUSH1 0x20 SWAP3 SWAP1 SWAP2 SWAP1 DUP3 SWAP1 SUB ADD DUP2 DUP7 DUP1 EXTCODESIZE ISZERO DUP1 ISZERO PUSH2 0x4257 JUMPI PUSH1 0x0 DUP1 REVERT JUMPDEST POP GAS STATICCALL ISZERO DUP1 ISZERO PUSH2 0x426B JUMPI RETURNDATASIZE PUSH1 0x0 DUP1 RETURNDATACOPY RETURNDATASIZE PUSH1 0x0 REVERT JUMPDEST POP POP POP POP PUSH1 0x40 MLOAD RETURNDATASIZE PUSH1 0x20 DUP2 LT ISZERO PUSH2 0x4281 JUMPI PUSH1 0x0 DUP1 REVERT JUMPDEST POP MLOAD SWAP1 POP PUSH3 0xF4240 DUP3 GT ISZERO PUSH2 0x4297 JUMPI PUSH3 0xF4240 SWAP2 POP JUMPDEST PUSH1 0x0 PUSH2 0x42AA PUSH3 0xF4240 PUSH2 0xE67 DUP7 DUP7 PUSH2 0x49AC JUMP JUMPDEST SWAP1 POP DUP1 DUP3 GT ISZERO PUSH2 0x42BE JUMPI PUSH2 0x289A DUP3 DUP3 PUSH2 0x477E JUMP JUMPDEST PUSH1 0x0 SWAP5 POP POP POP POP POP PUSH2 0x26AB JUMP JUMPDEST PUSH1 0x0 SLOAD PUSH2 0x100 SWAP1 DIV PUSH1 0xFF AND DUP1 PUSH2 0x42E4 JUMPI POP PUSH2 0x42E4 PUSH2 0x4DD3 JUMP JUMPDEST DUP1 PUSH2 0x42F2 JUMPI POP PUSH1 0x0 SLOAD PUSH1 0xFF AND ISZERO JUMPDEST PUSH2 0x432D JUMPI PUSH1 0x40 MLOAD PUSH3 0x461BCD PUSH1 0xE5 SHL DUP2 MSTORE PUSH1 0x4 ADD DUP1 DUP1 PUSH1 0x20 ADD DUP3 DUP2 SUB DUP3 MSTORE PUSH1 0x2E DUP2 MSTORE PUSH1 0x20 ADD DUP1 PUSH2 0x56CC PUSH1 0x2E SWAP2 CODECOPY PUSH1 0x40 ADD SWAP2 POP POP PUSH1 0x40 MLOAD DUP1 SWAP2 SUB SWAP1 REVERT JUMPDEST PUSH1 0x0 SLOAD PUSH2 0x100 SWAP1 DIV PUSH1 0xFF AND ISZERO DUP1 ISZERO PUSH2 0x4358 JUMPI PUSH1 0x0 DUP1 SLOAD PUSH1 0xFF NOT PUSH2 0xFF00 NOT SWAP1 SWAP2 AND PUSH2 0x100 OR AND PUSH1 0x1 OR SWAP1 SSTORE JUMPDEST PUSH1 0x1 PUSH1 0x1 PUSH1 0xA0 SHL SUB DUP7 AND ISZERO DUP1 ISZERO SWAP1 PUSH2 0x4378 JUMPI POP PUSH1 0x1 PUSH1 0x1 PUSH1 0xA0 SHL SUB DUP6 AND ISZERO ISZERO JUMPDEST DUP1 ISZERO PUSH2 0x438C JUMPI POP PUSH1 0x1 PUSH1 0x1 PUSH1 0xA0 SHL SUB DUP5 AND ISZERO ISZERO JUMPDEST DUP1 ISZERO PUSH2 0x43A0 JUMPI POP PUSH1 0x1 PUSH1 0x1 PUSH1 0xA0 SHL SUB DUP4 AND ISZERO ISZERO JUMPDEST PUSH2 0x43E9 JUMPI PUSH1 0x40 DUP1 MLOAD PUSH3 0x461BCD PUSH1 0xE5 SHL DUP2 MSTORE PUSH1 0x20 PUSH1 0x4 DUP3 ADD MSTORE PUSH1 0x15 PUSH1 0x24 DUP3 ADD MSTORE PUSH21 0x16995C9BC81859191C995CDCC819195D1958DD1959 PUSH1 0x5A SHL PUSH1 0x44 DUP3 ADD MSTORE SWAP1 MLOAD SWAP1 DUP2 SWAP1 SUB PUSH1 0x64 ADD SWAP1 REVERT JUMPDEST PUSH2 0x43F1 PUSH2 0x4DE4 JUMP JUMPDEST PUSH2 0x43F9 PUSH2 0x4E8E JUMP JUMPDEST PUSH2 0x4401 PUSH2 0x4F2B JUMP JUMPDEST PUSH1 0x9D DUP1 SLOAD PUSH1 0x1 PUSH1 0x1 PUSH1 0xA0 SHL SUB NOT SWAP1 DUP2 AND PUSH1 0x1 PUSH1 0x1 PUSH1 0xA0 SHL SUB DUP10 DUP2 AND SWAP2 DUP3 OR SWAP1 SWAP4 SSTORE PUSH1 0x9C DUP1 SLOAD DUP4 AND DUP10 DUP6 AND SWAP1 DUP2 OR SWAP1 SWAP2 SSTORE PUSH1 0x99 DUP1 SLOAD DUP5 AND SWAP1 SWAP3 OR SWAP1 SWAP2 SSTORE PUSH1 0x9A DUP1 SLOAD DUP4 AND SWAP1 SWAP2 OR SWAP1 SSTORE PUSH1 0x98 DUP1 SLOAD DUP3 AND DUP8 DUP5 AND SWAP1 DUP2 OR SWAP1 SWAP2 SSTORE PUSH1 0x9B DUP1 SLOAD DUP4 AND DUP8 DUP6 AND OR SWAP1 SSTORE PUSH1 0x97 DUP1 SLOAD SWAP1 SWAP3 AND OR SWAP1 DUP2 SWAP1 SSTORE PUSH1 0xAD DUP5 SWAP1 SSTORE PUSH1 0x40 DUP1 MLOAD PUSH4 0x313CE567 PUSH1 0xE0 SHL DUP2 MSTORE SWAP1 MLOAD PUSH2 0x44EA SWAP4 SWAP3 SWAP1 SWAP3 AND SWAP2 PUSH4 0x313CE567 SWAP2 PUSH1 0x4 DUP2 DUP2 ADD SWAP3 PUSH1 0x20 SWAP3 SWAP1 SWAP2 SWAP1 DUP3 SWAP1 SUB ADD DUP2 DUP7 DUP1 EXTCODESIZE ISZERO DUP1 ISZERO PUSH2 0x44B3 JUMPI PUSH1 0x0 DUP1 REVERT JUMPDEST POP GAS STATICCALL ISZERO DUP1 ISZERO PUSH2 0x44C7 JUMPI RETURNDATASIZE PUSH1 0x0 DUP1 RETURNDATACOPY RETURNDATASIZE PUSH1 0x0 REVERT JUMPDEST POP POP POP POP PUSH1 0x40 MLOAD RETURNDATASIZE PUSH1 0x20 DUP2 LT ISZERO PUSH2 0x44DD JUMPI PUSH1 0x0 DUP1 REVERT JUMPDEST POP MLOAD PUSH1 0x12 SWAP1 PUSH1 0xFF AND PUSH2 0x477E JUMP JUMPDEST PUSH1 0xAC SSTORE PUSH2 0x44FF PUSH1 0x0 PUSH2 0x44FA PUSH2 0x4A05 JUMP JUMPDEST PUSH2 0x112B JUMP JUMPDEST PUSH1 0x9B SLOAD PUSH2 0x4536 SWAP1 PUSH32 0xC65532185ED70B2E999433E2E9FAC124E083ACB13EC183A4E05944DA0792337B SWAP1 PUSH1 0x1 PUSH1 0x1 PUSH1 0xA0 SHL SUB AND PUSH2 0x10CD JUMP JUMPDEST PUSH1 0x9B SLOAD PUSH2 0x456D SWAP1 PUSH32 0xA84A5389AD41F9AAB0831B01E5384CAE76E7A7FD09131C206FF7927C201C3857 SWAP1 PUSH1 0x1 PUSH1 0x1 PUSH1 0xA0 SHL SUB AND PUSH2 0x10CD JUMP JUMPDEST PUSH1 0x9B SLOAD PUSH2 0x45A4 SWAP1 PUSH32 0x8118EEB5231A5FE4008A55B62860F6A0DB4F6C3AC04F8141927A9B3FEDD86D2F SWAP1 PUSH1 0x1 PUSH1 0x1 PUSH1 0xA0 SHL SUB AND PUSH2 0x10CD JUMP JUMPDEST PUSH1 0x9B SLOAD PUSH2 0x45DB SWAP1 PUSH32 0x103DA79FF3755FF7A17A557D28B73D37CB4DE0B3C3CC02FA6C48DF0F35071FBF SWAP1 PUSH1 0x1 PUSH1 0x1 PUSH1 0xA0 SHL SUB AND PUSH2 0x10CD JUMP JUMPDEST PUSH1 0x9B SLOAD PUSH2 0x4612 SWAP1 PUSH32 0xBB2C68B8DC5BCCDD2536307080A7865A7E133BF54E31D4D463B1B749B4BCF26D SWAP1 PUSH1 0x1 PUSH1 0x1 PUSH1 0xA0 SHL SUB AND PUSH2 0x10CD JUMP JUMPDEST PUSH1 0x0 PUSH1 0xAE SSTORE PUSH2 0x2710 PUSH1 0xAF SSTORE PUSH1 0x1 PUSH1 0xB0 SSTORE PUSH3 0xF1B30 PUSH1 0xB1 SSTORE PUSH3 0xF6950 PUSH1 0xB2 SSTORE PUSH1 0xB3 DUP1 SLOAD PUSH6 0xFFFFFFFFFFFF NOT AND SWAP1 SSTORE DUP1 ISZERO PUSH2 0xB66 JUMPI PUSH1 0x0 DUP1 SLOAD PUSH2 0xFF00 NOT AND SWAP1 SSTORE POP POP POP POP POP POP JUMP JUMPDEST PUSH1 0xB3 SLOAD PUSH1 0x0 SWAP1 PUSH5 0x100000000 SWAP1 DIV PUSH1 0xFF AND ISZERO ISZERO PUSH1 0x1 EQ ISZERO PUSH2 0x467C JUMPI POP PUSH1 0xAE SLOAD PUSH2 0x26AB JUMP JUMPDEST PUSH1 0x9F SLOAD PUSH1 0x9E SLOAD PUSH1 0x40 DUP1 MLOAD PUSH4 0x8E15F473 PUSH1 0xE0 SHL DUP2 MSTORE SWAP1 MLOAD PUSH2 0x4711 SWAP4 PUSH1 0x1 PUSH1 0xA0 SHL SWAP1 DIV PUSH1 0xFF AND PUSH1 0xA EXP SWAP3 PUSH2 0xE67 SWAP3 PUSH3 0xF4240 SWAP3 PUSH1 0x1 PUSH1 0x1 PUSH1 0xA0 SHL SUB SWAP1 SWAP3 AND SWAP2 PUSH4 0x8E15F473 SWAP2 PUSH1 0x4 DUP1 DUP3 ADD SWAP3 PUSH1 0x20 SWAP3 SWAP1 SWAP2 SWAP1 DUP3 SWAP1 SUB ADD DUP2 DUP7 DUP1 EXTCODESIZE ISZERO DUP1 ISZERO PUSH2 0x46DF JUMPI PUSH1 0x0 DUP1 REVERT JUMPDEST POP GAS STATICCALL ISZERO DUP1 ISZERO PUSH2 0x46F3 JUMPI RETURNDATASIZE PUSH1 0x0 DUP1 RETURNDATACOPY RETURNDATASIZE PUSH1 0x0 REVERT JUMPDEST POP POP POP POP PUSH1 0x40 MLOAD RETURNDATASIZE PUSH1 0x20 DUP2 LT ISZERO PUSH2 0x4709 JUMPI PUSH1 0x0 DUP1 REVERT JUMPDEST POP MLOAD SWAP1 PUSH2 0x49AC JUMP JUMPDEST SWAP1 POP PUSH2 0x26AB JUMP JUMPDEST PUSH1 0xA3 SLOAD DUP2 JUMP JUMPDEST PUSH1 0xB1 SLOAD DUP2 JUMP JUMPDEST PUSH1 0x0 DUP3 DUP3 ADD DUP4 DUP2 LT ISZERO PUSH2 0x26C6 JUMPI PUSH1 0x40 DUP1 MLOAD PUSH3 0x461BCD PUSH1 0xE5 SHL DUP2 MSTORE PUSH1 0x20 PUSH1 0x4 DUP3 ADD MSTORE PUSH1 0x1B PUSH1 0x24 DUP3 ADD MSTORE PUSH32 0x536166654D6174683A206164646974696F6E206F766572666C6F770000000000 PUSH1 0x44 DUP3 ADD MSTORE SWAP1 MLOAD SWAP1 DUP2 SWAP1 SUB PUSH1 0x64 ADD SWAP1 REVERT JUMPDEST PUSH1 0x0 DUP3 DUP3 GT ISZERO PUSH2 0x47D5 JUMPI PUSH1 0x40 DUP1 MLOAD PUSH3 0x461BCD PUSH1 0xE5 SHL DUP2 MSTORE PUSH1 0x20 PUSH1 0x4 DUP3 ADD MSTORE PUSH1 0x1E PUSH1 0x24 DUP3 ADD MSTORE PUSH32 0x536166654D6174683A207375627472616374696F6E206F766572666C6F770000 PUSH1 0x44 DUP3 ADD MSTORE SWAP1 MLOAD SWAP1 DUP2 SWAP1 SUB PUSH1 0x64 ADD SWAP1 REVERT JUMPDEST POP SWAP1 SUB SWAP1 JUMP JUMPDEST PUSH1 0x40 DUP1 MLOAD PUSH1 0x1 PUSH1 0x1 PUSH1 0xA0 SHL SUB DUP5 DUP2 AND PUSH1 0x24 DUP4 ADD MSTORE PUSH1 0x44 DUP1 DUP4 ADD DUP6 SWAP1 MSTORE DUP4 MLOAD DUP1 DUP5 SUB SWAP1 SWAP2 ADD DUP2 MSTORE PUSH1 0x64 SWAP1 SWAP3 ADD DUP4 MSTORE PUSH1 0x20 DUP3 ADD DUP1 MLOAD PUSH1 0x1 PUSH1 0x1 PUSH1 0xE0 SHL SUB AND PUSH4 0xA9059CBB PUSH1 0xE0 SHL OR DUP2 MSTORE SWAP3 MLOAD DUP3 MLOAD PUSH1 0x0 SWAP5 PUSH1 0x60 SWAP5 SWAP4 DUP10 AND SWAP4 SWAP3 SWAP2 DUP3 SWAP2 SWAP1 DUP1 DUP4 DUP4 JUMPDEST PUSH1 0x20 DUP4 LT PUSH2 0x4858 JUMPI DUP1 MLOAD DUP3 MSTORE PUSH1 0x1F NOT SWAP1 SWAP3 ADD SWAP2 PUSH1 0x20 SWAP2 DUP3 ADD SWAP2 ADD PUSH2 0x4839 JUMP JUMPDEST PUSH1 0x1 DUP4 PUSH1 0x20 SUB PUSH2 0x100 EXP SUB DUP1 NOT DUP3 MLOAD AND DUP2 DUP5 MLOAD AND DUP1 DUP3 OR DUP6 MSTORE POP POP POP POP POP POP SWAP1 POP ADD SWAP2 POP POP PUSH1 0x0 PUSH1 0x40 MLOAD DUP1 DUP4 SUB DUP2 PUSH1 0x0 DUP7 GAS CALL SWAP2 POP POP RETURNDATASIZE DUP1 PUSH1 0x0 DUP2 EQ PUSH2 0x48BA JUMPI PUSH1 0x40 MLOAD SWAP2 POP PUSH1 0x1F NOT PUSH1 0x3F RETURNDATASIZE ADD AND DUP3 ADD PUSH1 0x40 MSTORE RETURNDATASIZE DUP3 MSTORE RETURNDATASIZE PUSH1 0x0 PUSH1 0x20 DUP5 ADD RETURNDATACOPY PUSH2 0x48BF JUMP JUMPDEST PUSH1 0x60 SWAP2 POP JUMPDEST POP SWAP2 POP SWAP2 POP DUP2 DUP1 ISZERO PUSH2 0x48ED JUMPI POP DUP1 MLOAD ISZERO DUP1 PUSH2 0x48ED JUMPI POP DUP1 DUP1 PUSH1 0x20 ADD SWAP1 MLOAD PUSH1 0x20 DUP2 LT ISZERO PUSH2 0x48EA JUMPI PUSH1 0x0 DUP1 REVERT JUMPDEST POP MLOAD JUMPDEST PUSH2 0x493E JUMPI PUSH1 0x40 DUP1 MLOAD PUSH3 0x461BCD PUSH1 0xE5 SHL DUP2 MSTORE PUSH1 0x20 PUSH1 0x4 DUP3 ADD MSTORE PUSH1 0x1F PUSH1 0x24 DUP3 ADD MSTORE PUSH32 0x5472616E7366657248656C7065723A205452414E534645525F4641494C454400 PUSH1 0x44 DUP3 ADD MSTORE SWAP1 MLOAD SWAP1 DUP2 SWAP1 SUB PUSH1 0x64 ADD SWAP1 REVERT JUMPDEST POP POP POP POP POP JUMP JUMPDEST PUSH1 0x0 DUP1 DUP3 GT PUSH2 0x499B JUMPI PUSH1 0x40 DUP1 MLOAD PUSH3 0x461BCD PUSH1 0xE5 SHL DUP2 MSTORE PUSH1 0x20 PUSH1 0x4 DUP3 ADD MSTORE PUSH1 0x1A PUSH1 0x24 DUP3 ADD MSTORE PUSH32 0x536166654D6174683A206469766973696F6E206279207A65726F000000000000 PUSH1 0x44 DUP3 ADD MSTORE SWAP1 MLOAD SWAP1 DUP2 SWAP1 SUB PUSH1 0x64 ADD SWAP1 REVERT JUMPDEST DUP2 DUP4 DUP2 PUSH2 0x49A4 JUMPI INVALID JUMPDEST DIV SWAP4 SWAP3 POP POP POP JUMP JUMPDEST PUSH1 0x0 DUP3 PUSH2 0x49BB JUMPI POP PUSH1 0x0 PUSH2 0x26C9 JUMP JUMPDEST DUP3 DUP3 MUL DUP3 DUP5 DUP3 DUP2 PUSH2 0x49C8 JUMPI INVALID JUMPDEST DIV EQ PUSH2 0x26C6 JUMPI PUSH1 0x40 MLOAD PUSH3 0x461BCD PUSH1 0xE5 SHL DUP2 MSTORE PUSH1 0x4 ADD DUP1 DUP1 PUSH1 0x20 ADD DUP3 DUP2 SUB DUP3 MSTORE PUSH1 0x21 DUP2 MSTORE PUSH1 0x20 ADD DUP1 PUSH2 0x56FA PUSH1 0x21 SWAP2 CODECOPY PUSH1 0x40 ADD SWAP2 POP POP PUSH1 0x40 MLOAD DUP1 SWAP2 SUB SWAP1 REVERT JUMPDEST CALLER SWAP1 JUMP JUMPDEST PUSH1 0x0 DUP3 DUP2 MSTORE PUSH1 0x33 PUSH1 0x20 MSTORE PUSH1 0x40 SWAP1 KECCAK256 PUSH2 0x4A21 SWAP1 DUP3 PUSH2 0x4FC0 JUMP JUMPDEST ISZERO PUSH2 0x1135 JUMPI PUSH2 0x4A2E PUSH2 0x4A05 JUMP JUMPDEST PUSH1 0x1 PUSH1 0x1 PUSH1 0xA0 SHL SUB AND DUP2 PUSH1 0x1 PUSH1 0x1 PUSH1 0xA0 SHL SUB AND DUP4 PUSH32 0x2F8788117E7EFF1D82E926EC794901D17C78024A50270940304540A733656F0D PUSH1 0x40 MLOAD PUSH1 0x40 MLOAD DUP1 SWAP2 SUB SWAP1 LOG4 POP POP JUMP JUMPDEST PUSH1 0x0 DUP3 DUP2 MSTORE PUSH1 0x33 PUSH1 0x20 MSTORE PUSH1 0x40 SWAP1 KECCAK256 PUSH2 0x4A8A SWAP1 DUP3 PUSH2 0x4FD5 JUMP JUMPDEST ISZERO PUSH2 0x1135 JUMPI PUSH2 0x4A97 PUSH2 0x4A05 JUMP JUMPDEST PUSH1 0x1 PUSH1 0x1 PUSH1 0xA0 SHL SUB AND DUP2 PUSH1 0x1 PUSH1 0x1 PUSH1 0xA0 SHL SUB AND DUP4 PUSH32 0xF6391F5C32D9C69D2A47EA670B442974B53935D1EDC7FD64EB21E047A839171B PUSH1 0x40 MLOAD PUSH1 0x40 MLOAD DUP1 SWAP2 SUB SWAP1 LOG4 POP POP JUMP JUMPDEST PUSH1 0x0 DUP1 PUSH1 0x0 DUP1 PUSH2 0x4B09 PUSH3 0xF4240 PUSH2 0x4B03 DUP8 PUSH1 0x0 ADD MLOAD DUP9 PUSH1 0x40 ADD MLOAD PUSH2 0x49AC SWAP1 SWAP2 SWAP1 PUSH4 0xFFFFFFFF AND JUMP JUMPDEST SWAP1 PUSH2 0x4FEA JUMP JUMPDEST SWAP2 POP PUSH2 0x4B2D PUSH3 0xF4240 PUSH2 0x4B03 DUP8 PUSH1 0x20 ADD MLOAD DUP9 PUSH1 0x60 ADD MLOAD PUSH2 0x49AC SWAP1 SWAP2 SWAP1 PUSH4 0xFFFFFFFF AND JUMP JUMPDEST SWAP1 POP PUSH1 0x0 PUSH2 0x4B59 DUP3 PUSH2 0x4B53 DUP9 PUSH1 0x80 ADD MLOAD PUSH2 0x4B03 PUSH3 0xF4240 DUP8 PUSH2 0x49AC SWAP1 SWAP2 SWAP1 PUSH4 0xFFFFFFFF AND JUMP JUMPDEST SWAP1 PUSH2 0x502C JUMP JUMPDEST DUP7 MLOAD SWAP1 SWAP2 POP PUSH1 0x0 SWAP1 PUSH2 0x4B72 SWAP1 PUSH2 0x4B03 DUP5 PUSH3 0xF4240 PUSH2 0x49AC JUMP JUMPDEST SWAP1 POP PUSH2 0x4B7E DUP4 DUP4 PUSH2 0x4724 JUMP JUMPDEST SWAP6 POP SWAP4 POP POP POP POP SWAP2 POP SWAP2 JUMP JUMPDEST PUSH1 0x40 DUP1 MLOAD PUSH1 0x1 PUSH1 0x1 PUSH1 0xA0 SHL SUB DUP6 DUP2 AND PUSH1 0x24 DUP4 ADD MSTORE DUP5 DUP2 AND PUSH1 0x44 DUP4 ADD MSTORE PUSH1 0x64 DUP1 DUP4 ADD DUP6 SWAP1 MSTORE DUP4 MLOAD DUP1 DUP5 SUB SWAP1 SWAP2 ADD DUP2 MSTORE PUSH1 0x84 SWAP1 SWAP3 ADD DUP4 MSTORE PUSH1 0x20 DUP3 ADD DUP1 MLOAD PUSH1 0x1 PUSH1 0x1 PUSH1 0xE0 SHL SUB AND PUSH4 0x23B872DD PUSH1 0xE0 SHL OR DUP2 MSTORE SWAP3 MLOAD DUP3 MLOAD PUSH1 0x0 SWAP5 PUSH1 0x60 SWAP5 SWAP4 DUP11 AND SWAP4 SWAP3 SWAP2 DUP3 SWAP2 SWAP1 DUP1 DUP4 DUP4 JUMPDEST PUSH1 0x20 DUP4 LT PUSH2 0x4C0F JUMPI DUP1 MLOAD DUP3 MSTORE PUSH1 0x1F NOT SWAP1 SWAP3 ADD SWAP2 PUSH1 0x20 SWAP2 DUP3 ADD SWAP2 ADD PUSH2 0x4BF0 JUMP JUMPDEST PUSH1 0x1 DUP4 PUSH1 0x20 SUB PUSH2 0x100 EXP SUB DUP1 NOT DUP3 MLOAD AND DUP2 DUP5 MLOAD AND DUP1 DUP3 OR DUP6 MSTORE POP POP POP POP POP POP SWAP1 POP ADD SWAP2 POP POP PUSH1 0x0 PUSH1 0x40 MLOAD DUP1 DUP4 SUB DUP2 PUSH1 0x0 DUP7 GAS CALL SWAP2 POP POP RETURNDATASIZE DUP1 PUSH1 0x0 DUP2 EQ PUSH2 0x4C71 JUMPI PUSH1 0x40 MLOAD SWAP2 POP PUSH1 0x1F NOT PUSH1 0x3F RETURNDATASIZE ADD AND DUP3 ADD PUSH1 0x40 MSTORE RETURNDATASIZE DUP3 MSTORE RETURNDATASIZE PUSH1 0x0 PUSH1 0x20 DUP5 ADD RETURNDATACOPY PUSH2 0x4C76 JUMP JUMPDEST PUSH1 0x60 SWAP2 POP JUMPDEST POP SWAP2 POP SWAP2 POP DUP2 DUP1 ISZERO PUSH2 0x4CA4 JUMPI POP DUP1 MLOAD ISZERO DUP1 PUSH2 0x4CA4 JUMPI POP DUP1 DUP1 PUSH1 0x20 ADD SWAP1 MLOAD PUSH1 0x20 DUP2 LT ISZERO PUSH2 0x4CA1 JUMPI PUSH1 0x0 DUP1 REVERT JUMPDEST POP MLOAD JUMPDEST PUSH2 0xB66 JUMPI PUSH1 0x40 MLOAD PUSH3 0x461BCD PUSH1 0xE5 SHL DUP2 MSTORE PUSH1 0x4 ADD DUP1 DUP1 PUSH1 0x20 ADD DUP3 DUP2 SUB DUP3 MSTORE PUSH1 0x24 DUP2 MSTORE PUSH1 0x20 ADD DUP1 PUSH2 0x5776 PUSH1 0x24 SWAP2 CODECOPY PUSH1 0x40 ADD SWAP2 POP POP PUSH1 0x40 MLOAD DUP1 SWAP2 SUB SWAP1 REVERT JUMPDEST DUP1 MLOAD PUSH1 0x0 SWAP1 PUSH2 0x4D1F JUMPI PUSH1 0x40 MLOAD PUSH3 0x461BCD PUSH1 0xE5 SHL DUP2 MSTORE PUSH1 0x4 ADD DUP1 DUP1 PUSH1 0x20 ADD DUP3 DUP2 SUB DUP3 MSTORE PUSH1 0x21 DUP2 MSTORE PUSH1 0x20 ADD DUP1 PUSH2 0x567B PUSH1 0x21 SWAP2 CODECOPY PUSH1 0x40 ADD SWAP2 POP POP PUSH1 0x40 MLOAD DUP1 SWAP2 SUB SWAP1 REVERT JUMPDEST PUSH1 0x0 PUSH2 0x4D43 PUSH3 0xF4240 PUSH2 0x4B03 DUP6 PUSH1 0x20 ADD MLOAD DUP7 PUSH1 0x60 ADD MLOAD PUSH2 0x49AC SWAP1 SWAP2 SWAP1 PUSH4 0xFFFFFFFF AND JUMP JUMPDEST DUP4 MLOAD SWAP1 SWAP2 POP DUP2 GT ISZERO PUSH2 0x4D86 JUMPI PUSH1 0x40 MLOAD PUSH3 0x461BCD PUSH1 0xE5 SHL DUP2 MSTORE PUSH1 0x4 ADD DUP1 DUP1 PUSH1 0x20 ADD DUP3 DUP2 SUB DUP3 MSTORE PUSH1 0x30 DUP2 MSTORE PUSH1 0x20 ADD DUP1 PUSH2 0x5542 PUSH1 0x30 SWAP2 CODECOPY PUSH1 0x40 ADD SWAP2 POP POP PUSH1 0x40 MLOAD DUP1 SWAP2 SUB SWAP1 REVERT JUMPDEST PUSH1 0x40 DUP4 ADD MLOAD PUSH1 0x0 SWAP1 PUSH2 0x4D9F SWAP1 PUSH2 0x4B03 DUP5 PUSH3 0xF4240 PUSH2 0x49AC JUMP JUMPDEST SWAP5 SWAP4 POP POP POP POP JUMP JUMPDEST PUSH1 0x0 PUSH2 0x26C6 DUP4 DUP4 PUSH2 0x506E JUMP JUMPDEST PUSH1 0x0 PUSH2 0x26C6 DUP4 PUSH1 0x1 PUSH1 0x1 PUSH1 0xA0 SHL SUB DUP5 AND PUSH2 0x50D2 JUMP JUMPDEST PUSH1 0x0 PUSH2 0x26C9 DUP3 PUSH2 0x50EA JUMP JUMPDEST PUSH1 0x0 PUSH2 0x4DDE ADDRESS PUSH2 0x50EE JUMP JUMPDEST ISZERO SWAP1 POP SWAP1 JUMP JUMPDEST PUSH1 0x0 SLOAD PUSH2 0x100 SWAP1 DIV PUSH1 0xFF AND DUP1 PUSH2 0x4DFD JUMPI POP PUSH2 0x4DFD PUSH2 0x4DD3 JUMP JUMPDEST DUP1 PUSH2 0x4E0B JUMPI POP PUSH1 0x0 SLOAD PUSH1 0xFF AND ISZERO JUMPDEST PUSH2 0x4E46 JUMPI PUSH1 0x40 MLOAD PUSH3 0x461BCD PUSH1 0xE5 SHL DUP2 MSTORE PUSH1 0x4 ADD DUP1 DUP1 PUSH1 0x20 ADD DUP3 DUP2 SUB DUP3 MSTORE PUSH1 0x2E DUP2 MSTORE PUSH1 0x20 ADD DUP1 PUSH2 0x56CC PUSH1 0x2E SWAP2 CODECOPY PUSH1 0x40 ADD SWAP2 POP POP PUSH1 0x40 MLOAD DUP1 SWAP2 SUB SWAP1 REVERT JUMPDEST PUSH1 0x0 SLOAD PUSH2 0x100 SWAP1 DIV PUSH1 0xFF AND ISZERO DUP1 ISZERO PUSH2 0x4E71 JUMPI PUSH1 0x0 DUP1 SLOAD PUSH1 0xFF NOT PUSH2 0xFF00 NOT SWAP1 SWAP2 AND PUSH2 0x100 OR AND PUSH1 0x1 OR SWAP1 SSTORE JUMPDEST PUSH2 0x4E79 PUSH2 0x50F4 JUMP JUMPDEST DUP1 ISZERO PUSH2 0x4E8B JUMPI PUSH1 0x0 DUP1 SLOAD PUSH2 0xFF00 NOT AND SWAP1 SSTORE JUMPDEST POP JUMP JUMPDEST PUSH1 0x0 SLOAD PUSH2 0x100 SWAP1 DIV PUSH1 0xFF AND DUP1 PUSH2 0x4EA7 JUMPI POP PUSH2 0x4EA7 PUSH2 0x4DD3 JUMP JUMPDEST DUP1 PUSH2 0x4EB5 JUMPI POP PUSH1 0x0 SLOAD PUSH1 0xFF AND ISZERO JUMPDEST PUSH2 0x4EF0 JUMPI PUSH1 0x40 MLOAD PUSH3 0x461BCD PUSH1 0xE5 SHL DUP2 MSTORE PUSH1 0x4 ADD DUP1 DUP1 PUSH1 0x20 ADD DUP3 DUP2 SUB DUP3 MSTORE PUSH1 0x2E DUP2 MSTORE PUSH1 0x20 ADD DUP1 PUSH2 0x56CC PUSH1 0x2E SWAP2 CODECOPY PUSH1 0x40 ADD SWAP2 POP POP PUSH1 0x40 MLOAD DUP1 SWAP2 SUB SWAP1 REVERT JUMPDEST PUSH1 0x0 SLOAD PUSH2 0x100 SWAP1 DIV PUSH1 0xFF AND ISZERO DUP1 ISZERO PUSH2 0x4F1B JUMPI PUSH1 0x0 DUP1 SLOAD PUSH1 0xFF NOT PUSH2 0xFF00 NOT SWAP1 SWAP2 AND PUSH2 0x100 OR AND PUSH1 0x1 OR SWAP1 SSTORE JUMPDEST PUSH2 0x4F23 PUSH2 0x50F4 JUMP JUMPDEST PUSH2 0x4E79 PUSH2 0x5194 JUMP JUMPDEST PUSH1 0x0 SLOAD PUSH2 0x100 SWAP1 DIV PUSH1 0xFF AND DUP1 PUSH2 0x4F44 JUMPI POP PUSH2 0x4F44 PUSH2 0x4DD3 JUMP JUMPDEST DUP1 PUSH2 0x4F52 JUMPI POP PUSH1 0x0 SLOAD PUSH1 0xFF AND ISZERO JUMPDEST PUSH2 0x4F8D JUMPI PUSH1 0x40 MLOAD PUSH3 0x461BCD PUSH1 0xE5 SHL DUP2 MSTORE PUSH1 0x4 ADD DUP1 DUP1 PUSH1 0x20 ADD DUP3 DUP2 SUB DUP3 MSTORE PUSH1 0x2E DUP2 MSTORE PUSH1 0x20 ADD DUP1 PUSH2 0x56CC PUSH1 0x2E SWAP2 CODECOPY PUSH1 0x40 ADD SWAP2 POP POP PUSH1 0x40 MLOAD DUP1 SWAP2 SUB SWAP1 REVERT JUMPDEST PUSH1 0x0 SLOAD PUSH2 0x100 SWAP1 DIV PUSH1 0xFF AND ISZERO DUP1 ISZERO PUSH2 0x4FB8 JUMPI PUSH1 0x0 DUP1 SLOAD PUSH1 0xFF NOT PUSH2 0xFF00 NOT SWAP1 SWAP2 AND PUSH2 0x100 OR AND PUSH1 0x1 OR SWAP1 SSTORE JUMPDEST PUSH2 0x4E71 PUSH2 0x50F4 JUMP JUMPDEST PUSH1 0x0 PUSH2 0x26C6 DUP4 PUSH1 0x1 PUSH1 0x1 PUSH1 0xA0 SHL SUB DUP5 AND PUSH2 0x528D JUMP JUMPDEST PUSH1 0x0 PUSH2 0x26C6 DUP4 PUSH1 0x1 PUSH1 0x1 PUSH1 0xA0 SHL SUB DUP5 AND PUSH2 0x52D7 JUMP JUMPDEST PUSH1 0x0 PUSH2 0x26C6 DUP4 DUP4 PUSH1 0x40 MLOAD DUP1 PUSH1 0x40 ADD PUSH1 0x40 MSTORE DUP1 PUSH1 0x1A DUP2 MSTORE PUSH1 0x20 ADD PUSH32 0x536166654D6174683A206469766973696F6E206279207A65726F000000000000 DUP2 MSTORE POP PUSH2 0x539D JUMP JUMPDEST PUSH1 0x0 PUSH2 0x26C6 DUP4 DUP4 PUSH1 0x40 MLOAD DUP1 PUSH1 0x40 ADD PUSH1 0x40 MSTORE DUP1 PUSH1 0x1E DUP2 MSTORE PUSH1 0x20 ADD PUSH32 0x536166654D6174683A207375627472616374696F6E206F766572666C6F770000 DUP2 MSTORE POP PUSH2 0x543F JUMP JUMPDEST DUP2 SLOAD PUSH1 0x0 SWAP1 DUP3 LT PUSH2 0x50B0 JUMPI PUSH1 0x40 MLOAD PUSH3 0x461BCD PUSH1 0xE5 SHL DUP2 MSTORE PUSH1 0x4 ADD DUP1 DUP1 PUSH1 0x20 ADD DUP3 DUP2 SUB DUP3 MSTORE PUSH1 0x22 DUP2 MSTORE PUSH1 0x20 ADD DUP1 PUSH2 0x54F1 PUSH1 0x22 SWAP2 CODECOPY PUSH1 0x40 ADD SWAP2 POP POP PUSH1 0x40 MLOAD DUP1 SWAP2 SUB SWAP1 REVERT JUMPDEST DUP3 PUSH1 0x0 ADD DUP3 DUP2 SLOAD DUP2 LT PUSH2 0x50BF JUMPI INVALID JUMPDEST SWAP1 PUSH1 0x0 MSTORE PUSH1 0x20 PUSH1 0x0 KECCAK256 ADD SLOAD SWAP1 POP SWAP3 SWAP2 POP POP JUMP JUMPDEST PUSH1 0x0 SWAP1 DUP2 MSTORE PUSH1 0x1 SWAP2 SWAP1 SWAP2 ADD PUSH1 0x20 MSTORE PUSH1 0x40 SWAP1 KECCAK256 SLOAD ISZERO ISZERO SWAP1 JUMP JUMPDEST SLOAD SWAP1 JUMP JUMPDEST EXTCODESIZE ISZERO ISZERO SWAP1 JUMP JUMPDEST PUSH1 0x0 SLOAD PUSH2 0x100 SWAP1 DIV PUSH1 0xFF AND DUP1 PUSH2 0x510D JUMPI POP PUSH2 0x510D PUSH2 0x4DD3 JUMP JUMPDEST DUP1 PUSH2 0x511B JUMPI POP PUSH1 0x0 SLOAD PUSH1 0xFF AND ISZERO JUMPDEST PUSH2 0x5156 JUMPI PUSH1 0x40 MLOAD PUSH3 0x461BCD PUSH1 0xE5 SHL DUP2 MSTORE PUSH1 0x4 ADD DUP1 DUP1 PUSH1 0x20 ADD DUP3 DUP2 SUB DUP3 MSTORE PUSH1 0x2E DUP2 MSTORE PUSH1 0x20 ADD DUP1 PUSH2 0x56CC PUSH1 0x2E SWAP2 CODECOPY PUSH1 0x40 ADD SWAP2 POP POP PUSH1 0x40 MLOAD DUP1 SWAP2 SUB SWAP1 REVERT JUMPDEST PUSH1 0x0 SLOAD PUSH2 0x100 SWAP1 DIV PUSH1 0xFF AND ISZERO DUP1 ISZERO PUSH2 0x4E79 JUMPI PUSH1 0x0 DUP1 SLOAD PUSH1 0xFF NOT PUSH2 0xFF00 NOT SWAP1 SWAP2 AND PUSH2 0x100 OR AND PUSH1 0x1 OR SWAP1 SSTORE DUP1 ISZERO PUSH2 0x4E8B JUMPI PUSH1 0x0 DUP1 SLOAD PUSH2 0xFF00 NOT AND SWAP1 SSTORE POP JUMP JUMPDEST PUSH1 0x0 SLOAD PUSH2 0x100 SWAP1 DIV PUSH1 0xFF AND DUP1 PUSH2 0x51AD JUMPI POP PUSH2 0x51AD PUSH2 0x4DD3 JUMP JUMPDEST DUP1 PUSH2 0x51BB JUMPI POP PUSH1 0x0 SLOAD PUSH1 0xFF AND ISZERO JUMPDEST PUSH2 0x51F6 JUMPI PUSH1 0x40 MLOAD PUSH3 0x461BCD PUSH1 0xE5 SHL DUP2 MSTORE PUSH1 0x4 ADD DUP1 DUP1 PUSH1 0x20 ADD DUP3 DUP2 SUB DUP3 MSTORE PUSH1 0x2E DUP2 MSTORE PUSH1 0x20 ADD DUP1 PUSH2 0x56CC PUSH1 0x2E SWAP2 CODECOPY PUSH1 0x40 ADD SWAP2 POP POP PUSH1 0x40 MLOAD DUP1 SWAP2 SUB SWAP1 REVERT JUMPDEST PUSH1 0x0 SLOAD PUSH2 0x100 SWAP1 DIV PUSH1 0xFF AND ISZERO DUP1 ISZERO PUSH2 0x5221 JUMPI PUSH1 0x0 DUP1 SLOAD PUSH1 0xFF NOT PUSH2 0xFF00 NOT SWAP1 SWAP2 AND PUSH2 0x100 OR AND PUSH1 0x1 OR SWAP1 SSTORE JUMPDEST PUSH1 0x0 PUSH2 0x522B PUSH2 0x4A05 JUMP JUMPDEST PUSH1 0x65 DUP1 SLOAD PUSH1 0x1 PUSH1 0x1 PUSH1 0xA0 SHL SUB NOT AND PUSH1 0x1 PUSH1 0x1 PUSH1 0xA0 SHL SUB DUP4 AND SWAP1 DUP2 OR SWAP1 SWAP2 SSTORE PUSH1 0x40 MLOAD SWAP2 SWAP3 POP SWAP1 PUSH1 0x0 SWAP1 PUSH32 0x8BE0079C531659141344CD1FD0A4F28419497F9722A3DAAFE3B4186F6B6457E0 SWAP1 DUP3 SWAP1 LOG3 POP DUP1 ISZERO PUSH2 0x4E8B JUMPI PUSH1 0x0 DUP1 SLOAD PUSH2 0xFF00 NOT AND SWAP1 SSTORE POP JUMP JUMPDEST PUSH1 0x0 PUSH2 0x5299 DUP4 DUP4 PUSH2 0x50D2 JUMP JUMPDEST PUSH2 0x52CF JUMPI POP DUP2 SLOAD PUSH1 0x1 DUP2 DUP2 ADD DUP5 SSTORE PUSH1 0x0 DUP5 DUP2 MSTORE PUSH1 0x20 DUP1 DUP3 KECCAK256 SWAP1 SWAP4 ADD DUP5 SWAP1 SSTORE DUP5 SLOAD DUP5 DUP3 MSTORE DUP3 DUP7 ADD SWAP1 SWAP4 MSTORE PUSH1 0x40 SWAP1 KECCAK256 SWAP2 SWAP1 SWAP2 SSTORE PUSH2 0x26C9 JUMP JUMPDEST POP PUSH1 0x0 PUSH2 0x26C9 JUMP JUMPDEST PUSH1 0x0 DUP2 DUP2 MSTORE PUSH1 0x1 DUP4 ADD PUSH1 0x20 MSTORE PUSH1 0x40 DUP2 KECCAK256 SLOAD DUP1 ISZERO PUSH2 0x5393 JUMPI DUP4 SLOAD PUSH1 0x0 NOT DUP1 DUP4 ADD SWAP2 SWAP1 DUP2 ADD SWAP1 PUSH1 0x0 SWAP1 DUP8 SWAP1 DUP4 SWAP1 DUP2 LT PUSH2 0x530A JUMPI INVALID JUMPDEST SWAP1 PUSH1 0x0 MSTORE PUSH1 0x20 PUSH1 0x0 KECCAK256 ADD SLOAD SWAP1 POP DUP1 DUP8 PUSH1 0x0 ADD DUP5 DUP2 SLOAD DUP2 LT PUSH2 0x5327 JUMPI INVALID JUMPDEST PUSH1 0x0 SWAP2 DUP3 MSTORE PUSH1 0x20 DUP1 DUP4 KECCAK256 SWAP1 SWAP2 ADD SWAP3 SWAP1 SWAP3 SSTORE DUP3 DUP2 MSTORE PUSH1 0x1 DUP10 DUP2 ADD SWAP1 SWAP3 MSTORE PUSH1 0x40 SWAP1 KECCAK256 SWAP1 DUP5 ADD SWAP1 SSTORE DUP7 SLOAD DUP8 SWAP1 DUP1 PUSH2 0x5357 JUMPI INVALID JUMPDEST PUSH1 0x1 SWAP1 SUB DUP2 DUP2 SWAP1 PUSH1 0x0 MSTORE PUSH1 0x20 PUSH1 0x0 KECCAK256 ADD PUSH1 0x0 SWAP1 SSTORE SWAP1 SSTORE DUP7 PUSH1 0x1 ADD PUSH1 0x0 DUP8 DUP2 MSTORE PUSH1 0x20 ADD SWAP1 DUP2 MSTORE PUSH1 0x20 ADD PUSH1 0x0 KECCAK256 PUSH1 0x0 SWAP1 SSTORE PUSH1 0x1 SWAP5 POP POP POP POP POP PUSH2 0x26C9 JUMP JUMPDEST PUSH1 0x0 SWAP2 POP POP PUSH2 0x26C9 JUMP JUMPDEST PUSH1 0x0 DUP2 DUP4 PUSH2 0x5429 JUMPI PUSH1 0x40 MLOAD PUSH3 0x461BCD PUSH1 0xE5 SHL DUP2 MSTORE PUSH1 0x4 ADD DUP1 DUP1 PUSH1 0x20 ADD DUP3 DUP2 SUB DUP3 MSTORE DUP4 DUP2 DUP2 MLOAD DUP2 MSTORE PUSH1 0x20 ADD SWAP2 POP DUP1 MLOAD SWAP1 PUSH1 0x20 ADD SWAP1 DUP1 DUP4 DUP4 PUSH1 0x0 JUMPDEST DUP4 DUP2 LT ISZERO PUSH2 0x53EE JUMPI DUP2 DUP2 ADD MLOAD DUP4 DUP3 ADD MSTORE PUSH1 0x20 ADD PUSH2 0x53D6 JUMP JUMPDEST POP POP POP POP SWAP1 POP SWAP1 DUP2 ADD SWAP1 PUSH1 0x1F AND DUP1 ISZERO PUSH2 0x541B JUMPI DUP1 DUP3 SUB DUP1 MLOAD PUSH1 0x1 DUP4 PUSH1 0x20 SUB PUSH2 0x100 EXP SUB NOT AND DUP2 MSTORE PUSH1 0x20 ADD SWAP2 POP JUMPDEST POP SWAP3 POP POP POP PUSH1 0x40 MLOAD DUP1 SWAP2 SUB SWAP1 REVERT JUMPDEST POP PUSH1 0x0 DUP4 DUP6 DUP2 PUSH2 0x5435 JUMPI INVALID JUMPDEST DIV SWAP6 SWAP5 POP POP POP POP POP JUMP JUMPDEST PUSH1 0x0 DUP2 DUP5 DUP5 GT ISZERO PUSH2 0x5491 JUMPI PUSH1 0x40 MLOAD PUSH3 0x461BCD PUSH1 0xE5 SHL DUP2 MSTORE PUSH1 0x20 PUSH1 0x4 DUP3 ADD DUP2 DUP2 MSTORE DUP4 MLOAD PUSH1 0x24 DUP5 ADD MSTORE DUP4 MLOAD SWAP1 SWAP3 DUP4 SWAP3 PUSH1 0x44 SWAP1 SWAP2 ADD SWAP2 SWAP1 DUP6 ADD SWAP1 DUP1 DUP4 DUP4 PUSH1 0x0 DUP4 ISZERO PUSH2 0x53EE JUMPI DUP2 DUP2 ADD MLOAD DUP4 DUP3 ADD MSTORE PUSH1 0x20 ADD PUSH2 0x53D6 JUMP JUMPDEST POP POP POP SWAP1 SUB SWAP1 JUMP JUMPDEST PUSH1 0x40 MLOAD DUP1 PUSH1 0xA0 ADD PUSH1 0x40 MSTORE DUP1 PUSH1 0x0 DUP2 MSTORE PUSH1 0x20 ADD PUSH1 0x0 DUP2 MSTORE PUSH1 0x20 ADD PUSH1 0x0 DUP2 MSTORE PUSH1 0x20 ADD PUSH1 0x0 DUP2 MSTORE PUSH1 0x20 ADD PUSH1 0x0 DUP2 MSTORE POP SWAP1 JUMP JUMPDEST PUSH1 0x40 MLOAD DUP1 PUSH1 0x80 ADD PUSH1 0x40 MSTORE DUP1 PUSH1 0x0 DUP2 MSTORE PUSH1 0x20 ADD PUSH1 0x0 DUP2 MSTORE PUSH1 0x20 ADD PUSH1 0x0 DUP2 MSTORE PUSH1 0x20 ADD PUSH1 0x0 DUP2 MSTORE POP SWAP1 JUMP INVALID GASLIMIT PUSH15 0x756D657261626C655365743A20696E PUSH5 0x6578206F75 PUSH21 0x206F6620626F756E6473416363657373436F6E7472 PUSH16 0x6C3A2073656E646572206D7573742062 PUSH6 0x20616E206164 PUSH14 0x696E20746F206772616E74596F75 KECCAK256 PUSH2 0x7265 KECCAK256 PUSH21 0x7279696E6720746F20627579206261636B206D6F72 PUSH6 0x207468616E20 PUSH21 0x686520657863657373214F776E61626C653A206E65 PUSH24 0x206F776E657220697320746865207A65726F206164647265 PUSH20 0x73506F6F6C206365696C696E6720726561636865 PUSH5 0x2C206E6F20 PUSH14 0x6F72652053796E74682063616E20 PUSH3 0x65206D PUSH10 0x6E746564207769746820 PUSH21 0x68697320636F6C6C61746572616C436F6C6C617465 PUSH19 0x616C20726174696F206E6565647320746F2062 PUSH6 0x206265747765 PUSH6 0x6E202E303030 ADDRESS ADDRESS BALANCE KECCAK256 PUSH2 0x6E64 KECCAK256 0x2E CODECOPY CODECOPY CODECOPY CODECOPY CODECOPY CODECOPY MSTORE8 PUSH13 0x697070616765206C696D697420 PUSH19 0x656163686564205B636F6C6C61746572616C5D 0x4D PUSH22 0x7374207761697420666F7220726564656D7074696F6E 0x5F PUSH5 0x656C617920 PUSH3 0x6C6F63 PUSH12 0x73206265666F726520636F6C PUSH13 0x656374696E6720726564656D70 PUSH21 0x696F6E4E6F2065786365737320636F6C6C61746572 PUSH2 0x6C20 PUSH21 0x6F20627579206261636B21416363657373436F6E74 PUSH19 0x6F6C3A2073656E646572206D75737420626520 PUSH2 0x6E20 PUSH2 0x646D PUSH10 0x6E20746F207265766F6B PUSH6 0x496E69746961 PUSH13 0x697A61626C653A20636F6E7472 PUSH2 0x6374 KECCAK256 PUSH10 0x7320616C726561647920 PUSH10 0x6E697469616C697A6564 MSTORE8 PUSH2 0x6665 0x4D PUSH2 0x7468 GASPRICE KECCAK256 PUSH14 0x756C7469706C69636174696F6E20 PUSH16 0x766572666C6F77536C69707061676520 PUSH13 0x696D6974207265616368656400 STOP STOP STOP STOP STOP STOP STOP STOP STOP SLOAD PUSH9 0x6520666F756E647279 KECCAK256 PUSH17 0x72696365206D7573742062652067726561 PUSH21 0x6572207468616E2074686520726564656D7074696F PUSH15 0x2070726963655472616E7366657248 PUSH6 0x6C7065723A20 SLOAD MSTORE COINBASE 0x4E MSTORE8 CHAINID GASLIMIT MSTORE 0x5F CHAINID MSTORE 0x4F 0x4D 0x5F CHAINID COINBASE 0x49 0x4C GASLIMIT DIFFICULTY COINBASE PUSH4 0x63657373 NUMBER PUSH16 0x6E74726F6C3A2063616E206F6E6C7920 PUSH19 0x656E6F756E636520726F6C657320666F722073 PUSH6 0x6C66A2646970 PUSH7 0x7358221220972E LOG1 0xE0 0xB2 0xE6 0x5E CREATE2 0xEB 0xF9 PUSH17 0x93685A1EFACBF43E01C73C11FC87D564D5 0xF 0xCB 0xEA 0x25 PUSH5 0x736F6C6343 STOP MOD 0xC STOP CALLER "
		},
		"gasEstimates": {
			"creation": {
				"codeDepositCost": "4505200",
				"executionCost": "5243",
				"totalCost": "4510443"
			},
			"external": {
				"DEFAULT_ADMIN_ROLE()": "311",
				"availableExcessCollatDV()": "infinite",
				"availableExcessGrDV()": "infinite",
				"bonus_rate()": "1132",
				"buyBackGr(uint256,uint256)": "infinite",
				"buyBackPaused()": "1088",
				"buyback_fee()": "1090",
				"collatAnchorBalance()": "infinite",
				"collat_anchor_oracle_address()": "1149",
				"collateralPricePaused()": "1132",
				"collateral_address()": "1172",
				"collectRedemption()": "infinite",
				"devAddr()": "1166",
				"getCollateralPrice()": "infinite",
				"getRoleAdmin(bytes32)": "1181",
				"getRoleMember(bytes32,uint256)": "infinite",
				"getRoleMemberCount(bytes32)": "infinite",
				"grantRole(bytes32,address)": "infinite",
				"hasRole(bytes32,address)": "infinite",
				"initialize(address,address,address,address,uint256)": "infinite",
				"lastMint(address)": "1214",
				"lastRedeemed(address)": "1192",
				"mint1t1Synth(uint256,uint256)": "infinite",
				"mintAlgorithmicSynth(uint256,uint256)": "infinite",
				"mintFractionalSynth(uint256,uint256,uint256)": "infinite",
				"mintPaused()": "1144",
				"mintSynthBalances(address)": "1257",
				"mint_price_threshold()": "1109",
				"minting_fee()": "1132",
				"owner()": "1171",
				"pausedPrice()": "1087",
				"pool_ceiling()": "1111",
				"priceVerify()": "1118",
				"recollat_fee()": "1108",
				"recollateralizePaused()": "1156",
				"recollateralizeSynth(uint256,uint256)": "infinite",
				"redeem1t1Synth(uint256,uint256)": "infinite",
				"redeemAlgorithmicSynth(uint256,uint256)": "infinite",
				"redeemCollateralBalances(address)": "1194",
				"redeemFractionalSynth(uint256,uint256,uint256)": "infinite",
				"redeemGrBalances(address)": "1214",
				"redeemPaused()": "1089",
				"redeem_price_threshold()": "1130",
				"redemption_delay()": "1111",
				"redemption_fee()": "1131",
				"renounceOwnership()": "24343",
				"renounceRole(bytes32,address)": "infinite",
				"revokeRole(bytes32,address)": "infinite",
				"setChainlinkCollatAnchorOracle(address)": "infinite",
				"setDevAddr(address)": "23969",
				"setPoolParameters(uint256,uint256,uint256,uint256,uint256,uint256,uint256)": "144913",
				"setPriceThresholds(uint256,uint256)": "infinite",
				"setTimelock(address)": "23990",
				"toggleBuyBack()": "infinite",
				"toggleCollateralPrice(uint256)": "infinite",
				"toggleMinting()": "infinite",
				"togglePriceVerify()": "23944",
				"toggleRecollateralize()": "infinite",
				"toggleRedeeming()": "infinite",
				"transferOwnership(address)": "infinite",
				"unclaimedPoolCollateral()": "1088",
				"unclaimedPoolGr()": "1067",
				"unclaimedPoolSynth()": "1065"
			}
		},
		"methodIdentifiers": {
			"DEFAULT_ADMIN_ROLE()": "a217fddf",
			"availableExcessCollatDV()": "f61adab2",
			"availableExcessGrDV()": "a6d5ab1b",
			"bonus_rate()": "4c634934",
			"buyBackGr(uint256,uint256)": "8266afa3",
			"buyBackPaused()": "7f877f85",
			"buyback_fee()": "101197c7",
			"collatAnchorBalance()": "df4abc9c",
			"collat_anchor_oracle_address()": "466e355a",
			"collateralPricePaused()": "8d2ac7a4",
			"collateral_address()": "1eaa0e17",
			"collectRedemption()": "12ace5a2",
			"devAddr()": "da09c72c",
			"getCollateralPrice()": "f7683bbc",
			"getRoleAdmin(bytes32)": "248a9ca3",
			"getRoleMember(bytes32,uint256)": "9010d07c",
			"getRoleMemberCount(bytes32)": "ca15c873",
			"grantRole(bytes32,address)": "2f2ff15d",
			"hasRole(bytes32,address)": "91d14854",
			"initialize(address,address,address,address,uint256)": "f7013ef6",
			"lastMint(address)": "adc20b1c",
			"lastRedeemed(address)": "abae2c4c",
			"mint1t1Synth(uint256,uint256)": "b04f3010",
			"mintAlgorithmicSynth(uint256,uint256)": "c4d7c18b",
			"mintFractionalSynth(uint256,uint256,uint256)": "401fe34e",
			"mintPaused()": "7e4831d3",
			"mintSynthBalances(address)": "e81372c8",
			"mint_price_threshold()": "e714df31",
			"minting_fee()": "c3355b8d",
			"owner()": "8da5cb5b",
			"pausedPrice()": "c74ec56a",
			"pool_ceiling()": "6526a12a",
			"priceVerify()": "14abc93f",
			"recollat_fee()": "fede5c9c",
			"recollateralizePaused()": "6d2c5615",
			"recollateralizeSynth(uint256,uint256)": "d2c897b4",
			"redeem1t1Synth(uint256,uint256)": "283b38fc",
			"redeemAlgorithmicSynth(uint256,uint256)": "b1d48f24",
			"redeemCollateralBalances(address)": "08a7493d",
			"redeemFractionalSynth(uint256,uint256,uint256)": "78f0cb76",
			"redeemGrBalances(address)": "b83458b4",
			"redeemPaused()": "b235d468",
			"redeem_price_threshold()": "ff9f4fb5",
			"redemption_delay()": "15128425",
			"redemption_fee()": "cb73999f",
			"renounceOwnership()": "715018a6",
			"renounceRole(bytes32,address)": "36568abe",
			"revokeRole(bytes32,address)": "d547741f",
			"setChainlinkCollatAnchorOracle(address)": "f51b41cc",
			"setDevAddr(address)": "6ebb64a2",
			"setPoolParameters(uint256,uint256,uint256,uint256,uint256,uint256,uint256)": "4ebbe762",
			"setPriceThresholds(uint256,uint256)": "7853c888",
			"setTimelock(address)": "bdacb303",
			"toggleBuyBack()": "50c9ecd9",
			"toggleCollateralPrice(uint256)": "7ad1f61b",
			"toggleMinting()": "7d55094d",
			"togglePriceVerify()": "f41d43e3",
			"toggleRecollateralize()": "42d15aec",
			"toggleRedeeming()": "daa50485",
			"transferOwnership(address)": "f2fde38b",
			"unclaimedPoolCollateral()": "7b0461e9",
			"unclaimedPoolGr()": "1398992e",
			"unclaimedPoolSynth()": "dcabc282"
		}
	},
	"abi": [
		{
			"anonymous": false,
			"inputs": [
				{
					"indexed": false,
					"internalType": "address",
					"name": "bnb_collat_consumer_address",
					"type": "address"
				}
			],
			"name": "BNBCollatOracleSet",
			"type": "event"
		},
		{
			"anonymous": false,
			"inputs": [
				{
					"indexed": false,
					"internalType": "bool",
					"name": "toggled",
					"type": "bool"
				}
			],
			"name": "BuybackToggled",
			"type": "event"
		},
		{
			"anonymous": false,
			"inputs": [
				{
					"indexed": false,
					"internalType": "bool",
					"name": "toggled",
					"type": "bool"
				}
			],
			"name": "CollateralPriceToggled",
			"type": "event"
		},
		{
			"anonymous": false,
			"inputs": [
				{
					"indexed": false,
					"internalType": "address",
					"name": "new_devAddr",
					"type": "address"
				}
			],
			"name": "DevAddrSet",
			"type": "event"
		},
		{
			"anonymous": false,
			"inputs": [
				{
					"indexed": false,
					"internalType": "bool",
					"name": "toggled",
					"type": "bool"
				}
			],
			"name": "MintingToggled",
			"type": "event"
		},
		{
			"anonymous": false,
			"inputs": [
				{
					"indexed": true,
					"internalType": "address",
					"name": "previousOwner",
					"type": "address"
				},
				{
					"indexed": true,
					"internalType": "address",
					"name": "newOwner",
					"type": "address"
				}
			],
			"name": "OwnershipTransferred",
			"type": "event"
		},
		{
			"anonymous": false,
			"inputs": [
				{
					"indexed": false,
					"internalType": "uint256",
					"name": "new_ceiling",
					"type": "uint256"
				},
				{
					"indexed": false,
					"internalType": "uint256",
					"name": "new_bonus_rate",
					"type": "uint256"
				},
				{
					"indexed": false,
					"internalType": "uint256",
					"name": "new_redemption_delay",
					"type": "uint256"
				},
				{
					"indexed": false,
					"internalType": "uint256",
					"name": "new_mint_fee",
					"type": "uint256"
				},
				{
					"indexed": false,
					"internalType": "uint256",
					"name": "new_redeem_fee",
					"type": "uint256"
				},
				{
					"indexed": false,
					"internalType": "uint256",
					"name": "new_buyback_fee",
					"type": "uint256"
				},
				{
					"indexed": false,
					"internalType": "uint256",
					"name": "new_recollat_fee",
					"type": "uint256"
				}
			],
			"name": "PoolParametersSet",
			"type": "event"
		},
		{
			"anonymous": false,
			"inputs": [
				{
					"indexed": false,
					"internalType": "uint256",
					"name": "new_mint_price_threshold",
					"type": "uint256"
				},
				{
					"indexed": false,
					"internalType": "uint256",
					"name": "new_redeem_price_threshold",
					"type": "uint256"
				}
			],
			"name": "PriceThresholdsSet",
			"type": "event"
		},
		{
			"anonymous": false,
			"inputs": [
				{
					"indexed": false,
					"internalType": "bool",
					"name": "toggled",
					"type": "bool"
				}
			],
			"name": "PriceVerifyToggled",
			"type": "event"
		},
		{
			"anonymous": false,
			"inputs": [
				{
					"indexed": false,
					"internalType": "bool",
					"name": "toggled",
					"type": "bool"
				}
			],
			"name": "RecollateralizeToggled",
			"type": "event"
		},
		{
			"anonymous": false,
			"inputs": [
				{
					"indexed": false,
					"internalType": "bool",
					"name": "toggled",
					"type": "bool"
				}
			],
			"name": "RedeemingToggled",
			"type": "event"
		},
		{
			"anonymous": false,
			"inputs": [
				{
					"indexed": true,
					"internalType": "bytes32",
					"name": "role",
					"type": "bytes32"
				},
				{
					"indexed": true,
					"internalType": "bytes32",
					"name": "previousAdminRole",
					"type": "bytes32"
				},
				{
					"indexed": true,
					"internalType": "bytes32",
					"name": "newAdminRole",
					"type": "bytes32"
				}
			],
			"name": "RoleAdminChanged",
			"type": "event"
		},
		{
			"anonymous": false,
			"inputs": [
				{
					"indexed": true,
					"internalType": "bytes32",
					"name": "role",
					"type": "bytes32"
				},
				{
					"indexed": true,
					"internalType": "address",
					"name": "account",
					"type": "address"
				},
				{
					"indexed": true,
					"internalType": "address",
					"name": "sender",
					"type": "address"
				}
			],
			"name": "RoleGranted",
			"type": "event"
		},
		{
			"anonymous": false,
			"inputs": [
				{
					"indexed": true,
					"internalType": "bytes32",
					"name": "role",
					"type": "bytes32"
				},
				{
					"indexed": true,
					"internalType": "address",
					"name": "account",
					"type": "address"
				},
				{
					"indexed": true,
					"internalType": "address",
					"name": "sender",
					"type": "address"
				}
			],
			"name": "RoleRevoked",
			"type": "event"
		},
		{
			"anonymous": false,
			"inputs": [
				{
					"indexed": false,
					"internalType": "address",
					"name": "new_timelock",
					"type": "address"
				}
			],
			"name": "TimelockSet",
			"type": "event"
		},
		{
			"inputs": [],
			"name": "DEFAULT_ADMIN_ROLE",
			"outputs": [
				{
					"internalType": "bytes32",
					"name": "",
					"type": "bytes32"
				}
			],
			"stateMutability": "view",
			"type": "function"
		},
		{
			"inputs": [],
			"name": "availableExcessCollatDV",
			"outputs": [
				{
					"internalType": "uint256",
					"name": "",
					"type": "uint256"
				}
			],
			"stateMutability": "view",
			"type": "function"
		},
		{
			"inputs": [],
			"name": "availableExcessGrDV",
			"outputs": [
				{
					"internalType": "uint256",
					"name": "",
					"type": "uint256"
				}
			],
			"stateMutability": "view",
			"type": "function"
		},
		{
			"inputs": [],
			"name": "bonus_rate",
			"outputs": [
				{
					"internalType": "uint256",
					"name": "",
					"type": "uint256"
				}
			],
			"stateMutability": "view",
			"type": "function"
		},
		{
			"inputs": [
				{
					"internalType": "uint256",
					"name": "Gr_amount",
					"type": "uint256"
				},
				{
					"internalType": "uint256",
					"name": "COLLATERAL_out_min",
					"type": "uint256"
				}
			],
			"name": "buyBackGr",
			"outputs": [],
			"stateMutability": "nonpayable",
			"type": "function"
		},
		{
			"inputs": [],
			"name": "buyBackPaused",
			"outputs": [
				{
					"internalType": "bool",
					"name": "",
					"type": "bool"
				}
			],
			"stateMutability": "view",
			"type": "function"
		},
		{
			"inputs": [],
			"name": "buyback_fee",
			"outputs": [
				{
					"internalType": "uint256",
					"name": "",
					"type": "uint256"
				}
			],
			"stateMutability": "view",
			"type": "function"
		},
		{
			"inputs": [],
			"name": "collatAnchorBalance",
			"outputs": [
				{
					"internalType": "uint256",
					"name": "",
					"type": "uint256"
				}
			],
			"stateMutability": "view",
			"type": "function"
		},
		{
			"inputs": [],
			"name": "collat_anchor_oracle_address",
			"outputs": [
				{
					"internalType": "address",
					"name": "",
					"type": "address"
				}
			],
			"stateMutability": "view",
			"type": "function"
		},
		{
			"inputs": [],
			"name": "collateralPricePaused",
			"outputs": [
				{
					"internalType": "bool",
					"name": "",
					"type": "bool"
				}
			],
			"stateMutability": "view",
			"type": "function"
		},
		{
			"inputs": [],
			"name": "collateral_address",
			"outputs": [
				{
					"internalType": "address",
					"name": "",
					"type": "address"
				}
			],
			"stateMutability": "view",
			"type": "function"
		},
		{
			"inputs": [],
			"name": "collectRedemption",
			"outputs": [],
			"stateMutability": "nonpayable",
			"type": "function"
		},
		{
			"inputs": [],
			"name": "devAddr",
			"outputs": [
				{
					"internalType": "address",
					"name": "",
					"type": "address"
				}
			],
			"stateMutability": "view",
			"type": "function"
		},
		{
			"inputs": [],
			"name": "getCollateralPrice",
			"outputs": [
				{
					"internalType": "uint256",
					"name": "",
					"type": "uint256"
				}
			],
			"stateMutability": "view",
			"type": "function"
		},
		{
			"inputs": [
				{
					"internalType": "bytes32",
					"name": "role",
					"type": "bytes32"
				}
			],
			"name": "getRoleAdmin",
			"outputs": [
				{
					"internalType": "bytes32",
					"name": "",
					"type": "bytes32"
				}
			],
			"stateMutability": "view",
			"type": "function"
		},
		{
			"inputs": [
				{
					"internalType": "bytes32",
					"name": "role",
					"type": "bytes32"
				},
				{
					"internalType": "uint256",
					"name": "index",
					"type": "uint256"
				}
			],
			"name": "getRoleMember",
			"outputs": [
				{
					"internalType": "address",
					"name": "",
					"type": "address"
				}
			],
			"stateMutability": "view",
			"type": "function"
		},
		{
			"inputs": [
				{
					"internalType": "bytes32",
					"name": "role",
					"type": "bytes32"
				}
			],
			"name": "getRoleMemberCount",
			"outputs": [
				{
					"internalType": "uint256",
					"name": "",
					"type": "uint256"
				}
			],
			"stateMutability": "view",
			"type": "function"
		},
		{
			"inputs": [
				{
					"internalType": "bytes32",
					"name": "role",
					"type": "bytes32"
				},
				{
					"internalType": "address",
					"name": "account",
					"type": "address"
				}
			],
			"name": "grantRole",
			"outputs": [],
			"stateMutability": "nonpayable",
			"type": "function"
		},
		{
			"inputs": [
				{
					"internalType": "bytes32",
					"name": "role",
					"type": "bytes32"
				},
				{
					"internalType": "address",
					"name": "account",
					"type": "address"
				}
			],
			"name": "hasRole",
			"outputs": [
				{
					"internalType": "bool",
					"name": "",
					"type": "bool"
				}
			],
			"stateMutability": "view",
			"type": "function"
		},
		{
			"inputs": [
				{
					"internalType": "address",
					"name": "_synth_contract_address",
					"type": "address"
				},
				{
					"internalType": "address",
					"name": "_gr_contract_address",
					"type": "address"
				},
				{
					"internalType": "address",
					"name": "_collateral_address",
					"type": "address"
				},
				{
					"internalType": "address",
					"name": "_timelock_address",
					"type": "address"
				},
				{
					"internalType": "uint256",
					"name": "_pool_ceiling",
					"type": "uint256"
				}
			],
			"name": "initialize",
			"outputs": [],
			"stateMutability": "nonpayable",
			"type": "function"
		},
		{
			"inputs": [
				{
					"internalType": "address",
					"name": "",
					"type": "address"
				}
			],
			"name": "lastMint",
			"outputs": [
				{
					"internalType": "uint256",
					"name": "",
					"type": "uint256"
				}
			],
			"stateMutability": "view",
			"type": "function"
		},
		{
			"inputs": [
				{
					"internalType": "address",
					"name": "",
					"type": "address"
				}
			],
			"name": "lastRedeemed",
			"outputs": [
				{
					"internalType": "uint256",
					"name": "",
					"type": "uint256"
				}
			],
			"stateMutability": "view",
			"type": "function"
		},
		{
			"inputs": [
				{
					"internalType": "uint256",
					"name": "collateral_amount",
					"type": "uint256"
				},
				{
					"internalType": "uint256",
					"name": "synth_out_min",
					"type": "uint256"
				}
			],
			"name": "mint1t1Synth",
			"outputs": [],
			"stateMutability": "nonpayable",
			"type": "function"
		},
		{
			"inputs": [
				{
					"internalType": "uint256",
					"name": "gr_amount_d18",
					"type": "uint256"
				},
				{
					"internalType": "uint256",
					"name": "synth_out_min",
					"type": "uint256"
				}
			],
			"name": "mintAlgorithmicSynth",
			"outputs": [],
			"stateMutability": "nonpayable",
			"type": "function"
		},
		{
			"inputs": [
				{
					"internalType": "uint256",
					"name": "collateral_amount",
					"type": "uint256"
				},
				{
					"internalType": "uint256",
					"name": "gr_amount",
					"type": "uint256"
				},
				{
					"internalType": "uint256",
					"name": "synth_out_min",
					"type": "uint256"
				}
			],
			"name": "mintFractionalSynth",
			"outputs": [],
			"stateMutability": "nonpayable",
			"type": "function"
		},
		{
			"inputs": [],
			"name": "mintPaused",
			"outputs": [
				{
					"internalType": "bool",
					"name": "",
					"type": "bool"
				}
			],
			"stateMutability": "view",
			"type": "function"
		},
		{
			"inputs": [
				{
					"internalType": "address",
					"name": "",
					"type": "address"
				}
			],
			"name": "mintSynthBalances",
			"outputs": [
				{
					"internalType": "uint256",
					"name": "",
					"type": "uint256"
				}
			],
			"stateMutability": "view",
			"type": "function"
		},
		{
			"inputs": [],
			"name": "mint_price_threshold",
			"outputs": [
				{
					"internalType": "uint256",
					"name": "",
					"type": "uint256"
				}
			],
			"stateMutability": "view",
			"type": "function"
		},
		{
			"inputs": [],
			"name": "minting_fee",
			"outputs": [
				{
					"internalType": "uint256",
					"name": "",
					"type": "uint256"
				}
			],
			"stateMutability": "view",
			"type": "function"
		},
		{
			"inputs": [],
			"name": "owner",
			"outputs": [
				{
					"internalType": "address",
					"name": "",
					"type": "address"
				}
			],
			"stateMutability": "view",
			"type": "function"
		},
		{
			"inputs": [],
			"name": "pausedPrice",
			"outputs": [
				{
					"internalType": "uint256",
					"name": "",
					"type": "uint256"
				}
			],
			"stateMutability": "view",
			"type": "function"
		},
		{
			"inputs": [],
			"name": "pool_ceiling",
			"outputs": [
				{
					"internalType": "uint256",
					"name": "",
					"type": "uint256"
				}
			],
			"stateMutability": "view",
			"type": "function"
		},
		{
			"inputs": [],
			"name": "priceVerify",
			"outputs": [
				{
					"internalType": "bool",
					"name": "",
					"type": "bool"
				}
			],
			"stateMutability": "view",
			"type": "function"
		},
		{
			"inputs": [],
			"name": "recollat_fee",
			"outputs": [
				{
					"internalType": "uint256",
					"name": "",
					"type": "uint256"
				}
			],
			"stateMutability": "view",
			"type": "function"
		},
		{
			"inputs": [],
			"name": "recollateralizePaused",
			"outputs": [
				{
					"internalType": "bool",
					"name": "",
					"type": "bool"
				}
			],
			"stateMutability": "view",
			"type": "function"
		},
		{
			"inputs": [
				{
					"internalType": "uint256",
					"name": "collateral_amount",
					"type": "uint256"
				},
				{
					"internalType": "uint256",
					"name": "Gr_out_min",
					"type": "uint256"
				}
			],
			"name": "recollateralizeSynth",
			"outputs": [],
			"stateMutability": "nonpayable",
			"type": "function"
		},
		{
			"inputs": [
				{
					"internalType": "uint256",
					"name": "synth_amount",
					"type": "uint256"
				},
				{
					"internalType": "uint256",
					"name": "COLLATERAL_out_min",
					"type": "uint256"
				}
			],
			"name": "redeem1t1Synth",
			"outputs": [],
			"stateMutability": "nonpayable",
			"type": "function"
		},
		{
			"inputs": [
				{
					"internalType": "uint256",
					"name": "synth_amount",
					"type": "uint256"
				},
				{
					"internalType": "uint256",
					"name": "Gr_out_min",
					"type": "uint256"
				}
			],
			"name": "redeemAlgorithmicSynth",
			"outputs": [],
			"stateMutability": "nonpayable",
			"type": "function"
		},
		{
			"inputs": [
				{
					"internalType": "address",
					"name": "",
					"type": "address"
				}
			],
			"name": "redeemCollateralBalances",
			"outputs": [
				{
					"internalType": "uint256",
					"name": "",
					"type": "uint256"
				}
			],
			"stateMutability": "view",
			"type": "function"
		},
		{
			"inputs": [
				{
					"internalType": "uint256",
					"name": "synth_amount",
					"type": "uint256"
				},
				{
					"internalType": "uint256",
					"name": "Gr_out_min",
					"type": "uint256"
				},
				{
					"internalType": "uint256",
					"name": "COLLATERAL_out_min",
					"type": "uint256"
				}
			],
			"name": "redeemFractionalSynth",
			"outputs": [],
			"stateMutability": "nonpayable",
			"type": "function"
		},
		{
			"inputs": [
				{
					"internalType": "address",
					"name": "",
					"type": "address"
				}
			],
			"name": "redeemGrBalances",
			"outputs": [
				{
					"internalType": "uint256",
					"name": "",
					"type": "uint256"
				}
			],
			"stateMutability": "view",
			"type": "function"
		},
		{
			"inputs": [],
			"name": "redeemPaused",
			"outputs": [
				{
					"internalType": "bool",
					"name": "",
					"type": "bool"
				}
			],
			"stateMutability": "view",
			"type": "function"
		},
		{
			"inputs": [],
			"name": "redeem_price_threshold",
			"outputs": [
				{
					"internalType": "uint256",
					"name": "",
					"type": "uint256"
				}
			],
			"stateMutability": "view",
			"type": "function"
		},
		{
			"inputs": [],
			"name": "redemption_delay",
			"outputs": [
				{
					"internalType": "uint256",
					"name": "",
					"type": "uint256"
				}
			],
			"stateMutability": "view",
			"type": "function"
		},
		{
			"inputs": [],
			"name": "redemption_fee",
			"outputs": [
				{
					"internalType": "uint256",
					"name": "",
					"type": "uint256"
				}
			],
			"stateMutability": "view",
			"type": "function"
		},
		{
			"inputs": [],
			"name": "renounceOwnership",
			"outputs": [],
			"stateMutability": "nonpayable",
			"type": "function"
		},
		{
			"inputs": [
				{
					"internalType": "bytes32",
					"name": "role",
					"type": "bytes32"
				},
				{
					"internalType": "address",
					"name": "account",
					"type": "address"
				}
			],
			"name": "renounceRole",
			"outputs": [],
			"stateMutability": "nonpayable",
			"type": "function"
		},
		{
			"inputs": [
				{
					"internalType": "bytes32",
					"name": "role",
					"type": "bytes32"
				},
				{
					"internalType": "address",
					"name": "account",
					"type": "address"
				}
			],
			"name": "revokeRole",
			"outputs": [],
			"stateMutability": "nonpayable",
			"type": "function"
		},
		{
			"inputs": [
				{
					"internalType": "address",
					"name": "_collat_anchor_consumer_address",
					"type": "address"
				}
			],
			"name": "setChainlinkCollatAnchorOracle",
			"outputs": [],
			"stateMutability": "nonpayable",
			"type": "function"
		},
		{
			"inputs": [
				{
					"internalType": "address",
					"name": "new_devAddr",
					"type": "address"
				}
			],
			"name": "setDevAddr",
			"outputs": [],
			"stateMutability": "nonpayable",
			"type": "function"
		},
		{
			"inputs": [
				{
					"internalType": "uint256",
					"name": "new_ceiling",
					"type": "uint256"
				},
				{
					"internalType": "uint256",
					"name": "new_bonus_rate",
					"type": "uint256"
				},
				{
					"internalType": "uint256",
					"name": "new_redemption_delay",
					"type": "uint256"
				},
				{
					"internalType": "uint256",
					"name": "new_mint_fee",
					"type": "uint256"
				},
				{
					"internalType": "uint256",
					"name": "new_redeem_fee",
					"type": "uint256"
				},
				{
					"internalType": "uint256",
					"name": "new_buyback_fee",
					"type": "uint256"
				},
				{
					"internalType": "uint256",
					"name": "new_recollat_fee",
					"type": "uint256"
				}
			],
			"name": "setPoolParameters",
			"outputs": [],
			"stateMutability": "nonpayable",
			"type": "function"
		},
		{
			"inputs": [
				{
					"internalType": "uint256",
					"name": "new_mint_price_threshold",
					"type": "uint256"
				},
				{
					"internalType": "uint256",
					"name": "new_redeem_price_threshold",
					"type": "uint256"
				}
			],
			"name": "setPriceThresholds",
			"outputs": [],
			"stateMutability": "nonpayable",
			"type": "function"
		},
		{
			"inputs": [
				{
					"internalType": "address",
					"name": "new_timelock",
					"type": "address"
				}
			],
			"name": "setTimelock",
			"outputs": [],
			"stateMutability": "nonpayable",
			"type": "function"
		},
		{
			"inputs": [],
			"name": "toggleBuyBack",
			"outputs": [],
			"stateMutability": "nonpayable",
			"type": "function"
		},
		{
			"inputs": [
				{
					"internalType": "uint256",
					"name": "_new_price",
					"type": "uint256"
				}
			],
			"name": "toggleCollateralPrice",
			"outputs": [],
			"stateMutability": "nonpayable",
			"type": "function"
		},
		{
			"inputs": [],
			"name": "toggleMinting",
			"outputs": [],
			"stateMutability": "nonpayable",
			"type": "function"
		},
		{
			"inputs": [],
			"name": "togglePriceVerify",
			"outputs": [],
			"stateMutability": "nonpayable",
			"type": "function"
		},
		{
			"inputs": [],
			"name": "toggleRecollateralize",
			"outputs": [],
			"stateMutability": "nonpayable",
			"type": "function"
		},
		{
			"inputs": [],
			"name": "toggleRedeeming",
			"outputs": [],
			"stateMutability": "nonpayable",
			"type": "function"
		},
		{
			"inputs": [
				{
					"internalType": "address",
					"name": "newOwner",
					"type": "address"
				}
			],
			"name": "transferOwnership",
			"outputs": [],
			"stateMutability": "nonpayable",
			"type": "function"
		},
		{
			"inputs": [],
			"name": "unclaimedPoolCollateral",
			"outputs": [
				{
					"internalType": "uint256",
					"name": "",
					"type": "uint256"
				}
			],
			"stateMutability": "view",
			"type": "function"
		},
		{
			"inputs": [],
			"name": "unclaimedPoolGr",
			"outputs": [
				{
					"internalType": "uint256",
					"name": "",
					"type": "uint256"
				}
			],
			"stateMutability": "view",
			"type": "function"
		},
		{
			"inputs": [],
			"name": "unclaimedPoolSynth",
			"outputs": [
				{
					"internalType": "uint256",
					"name": "",
					"type": "uint256"
				}
			],
			"stateMutability": "view",
			"type": "function"
		}
	]
}